:020000040800F2
:10000000080D00203102000869290008C11F0008FE
:1000100065290008CD1A00089D3E00080000000078
:10002000000000000000000000000000D52F0008C4
:100030000B1D000800000000452E00087931000863
:100040004B0200084B0200084B0200084B0200085C
:100050004B0200084B0200084B0200084B0200084C
:100060004B0200084B0200084B0200084B0200083C
:100070004B0200084B0200084B020008D11A00088E
:100080004B0200084B0200084B0200084B0200081C
:100090004B0200084B0200084B0200084B0200080C
:1000A0004B020008493200084B0200084B020008CE
:1000B0004B0200084B0200084B0200084B020008EC
:1000C0004B0200084B0200084B0200084B020008DC
:1000D0004B020008ED3700084B0200080938000801
:1000E0004B0200084B0200084B0200084B020008BC
:1000F0004B0200084B0200084B0200084B020008AC
:100100004B0200084B0200084B0200084B0200089B
:100110004B0200084B0200084B0200084B0200088B
:100120004B0200084B0200084B0200084B0200087B
:1001300000F002F800F06CF80AA090E8000C82448D
:100140008344AAF10107DA4501D100F061F8AFF26A
:10015000090EBAE80F0013F0010F18BFFB1A43F0A5
:1001600001031847386600005866000010F8013B8C
:100170000A4413F0030408BF10F8014B1D1108BF17
:1001800010F8015B641E05D010F8016B641E01F8C5
:10019000016BF9D1002D15D010F8014B03F00C03C1
:1001A0000C2BA1EB04040ABF10F8013BA4EB831451
:1001B000A4EB032405F1010314F8016B5B1E01F8A5
:1001C000016BF9D5914238BF10F8013BD1D370478C
:1001D0000023002400250026103A28BF78C1FBD850
:1001E000520728BF30C148BF0B6070471FB500F0F1
:1001F00093F904000020002104F06CFF401C6060B3
:100200000020002104F050FFE0601FBD10B510BDBC
:1002100000F05CF91146FFF7E9FF04F08FFE00F0F3
:1002200009FC03B4FFF7F2FF03BC00F0E9FE000095
:100230000948804709480047FEE7FEE7FEE7FEE77A
:10024000FEE7FEE7FEE7FEE7FEE7FEE704480549B6
:10025000054A064B704700007D3100083101000857
:1002600008070020080D00200809002008090020C8
:1002700070B5064600F00CF80468054630460A22C0
:10028000002100F067F82C6070BD70477047704720
:1002900000487047A406002010B5FFF7F9FF00687A
:1002A00010BD10B50446FFF7F3FF046010BD000059
:1002B0000FB4002300B589B00CA900910B99CB6055
:1002C000214B7B440693214B7B44079304236FF01F
:1002D0000042CDE901321E4A7A446B46089202463A
:1002E000002006F03BF909B05DF814FB70B5064636
:1002F0004FF0FF3015460C46324686B00091CDE9EE
:10030000010169460020049004A8FFF7D1FF0246CE
:100310000498211825B108B1084600E0204628605D
:10032000049800280DD0002A02DD0098884208D0E9
:100330003246081B69460094CDE9010404A8FFF782
:10034000B7FF06B070BD00002901000041010000A8
:10035000010100002DE9F04791460F468046044612
:10036000002614F8015B2DB100F030F80068405D04
:10037000C007F6D12B2D02D02D2D18D0641E4A4671
:100380003946204600F053F827B13968A14201D11F
:10039000C7F800804FF0020471050BD540420028D9
:1003A00003DDFFF775FF0460A007BDE8F08746F4A2
:1003B0008066E4E70028F8DAFFF76AFF04606FF070
:1003C0000040F2E700487047A406002010B500F096
:1003D000A3F8001D10BD00BFFD4C000010B5044681
:1003E000FFF7F4FF0068005D00F0010010BD4268F7
:1003F00042B1016811F8013B23B1521EC0E900125D
:10040000184670470121C160881E704742685AB182
:10041000C368016843B983688B4205D0491E521CEA
:10042000C0E90012002070474FF0FF3070472DE9FF
:10043000F05F824615468B4600270AF10104B94653
:100440000078302801D09DB113E014F8010B01278A
:10045000782803D0582801D045B10AE00DB1102DFD
:1004600007D1002714F8010B102502E0082500E051
:100470000A250026B0460EE005FB080005FB06F144
:1004800001271FFA80F801EB1046B6F5803F00D334
:10049000B94614F8010B294600F042F80028EBDABF
:1004A000BBF1000F05D00FB1641E00E05446CBF83D
:1004B0000040B9F1000F06D0FFF7EAFE022101600B
:1004C000C81EBDE8F09F48EA0640FAE77546FFF708
:1004D00079FFAE4605006946534620F00700854681
:1004E00018B020B5FFF7B2FEBDE820404FF000067F
:1004F0004FF000074FF000084FF0000B21F007010C
:10050000AC46ACE8C009ACE8C009ACE8C009ACE84E
:10051000C0098D467047000000487047C40600209F
:100520003A2800D2303820F02002412A01D3A2F12B
:100530003700884201D34FF0FF3070472DE9FF4F5D
:1005400006468BB00878FF2806D0491C2D2805D018
:1005500000244FF0000908E000200CE00124F8E737
:1005600009EB8903491C00EB43090878FF28F7D100
:1005700014B1C9F100008146107800252C46AA4626
:1005800029462D2801D02B2804D1521C2D2813D008
:10059000002082468B461078FF280FD04FF0000CC9
:1005A0000A21521CA5FB017804FB018105FB0C11FB
:1005B000C5194BEB0104EEE70120EAE700210846EC
:1005C0004FF00000BAF1000F02D000EB80004008AD
:1005D000C0F38157012F01DD4FF0FF370E9955EA27
:1005E000040009EB01080BD04FF0020918F5FA7F5F
:1005F00016DA4FEACA70002F706008DD012007E0AC
:100600004FEACA70C6E900B00FB0BDE8F08F002015
:100610003060FFF73DFEC0F800901821084616E054
:10062000B8F5FA7F18DD002F02DAF748784401E0C8
:10063000F6487844D0E90010C6E9001040EACA70D4
:100640007060FFF725FEC0F80090142108460FB037
:10065000BDE8F04F05F01FBF002108464FF0000035
:10066000B8F10001099002DAC7F1000200E03A4651
:1006700001DAC8F1000106A800F026FA06AB93E8FB
:10068000070003AB83E8070044F23E005BEA040185
:100690000090584604D144F21E012C465D4600915C
:1006A000210C0904014306D10099240444EA1544AD
:1006B0002D041039009104F07F41014306D10099C7
:1006C000240244EA15642D020839009104F07041B7
:1006D000014306D10099240144EA15742D01091F34
:1006E000009104F04041014306D10099A40044EA7E
:1006F0009574AD00891E009104F00041084304D1B7
:1007000000986D196441401E00904FF001033A4675
:100710006846B8F1000FCDE9014503A902DD00F0FC
:1007200014FF01E000F0E7FEBAF1000F04460D46A9
:1007300001D084F00044002108464FF000000999E0
:1007400040F2FF77484010F00C0F07D124F0004032
:10075000284303D0C4F30A50B84212D1FFF798FDE2
:10076000C0F80090C4F30A50B8420AD1A8487844AF
:10077000D0E90010C6E9001004F0004108437060A1
:1007800042E7C6E900543FE72DE9FF4F1F464FF00F
:10079000000A4FF0FF38454691B0D7E90146CDF841
:1007A0003CA0FFF7B9FEC0680168405C1090B969D1
:1007B00012986D1C8847396A814688470028F6D10F
:1007C000B9F1FF3F0AD0002E24F4D06411DDB9F155
:1007D0002B0F08D0B9F12D0F0BD102E0404615B018
:1007E00013E744F48064B96912986D1C8847761E3B
:1007F0008146600504A901D52D2000E02B20002EA4
:1008000001F1010B0DF130088DF810003FDDB9F159
:10081000690F08D0B9F1490F05D0B9F16E0F02D0B8
:10082000B9F14E0F1CD13B4601A8009580E850025B
:10083000DDE912126FF0020005F094FEC11CCED16A
:100840000EE0B96912986D1C884781461398761E90
:1008500044F4007405600F98401C002E0F9016DDC4
:10086000B9F1300FEDD0B9F1780F02D0B9F1580FCE
:100870000DD10F9801280AD13B46CDE90054DDE99E
:100880001212001F029605F06BFEC11CA7D1109931
:1008900089453ED144F0800406E01399681CAAF112
:1008A000010A44F400740860B9696D1C1298761E40
:1008B000884730288146F0D02BE01099894505D132
:1008C000200603D4761E44F0800418E0484604F065
:1008D0001CF808B3761E0DF123018B4544F4007417
:1008E00008D2A9F130000BF8010B200607D5AAF1B8
:1008F000010003E0200602D40AF101008246A005AF
:1009000002D51399681C0860B96912986D1C884754
:100910008146002ED1DC53E0002E51DDB9F1650F88
:1009200002D0B9F1450F4BD1A00549D5B9696D1C6D
:100930001298761E24F440748847002E81460CDD00
:100940002B2804D0B9F12D0F07D144F48074B96974
:1009500012986D1C8847761E8146E00501D52D2131
:1009600000E02B2108F8011BCDF8008021E0761E65
:100970000DF13901884544F400740CD2A9F130001E
:1009800010F0FF0088F8000002D10099884509D9CD
:1009900008F1010806E0E00501D51E4801E042F239
:1009A0000F708246B96912986D1C8847814613986A
:1009B0000560002E04DD484603F0A7FF0028D6D1CD
:1009C000F96912988847FF2053468BF8000088F891
:1009D000000000200A900B9004AA0CA90AA8FFF7B7
:1009E000ADFDA00502D46FF00100F8E614F0240F6D
:1009F00012D0E0071CD13868DDE90A12031D3B6004
:100A00000068C0E9001213E09461000086610000F4
:100A10004A600000F1D8FFFF0AA9684603F004FF0E
:100A2000E00705D13868009A011D3960006802604E
:100A30002846D4E610B50446AFF300802046BDE852
:100A40001040FFF7EEBB00004FF0013C50F8042BC4
:100A500051F8043B9A4221D1A2EB0C03934313EAD1
:100A6000CC1317D150F8042B51F8043B9A4215D1FE
:100A7000A2EB0C03934313EACC130BD150F8042BD5
:100A800051F8043B9A4209D1A2EB0C03934313EAB9
:100A9000CC13DBD04FF00000704700BFD01A01BA72
:100AA000B1FA81F101F0180122FA01F0CB40C1F155
:100AB0002001DBB2C0B2C01A2CFA01F3D11A914363
:100AC00011EAC311E6D170472DE9F0478146164679
:100AD0008AB0354878440DC88DE80D003248784416
:100AE000801C03AC0DC884E80D0041F69B3008441F
:100AF000372190FBF1F290FBF1F5A5F1800501FBA8
:100B000012041B3C02D56442012000E00020DFF803
:100B100098A080460027FA44AAF1BE0A0EE0E0073A
:100B20000AD03246684607EB470101230AEB8101F0
:100B300000F0F6FC8DE8070064107F1C002CEED15D
:100B4000194F7F44AE3F19E0E80715D007EB0410BA
:100B50000DF1180A90E80E008AE80E00C068F04215
:100B600001D1981908903246012306A903A800F084
:100B7000D7FC03AB83E807006D10641C002DE3D1A4
:100B80004FF0010332466946B8F1000F03A802D0C6
:100B900000F09CFC01E000F0C3FCC9E90001C9F8C9
:100BA00008200AB0BDE8F087AC5C00002DE9FF4FDB
:100BB0001F464FF03C0987B04FF00042DDE91410AA
:100BC00001F10108DDF858A002EA4050039000202E
:100BD00005908346054604460490B969461E089868
:100BE0008847AAF1010A0290BAF1000F3BDD029892
:100BF0002E2815D01021FFF793FC00282EDB4FF094
:100C0000010B0599014317D0B9F1000F0BDB4A46E0
:100C1000C11700F0FBF905430C43A9F1040905E0F5
:100C2000012004900BE008B145F00105012005907A
:100C3000049820B9361D02E0049800B1361FB96946
:100C4000089808F101088847BBF1000FAAF1010AD2
:100C50000290C9D00999C1F80080C5E702987028B0
:100C600008D0502806D0F96908988847BBF1000FD2
:100C700014D04FE0002002900120BBF1000F04903F
:100C800009D0B969089808F101088847AAF1010953
:100C9000B9F1000F07DCF969089888476FF0010087
:100CA0000BB0BDE8F08F2B2804D02D280CD14FF0CD
:100CB000FF300490B969089808F101088847A9F144
:100CC0000109B9F1000FE6DD411CE4D00A21FFF76C
:100CD00027FC0028DFDB029908F1010801EB810104
:100CE00000EB41000290B969089888470A21FFF794
:100CF00017FC099AA9F10109B9F1000FC2F80080A7
:100D000001DD0028E7DAF969089888470499029814
:100D100000FB016655EA040004D004F040410900DC
:100D200002D006E0039898E0A40044EA9574AD0070
:100D3000B61E04F00041080002D16D196441761E10
:100D4000159810F0240F03D04FF00B095C4803E016
:100D50004FF028096FF07D008246564507DAAAEB6E
:100D600006018944B9F1410F01DD4FF0410901202D
:100D70000021A9F1010200F049F9024628400B4682
:100D80002140084301D0012100E00021501E0291C2
:100D900043F1FF3128402140084301D0012000E009
:100DA00000200299834651EA0B014FD000210846EA
:100DB0004FF00000039900F4400039B100EB8000CF
:100DC0004FF4400100EBD07001EA6000801501286B
:100DD00002DD4FF0FF3000E013D0401C36D0029807
:100DE00060B3BBF1000F0CD14A460120002100F096
:100DF0000DF928402140084301D0012000E00020E7
:100E0000E0B101204A46002100F000F903464019F4
:100E10000A4661412D1A8C4111D3B9F1400F09DD09
:100E2000159810F0240F02D0AAF1340603E0AAF1BD
:100E3000170600E0761C00254FF0004406E05B1E1C
:100E400042F1FF3220EA030521EA0204CAF101005F
:100E5000B04206DA1B490398084301900020009035
:100E60000EE0039AC4F3D321E80A0A43164940EA84
:100E700044500A433146CDE90002684603F03AFD8A
:100E8000159810F0240F0BD01598C00715D13868AD
:100E9000DDE90012031D3B600068C0E900120CE0B0
:100EA00002A8694603F0C0FC1598C00705D1386850
:100EB000029A011D3960006802604046F0E60000B9
:100EC00002FCFFFF0000F07F0000F03F2DE9FF4F24
:100ED00092461D4685B04FF00041DDE9124BDDE939
:100EE00014727F1E01EA4B50414940F0FF4940EA2D
:100EF0000108002122F020004928049102D04E2848
:100F000028D04CE03BA0012607C88DE80700A9695E
:100F10000698641C88477F1E014606D41DF806000B
:100F200018B121F0200181420BD0E9690698884769
:100F3000032E34D0082E32D06FF0010009B0BDE886
:100F4000F08F761C032E01D0082EE0D1601CCAF869
:100F50000000DCE7A9690698641C88477F1E2AD434
:100F600020F02000412826D1A9690698641C8847F2
:100F70007F1E20D420F020004E281CD1A96906989D
:100F8000641C88477F1E48F4002849F48009CAF889
:100F9000004001D4282806D0E969069888475FEA0E
:100FA000CB7012D022E0A9690698641C88477F1E86
:100FB00001D4002803DAE96906988847BCE72928A4
:100FC000F1D1641CCAF80040E9E71BF0240F07D0F8
:100FD00028680499031D2B600068C0E9001805E02B
:100FE0002868021D2A600068C0F800902046A5E726
:100FF0000000F07F494E46494E4954590000000018
:1010000001491820ABBEFEE726000200B2F1200322
:101010000AD5C2F1200301FA02F120FA03F300FA23
:1010200002F041EA0301704700FA03F14FF00000BB
:101030007047704720F07F4C80EA030023F07F4721
:10104000ACEB070303F57C5300F0004003F1FF0312
:101050002DE980494FEA154B09B44FEA144325EABC
:101060000B4E24EA03480FF2042606EB1327490827
:101070003E785FEA320203FB0667C7F5000707FB0D
:1010800006F64FEA54374FEAD64606F1020607FB4A
:10109000066CCCF1005C4FEA1C472CEA074C07FBBE
:1010A00006F40CFB06F504EB15464FEA961634BF22
:1010B00000204FF000404FEAD13706FB07FC4FEA13
:1010C0001C4C0CFB0BF7D21B03FB0CF761EB07016D
:1010D0000CFB0EF7B0EB074072EB17420CFB08F766
:1010E00034BFA2EB0742B2EB074261EB17414FEA74
:1010F0000C444FEA910706FB07FC4FEA1C4C0CFB23
:101100000BF7B0EBC74072EB573203FB0CF734BF61
:10111000A2EBC742B2EBC74261EB57310CFB0EF7B3
:10112000B0EBC70072EB57720CFB08F734BFA2EBB1
:10113000C702B2EBC70261EB5771039F4FEA8161AF
:1011400041EA921104EBCC044FEAD1374FEA8262B4
:1011500006FB07FC42EA90124FEA80604FEA1C4C03
:101160000CFB0BF7D21B03FB0CF761EB07010CFB2D
:101170000EF7B0EB074072EB17420CFB08F734BFD9
:10118000A2EB0742B2EB074261EB17414FEA8C55E5
:101190004FEA910704EB9C2406FB07FC4FEA1C4C2A
:1011A0000CFB0BF7B0EBC74072EB573203FB0CF7AD
:1011B00034BFA2EBC742B2EBC74261EB57310CFB25
:1011C0000EF7B0EBC70072EB57720CFB08F734BF99
:1011D000A2EBC702B2EBC70261EB577115EB4C25CE
:1011E0004FEA816141EA92114FEA82624FEAD137B8
:1011F00042EA901206FB07FC44F100044FEA8060CB
:101200004FEA1C4C0CFB0BF7D21B03FB0CF761EBFA
:1012100007010CFB0EF7B0EB074072EB17420CFB1B
:1012200008F734BFA2EB0742B2EB074261EB17416C
:1012300015EB1C154FEA813141EA92414FEA8232A7
:1012400042EA90424FEA80304FEA0C7644F10004C3
:1012500048EA03434EEA0B484FF0000EB2EB080C8D
:1012600071EB030724BF624639464EEB0E0E4FF07A
:10127000000B0018524149414BEB0B0BB2EB080C31
:1012800071EB03077BF1000B24BF624639464EEB3E
:101290000E0E4FF0000B0018524149414BEB0B0B67
:1012A000B2EB080C71EB03077BF1000B24BF624625
:1012B00039464EEB0E0E51EA020718BF46F0010602
:1012C00016EB0E7655F1000254F1000103D5BDE88E
:1012D0008901BDE80088BDE88901BDE80048B6196C
:1012E000524141EB0101A3F10103704780807F7EF1
:1012F0007D7C7B7A7978777676757473727171708C
:101300006F6E6E6D6C6C6B6A6A696868676666653D
:101310006464636362616160605F5F5E5E5D5D5CCB
:101320005C5B5B5A5A59595858575756565555553C
:101330005454535352525251515050504F4F4F4E9C
:101340004E4D4D4D4C4C4C4B4B4B4A4A4A494949EA
:10135000484848474747474646464545454444442C
:1013600044434343434242424241414146EA0646E6
:10137000A3F570534FEA164646EA42564FEAD22288
:1013800042EA415210B54FEAD121A3F1010300F026
:101390002FF820F0004000F1020C00F0004701EBB4
:1013A00000501146BCF5006F40EA070000D210BDA6
:1013B000BAF1000F0AD01CB503B44FF004004FF08F
:1013C00004014FF000000FBCBDE810404FF00001D9
:1013D000BBF1010FB9BF04484FF0FF3103480021B2
:1013E00040EA070010BD00BFFFFFEF7F0000F07F65
:1013F000002B9C4630D477002BD01CB54FEA370722
:1014000003B44FF010004FF01001BAF1000F06D0F6
:10141000BCF1000FDCBF40F0080040F008014FF0C5
:1014200000000FBCBDE810400BF1010BBBF1010F38
:1014300008BF5FEA170722BF12F1010211F1010193
:101440004FF0004143F1000300F0004043EA000088
:101450007047F9D35708D0E746EA064613F1400F24
:101460004FEA16461FDD13F1200FDFBF16430A4671
:10147000002120335B42BED0C3F1200746EA064676
:1014800002FA07F74FEA164646EA0706C3F12007B5
:1014900022FA03F201FA07F721FA03F14FF00003F1
:1014A00042EA0702A7E746EA020646EA06464FEA8C
:1014B000164646EA0106BCBF46EA0646360C4FF021
:1014C00000034FF000024FF0000194E72DE9804C3B
:1014D0009A46934670B491E8380007C831EA400C48
:1014E00048BF34EA430C03D5FFF7A4FDFFF780FFA4
:1014F000F0BCBDE8008C2DE9804C9A46934670B450
:1015000091E8380007C831EA400C48BF34EA430C80
:1015100003D5FFF78FFDFFF729FFF0BCBDE8008C76
:101520002DE9804C9A46934670B491E8380007C87C
:1015300010F0804F08BF13F0804F03D100F01AF86D
:10154000FFF756FFF0BCBDE8008C2DE9804C9A46B1
:10155000934670B491E8380007C810F0804F08BF78
:1015600013F0804F03D100F005F8FFF7FFFEF0BC49
:10157000BDE8008C20F07F4780EA030023F07F4C19
:1015800007EB0C03A3F57C5300F00040A3F1FE032E
:1015900092F0000F00F0B38095F0000F00F077801C
:1015A0002DE901494FEA11404FEA144621EA00486B
:1015B00000FB06FC24EA064708FB06F607FB08F8D2
:1015C00000FB07F718EB06484CEB164C4FEA124BA2
:1015D00018EB07484FEA15464CEB174022EA0B4E32
:1015E0000BFB06FC25EA06470EFB06F607FB0EFE84
:1015F0000BFB07F71EEB064E4CEB164C4FF00006AC
:101600001EEB074E4CEB174B18EB0B0840F100009C
:1016100018EB0E0B58EB000840F100008F1A4FF04A
:1016200000013CBFC943661B14BFB5EB040C00218D
:101630003CBFC943F61B4FEA17444EEA8E0E27EA19
:1016400004454FEA1C4704FB07622CEA074C05FBE4
:1016500007F70CFB05F604FB0CFC16EB074642EB08
:10166000174216EB0C4642EB1C421BEB060658EBEE
:101670000202414146EA9E0601D5BDE80189B6193C
:10168000524141EB0101A3F10103BDE801894FEA99
:1016900014454FEA114724EA054621EA074C05FBA9
:1016A00007F406FB07F70CFB06F105FB0CFC11EB3E
:1016B000074144EB17444FEA124711EB0C4144EB4E
:1016C0001C4422EA074C05FB07F206FB07F70CFB5C
:1016D00006F605FB0CFC16EB074642EB174216EB31
:1016E0000C4642EB1C456A1854F1000148BF704794
:1016F000B619524141EB0101A3F10103704795F086
:10170000000F37D04FEA11424FEA144721EA024650
:1017100024EA074C02FB07F106FB07F70CFB06F473
:1017200002FB0CFC14EB074441EB17414FEA154751
:1017300014EB0C4441EB1C4125EA074C02FB07F576
:1017400006FB07F70CFB06F602FB0CFC16EB074644
:1017500045EB174516EB0C4645EB1C42121951F1AF
:10176000000148BF7047B619524141EB0101A3F196
:10177000010370474FEA14454FEA114724EA054632
:1017800021EA074C05FB07F106FB07F70CFB06F205
:101790004FF0000605FB0CFC12EB074241EB174132
:1017A00012EB0C4251EB1C4148BF7047921841EBC1
:1017B0000101A3F10103704721B1826842F00102E7
:1017C000826003E0826822F001028260704721B1EA
:1017D000826842F48072826003E0826822F4807240
:1017E0008260704700B58BB00121084601F038FBDC
:1017F000114800F0BDF9114800908015069010487E
:101800000190002002900A904FF4806007908020A1
:1018100005900020049020200890000209900420E8
:1018200003906946044800F052FA0121024800F092
:1018300093F90BB000BD0000080002404C240140A9
:101840006804002010B504461248844208D10121E2
:10185000401501F045FB0021601501F041FB17E048
:101860000D48844208D10121001501F039FB002107
:10187000201501F035FB0BE00848844208D1012116
:10188000C80301F02DFB00214FF4004001F028FBBC
:1018900010BD00000024014000280140003C014030
:1018A000014600208A6802F004020AB1012000E02B
:1018B00000207047014600208A6802F008020AB141
:1018C000012000E00020704730B5024600200023D0
:1018D00050680F4C20400D790C6844EA05242043E1
:1018E000506090680B4C2040D1E902542C434D7954
:1018F00044EA450420439060D06A20F470000C7CD8
:10190000641EE4B2234340EA0350D06230BD0000BD
:10191000FFFEF0FFFDF7F1FFF0B504460D46002095
:101920000021092D11DDE068A5F10A0606EB460746
:10193000072606FA07F18843A5F10A0606EB4606D4
:1019400003FA06F10843E0600CE0206905EB450767
:10195000072606FA07F1884305EB450603FA06F168
:1019600008432061072A0FDA606B561E06EB8607D4
:101970001F2606FA07F18843561E06EB860605FA6F
:1019800006F10843606322E00D2A0FDA206BD61FB0
:1019900006EB86071F2606FA07F18843D61F06EBDB
:1019A000860605FA06F10843206310E0E06AA2F11A
:1019B0000D0606EB86071F2606FA07F18843A2F1FB
:1019C0000D0606EB860605FA06F10843E062F0BD57
:1019D000816841F008018160704721B1826842F45A
:1019E000A002826003E0826822F4A0028260704755
:1019F000816841F0040181607047000000B587B044
:101A000001214FF4017001F05BFA4FF4404001F006
:101A10001BFA0F20ADF8040000208DF8070001A983
:101A2000284800F073F92848FFF70CFF00200290C7
:101A300001208DF80C008DF80D004FF4602004900B
:101A40000020059004208DF8180002A91E48FFF719
:101A50003BFF0623012200211B48FFF75DFF062301
:101A6000022201211848FFF757FF06230322022113
:101A70001548FFF751FF0623042203211248FFF700
:101A80004BFF01211048FFF7A2FE01210E48FFF78E
:101A900093FE0D48FFF79CFF00BF0B48FFF70AFFBE
:101AA0000028FAD10848FFF7A3FF00BF0648FFF758
:101AB000F7FE0028FAD101210348FFF78EFF07B097
:101AC00000BD0000000801400024014000BFFEE707
:101AD00070B500254FF4003000F030F800201349B5
:101AE00008701348B0F90800401CE8B9002409E068
:101AF0000F4801780930001B0078081A0C4908705B
:101B0000601CC4B20A2CF3D30948007860B90948B4
:101B100007490A6802604A68426009890181807940
:101B200000F001000449086070BD00004C04002072
:101B30009A06002090060020B801224200F0805151
:101B400011B10349086001E0024948607047000094
:101B5000040402400000024021B1026842F0010288
:101B6000026004E002684FF6FE731A40026070479C
:101B700001684FF6FE721140016000210160416072
:101B80008160C1604B49884208D14A490839496897
:101B900041F00F01474A083A51608AE04549143143
:101BA000884208D143490839496841F0F001414A67
:101BB000083A51607DE03F492831884208D13D49CB
:101BC0000839496841F470613A4A083A516070E056
:101BD00038493C31884208D136490839496841F4CE
:101BE0007041344A083A516063E0324950318842CA
:101BF00008D130490839496841F470212D4A083A22
:101C0000516056E02B496431884208D1294908398E
:101C1000496841F47001274A083A516049E0254972
:101C20007831884208D123490839496841F0706108
:101C3000204A083A51603CE01F49884206D1011F02
:101C4000096841F00F01021F116032E01A49143196
:101C5000884208D11849091F096841F0F001164A65
:101C6000121F116025E014492831884208D1124919
:101C7000091F096841F470610F4A121F116018E0D2
:101C80000D493C31884208D10B49091F096841F4CC
:101C90007041094A121F11600BE007495031884218
:101CA00007D10549091F096841F47021024A121F32
:101CB0001160704708000240080402401AB103682E
:101CC0000B43036002E003688B430360704710B569
:101CD0000022026847F6F0739A430C6A8B6823432C
:101CE0000C6923434C6923438C692343CC69234308
:101CF0004C6A23438C6A23431A430260CB684360D7
:101D00000B6883604B68C36010BD70472DE9F041DC
:101D1000024600250026002000230024002791F819
:101D200003C00CF00F0591F803C00CF0100CBCF1CF
:101D3000000F03D091F802C04CEA050591F800C0ED
:101D4000BCF1000F31D0146800202BE04FF0010CE3
:101D50000CFA00F3B1F800C00CEA03069E4220D151
:101D600083004FF00F0C0CFA03F7BC4305FA03FC99
:101D70004CEA040491F803C0BCF1280F06D14FF0DF
:101D8000010C0CFA00FCC2F814C00AE091F803C080
:101D9000BCF1480F05D14FF0010C0CFA00FCC2F861
:101DA00010C0401C0828D1D31460B1F800C0BCF1A9
:101DB000FF0F34DD546800202EE000F1080C4FF0D6
:101DC000010808FA0CF3B1F800C00CEA03069E42C1
:101DD00021D183004FF00F0C0CFA03F7BC4305FA36
:101DE00003FC4CEA040491F803C0BCF1280F05D1B0
:101DF00000F1080C08FA0CF8C2F8148091F803C03E
:101E0000BCF1480F07D100F1080C4FF0010808FAA7
:101E10000CF8C2F81080401C0828CED35460BDE8EE
:101E2000F0810000F0B50A460023002400210025BF
:101E300000F00046B6F1004F02D11D4EF16901E0FD
:101E40001B4E7168C0F3034583B200F44016B6F52B
:101E5000401F08D121F07061154E766826F070663B
:101E6000134F7E6012E000F48016B6F5801F06D195
:101E7000032606FA05F4A14341F0706106E0460D21
:101E8000360103FA06F6B14341F0706122B1460D06
:101E9000360103FA06F6314300F00046B6F1004F72
:101EA00002D1034EF16101E0014E7160F0BD00000E
:101EB000000001400161704700B58DB00D208DF824
:101EC000300003208DF8310002208DF8320001200F
:101ED0008DF833000CA800F049FD0121084600F000
:101EE000BFFF1D48FFF744FE1C4801901C480290AC
:101EF00000200390C82004900020059080200690C8
:101F000000200790089009904FF400500A9000209C
:101F10000B9001A91048FFF7DAFE00210F48001FBF
:101F200001F016FF4FF40030FFF708FE4FF4802059
:101F3000FFF704FE01210848FFF70EFE01224021B1
:101F40000648001F01F010FF01210448001F01F0A6
:101F5000FFFE0DB000BD000030000240044800400C
:101F60006005002010B54FF4165001F0F9FBFFF7A3
:101F7000A3FF10BD002100BF0FE00F4830F8110093
:101F800001EB41020D4B33F81220104401EB4102EA
:101F900003EB42029080481CC1B20429EDDB0748E4
:101FA000808840F67B4250434FF47A7290FBF2F007
:101FB000024A50800120704768040020500400202D
:101FC00000BFFEE72DE9F0470746894616461D4645
:101FD0000024A0460121574800F07AF906E0B4F544
:101FE000807F02D90020BDE8F087641C5249514827
:101FF00000F030F90028F2D000247806010E00220B
:102000004C4800F0F7F905E0B4F5807F01D90020D5
:10201000E9E7641C4949474800F01CF90028F3D05F
:1020200000244946434800F0EEF905E0B4F5807F0E
:1020300001D90020D7E7641C4049891E3D4800F0C3
:1020400009F90028F2D00024012D03D001213948DC
:1020500000F0F4F80121374800F03AF905E0B4F552
:10206000807F01D90020BEE7641C3349314800F06D
:10207000F1F80028F3D02F481430008800247806A7
:10208000010E01222B4800F0B5F905E0B4F5807F80
:1020900001D90020A7E7641C2749491C254800F006
:1020A000D9F80028F2D0234814300088214818308D
:1020B000008800244FF0010810E000BF1E493F31A6
:1020C0001C4800F0C7F80028F8D01A4800F08EF934
:1020D00006F8010B08F1010000F0FF08A845ECDB51
:1020E000012D07D000BF14493F31124800F0B2F86B
:1020F0000028F8D000210F4800F0A0F8012D01D0F1
:10210000012000E0002001460A4800F0EDF80948EF
:1021100000F06CF9307000BF07493F31054800F00E
:1021200099F80028F8D00121024800F087F8012032
:1021300059E700000054004001000300820007003E
:102140002DE9F047064689461746984600240025A3
:1021500001212C4800F0BCF806E0B4F5807F02D9DC
:102160000020BDE8F087641C2749264800F072F87B
:102170000028F2D000247006010E0022214800F051
:1021800039F905E0B4F5807F01D90020E9E7641C46
:102190001E491C4800F05EF80028F3D00024494690
:1021A000184800F030F905E0B4F5807F01D900202F
:1021B000D7E7641C1549891C124800F04BF8002829
:1021C000F2D00024002514E0795D0E4800F01BF9E0
:1021D00005E0B4F5807F01D90020C2E7641C0B49FB
:1021E000891C084800F036F80028F2D00024681C4A
:1021F000C5B24545E8DB0121024800F075F8012031
:10220000AFE7000000540040010003008200070017
:1022100038B504460D4601236A4629462046FFF795
:10222000D1FE9DF8000038BD37B504460D460123A8
:1022300002AA29462046FFF783FF3EBD21B102884E
:1022400042F48062028004E002884FF6FF331A40B5
:102250000280704770B5024600240025002300204C
:10226000958A138B1B0445EA030626F07F4404EA93
:1022700001068E4201D1012000E0002070BD21B195
:10228000028842F00102028004E002884FF6FE73E9
:102290001A4002807047000010B504460B48844283
:1022A00009D10121480500F0FBFD00214FF4001089
:1022B00000F0F6FD08E00121880500F0F1FD0021A5
:1022C0004FF4800000F0ECFD10BD00000054004011
:1022D00021B1028842F48072028004E002884FF645
:1022E000FF631A400280704721B1028842F40072F5
:1022F000028004E002884FF6FF531A4002807047C4
:102300002DE9F04385B004460D460026B14604276A
:10231000DFF8CC80A6884FF6C0700640684600F013
:10232000EFFDDDF808802F48B8FBF0F01FFA80F9C8
:1023300046EA0906A68020884FF6FE7108402080F4
:1023400000262949286888420CD828684000B8FB34
:10235000F0F087B2042F00DA04273E4309F10100B0
:10236000208427E0E8884BF6FF71884206D1286870
:1023700000EB4000B8FBF0F087B209E0286800EB02
:10238000C00101EB0010B8FBF0F087B247F48047C2
:10239000C7F30B0008B947F0010747F400400643B4
:1023A0004FF4967009FB00F04FF47A7190FBF1F056
:1023B000401C2084A683208840F0010020802688CD
:1023C0004FF6F5300640A888698908430643268001
:1023D000A88929890843208105B0BDE8F083000061
:1023E00000127A0040420F00A08601000146088AD0
:1023F000C0B2704712B141F0010102E04FF6FE7326
:1024000019400182704701827047000008B5012120
:10241000102000F055FD4FF4C040ADF80000102032
:102420008DF8030002208DF8020069460648FFF788
:102430006DFC4FF400510448FFF73CFD4FF4804120
:102440000148FFF737FD08BD001001402DE9FF5F8F
:102450004FF0000ADFF864B10E236A463B21682082
:10246000FFF7B0FD18B9002004B0BDE8F09F0FE001
:10247000012000EB4A001DF800001DF81A1040EA88
:10248000012000B22BF81A000AF1010000F0FF0A47
:10249000BAF1070FECDB49480189B0F8760008442F
:1024A00000B24649088108464189B0F878000844DE
:1024B00001B2424841818189B0F87A00084401B2F2
:1024C0003E48818100883D49B1F87010084400B24F
:1024D0003A49088008464188B0F87200084400B2C2
:1024E0003649488008468188B0F87400084400B234
:1024F00032498880B1F9080003F0E1F80446304A17
:10250000304B03F043F92D4AC2E90A011146B1F9F3
:102510000A0003F0D4F80446294A2A4B03F036F99E
:10252000264AC2E90C011146B1F90C0003F0C7F8C4
:102530000446234A234B03F029F9204AC2E90E013D
:102540001146B1F9000003F0BAF804461E4A1F4BC9
:1025500003F01CF9194AC2E904011146B1F902005D
:1025600003F0ADF80446184A184B03F00FF9134A6C
:10257000C2E906011146B1F9040003F0A0F80446CF
:10258000114A124B03F002F90C4AC2E90801114644
:10259000B1F9060003F093F880460D4A0D4B03F0A5
:1025A000F5F8064600220C4B02F0DCFD044603F071
:1025B00029F800B20149C880012055E788040020AD
:1025C000B0977D893E409F3F8B16E742C199533FAC
:1025D0002E8ECA4DD4D2D23F008AAC4010B50446EC
:1025E0003CB180226B216820FFF71EFEC82002F05C
:1025F00057FB00226B216820FFF716FE10221B21DB
:102600006820FFF711FE08221C216820FFF70CFE4E
:1026100005221A216820FFF707FE002238216820D2
:10262000FFF702FE00226A216820FFF7FDFD00226D
:1026300023216820FFF7F8FD802237216820FFF76B
:10264000F3FD75216820FFF7E3FD682808D101221A
:102650006B21FFF7E9FD00226C216820FFF7E4FD04
:1026600026210C48A0F876106FF00801A0F8781029
:102670000D21A0F87A1000200649A1F87000002171
:102680000448A0F8721040F20D21A0F87410012047
:1026900010BD0000880400202DE9F04F87B0A3484A
:1026A000D0E90443A2482246D0E90061304602F056
:1026B00059FD9F4A03C29D48D0E906439C482246E3
:1026C000D0E90261304602F04DFD994AC2E90201AB
:1026D0009648D0E9084310462246D0E904613046C6
:1026E00002F040FD924AC2E90401924800780A21B2
:1026F00090FBF1F201FB120000287DD18C480146CD
:10270000D0E90443D1E904612246304603F03EF8A3
:10271000CDE902018648D0E902432246D0E90261B0
:10272000304603F033F8804689468148D0E90043BB
:102730002246D0E90061304603F028F8824642463E
:102740004B4602F00FFDCDE90001DDE9022302F066
:1027500009FDCDE9040102F081FC774A03C20022A1
:10276000764B754903C903F00FF953D20022744B1D
:10277000714903C902F0CEFF4CD26C49B1F9040093
:1027800003F0C0FC06466949B1F9000003F0BAFC49
:102790000746314602F0AAFA05466A4903F0A0FB53
:1027A000044603F003FB614AC2E914011146B1F982
:1027B000020003F0A7FC06465C49B1F9000003F0F3
:1027C000A1FC0746314602F091FA05465D4903F047
:1027D00087FB044603F0EAFA544AC2E910011146A5
:1027E000B1F9020003F08EFC06465049B1F904002D
:1027F00003F088FC074600E017E0314602F076FA65
:102800000546504903F06CFB044603F0CFFA474AF3
:10281000C2E912010020474908700021444A1161B1
:1028200051619160D1601160516042480078401C54
:10283000404908703D49B1F90A0002F040FF804666
:10284000414A424B02F0A2FF0646414A414B02F088
:102850009DFF04463548D0E914633246204603F014
:10286000C9F8324AC2E914011146B1F90C0002F06C
:1028700026FF0646344A354B02F088FF0446344AA8
:10288000344B02F083FF80462848D0E910432246AB
:10289000404602F067FC254AC2E910011146B1F931
:1028A000080002F00CFF8046274A284B02F06EFF1A
:1028B0000646274A274B02F069FF04461B48D0E929
:1028C00012633246204603F095F8184AC2E9120115
:1028D000104600221346D0E91441204603F054F874
:1028E0000BD21248D0E91443224600201A4903F0C3
:1028F00073F90E4AC2E91A010AE00C48D0E9144300
:1029000022460020154903F067F9084AC2E91A0176
:102910000648D0E9124322460020114903F05CF931
:10292000024AC2E9180107B0BDE8F08F8804002010
:1029300008050020380400204004002000C0574053
:1029400000405A4034FA8E3CB0977D893E409F3F0C
:102950007B14AE47E17A843F00806640008066C009
:10296000008056C000BFFEE77047000070B5002130
:1029700000230F22C47804B3154C246804F4E064E7
:10298000C4F5E064210AC1F10403CA40447804FAA2
:1029900003F184781440214309010E4C0678A155B7
:1029A000047804F01F050124AC4005786D11AD00DA
:1029B00005F1E025C5F8004109E0047804F01F05A1
:1029C0000124AC40044D0678761145F8264070BDD0
:1029D0000CED00E000E400E080E100E0024901438A
:1029E000024A1160704700000000FA050CED00E09B
:1029F00030B589B004460D460121032000F040FAAD
:102A000001210D2000F05CFA01215F48FFF70AFA6E
:102A100001215E48FFF706FA01215D48FFF702FA3F
:102A200001215C48FFF7FEF93B20ADF8200018209B
:102A30008DF8230003208DF8220008A95648FFF7DF
:102A400065F94FF40040ADF8200018208DF8230000
:102A500003208DF8220008A95048FFF757F9ADF878
:102A60001840ADF814500020ADF81A00ADF816006B
:102A700005A94B4800F022FE05A94FF0804000F068
:102A80001DFE7020ADF804000120ADF80600022004
:102A9000ADF80C0001A9424800F0ACFC01A9404887
:102AA00000F05EFD01A93E4800F0B4FD01A94FF021
:102AB000804000F09FFC01A94FF0804000F0F0FC46
:102AC0000821374800F0E2FC0821354800F03AFDC3
:102AD0000821334800F094FD0821314800F0D8FD6A
:102AE0000821C80600F0D2FC0821C80600F02AFD23
:102AF0004FF4FA702B49088040F21630488040F2BB
:102B0000B220888040F20730C88040F21630088139
:102B100000204881002123488181C18101824182B6
:102B20000088204A5289104481B24FF0804000F062
:102B3000BEFD1C4842888089104481B2184800F0CC
:102B4000BAFD18488288C089104481B2144800F048
:102B5000B0FD1448C288008A104481B2104800F0C9
:102B6000A4FD10480289408A104481B24FF0804091
:102B700000F09BFD01210A4800F016FC01218807A6
:102B800000F012FC09B030BD00081A000001180066
:102B90000001300000023000000C0140000801403C
:102BA00000040040600600202DE9FC5F9B4800788F
:102BB00090B19B48B0F936001E2803DD9620994954
:102BC000488102E000209749488100219548818191
:102BD000C18101824182F4E09349487802F086FD88
:102BE00006460022914B02F0D1FD044602F00AFD98
:102BF00000B28C4948818C494979A1F1640002F006
:102C00005EFD06460F4688498978A1F1640002F00E
:102C100056FD80460022864B02F0B8FD32463B4608
:102C2000CDE9000102F0D8FF82460022814B02F07C
:102C300071FD02D200207F4939E07B494979A1F139
:102C4000640002F03CFD06460F4677498978A1F101
:102C5000640002F034FD82460022754B02F096FDBE
:102C6000804632463B4602F0B7FF0022724BCDE968
:102C7000000102F089FE02D200206F4917E06A4984
:102C80004979A1F1640002F01AFD06460F46664933
:102C90008978A1F1640002F012FD80460022644BA5
:102CA00002F074FD824632463B4602F095FF044630
:102CB00002F0A8FC01B25B4881815B494979A1F12E
:102CC000640002F0FCFC06460F4657498978A1F1E2
:102CD000640002F0F4FC82460022554B02F056FDDF
:102CE000804632463B4602F03DFA0022514BCDE988
:102CF000000102F00FFD02D200204E4939E04A499E
:102D00004979A1F1640002F0DAFC8046894646491F
:102D10008978A1F1640002F0D2FC06460022444BFF
:102D200002F034FD824642464B4602F01BFA002276
:102D3000414BCDE9000102F027FE02D200203E49BE
:102D400017E039494979A1F1640002F0B8FC064660
:102D50000F4635498978A1F1640002F0B0FC804645
:102D60000022334B02F012FD824632463B4602F00F
:102D7000F9F9044602F046FC01B22A48C1812A4909
:102D8000C978A1F1640002F09AFC064600222B4BA0
:102D900002F0FCFC044602F035FC01B2214801823D
:102DA00021490979A1F1640002F089FC064600225C
:102DB000224B02F0EBFC044602F024FC01B219485D
:102DC000418218480088174A5289104481B24FF056
:102DD000804000F06CFC134842888089104481B226
:102DE000174800F068FC0F488288C089104481B2FF
:102DF000134800F05EFC0B48C288008A104481B280
:102E00000F4800F052FC07480289408A104481B202
:102E10004FF0804000F049FCBDE8FC9F4D040020CD
:102E200020050020600600209006002000000440DD
:102E30000000F8BF00C062C000C062400000F83F60
:102E4000000400407047000001460020034A50681B
:102E500020F44040084350607047000000100240DA
:102E600029B1064A52690243044B5A6104E0034AFD
:102E700052698243014B5A617047000000100240C2
:102E800029B1064AD2690243044BDA6104E0034ADD
:102E9000D2698243014BDA617047000000100240A2
:102EA00029B1064A12690243044B1A6104E0034A3D
:102EB00012698243014B1A61704700000010024002
:102EC00029B1064A92690243044B9A6104E0034A1D
:102ED00092698243014B9A617047000000100240E2
:102EE00029B1064AD2680243044BDA6004E0034A7F
:102EF000D2688243014BDA60704700000010024044
:102F000030B500210022002400232D4D6D6805F00E
:102F10000C0121B1042905D0082923D105E0294D50
:102F2000056022E0274D05601FE0254D6D6805F422
:102F30007012234D6D6805F48034022505EB924232
:102F40001CB9214D554305600BE01D4D6D6805F41E
:102F500000351DB11C4D5543056002E0194D554328
:102F6000056002E0174D056000BF00BF144D6D689D
:102F700005F0F0010909154D6B5C0568DD40456001
:102F80000F4D6D6805F4E061090A104D6B5C4568F2
:102F9000DD4085600A4D6D6805F46051C90A0B4D2E
:102FA0006B5C4568DD40C560054D6D6805F44041CA
:102FB000890B074D6B5CC568B5FBF3F5056130BD4A
:102FC0000010024000127A0000093D002004002099
:102FD00030040020704710B500F002F810BD00006A
:102FE0000CB50020019000903348006840F4803018
:102FF0003149086000BF3048006800F4003000909C
:103000000198401C0190009818B90198B0F5A06F84
:10301000F1D12948006800F4003010B1012000907F
:1030200001E0002000900098012843D12348006867
:1030300040F01000214908600846006820F00300B5
:1030400008600846006840F0020008601A484068BE
:10305000194948600846406848600846406840F49E
:10306000806048600846406820F47C10486008464C
:10307000406840F4E81048600846006840F08070FE
:10308000086000BF0C48006800F000700028F9D00C
:103090000948406820F00300074948600846406836
:1030A00040F00200486000BF0348406800F00C0098
:1030B0000828F9D10CBD0000001002400020024099
:1030C00000B585B001210920FFF7FAFE012148056E
:1030D000FFF7D6FE01210220FEF7A4FE4FF4407058
:1030E000ADF810001C208DF8130003208DF812009D
:1030F00004A91448FEF70AFE1348FFF7CDF8002094
:10310000ADF804004FF48060ADF80A000001ADF89E
:103110000C00ADF806000D4800900120ADF8080045
:1031200069460948FFF7ECF801210748FFF7A7F8BF
:1031300001210548FFF7D8F801210348FFF7C8F837
:1031400005B000BD000C014000540040E0930400B5
:10315000042808D14FF0E021096941F004014FF043
:10316000E022116107E04FF0E021096921F004013C
:103170004FF0E022116170477047000010B513480E
:10318000006840F001001149086008464068104995
:1031900008400E494860084600680E4908400B493F
:1031A00008600846006820F48020086008464068EF
:1031B00020F4FE0048604FF41F008860FFF70BFF0B
:1031C0004FF000600449086010BD0000001002408C
:1031D0000000FFF8FFFFF6FE08ED00E07FB50446B3
:1031E0000D460121C802FFF76BFEADF80840681ECE
:1031F00080B2ADF804000020ADF80A00ADF806007A
:103200008DF80C0001A90F4800F058FA01210D4873
:1032100000F0C4F8012241210A4800F0E2F8192028
:103220008DF8000000208DF801008DF802000120CB
:103230008DF803006846FFF799FB0121014800F073
:10324000B3F87FBD002C014010B54A4801780078E2
:10325000401C484A107001290CDD4748806D00F081
:10326000FE00454988650A20C8650846806D40F023
:103270000100886541480078401C404908700846B4
:103280000078322807DD3C20087001203C49087096
:103290003C49086002E00020394908703A4890F83B
:1032A0003D00401C384981F83D00084690F83D003B
:1032B000462806DD502081F83D00012081F83C00C1
:1032C00003E00020304981F83C00304890F87C0051
:1032D000401C2E4981F87C00084690F87C00462866
:1032E00009DD502081F87C00012081F87D0000205C
:1032F000FFF774F903E00020244981F87D00244899
:103300000078632803D100202149087004E0204898
:103310000078401C1E490870FEF72CFEFFF796F857
:1033200028B1FFF7B9F90020184981F87C00184945
:10333000087800EBD0714910A0EB410109B1FFF70B
:1033400033FC13480078192190FBF1F201FB1200C5
:1033500030B910480088401C0E49088000F032FE49
:1033600001210D4800F02CF818B101210A4800F0A5
:1033700018F810BD4E040020000002404C0400204C
:103380004D040020B80122422005002088040020BE
:103390000000002002000020002C0140CA430282ED
:1033A0007047CA430282704721B1028842F001028D
:1033B000028004E002884FF6FE731A4002807047D4
:1033C00030B50246002000230024158A05EA0103D7
:1033D000958905EA010413B10CB1012000E0002039
:1033E00030BD1AB183890B43838102E083898B430B
:1033F0008381704770B5002400220023058C4FF6AE
:10340000FE7635400584028C8388048B4FF68F75D9
:103410002C40B51E2C400D882C43751E2A400D896A
:103420002A434D882A43144DA8420BD0134DA8427D
:1034300008D0134DA84205D0124DA84202D0124D1B
:10344000A84213D14FF6F7752A404D892A434FF60B
:10345000FB752A408D882A434FF6FF652B404FF6B7
:10346000FF552B408D892B43CD892B4383800483CB
:10347000CD888586028470BD002C01400034014057
:103480000040014000440140004801400A4600213C
:10349000018B4FF6F7731940114301837047000009
:1034A00070B5002400220023058C4FF6EF763540DE
:1034B0000584028C8388048B48F6FF752C404FF6F8
:1034C000FF452C400D884FF6FF7606EA05252C4374
:1034D0004FF6DF752A400D8906EA05152A434D8807
:1034E00006EA05152A43154DA84202D0144DA842FC
:1034F0001DD14FF67F752A404D894FF6FF7606EABB
:1035000005152A434FF6BF752A408D8806EA051532
:103510002A434FF6FF352B404FF2FF752B408D8924
:1035200006EA85052B43CD8906EA85052B43838072
:103530000483CD880587028470BD0000002C014003
:10354000003401400A460021018B4FF2FF731940FD
:103550004FF6FF7303EA022319430183704700000B
:1035600070B5002400220023058C4FF6FF6635401D
:103570000584028C8388848B4FF68F752C404FF620
:10358000FC752C400D882C434FF6FF552A400D89C1
:103590004FF6FF7606EA05252A434D8806EA0525FB
:1035A0002A43154DA84202D0144DA8421DD14FF216
:1035B000FF752A404D894FF6FF7606EA05252A4316
:1035C0004FF6FF352A408D8806EA05252A434EF638
:1035D000FF752B404DF6FF752B408D8906EA0515CA
:1035E0002B43CD8906EA05152B4383808483CD8840
:1035F0008587028470BD0000002C0140003401402A
:103600000A460021818B4FF6F773194011438183DD
:103610007047000070B5002200230024058C4EF690
:10362000FF7635400584038C8488828B48F6FF75CD
:103630002A404FF6FF452A400D884FF6FF7606EAEE
:1036400005252A434DF6FF752B400D8906EA053501
:103650002B434D8806EA05352B430B4DA84202D07B
:103660000A4DA84208D14BF6FF752C408D894FF6C4
:10367000FF7606EA85152C4384808283CD88A0F8E6
:103680004050038470BD0000002C01400034014014
:103690000A460021818B4FF2FF7319404FF6FF73EA
:1036A00003EA0223194381837047818670470187AB
:1036B000704781877047A0F8401070470022028849
:1036C0001D4B98420ED01D4B98420BD0B0F1804F4D
:1036D00008D01B4B984205D01A4B984202D01A4B87
:1036E000984204D14FF68F731A404B881A43174BF8
:1036F000984207D0164B984204D04FF6FF431A4029
:10370000CB881A4302808B8883850B8803850A4BFC
:1037100098420BD0094B984208D00E4B984205D0E6
:103720000D4B984202D00D4B984201D10B7A038683
:103730000123838270470000002C014000340140C7
:103740000004004000080040000C00400010004051
:103750000014004000400140004401400048014086
:1037600010B586B0044601218804FFF789FB0121CA
:103770000820FFF7A5FB4FF40060ADF8140004200B
:103780008DF8170005A91748FEF7C0FA27208DF815
:10379000000003208DF801008DF8020001208DF853
:1037A00003006846FFF7E2F801940020ADF8080036
:1037B000ADF80A00ADF80C00ADF810000420ADF82B
:1037C0000E0001A9084800F0FDFA012240F2244150
:1037D000054800F0D2FA0121034800F0B9FA06B01A
:1037E00010BD0000000C0140004800400448008863
:1037F0000348001D0088002002490870704700003F
:10380000003801404E0400202DE9F04F91B0FE48F1
:10381000006B00F0FE00FC4908630020FB4981F8C2
:103820003D00F948406B192814D2F9480088F8483F
:10383000001D0088F448006B00F0FE00F2490863A8
:10384000C82048630846006B40F00100086311B0CF
:10385000BDE8F08FEF48C06880F40050ED49C860C3
:103860000020ED490870ED48C07B4E2837D000BFDE
:10387000E94801780078401CE74A1070E748405C4E
:103880004E28F5D1E54912781144481CFCF7F0FCAC
:1038900000B2DE49C886002081F83B00E04800788D
:1038A000401CDF490870D94890F83A00F0B9084642
:1038B00000780A281ADD0120D44981F83A00084628
:1038C000D0E90610D14AC2E90A101046D0E9041026
:1038D000C2E908101046408E1146888606E0002096
:1038E000CF4908700120C94981F83B0000BFCA4890
:1038F00001780078401CC84A1070C848405C2428F1
:1039000003D010460078C728F1DBC3480078C728E9
:1039100000D19CE7C149C0480078801D085C303860
:1039200000EB8000082101EB4001BC4ABA48007856
:10393000C01D105C30380844B4490870084600784F
:103940003C287DDA084600780978182901DB18211F
:1039500000E00021401AAD490870B049AE48007837
:103960000930085C30380A46AB4909780831515CA7
:10397000303901EB810100EB4100A4494870114648
:10398000A54800780B30085C3038A34909780A3123
:10399000515C303901EB810100EB41009B4988709B
:1039A0009D48007810309C49087011469A4A127858
:1039B000881801F0EFF8044601F0A2FB9349486033
:1039C00000BF954801780078401C934A10709348D6
:1039D000405C2C28F5D100BF8F4801780078401C4E
:1039E0008D4A10708D48405C2C28F5D18B49127897
:1039F000881801F0CFF8044601F082FB8349886003
:103A000000BF854801780078401C834A10708348C5
:103A1000405C2C28F5D100BF7F4801780078401C1D
:103A20007D4A10707D48405C2C28F5D100BF7A4853
:103A300001780078401C784A10707848405C00E0BB
:103A4000ABE02C28F3D1754912788818FCF710FCEC
:103A50006E4981F8300000BF6F4801780078401C43
:103A60006D4A10706D48405C2C28F5D100BF6A4843
:103A700001780078401C684A10706848405C2C2827
:103A8000F5D1664912788818FCF7F2FB00B25F495D
:103A90004886486802F01AFB814602F033FB8046F4
:103AA0005A484168404602F076FC07465D4902F0FC
:103AB00017FA05465549486802F008FB642190FB57
:103AC000F1F000FB01FB584602F01CFB82464F4818
:103AD0004168504602F05FFC8146534902F000FA0B
:103AE00007464A494868514902F0FAF9824602F00D
:103AF000EDFA814602F006FB8046394602F082F973
:103B00000646294602F07EF9044602F04FF93F4A84
:103B1000C2E904011146886802F0D8FA814602F031
:103B2000F1FA804639488168404602F034FC074685
:103B30003C4902F0D5F905463449886802F0C6FAD6
:103B4000642190FBF1F000FB01FB584602F0DAFA29
:103B500082462E488168504602F01DFC814632495B
:103B600002F0BEF9074629498868304902F0B8F9E1
:103B7000824602F0ABFA814602F0C4FA804639462A
:103B800002F040F90646294602F03CF9044602F0EC
:103B90000DF91E4AC2E9060102E000201B49C88651
:103BA0001A4890F83A0000287ED0184890F83B0058
:103BB000002879D115484FF020421D4BD0E90671FD
:103BC000384601F0E3FD054601F0F8F981468A46E2
:103BD0000E484FF02042164BD0E90A71384601F0EA
:103BE000D5FD054601F0EAF94A465346CDE9040100
:103BF00001F0CCFDCDE9080104484FF020420C4B08
:103C0000D0E90471384615E000000240200500208C
:103C100000480040001001404904002060050020D9
:103C20004B040020007C1249000070420000C84292
:103C300046DF913F01F0AAFDCDE900013F49D1E9FE
:103C400008714FF020423E4B384601F09FFD05467B
:103C5000DDE9002301F0C0FF814600F0B1FFCDE9AE
:103C6000040136484FF02042354BD0E90671384602
:103C700001F08CFD054600F0A3FF81468A462F48DF
:103C80004FF020422E4BD0E90A71384601F07EFDFC
:103C9000054600F095FF4A465346CDE9000101F084
:103CA00075FDCDE9020100E038E0DDE9042301F013
:103CB0006DFDCDE90601DDE9082301F053FACDE9F8
:103CC0000A0100F029FE00221E4BCDE90C0101F093
:103CD0005DFDCDE90E0101F013FA044621462046B0
:103CE00002F05CFA82461549B1F93210134AB2F972
:103CF0003420891A01FB01F002F004FA8346514690
:103D000002F080F8814602F051F8074601F0A6F96A
:103D1000054601F0A7FC0949088700BFC8200A49E9
:103D200048630846006B40F00100086307480088BC
:103D30000648001D008800BF89E50000200500201E
:103D400046DF913FAE4D5841000002400048004020
:103D500021B1828942F40052828104E082894DF6C9
:103D6000FF731A40828170471AB1838A0B438382A2
:103D700002E0838A8B4383827047F0B503460024B8
:103D800000260025002040F66A17B94200D100BF86
:103D90001846C1F3421401F01F06012707FA06F581
:103DA000012C01D10C3004E0022C01D1103000E0D4
:103DB00014301AB107682F43076002E00768AF4369
:103DC0000760F0BD2DE9F04786B005460E46002499
:103DD000A24600BFA1460027B08900B100BF2F4610
:103DE0002C8A4CF6FF700440F08804432C82AC8986
:103DF0004EF6F3100440B0883189084371890843B6
:103E00000443AC81AC8A4FF6FF400440B0890443C0
:103E1000AC8201A8FFF774F81F48874202D1DDF891
:103E200010A001E0DDF80CA0A88900F4004040B12A
:103E30000AEBCA0000EB0A1031684900B0FBF1F848
:103E400007E00AEBCA0000EB0A1031688900B0FBFA
:103E5000F1F86420B8FBF0F004012009642101FBB3
:103E60001089A88900F4004040B1322000EBC9005D
:103E7000B0FBF1F000F00700044308E0322000EB53
:103E800009106421B0FBF1F000F00F0004432C8115
:103E900006B0BDE8F08700000038014000BFFEE733
:103EA00000B58DB00F208DF8300003208DF8310063
:103EB00002208DF8320001208DF833000CA8FEF7A7
:103EC00055FD01210846FEF7CBFF3348FDF750FEB4
:103ED0003248019032480290102003901220049042
:103EE00000200590802006900020079008900990FF
:103EF0004FF440500A9000200B9001A92648FDF78E
:103F0000E6FE4FF48050FDF719FE00212248FDF730
:103F100023FE01210846FEF7A3FF1F481430FDF7DA
:103F200027FE1E4801901F480290002003900A209F
:103F300004900020059080200690002007900890B3
:103F400009904FF440500A9000200B9001A91248AC
:103F50001430FDF7BCFE012202210F481430FDF79A
:103F6000ADFE4FF40030FDF7E9FD01210A481430A1
:103F7000FDF7F2FD00210948001FFFF7E9FE0122CD
:103F8000C0210648001FFFF7EFFE01210348001F74
:103F9000FFF7DEFE0DB000BD4400024004380140D2
:103FA0007E0600209A06002010B54FF4964000F0DF
:103FB000ABF8FFF775FF4FF0FF300149088210BDE5
:103FC0007E0600202DE9F0410024002047490870BA
:103FD000487108464079464991F83C1008434349E6
:103FE000487108464079424991F83B1040EA410047
:103FF0003E494871084640793E4991F87D1040EAB3
:1040000081003A4948713A48B0F932000A2190FBE0
:10401000F1F0364948703648008FC880344890F82F
:104020003600887034484088A0F514501C38C0EB26
:10403000C000642190FBF1F02C49C8702D4800228B
:104040002E4BD0E91A51284601F0A0FB074601F09B
:10405000D9FA00B22549888126480022274BD0E9A9
:104060001851284601F092FB074601F0CBFA00B246
:104070001E49C8811F48B0F9060000EB40006421CA
:1040800090FBF1F0643019490871194988681C499E
:1040900002F084F8054602F019F800B213490881CD
:1040A00013494868164902F079F8054602F00EF8FF
:1040B00000B20E49488108E00C4800780B49095DC0
:1040C00008440A490870601CC4B2122CF4D30D488D
:1040D000406C00F0FE000B494864122088640846DA
:1040E000406C40F001004864BDE8F0817E0600208D
:1040F00020050020880400205004002000005940C2
:104100000000C8420000024010B586B004460121FC
:1041100044F20100FEF7D4FE01210820FEF7D0FE94
:1041200001210420FDF77EFE4020ADF8140003209D
:104130008DF8160018208DF8170005A91B48FDF70B
:10414000E5FD8020ADF8140028208DF8170005A9A2
:104150001648FDF7DBFD25208DF8000002208DF8C4
:1041600001008DF8020001208DF803006846FEF77B
:10417000FDFB01940020ADF80800ADF80A00ADF891
:104180000C00ADF810000C20ADF80E0001A9084895
:10419000FFF718FE012240F225510548FFF7EDFD1B
:1041A00001210348FFF7D4FD06B010BD000C01400B
:1041B00000380140490050EAC12018BF04204A0DD0
:1041C00018BF40F0010040F2FF72B2EB515F08BF30
:1041D00040F00200012808BF052070472DE9F74F85
:1041E000144694B00021C4E902111599079121F0F9
:1041F0000045C9498D4206DC1599C4E9000117B094
:104200000020BDE8F08FC549DFF814A3A9423CDDCA
:104210000799C44E0029C44FC44A1599534619DD65
:1042200001F0DAFC554506D0C14AC24B01F0D4FC7E
:10423000C4E900010AE04FF0D352BE4B01F0CCFCC0
:1042400032463B4601F0C8FCC4E9000117B001202A
:10425000BDE8F08F00F086FF554506D0B44AB54B57
:1042600000F080FFC4E900010AE04FF0D352B14BE7
:1042700000F078FF32463B4600F074FFC4E90001CD
:1042800017B04FF0FF30BDE8F08FAB49A942159948
:1042900078DB21F0004183468846A84AA84B01F00C
:1042A00075FA0022A74B00F05DFF01F0ABF9099011
:1042B00001F005FA06460F469C4A534601F066FA9D
:1042C00043465A4601F096FB80468A46984A994BE7
:1042D0003046394601F05AFA2A0D01250B92424622
:1042E000534601F087FB032DC4E9000139D00B9838
:1042F000C1F30A51401A05EB45111139814230DAF8
:104300009148C346784400EB0510CDF80CA00C9002
:10431000D0E900233046394601F038FA02460B4610
:10432000049106905846039901F056FC80468A464F
:1043300002460B465846039901F04EFC049B069A30
:1043400001F04AFC83460C9803913946D0E90223D8
:10435000304601F01BFA5A46039B01F03DFC6D1CF0
:10436000BDE707980028A2BF099817B0BDE8F08FF5
:10437000616881F000416160099817B04042BDE872
:10438000F08FFFE784461598C1F31301C0F30A507C
:10439000A0F2F5304FEA601800F01F06C6F12000C9
:1043A000139000200690079041F4801E05206D4672
:1043B00076B1664A08EB00017A4452F8213002EBEC
:1043C0008101B3404A68139922FA01F1194305E0CB
:1043D0005F4908EB0002794451F82210A1FB0E2737
:1043E000A1FB0C131A449A4234BF0123002303EBB0
:1043F000070A05EB8003D3E901B70F448F4234BFAE
:104400000121002193448B4411B1934502D903E06B
:10441000934501D2012100E00021C3E901B75144D5
:1044200045F82010011EA0F10100C1DC0298059F93
:1044300000F10050800F12900298DDE903568000D1
:1044400001F03DF9834628460D9101F04FF96FF0D8
:104450001D0202F055F8CDE90E01304601F046F993
:104460006FF03D0202F04CF880468A46384601F073
:104470003DF96FF05D0202F043F8074642465346AD
:10448000119100F06FFEDDE90E2300F06BFE5A463D
:104490000D9B00F067FE00250E465A4628460D9BF0
:1044A00001F09AFBDDE90E2301F096FB42465346EC
:1044B00001F092FB3A46119B01F09CFADFF898A0BC
:1044C000244A534601F062F907468846234A244BA2
:1044D0003146284601F05AF93A46434600F042FE7A
:1044E000074688464FF0A84253463146284601F019
:1044F0004DF93A46434600F035FE159A12F0004F4A
:1045000004D0129A81F0004152421292C4E9000193
:10451000129817B0BDE8F08FFB21E93F7CD902402B
:10452000FB21F93F7370032E8A19A33B000040540E
:104530003163621A61B4D03DFB21394183C8C96D32
:10454000305FE43F0000E03F102300008C220000B9
:104550006E220000182D4454FB21F93D3326A6118C
:10456000460B113C2DE9FF4D21F0004807460C4653
:10457000B8F1795F08DA01F045F8002801BF0020A2
:10458000324904B0BDE8F08D3A462346104619463C
:1045900001F0FCF8054602462D480E460B46062162
:1045A000784400F05DF82A46334601F0EFF8DDE983
:1045B000022382468B463846214601F0E7F804463E
:1045C0000F4652465B462846314601F0DFF8224648
:1045D0003B4601F001FB07468A464FF0FF32284672
:1045E000314601F08DFF1B4A90450ADA3A465346A0
:1045F00001F0F2FA04B00022BDE8F04D134B01F0D7
:10460000F9B9154A4245A8BFA8F500154FF00004B6
:10461000B8BF124D22462B4601F0DEFA0646884608
:1046200022462B460020094901F0D6FA04460D46E1
:104630003A4653463046414601F0CEFA04B022468F
:104640002B46BDE8F04D01F0D5B900000000F03F69
:10465000442000003333D33F0000E93F0000D23F45
:104660002DE9F0414F1E00EBC7010446D1E90001DE
:1046700015461E4637F006020DD02A46334601F095
:1046800085F87F1E04EBC703D3E9002300F06AFD21
:1046900037F00602F1D1022F25D0042F13D0062FB8
:1046A00018BFBDE8F0812A46334601F06FF8D4E91F
:1046B0000A2300F057FD2A46334601F067F8D4E993
:1046C000082300F04FFD2A46334601F05FF8D4E995
:1046D000062300F047FD2A46334601F057F8D4E997
:1046E000042300F03FFD2A46334601F04FF8D4E999
:1046F000022300F037FD2A46334601F047F8D4E99B
:104700000023BDE8F04100F02DBD00002DE9FF4D74
:10471000054621F0004084B00C46B0F1795F0BDA19
:104720002846FFF747FD042808BF00F075F8284623
:1047300008B02146BDE8F08D2A460B46104601F030
:1047400025F806460F462A46234601F01FF8804604
:1047500026488A4632463B4605217844FFF780FFCB
:1047600083461098029160B3214A224B404651463D
:1047700001F00CF8CDE900015A4640465146029B33
:1047800001F004F882468846DDE906014FF0FF3269
:1047900001F0B6FE5246434601F01EFA32463B4651
:1047A00000F0F4FFDDE9062301F016FADDE900234D
:1047B00001F012FA08B02A462346BDE8F04D01F098
:1047C00019B90B465A463046394600F0DFFF084A11
:1047D000084B00F0C7FC4246534600F0D7FF08B034
:1047E0002A462346BDE8F04D00F0BCBC821F000005
:1047F000495555555555C5BF012201F081BE0022CE
:1048000013461046114600F069BD40F20132002007
:104810004FF0E04101F074BE024A0020110701F0A0
:104820006FBE000001FDFFFF10B50446D1E9000195
:1048300000F002F8206010BDF8B504460D466A4647
:1048400000F016FB00987E30009000281EDC00224D
:1048500013462046294600F099FE17D0002140F665
:1048600008004FF0000006462046294600F048FCAC
:10487000044640F6080006EA00014FF0000034F05C
:10488000004004BF0220FBF70CFD29E00098FF2840
:1048900028DB002108464FF0000000F4400600220B
:1048A00013462046294601F06FF88CBF00250125EC
:1048B0000220FBF7F6FC4FF0FF4446B1002D0CBF81
:1048C0004FF400004FF48000B04218BF084C0421A0
:1048D00008464FF00000002D04BF84F00040F8BDF2
:1048E0002046F8BD20462946BDE8F84000F008BC47
:1048F000FFFF7F7F10B504460A46D4E9000319463E
:1049000000F0E2FAC4E9000110BD30380A2801D2F3
:1049100001207047002070472DE9F04D0546DFF873
:10492000388221F000408D4F82B00C46404520DB9C
:10493000A0EB080129430BD08949884201DC10D142
:104940007DB102B028462146BDE8F04DFFF754BFC7
:10495000002CC7BF002001468248394602B0BDE89E
:10496000F08D0120FBF79DFC02B0BDE8F04DFFF794
:1049700046BF7D49884244DA7C498142A1BF7948DB
:104980007B4902B0BDE8F08D2A4623461046194601
:1049900000F0FCFE8346024676480E460B46062192
:1049A0007844FFF75DFE5A46334600F0EFFE0746B7
:1049B00071488A465A46334604217844FFF750FE30
:1049C0005A46334600F0E2FE0022434600F0CAFB9E
:1049D00002460B463846514600F080FC2A462346E4
:1049E00000F0D4FE654A664B01F004F82A462346DF
:1049F00001F000F802B05B4ABDE8F04D5C4B00F0FE
:104A0000F9BF002C4FF000024BDA464643462846D9
:104A1000214600F0A7FB4FF0FF3201F071FD044684
:104A2000024658480D460B4606217844FFF718FE0B
:104A300022462B4600F0AAFE804653488A4622466C
:104A40002B4604217844FFF70BFE22462B4600F04C
:104A50009DFE0022334600F085FB06468B4620462D
:104A6000294600F0FBFA04460D4632465B464046B6
:104A7000514600F033FC22462B4600F087FE3F4AA9
:104A80003F4B01F0A9F822462B4600F06BFB0122B8
:104A900001F036FD02B03B46BDE8F04D314A00F072
:104AA000A9BF2D4B2846214600F0A4FF4FF0FF324E
:104AB00001F026FD05460E4600F0D0FA00270C4610
:104AC00080463A460B4600F04DFB82468B463A46FE
:104AD00023461046194600F059FE2A46334600F098
:104AE00089FF52465B4600F0F9FB824627488B4619
:104AF0002A46334606217844FFF7B2FD2A4633465C
:104B000000F044FECDE9000121482A463346042145
:104B10007844FFF7A5FD2A46334600F037FE002211
:104B20000D4B00F01FFB02460B46DDE9000100F0D3
:104B3000D5FB4246234600F029FE52465B4600F074
:104B400011FB3A46234600F00DFB02B00122BDE8FE
:104B5000F04D01F0D5BC00000000F03FFB21094002
:104B60000000F07F182D44540000E03F0000603C3E
:104B7000FB21F93FF41B00000A1C0000075C143302
:104B800026A6913C6A1B0000801B00009E1A0000B4
:104B9000B41A000030B583B00446FBF77DFB054630
:104BA0000020CDE90000024621466846FBF79EFB47
:104BB0002846FBF776FBDDE9000103B030BD0000BD
:104BC00000B5244B21F0004287B09A42DCBF00229E
:104BD000134629DD204B9A4208D140B94FF001001D
:104BE000FBF75FFBFFF70BFE07B000BD03DBFFF732
:104BF00003FE07B000BD02AAFFF7F0FA10F00301B0
:104C000004BF0DF1080C9CE80F000DD00120012914
:104C10000ED0022914D00DF1080C00909CE80F0072
:104C2000FFF774FD07B000BDFFF79CFC07B000BDA7
:104C30000DF1080C00909CE80F00FFF767FD05E000
:104C40000DF1080C9CE80F00FFF78CFC07B081F019
:104C5000004100BDFB21E93F0000F07F10B56FF07F
:104C60000400FEF775FA0A4800680A49B0FBF1F043
:104C7000094908700846007800EB4001C1EBC010FC
:104C80004FF6FF7101EAC0000449088010BD000022
:104C90000400002000127A00180000201A000020F2
:104CA0000146114A12884A434FF0E0235A6100221C
:104CB0009A611A46126942F001021A6100BF4FF070
:104CC000E022106900F001021AB100F48032002ADB
:104CD000F5D04FF0E022126922F001024FF0E023FC
:104CE0001A6100229A6170471A0000202DE9FE4FD8
:104CF000814688460021484601F0B4F906D10021DA
:104D0000404601F0AFF901D10024A4E0002148465B
:104D100001F010FB01D2484601E089F000408346D3
:104D20000021404601F006FB01D2404601E088F038
:104D3000004082465146584601F0FCF905D25146E2
:104D4000584601F0CDF8074604E05946504601F0B8
:104D5000C7F807464149384601F0ECF901D23D4613
:104D60002BE04FF08741384601F018FA4FF07C51A4
:104D7000019001F01BFB0290029801F0A7F9064692
:104D8000304601F0BFF90190029901F004FB029056
:104D9000334850F82650024652F826100346721C3B
:104DA00053F8220001F002FB0090029901F0F6F99D
:104DB0002946019001F026F805465946504601F073
:104DC000B9FA20D20021404601F0B4FA09D80021F6
:104DD000484601F0AFFA01D82C463CE085F000448B
:104DE00039E0204C0021484601F0A4FA05D82946B4
:104DF000204601F0DBFA04462DE02146284601F06A
:104E0000D5FA044627E00021484601F093FA11D86C
:104E1000154C0021404601F08DFA05D82946204660
:104E200001F0C4FA044616E02946204600F0EAFFE5
:104E3000044610E00D4C0021404601F07BFA05D8F5
:104E40002946204600F0DEFF044604E029462046BD
:104E500001F0ACFA04462046BDE8FE8F8180803B1D
:104E60001C000020DB0F4940DB0FC93FDB0FC9BF2F
:104E700010B5144600222260114A21F000439342EB
:104E8000A8BF10BD53EA000208BF10BDB3F5801FD4
:104E9000A8BF226807DA362201F032FB6FF0350234
:104EA00021F000432260DFF81CC06FF31E510CEBB1
:104EB00023531A4441F0FF5141F00051226010BDCC
:104EC0000000F07F02FCFFFF2DE9F04106460C4692
:104ED00040F2FF75174635EA14502BD000221346D6
:104EE000304600F053FB25D03A463046214601F0CB
:104EF00007FB06460C4635EA145010D00022134634
:104F0000304600F043FB15D10220FBF7CAF9FFF74A
:104F100083FC0A46214662F31E01BDE8F0810220AF
:104F2000FBF7BFF9FFF771FC0A46214662F31E0149
:104F3000BDE8F08130462146BDE8F081012080F3D4
:104F4000108800BF4FF4A060FDF748FDFDF75EFA42
:104F5000FFF784FEFEF7B4F8902142F21070FDF7DF
:104F600047FDFCF74BFDFCF73DFCFFF71DF8FCF798
:104F7000F9FF4FF47A714FF43470FEF72FF9642083
:104F8000FFF78EFE0120FDF729FB3320084908704A
:104F90006420084981F83D00074981F87C00002021
:104FA00080F3108800BF02E00A20FFF779FEFBE7DC
:104FB0004C040020200500208804002000B5254B6B
:104FC00021F0004287B09A4203DC0022134600928F
:104FD0002BE0214B9A4208D140B94FF00100FBF77A
:104FE00060F9FFF70CFC07B000BD03DBFFF704FC22
:104FF00007B000BD02AAFFF7F1F810F003014FF06F
:1050000001000DD0012914D002291AD00DF1080C8D
:105010009CE80F00FFF7A6FA07B081F0004100BD41
:105020000DF1080C00909CE80F00FFF76FFB07B034
:1050300000BD0DF1080C9CE80F00FFF793FA07B0D4
:1050400000BD0DF1080C00909CE80F00FFF75EFB1F
:10505000E2E70000FB21E93F0000F07F2DE9F0418D
:1050600006460F4600F0D2FC041E0D4618BF012074
:10507000284320F00040C0F17F6000F1E040C00F05
:105080000ED0301C18BF0120384320F00040C0F182
:105090007F6000F1E040C00F04BF0120FBF701F981
:1050A00020462946BDE8F08110B500290AD00878CD
:1050B000002807D005487844FBF7C6FC002801D03B
:1050C000002010BD0248784410BD000016170000F3
:1050D0000E17000010B500290AD00878002807D064
:1050E00005487844FBF7B0FC002801D0002010BD33
:1050F0000248784410BD000006170000FE160000AC
:1051000021F00042A2F16052B2F5801F01F000438D
:1051100028BFD2F17F6C0BD95FEA001C43EAC202C0
:1051200042EB507018BF704728BF20F00100704755
:10513000B2F5801FBCBF184670474FEA410C1CF502
:10514000001F02D2084601F0F0B870B500F0C8FBAD
:1051500000000089FFF7F6BF4FF00040A0F5800087
:105160007047000010B591EA030F48BF83F0004379
:1051700000F13A85841A71EB030C05D2121943EB46
:105180000C03001B61EB0C01DFF824E14FEA115422
:10519000A4EB135C1EEA430F18BF9EEA445F73D072
:1051A00023EA0E03DCF1200E21EA045143F48013BC
:1051B00032D322FA0CFE10EB0E0023FA0CFE41EB68
:1051C0000E01CCF1200E03FA0EFE10EB0E0051F191
:1051D0000001B1F5801FCCF1200E32D201EB045159
:1051E00012FA0EF2BDE8104058BF7047401C38BF9D
:1051F0005FEA420218BF7047002814BF20F0010088
:1052000041F100014FEA410313F5001F38BF704719
:10521000A1F1C04100F0B2BB012A43EB0302ACF1A3
:10522000200CDCF11F0E32BF4FF0000E23FA0CF3FE
:1052300010EB030041EB0451B4EB115FD0D0A1EBB4
:10524000045101F5801149085FEA300001EB045177
:105250000ED350F1000038BF12FA0EFE08D1BDE89F
:105260001040C9E7401C38BF5FEA4202CAD1C3E719
:10527000BDE810404FEA410313F5001F38BF7047E7
:10528000A1F1C04100F07ABB9EEA445F08D011EA68
:105290005E0FBDE8104004BF01F0004100207047E0
:1052A000BDE8104070B500F01BFB00BF64FBBE3EC4
:1052B0000000E0FF02494FF0000001F0EFB800BF2E
:1052C0000000F87F491058BFC1F140415B1058BF42
:1052D000C3F140438B42EFF3008070472DE9C0419A
:1052E00030B4DFF8A0C23CEA111418BF3CEA131432
:1052F00000F0EC8081EA03051CEA111444EAD5743D
:1053000018BF1CEA131500F0C780A4EB05044FF08A
:10531000004545EAC12145EAC32341EA505143EA29
:10532000525304F17F74994204F500344FEAC020CF
:105330004FEAC22208BF904200F09C804FEA1365FA
:105340000FF24016765D4FEA134506FB05F7C7F1ED
:10535000807706FB07F74FEAD737A7FB036876424B
:10536000C8F58038A7FB06CE38BFA8F1010807FBB7
:1053700008E64FF0000EA6FB028CE6FB03CEDCF144
:10538000000CCEF1004E38BFAEF1010EA6FB0C585A
:105390004FF000074FF00005E6FB0E87A1FB08C6A3
:1053A000A0FB07CE16EB0E0645F10005E1FB0765F5
:1053B00015F1E04E7EBFA4F580345FEA46066D41EC
:1053C00016F1800745F100054FEA17274FEA0666F8
:1053D00047EA0567A6F1DE46B6F1805F4FEA15257C
:1053E0001FD9384624F0010C05EBC471BCF1FE6FE7
:1053F00001EB0C1102D8F0BCBDE8008124425CBF77
:1054000001F5801E9EEAC47F02D4F0BCBDE8008195
:10541000244238D4F0BCA1F1C041BDE8004100F005
:10542000ADBA4FEAD22242EA43524FEAD323A7FB56
:1054300002864FEAD02040EA415007FB03661EEA8D
:105440000E0F4FEAD12105FB026658BFA6EB0056AE
:10545000B6EB00564FEA520E4EEAC37E18EB0E0E24
:1054600056EB530EBDD518EB02085E417F1C55F17B
:105470000005B6E74FF480154FF000074FF0000627
:105480004FF00008ADE7F0BC4FF0000001F1C04163
:1054900001F00041BDE8008111EA0C1F0CEA131570
:1054A00000D00CE013EA0C1F00F025804FF0000044
:1054B000F0BC81EA030101F00041BDE80081F0BCCD
:1054C000BDE8004181EA030100F058BAF0BCBDE834
:1054D000004170B500F004FA097EFC3E00F007B808
:1054E00081EA03014FF0000001F00041704781EABA
:1054F000030100F043BAF0BCBDE800414FF00000EA
:1055000021497047FFFDFBF9F7F5F4F2F0EEEDEB02
:10551000E9E8E6E4E3E1E0DEDDDBDAD8D7D5D4D3B1
:10552000D1D0CFCDCCCBCAC8C7C6C5C4C2C1C0BFFD
:10553000BEBDBCBBBAB9B8B7B6B5B4B3B2B1B0AF03
:10554000AEADACABAAA9A8A8A7A6A5A4A3A3A2A1E7
:10555000A09F9F9E9D9C9C9B9A99999897979695A2
:1055600095949393929191908F8F8E8E8D8C8C8B3E
:105570008B8A8989888887878685858484838382C6
:10558000828181800000FF070000F87F51EA030C50
:1055900017D41CF5801F58BFBCF5801F00F1068092
:1055A000994218BF704708BF9042704707D711F55E
:1055B000801F58BF13F5801F19D499427047894244
:1055C00070471CF5801F08D5BCF5801FF7D58B42AE
:1055D00018BF704708BF824270474FF4001C1CEB95
:1055E000410F38BF1CEB430F01D28B42704770B59F
:1055F00000F076F9922449004FF000514FF08053AB
:10560000FFF760BE4FEA41034FEA5353A3F58063AF
:10561000D3F11E03C8BFD3F1210C0CDD4FF00042C3
:1056200042EAC12242EA505232FA03FC8CEAE17C9F
:10563000ACEBE1707047102BC4BF0020704703F53E
:10564000787CBCF1FF3F04D06FF0004282EA210079
:10565000704770B500F044F94992248000207047EB
:10566000F2E700004FEA1153A3F58063D3F11E0364
:10567000A8BFD3F1200C08DB4FF0004242EAC12260
:1056800052EA505232FA03F0704709420BD4102B01
:10569000C4BF0020704703F5787CBCF1FF3F05D004
:1056A0004FF0FF3070474FF00000704770B500F0CA
:1056B00017F900BF4992248000207047F0E710F0EE
:1056C000004248BF4042B0FA80F310FA03F10AD01A
:1056D000C3F11D0303F580634FEA415002EB03520F
:1056E00002EBD12170474FF000007047B0FA80F311
:1056F00010FA03F10AD0C3F11D0303F580634FEAEA
:1057000041504FEA035202EBD12170474FF00000A5
:105710007047000051EA030C17D41CF5801F58BFD6
:10572000BCF5801F00F10680994218BF704708BF82
:105730009042704707D711F5801F58BF13F5801F9F
:1057400019D499427047894270471CF5801F08D5CB
:10575000BCF5801FF7D58B4218BF704708BF824247
:1057600070474FF4001C1CEB410F38BF1CEB430F7C
:1057700001D28B42704770B500F0B2F89224490014
:105780004FF000514FF08053FFF79CBDDFF848C148
:1057900070B51CEA111E1EBF1CEA13159EEA0C0F01
:1057A00095EA0C0F00F06F8081EA030423EA4C13A2
:1057B0004EEAD47E21EA4C1141F4801143F4801367
:1057C000AE44A1FB024CA0FB0365AEF17F7E36190F
:1057D00055EB0C05A1FB034C4CF10003A0FB021C94
:1057E00016EB0C06654153F10003094218BF46F061
:1057F000010613F4007F0BD14FEA03314FEA053065
:10580000340341EA155140EA16506FF003020AE0F2
:105810004FEAC3214FEAC520F40241EA555140EA5C
:1058200056506FF0020202EB2E4201EB025585EA60
:10583000CE710AD05FEA440C18BF24F0004450F146
:10584000000041F1000120EAD47040F2FE7C624584
:1058500000D270BDA84214BF4FF080444FF04044C6
:10586000002E08BF0024BEF1806FA8BFA1F1C04187
:10587000BDE8704080F282804FF0000001F1C0412D
:1058800001F0004170479EEA0C0F0CEA131518BF97
:1058900095EA0C0F06D04FF0000081EA030E0EF0DF
:1058A000004170BD00F01CF88900013E00F007B80F
:1058B00000F009B84FEA430C5FEA5C5C08D081EA6B
:1058C000030100F05BB84FEA410C5FEA5C5CF6D183
:1058D0004FF00000014970470000FF070000F87F0B
:1058E0000EF1020E2EF0030E5EF8046B364205D464
:1058F000012A43EB030515F5001F12D8012841EBDF
:10590000010C1CF5001F0CD80ED14FEAD17C15F507
:10591000001F0CEB4C0C0CF1020C08BF4CEBD37CC1
:1059200004E04FF0080C01E04FEAD37C0CEB4C058F
:1059300026FA05F606F00706B6F1040C06D20EEBC1
:10594000860CBDE870404CF0010C6047DFE80CF0BD
:10595000090B02024FF000414FF00000A1F50021B9
:1059600070BD19461046012851EB010418BFD4F54B
:10597000001484BF002001F0004170BD0808A0F5AC
:1059800000114FEA3101704753EA010C17D41CF59E
:10599000801F58BFBCF5801F00F106808B4218BFE6
:1059A000704708BF8242704707D713F5801F58BF62
:1059B00011F5801F19D48B4270479B4270471CF52C
:1059C000801F08D5BCF5801FF7D5994218BF7047D6
:1059D00008BF904270474FF4001C1CEB430F38BFC8
:1059E0001CEB410F01D2994270470FB40CBC03BCB1
:1059F000FFF7C1BE91EA030F10B581F000413FF5FA
:105A0000B9AB83F0004300F0EFB800002DE9F0419E
:105A100001F5801CBCF5001FC0F2C3804FEA115C89
:105A200021EA0C510CF1FD0C41F480115FEA5C0C91
:105A30000CF5C07C01D3400049413DA4890241EAF4
:105A4000905187028E0E0A0CA45D04FB04F602FB43
:105A500006F6C6F14046A4FB0662F60D46EA42266B
:105A600006FB06F4A4FB01235242C3F1404338BFB6
:105A70005B1EA6FB02420024E6FB0324D20B42EA93
:105A80004446A6FB0623A1FB02E2A3FB07E4A418FD
:105A90004FF0000252F10002E3FB01426442C2F106
:105AA000404E38BFAEF1010EA6FB04234FF00002BA
:105AB000E6FB0E32A2FB03464FF00004B61954F188
:105AC0000004E2FB0264A1FB06E6A4FB07E816EB78
:105AD00008064FF0000858F10008E4FB0168764220
