:020000040800F2
:10000000100D002031020008252A0008CD1F00082D
:10001000212A0008CD1A0008C93F0008000000008E
:100020000000000000000000000000001132000885
:100030000B1D000800000000813000082533000877
:100040004B0200084B0200084B0200084B0200085C
:100050004B0200084B0200084B0200084B0200084C
:100060004B0200084B0200084B0200084B0200083C
:100070004B0200084B0200084B020008D11A00088E
:100080004B0200084B0200084B0200084B0200081C
:100090004B0200084B0200084B0200084B0200080C
:1000A0004B020008F53300084B0200084B02000821
:1000B0004B0200084B0200084B0200084B020008EC
:1000C0004B0200084B0200084B0200084B020008DC
:1000D0004B020008913900084B020008AD390008B6
:1000E0004B0200084B0200084B0200084B020008BC
:1000F0004B0200084B0200084B0200084B020008AC
:100100004B0200084B0200084B0200084B0200089B
:100110004B0200084B0200084B0200084B0200088B
:100120004B0200084B0200084B0200084B0200087B
:1001300000F002F800F06CF80AA090E8000C82448D
:100140008344AAF10107DA4501D100F061F8AFF26A
:10015000090EBAE80F0013F0010F18BFFB1A43F0A5
:1001600001031847A0670000C067000010F8013BBA
:100170000A4413F0030408BF10F8014B1D1108BF17
:1001800010F8015B641E05D010F8016B641E01F8C5
:10019000016BF9D1002D15D010F8014B03F00C03C1
:1001A0000C2BA1EB04040ABF10F8013BA4EB831451
:1001B000A4EB032405F1010314F8016B5B1E01F8A5
:1001C000016BF9D5914238BF10F8013BD1D370478C
:1001D0000023002400250026103A28BF78C1FBD850
:1001E000520728BF30C148BF0B6070471FB500F0F1
:1001F00093F904000020002104F0FEFF401C606021
:100200000020002104F0E2FFE0601FBD10B510BD2A
:1002100000F05CF91146FFF7E9FF04F037FF00F04A
:1002200009FC03B4FFF7F2FF03BC00F0E9FE000095
:100230000948804709480047FEE7FEE7FEE7FEE77A
:10024000FEE7FEE7FEE7FEE7FEE7FEE704480549B6
:10025000054A064B704700002933000831010008A9
:1002600010070020100D00201009002010090020A8
:1002700070B5064600F00CF80468054630460A22C0
:10028000002100F067F82C6070BD70477047704720
:1002900000487047AC06002010B5FFF7F9FF006872
:1002A00010BD10B50446FFF7F3FF046010BD000059
:1002B0000FB4002300B589B00CA900910B99CB6055
:1002C000214B7B440693214B7B44079304236FF01F
:1002D0000042CDE901321E4A7A446B46089202463A
:1002E000002006F0EDF909B05DF814FB70B5064684
:1002F0004FF0FF3015460C46324686B00091CDE9EE
:10030000010169460020049004A8FFF7D1FF0246CE
:100310000498211825B108B1084600E0204628605D
:10032000049800280DD0002A02DD0098884208D0E9
:100330003246081B69460094CDE9010404A8FFF782
:10034000B7FF06B070BD00002901000041010000A8
:10035000010100002DE9F04791460F468046044612
:10036000002614F8015B2DB100F030F80068405D04
:10037000C007F6D12B2D02D02D2D18D0641E4A4671
:100380003946204600F053F827B13968A14201D11F
:10039000C7F800804FF0020471050BD540420028D9
:1003A00003DDFFF775FF0460A007BDE8F08746F4A2
:1003B0008066E4E70028F8DAFFF76AFF04606FF070
:1003C0000040F2E700487047AC06002010B500F08E
:1003D000A3F8001D10BD00BF214E000010B504465B
:1003E000FFF7F4FF0068005D00F0010010BD4268F7
:1003F00042B1016811F8013B23B1521EC0E900125D
:10040000184670470121C160881E704742685AB182
:10041000C368016843B983688B4205D0491E521CEA
:10042000C0E90012002070474FF0FF3070472DE9FF
:10043000F05F824615468B4600270AF10104B94653
:100440000078302801D09DB113E014F8010B01278A
:10045000782803D0582801D045B10AE00DB1102DFD
:1004600007D1002714F8010B102502E0082500E051
:100470000A250026B0460EE005FB080005FB06F144
:1004800001271FFA80F801EB1046B6F5803F00D334
:10049000B94614F8010B294600F042F80028EBDABF
:1004A000BBF1000F05D00FB1641E00E05446CBF83D
:1004B0000040B9F1000F06D0FFF7EAFE022101600B
:1004C000C81EBDE8F09F48EA0640FAE77546FFF708
:1004D00079FFAE4605006946534620F00700854681
:1004E00018B020B5FFF7B2FEBDE820404FF000067F
:1004F0004FF000074FF000084FF0000B21F007010C
:10050000AC46ACE8C009ACE8C009ACE8C009ACE84E
:10051000C0098D467047000000487047CC06002097
:100520003A2800D2303820F02002412A01D3A2F12B
:100530003700884201D34FF0FF3070472DE9FF4F5D
:1005400006468BB00878FF2806D0491C2D2805D018
:1005500000244FF0000908E000200CE00124F8E737
:1005600009EB8903491C00EB43090878FF28F7D100
:1005700014B1C9F100008146107800252C46AA4626
:1005800029462D2801D02B2804D1521C2D2813D008
:10059000002082468B461078FF280FD04FF0000CC9
:1005A0000A21521CA5FB017804FB018105FB0C11FB
:1005B000C5194BEB0104EEE70120EAE700210846EC
:1005C0004FF00000BAF1000F02D000EB80004008AD
:1005D000C0F38157012F01DD4FF0FF370E9955EA27
:1005E000040009EB01080BD04FF0020918F5FA7F5F
:1005F00016DA4FEACA70002F706008DD012007E0AC
:100600004FEACA70C6E900B00FB0BDE8F08F002015
:100610003060FFF73DFEC0F800901821084616E054
:10062000B8F5FA7F18DD002F02DAF748784401E0C8
:10063000F6487844D0E90010C6E9001040EACA70D4
:100640007060FFF725FEC0F80090142108460FB037
:10065000BDE8F04F05F0D1BF002108464FF0000083
:10066000B8F10001099002DAC7F1000200E03A4651
:1006700001DAC8F1000106A800F026FA06AB93E8FB
:10068000070003AB83E8070044F23E005BEA040185
:100690000090584604D144F21E012C465D4600915C
:1006A000210C0904014306D10099240444EA1544AD
:1006B0002D041039009104F07F41014306D10099C7
:1006C000240244EA15642D020839009104F07041B7
:1006D000014306D10099240144EA15742D01091F34
:1006E000009104F04041014306D10099A40044EA7E
:1006F0009574AD00891E009104F00041084304D1B7
:1007000000986D196441401E00904FF001033A4675
:100710006846B8F1000FCDE9014503A902DD00F0FC
:1007200014FF01E000F0E7FEBAF1000F04460D46A9
:1007300001D084F00044002108464FF000000999E0
:1007400040F2FF77484010F00C0F07D124F0004032
:10075000284303D0C4F30A50B84212D1FFF798FDE2
:10076000C0F80090C4F30A50B8420AD1A8487844AF
:10077000D0E90010C6E9001004F0004108437060A1
:1007800042E7C6E900543FE72DE9FF4F1F464FF00F
:10079000000A4FF0FF38454691B0D7E90146CDF841
:1007A0003CA0FFF7B9FEC0680168405C1090B969D1
:1007B00012986D1C8847396A814688470028F6D10F
:1007C000B9F1FF3F0AD0002E24F4D06411DDB9F155
:1007D0002B0F08D0B9F12D0F0BD102E0404615B018
:1007E00013E744F48064B96912986D1C8847761E3B
:1007F0008146600504A901D52D2000E02B20002EA4
:1008000001F1010B0DF130088DF810003FDDB9F159
:10081000690F08D0B9F1490F05D0B9F16E0F02D0B8
:10082000B9F14E0F1CD13B4601A8009580E850025B
:10083000DDE912126FF0020005F046FFC11CCED1B7
:100840000EE0B96912986D1C884781461398761E90
:1008500044F4007405600F98401C002E0F9016DDC4
:10086000B9F1300FEDD0B9F1780F02D0B9F1580FCE
:100870000DD10F9801280AD13B46CDE90054DDE99E
:100880001212001F029605F01DFFC11CA7D110997E
:1008900089453ED144F0800406E01399681CAAF112
:1008A000010A44F400740860B9696D1C1298761E40
:1008B000884730288146F0D02BE01099894505D132
:1008C000200603D4761E44F0800418E0484604F065
:1008D000C4F808B3761E0DF123018B4544F400746F
:1008E00008D2A9F130000BF8010B200607D5AAF1B8
:1008F000010003E0200602D40AF101008246A005AF
:1009000002D51399681C0860B96912986D1C884754
:100910008146002ED1DC53E0002E51DDB9F1650F88
:1009200002D0B9F1450F4BD1A00549D5B9696D1C6D
:100930001298761E24F440748847002E81460CDD00
:100940002B2804D0B9F12D0F07D144F48074B96974
:1009500012986D1C8847761E8146E00501D52D2131
:1009600000E02B2108F8011BCDF8008021E0761E65
:100970000DF13901884544F400740CD2A9F130001E
:1009800010F0FF0088F8000002D10099884509D9CD
:1009900008F1010806E0E00501D51E4801E042F239
:1009A0000F708246B96912986D1C8847814613986A
:1009B0000560002E04DD484604F04FF80028D6D12B
:1009C000F96912988847FF2053468BF8000088F891
:1009D000000000200A900B9004AA0CA90AA8FFF7B7
:1009E000ADFDA00502D46FF00100F8E614F0240F6D
:1009F00012D0E0071CD13868DDE90A12031D3B6004
:100A00000068C0E9001213E0FC620000EE62000022
:100A1000B2610000F1D8FFFF0AA9684603F0ACFFFD
:100A2000E00705D13868009A011D3960006802604E
:100A30002846D4E610B50446AFF300802046BDE852
:100A40001040FFF7EEBB00004FF0013C50F8042BC4
:100A500051F8043B9A4221D1A2EB0C03934313EAD1
:100A6000CC1317D150F8042B51F8043B9A4215D1FE
:100A7000A2EB0C03934313EACC130BD150F8042BD5
:100A800051F8043B9A4209D1A2EB0C03934313EAB9
:100A9000CC13DBD04FF00000704700BFD01A01BA72
:100AA000B1FA81F101F0180122FA01F0CB40C1F155
:100AB0002001DBB2C0B2C01A2CFA01F3D11A914363
:100AC00011EAC311E6D170472DE9F0478146164679
:100AD0008AB0354878440DC88DE80D003248784416
:100AE000801C03AC0DC884E80D0041F69B3008441F
:100AF000372190FBF1F290FBF1F5A5F1800501FBA8
:100B000012041B3C02D56442012000E00020DFF803
:100B100098A080460027FA44AAF1BE0A0EE0E0073A
:100B20000AD03246684607EB470101230AEB8101F0
:100B300000F0F6FC8DE8070064107F1C002CEED15D
:100B4000194F7F44AE3F19E0E80715D007EB0410BA
:100B50000DF1180A90E80E008AE80E00C068F04215
:100B600001D1981908903246012306A903A800F084
:100B7000D7FC03AB83E807006D10641C002DE3D1A4
:100B80004FF0010332466946B8F1000F03A802D0C6
:100B900000F09CFC01E000F0C3FCC9E90001C9F8C9
:100BA00008200AB0BDE8F087145E00002DE9FF4F71
:100BB0001F464FF03C0987B04FF00042DDE91410AA
:100BC00001F10108DDF858A002EA4050039000202E
:100BD00005908346054604460490B969461E089868
:100BE0008847AAF1010A0290BAF1000F3BDD029892
:100BF0002E2815D01021FFF793FC00282EDB4FF094
:100C0000010B0599014317D0B9F1000F0BDB4A46E0
:100C1000C11700F0FBF905430C43A9F1040905E0F5
:100C2000012004900BE008B145F00105012005907A
:100C3000049820B9361D02E0049800B1361FB96946
:100C4000089808F101088847BBF1000FAAF1010AD2
:100C50000290C9D00999C1F80080C5E702987028B0
:100C600008D0502806D0F96908988847BBF1000FD2
:100C700014D04FE0002002900120BBF1000F04903F
:100C800009D0B969089808F101088847AAF1010953
:100C9000B9F1000F07DCF969089888476FF0010087
:100CA0000BB0BDE8F08F2B2804D02D280CD14FF0CD
:100CB000FF300490B969089808F101088847A9F144
:100CC0000109B9F1000FE6DD411CE4D00A21FFF76C
:100CD00027FC0028DFDB029908F1010801EB810104
:100CE00000EB41000290B969089888470A21FFF794
:100CF00017FC099AA9F10109B9F1000FC2F80080A7
:100D000001DD0028E7DAF969089888470499029814
:100D100000FB016655EA040004D004F040410900DC
:100D200002D006E0039898E0A40044EA9574AD0070
:100D3000B61E04F00041080002D16D196441761E10
:100D4000159810F0240F03D04FF00B095C4803E016
:100D50004FF028096FF07D008246564507DAAAEB6E
:100D600006018944B9F1410F01DD4FF0410901202D
:100D70000021A9F1010200F049F9024628400B4682
:100D80002140084301D0012100E00021501E0291C2
:100D900043F1FF3128402140084301D0012000E009
:100DA00000200299834651EA0B014FD000210846EA
:100DB0004FF00000039900F4400039B100EB8000CF
:100DC0004FF4400100EBD07001EA6000801501286B
:100DD00002DD4FF0FF3000E013D0401C36D0029807
:100DE00060B3BBF1000F0CD14A460120002100F096
:100DF0000DF928402140084301D0012000E00020E7
:100E0000E0B101204A46002100F000F903464019F4
:100E10000A4661412D1A8C4111D3B9F1400F09DD09
:100E2000159810F0240F02D0AAF1340603E0AAF1BD
:100E3000170600E0761C00254FF0004406E05B1E1C
:100E400042F1FF3220EA030521EA0204CAF101005F
:100E5000B04206DA1B490398084301900020009035
:100E60000EE0039AC4F3D321E80A0A43164940EA84
:100E700044500A433146CDE90002684603F0E2FDE2
:100E8000159810F0240F0BD01598C00715D13868AD
:100E9000DDE90012031D3B600068C0E900120CE0B0
:100EA00002A8694603F068FD1598C00705D13868A7
:100EB000029A011D3960006802604046F0E60000B9
:100EC00002FCFFFF0000F07F0000F03F2DE9FF4F24
:100ED00092461D4685B04FF00041DDE9124BDDE939
:100EE00014727F1E01EA4B50414940F0FF4940EA2D
:100EF0000108002122F020004928049102D04E2848
:100F000028D04CE03BA0012607C88DE80700A9695E
:100F10000698641C88477F1E014606D41DF806000B
:100F200018B121F0200181420BD0E9690698884769
:100F3000032E34D0082E32D06FF0010009B0BDE886
:100F4000F08F761C032E01D0082EE0D1601CCAF869
:100F50000000DCE7A9690698641C88477F1E2AD434
:100F600020F02000412826D1A9690698641C8847F2
:100F70007F1E20D420F020004E281CD1A96906989D
:100F8000641C88477F1E48F4002849F48009CAF889
:100F9000004001D4282806D0E969069888475FEA0E
:100FA000CB7012D022E0A9690698641C88477F1E86
:100FB00001D4002803DAE96906988847BCE72928A4
:100FC000F1D1641CCAF80040E9E71BF0240F07D0F8
:100FD00028680499031D2B600068C0E9001805E02B
:100FE0002868021D2A600068C0F800902046A5E726
:100FF0000000F07F494E46494E4954590000000018
:1010000001491820ABBEFEE726000200B2F1200322
:101010000AD5C2F1200301FA02F120FA03F300FA23
:1010200002F041EA0301704700FA03F14FF00000BB
:101030007047704720F07F4C80EA030023F07F4721
:10104000ACEB070303F57C5300F0004003F1FF0312
:101050002DE980494FEA154B09B44FEA144325EABC
:101060000B4E24EA03480FF2042606EB1327490827
:101070003E785FEA320203FB0667C7F5000707FB0D
:1010800006F64FEA54374FEAD64606F1020607FB4A
:10109000066CCCF1005C4FEA1C472CEA074C07FBBE
:1010A00006F40CFB06F504EB15464FEA961634BF22
:1010B00000204FF000404FEAD13706FB07FC4FEA13
:1010C0001C4C0CFB0BF7D21B03FB0CF761EB07016D
:1010D0000CFB0EF7B0EB074072EB17420CFB08F766
:1010E00034BFA2EB0742B2EB074261EB17414FEA74
:1010F0000C444FEA910706FB07FC4FEA1C4C0CFB23
:101100000BF7B0EBC74072EB573203FB0CF734BF61
:10111000A2EBC742B2EBC74261EB57310CFB0EF7B3
:10112000B0EBC70072EB57720CFB08F734BFA2EBB1
:10113000C702B2EBC70261EB5771039F4FEA8161AF
:1011400041EA921104EBCC044FEAD1374FEA8262B4
:1011500006FB07FC42EA90124FEA80604FEA1C4C03
:101160000CFB0BF7D21B03FB0CF761EB07010CFB2D
:101170000EF7B0EB074072EB17420CFB08F734BFD9
:10118000A2EB0742B2EB074261EB17414FEA8C55E5
:101190004FEA910704EB9C2406FB07FC4FEA1C4C2A
:1011A0000CFB0BF7B0EBC74072EB573203FB0CF7AD
:1011B00034BFA2EBC742B2EBC74261EB57310CFB25
:1011C0000EF7B0EBC70072EB57720CFB08F734BF99
:1011D000A2EBC702B2EBC70261EB577115EB4C25CE
:1011E0004FEA816141EA92114FEA82624FEAD137B8
:1011F00042EA901206FB07FC44F100044FEA8060CB
:101200004FEA1C4C0CFB0BF7D21B03FB0CF761EBFA
:1012100007010CFB0EF7B0EB074072EB17420CFB1B
:1012200008F734BFA2EB0742B2EB074261EB17416C
:1012300015EB1C154FEA813141EA92414FEA8232A7
:1012400042EA90424FEA80304FEA0C7644F10004C3
:1012500048EA03434EEA0B484FF0000EB2EB080C8D
:1012600071EB030724BF624639464EEB0E0E4FF07A
:10127000000B0018524149414BEB0B0BB2EB080C31
:1012800071EB03077BF1000B24BF624639464EEB3E
:101290000E0E4FF0000B0018524149414BEB0B0B67
:1012A000B2EB080C71EB03077BF1000B24BF624625
:1012B00039464EEB0E0E51EA020718BF46F0010602
:1012C00016EB0E7655F1000254F1000103D5BDE88E
:1012D0008901BDE80088BDE88901BDE80048B6196C
:1012E000524141EB0101A3F10103704780807F7EF1
:1012F0007D7C7B7A7978777676757473727171708C
:101300006F6E6E6D6C6C6B6A6A696868676666653D
:101310006464636362616160605F5F5E5E5D5D5CCB
:101320005C5B5B5A5A59595858575756565555553C
:101330005454535352525251515050504F4F4F4E9C
:101340004E4D4D4D4C4C4C4B4B4B4A4A4A494949EA
:10135000484848474747474646464545454444442C
:1013600044434343434242424241414146EA0646E6
:10137000A3F570534FEA164646EA42564FEAD22288
:1013800042EA415210B54FEAD121A3F1010300F026
:101390002FF820F0004000F1020C00F0004701EBB4
:1013A00000501146BCF5006F40EA070000D210BDA6
:1013B000BAF1000F0AD01CB503B44FF004004FF08F
:1013C00004014FF000000FBCBDE810404FF00001D9
:1013D000BBF1010FB9BF04484FF0FF3103480021B2
:1013E00040EA070010BD00BFFFFFEF7F0000F07F65
:1013F000002B9C4630D477002BD01CB54FEA370722
:1014000003B44FF010004FF01001BAF1000F06D0F6
:10141000BCF1000FDCBF40F0080040F008014FF0C5
:1014200000000FBCBDE810400BF1010BBBF1010F38
:1014300008BF5FEA170722BF12F1010211F1010193
:101440004FF0004143F1000300F0004043EA000088
:101450007047F9D35708D0E746EA064613F1400F24
:101460004FEA16461FDD13F1200FDFBF16430A4671
:10147000002120335B42BED0C3F1200746EA064676
:1014800002FA07F74FEA164646EA0706C3F12007B5
:1014900022FA03F201FA07F721FA03F14FF00003F1
:1014A00042EA0702A7E746EA020646EA06464FEA8C
:1014B000164646EA0106BCBF46EA0646360C4FF021
:1014C00000034FF000024FF0000194E72DE9804C3B
:1014D0009A46934670B491E8380007C831EA400C48
:1014E00048BF34EA430C03D5FFF7A4FDFFF780FFA4
:1014F000F0BCBDE8008C2DE9804C9A46934670B450
:1015000091E8380007C831EA400C48BF34EA430C80
:1015100003D5FFF78FFDFFF729FFF0BCBDE8008C76
:101520002DE9804C9A46934670B491E8380007C87C
:1015300010F0804F08BF13F0804F03D100F01AF86D
:10154000FFF756FFF0BCBDE8008C2DE9804C9A46B1
:10155000934670B491E8380007C810F0804F08BF78
:1015600013F0804F03D100F005F8FFF7FFFEF0BC49
:10157000BDE8008C20F07F4780EA030023F07F4C19
:1015800007EB0C03A3F57C5300F00040A3F1FE032E
:1015900092F0000F00F0B38095F0000F00F077801C
:1015A0002DE901494FEA11404FEA144621EA00486B
:1015B00000FB06FC24EA064708FB06F607FB08F8D2
:1015C00000FB07F718EB06484CEB164C4FEA124BA2
:1015D00018EB07484FEA15464CEB174022EA0B4E32
:1015E0000BFB06FC25EA06470EFB06F607FB0EFE84
:1015F0000BFB07F71EEB064E4CEB164C4FF00006AC
:101600001EEB074E4CEB174B18EB0B0840F100009C
:1016100018EB0E0B58EB000840F100008F1A4FF04A
:1016200000013CBFC943661B14BFB5EB040C00218D
:101630003CBFC943F61B4FEA17444EEA8E0E27EA19
:1016400004454FEA1C4704FB07622CEA074C05FBE4
:1016500007F70CFB05F604FB0CFC16EB074642EB08
:10166000174216EB0C4642EB1C421BEB060658EBEE
:101670000202414146EA9E0601D5BDE80189B6193C
:10168000524141EB0101A3F10103BDE801894FEA99
:1016900014454FEA114724EA054621EA074C05FBA9
:1016A00007F406FB07F70CFB06F105FB0CFC11EB3E
:1016B000074144EB17444FEA124711EB0C4144EB4E
:1016C0001C4422EA074C05FB07F206FB07F70CFB5C
:1016D00006F605FB0CFC16EB074642EB174216EB31
:1016E0000C4642EB1C456A1854F1000148BF704794
:1016F000B619524141EB0101A3F10103704795F086
:10170000000F37D04FEA11424FEA144721EA024650
:1017100024EA074C02FB07F106FB07F70CFB06F473
:1017200002FB0CFC14EB074441EB17414FEA154751
:1017300014EB0C4441EB1C4125EA074C02FB07F576
:1017400006FB07F70CFB06F602FB0CFC16EB074644
:1017500045EB174516EB0C4645EB1C42121951F1AF
:10176000000148BF7047B619524141EB0101A3F196
:10177000010370474FEA14454FEA114724EA054632
:1017800021EA074C05FB07F106FB07F70CFB06F205
:101790004FF0000605FB0CFC12EB074241EB174132
:1017A00012EB0C4251EB1C4148BF7047921841EBC1
:1017B0000101A3F10103704721B1826842F00102E7
:1017C000826003E0826822F001028260704721B1EA
:1017D000826842F48072826003E0826822F4807240
:1017E0008260704700B58BB00121084601F056FCBD
:1017F000114800F0BDF9114800908015069010487E
:101800000190002002900A904FF4806007908020A1
:1018100005900020049020200890000209900420E8
:1018200003906946044800F052FA0121024800F092
:1018300093F90BB000BD0000080002404C240140A9
:101840006404002010B504461248844208D10121E6
:10185000401501F063FC0021601501F05FFC17E00A
:101860000D48844208D10121001501F057FC0021E8
:10187000201501F053FC0BE00848844208D10121F7
:10188000C80301F04BFC00214FF4004001F046FC7E
:1018900010BD00000024014000280140003C014030
:1018A000014600208A6802F004020AB1012000E02B
:1018B00000207047014600208A6802F008020AB141
:1018C000012000E00020704730B5024600200023D0
:1018D00050680F4C20400D790C6844EA05242043E1
:1018E000506090680B4C2040D1E902542C434D7954
:1018F00044EA450420439060D06A20F470000C7CD8
:10190000641EE4B2234340EA0350D06230BD0000BD
:10191000FFFEF0FFFDF7F1FFF0B504460D46002095
:101920000021092D11DDE068A5F10A0606EB460746
:10193000072606FA07F18843A5F10A0606EB4606D4
:1019400003FA06F10843E0600CE0206905EB450767
:10195000072606FA07F1884305EB450603FA06F168
:1019600008432061072A0FDA606B561E06EB8607D4
:101970001F2606FA07F18843561E06EB860605FA6F
:1019800006F10843606322E00D2A0FDA206BD61FB0
:1019900006EB86071F2606FA07F18843D61F06EBDB
:1019A000860605FA06F10843206310E0E06AA2F11A
:1019B0000D0606EB86071F2606FA07F18843A2F1FB
:1019C0000D0606EB860605FA06F10843E062F0BD57
:1019D000816841F008018160704721B1826842F45A
:1019E000A002826003E0826822F4A0028260704755
:1019F000816841F0040181607047000000B587B044
:101A000001214FF4017001F079FB4FF4404001F0E7
:101A100039FB0F20ADF8040000208DF8070001A964
:101A2000284800F073F92848FFF70CFF00200290C7
:101A300001208DF80C008DF80D004FF4602004900B
:101A40000020059004208DF8180002A91E48FFF719
:101A50003BFF0623012200211B48FFF75DFF062301
:101A6000022201211848FFF757FF06230322022113
:101A70001548FFF751FF0623042203211248FFF700
:101A80004BFF01211048FFF7A2FE01210E48FFF78E
:101A900093FE0D48FFF79CFF00BF0B48FFF70AFFBE
:101AA0000028FAD10848FFF7A3FF00BF0648FFF758
:101AB000F7FE0028FAD101210348FFF78EFF07B097
:101AC00000BD0000000801400024014000BFFEE707
:101AD00070B500254FF4003000F030F800201349B5
:101AE00008701348B0F90800401CE8B9002409E068
:101AF0000F4801780930001B0078081A0C4908705B
:101B0000601CC4B20A2CF3D30948007860B90948B4
:101B100007490A6802604A68426009890181807940
:101B200000F001000449086070BD00004904002075
:101B3000A206002098060020B801224200F0805141
:101B400011B10349086001E0024948607047000094
:101B5000040402400000024021B1026842F0010288
:101B6000026004E002684FF6FE731A40026070479C
:101B700001684FF6FE721140016000210160416072
:101B80008160C1604B49884208D14A490839496897
:101B900041F00F01474A083A51608AE04549143143
:101BA000884208D143490839496841F0F001414A67
:101BB000083A51607DE03F492831884208D13D49CB
:101BC0000839496841F470613A4A083A516070E056
:101BD00038493C31884208D136490839496841F4CE
:101BE0007041344A083A516063E0324950318842CA
:101BF00008D130490839496841F470212D4A083A22
:101C0000516056E02B496431884208D1294908398E
:101C1000496841F47001274A083A516049E0254972
:101C20007831884208D123490839496841F0706108
:101C3000204A083A51603CE01F49884206D1011F02
:101C4000096841F00F01021F116032E01A49143196
:101C5000884208D11849091F096841F0F001164A65
:101C6000121F116025E014492831884208D1124919
:101C7000091F096841F470610F4A121F116018E0D2
:101C80000D493C31884208D10B49091F096841F4CC
:101C90007041094A121F11600BE007495031884218
:101CA00007D10549091F096841F47021024A121F32
:101CB0001160704708000240080402401AB103682E
:101CC0000B43036002E003688B430360704710B569
:101CD0000022026847F6F0739A430C6A8B6823432C
:101CE0000C6923434C6923438C692343CC69234308
:101CF0004C6A23438C6A23431A430260CB684360D7
:101D00000B6883604B68C36010BD70472DE9F041DC
:101D1000024600250026002000230024002791F819
:101D200003C00CF00F0591F803C00CF0100CBCF1CF
:101D3000000F03D091F802C04CEA050591F800C0ED
:101D4000BCF1000F31D0146800202BE04FF0010CE3
:101D50000CFA00F3B1F800C00CEA03069E4220D151
:101D600083004FF00F0C0CFA03F7BC4305FA03FC99
:101D70004CEA040491F803C0BCF1280F06D14FF0DF
:101D8000010C0CFA00FCC2F814C00AE091F803C080
:101D9000BCF1480F05D14FF0010C0CFA00FCC2F861
:101DA00010C0401C0828D1D31460B1F800C0BCF1A9
:101DB000FF0F34DD546800202EE000F1080C4FF0D6
:101DC000010808FA0CF3B1F800C00CEA03069E42C1
:101DD00021D183004FF00F0C0CFA03F7BC4305FA36
:101DE00003FC4CEA040491F803C0BCF1280F05D1B0
:101DF00000F1080C08FA0CF8C2F8148091F803C03E
:101E0000BCF1480F07D100F1080C4FF0010808FAA7
:101E10000CF8C2F81080401C0828CED35460BDE8EE
:101E2000F0810000F0B50A460023002400210025BF
:101E300000F00046B6F1004F02D11D4EF16901E0FD
:101E40001B4E7168C0F3034583B200F44016B6F52B
:101E5000401F08D121F07061154E766826F070663B
:101E6000134F7E6012E000F48016B6F5801F06D195
:101E7000032606FA05F4A14341F0706106E0460D21
:101E8000360103FA06F6B14341F0706122B1460D06
:101E9000360103FA06F6314300F00046B6F1004F72
:101EA00002D1034EF16101E0014E7160F0BD00000E
:101EB000000001400161704700B58DB00D208DF824
:101EC000300003208DF8310002208DF8320001200F
:101ED0008DF833000CA800F0A7FD0121084601F0A1
:101EE000DDF81D48FFF744FE1C4801901C48029095
:101EF00000200390C82004900020059080200690C8
:101F000000200790089009904FF400500A9000209C
:101F10000B9001A91048FFF7DAFE00210F48001FBF
:101F200001F0ACFF4FF40030FFF708FE4FF48020C3
:101F3000FFF704FE01210848FFF70EFE01224021B1
:101F40000648001F01F0A6FF01210448001F01F010
:101F500095FF0DB000BD0000300002400448004075
:101F60006805002010B54FF4165001F0CBFCFFF7C8
:101F7000A3FF6420014981F8450010BD2005002021
:101F8000002100BF0FE00F4830F8110001EB4102C3
:101F90000D4B33F81220104401EB410203EB4202D7
:101FA0009080481CC1B20429EDDB0748808840F6C8
:101FB0007B4250434FF47A7290FBF2F0024A508019
:101FC00001207047640400204C04002000BFFEE79D
:101FD00000B585B00121092001F090F801214805E4
:101FE00001F06CF801210220FFF71CFF4FF4407054
:101FF000ADF810001C208DF8130003208DF812009E
:1020000004A91448FFF782FE134800F093F900205A
:10201000ADF804004FF48060ADF80A000001ADF89F
:102020000C00ADF806000D4800900120ADF8080046
:102030006946094800F0B2F90121074800F06DF93E
:102040000121054800F09EF90121034800F08EF9B6
:1020500005B000BD000C014000540040E0930400B6
:102060002DE9F0470746894616461D460024A0463E
:102070000121574800F07AF906E0B4F5807F02D9D3
:102080000020BDE8F087641C5249514800F030F947
:102090000028F2D000247806010E00224C4800F0FF
:1020A000F7F905E0B4F5807F01D90020E9E7641C69
:1020B0004949474800F01CF90028F3D0002449465C
:1020C000434800F0EEF905E0B4F5807F01D9002027
:1020D000D7E7641C4049891E3D4800F009F90028F3
:1020E000F2D00024012D03D00121394800F0F4F88A
:1020F0000121374800F03AF905E0B4F5807F01D9B5
:102100000020BEE7641C3349314800F0F1F8002894
:10211000F3D02F481430008800247806010E0122E5
:102120002B4800F0B5F905E0B4F5807F01D9002017
:10213000A7E7641C2749491C254800F0D9F8002866
:10214000F2D0234814300088214818300088002439
:102150004FF0010810E000BF1E493F311C4800F05D
:10216000C7F80028F8D01A4800F08EF906F8010BDD
:1021700008F1010000F0FF08A845ECDB012D07D0B5
:1021800000BF14493F31124800F0B2F80028F8D0DF
:1021900000210F4800F0A0F8012D01D0012000E03F
:1021A000002001460A4800F0EDF8094800F06CF9FB
:1021B000307000BF07493F31054800F099F800280A
:1021C000F8D00121024800F087F8012059E700000B
:1021D0000054004001000300820007002DE9F04791
:1021E00006468946174698460024002501212C48BA
:1021F00000F0BCF806E0B4F5807F02D90020BDE80D
:10220000F087641C2749264800F072F80028F2D0B5
:1022100000247006010E0022214800F039F905E083
:10222000B4F5807F01D90020E9E7641C1E491C48F1
:1022300000F05EF80028F3D000244946184800F06A
:1022400030F905E0B4F5807F01D90020D7E7641CA0
:102250001549891C124800F04BF80028F2D00024E0
:10226000002514E0795D0E4800F01BF905E0B4F597
:10227000807F01D90020C2E7641C0B49891C0848F3
:1022800000F036F80028F2D00024681CC5B245459D
:10229000E8DB0121024800F075F80120AFE70000FB
:1022A00000540040010003008200070038B50446D6
:1022B0000D4601236A4629462046FFF7D1FE9DF8C8
:1022C000000038BD37B504460D46012302AA294651
:1022D0002046FFF783FF3EBD21B1028842F48062B1
:1022E000028004E002884FF6FF331A4002807047F4
:1022F00070B502460024002500230020958A138B28
:102300001B0445EA030626F07F4404EA01068E42D8
:1023100001D1012000E0002070BD21B1028842F00F
:102320000102028004E002884FF6FE731A40028028
:102330007047000010B504460B48844209D10121C2
:10234000480500F0CBFE00214FF4001000F0C6FE5F
:1023500008E00121880500F0C1FE00214FF4800053
:1023600000F0BCFE10BD00000054004021B1028806
:1023700042F48072028004E002884FF6FF631A4044
:102380000280704721B1028842F40072028004E0AA
:1023900002884FF6FF531A40028070472DE9F04340
:1023A00085B004460D460026B1460427DFF8CC80F0
:1023B000A6884FF6C0700640684600F0BFFEDDF804
:1023C00008802F48B8FBF0F01FFA80F946EA0906AA
:1023D000A68020884FF6FE710840208000262949FB
:1023E000286888420CD828684000B8FBF0F087B213
:1023F000042F00DA04273E4309F10100208427E07E
:10240000E8884BF6FF71884206D1286800EB40004F
:10241000B8FBF0F087B209E0286800EBC00101EBDF
:102420000010B8FBF0F087B247F48047C7F30B0009
:1024300008B947F0010747F4004006434FF496708F
:1024400009FB00F04FF47A7190FBF1F0401C2084FE
:10245000A683208840F00100208026884FF6F530C2
:102460000640A8886989084306432680A8892989E7
:102470000843208105B0BDE8F083000000127A0017
:1024800040420F00A08601000146088AC0B2704792
:1024900012B141F0010102E04FF6FE7319400182D2
:1024A000704701827047000008B50121102000F03C
:1024B00025FE4FF4C040ADF8000010208DF8030059
:1024C00002208DF8020069460648FFF71FFC4FF412
:1024D00000510448FFF7EEFC4FF480410148FFF73C
:1024E000E9FC08BD001001402DE9FF5F4FF0000A34
:1024F000DFF864B10E236A463B216820FFF7B0FD88
:1025000018B9002004B0BDE8F09F0FE0012000EBF7
:102510004A001DF800001DF81A1040EA012000B220
:102520002BF81A000AF1010000F0FF0ABAF1070FB8
:10253000ECDB49480189B0F87600084400B246490E
:10254000088108464189B0F87800084401B2424841
:1025500041818189B0F87A00084401B23E48818106
:1025600000883D49B1F87010084400B23A4908802B
:1025700008464188B0F87200084400B236494880E5
:1025800008468188B0F87400084400B23249888057
:10259000B1F9080003F025F90446304A304B03F046
:1025A00087F92D4AC2E90A011146B1F90A0003F080
:1025B00018F90446294A2A4B03F07AF9264AC2E957
:1025C0000C011146B1F90C0003F00BF90446234A43
:1025D000234B03F06DF9204AC2E90E011146B1F90F
:1025E000000003F0FEF804461E4A1F4B03F060F99A
:1025F000194AC2E904011146B1F9020003F0F1F8E9
:102600000446184A184B03F053F9134AC2E906016D
:102610001146B1F9040003F0E4F80446114A124BE4
:1026200003F046F90C4AC2E908011146B1F9060067
:1026300003F0D7F880460D4A0D4B03F039F90646F2
:1026400000220C4B02F020FE044603F06DF800B2AD
:102650000149C880012055E788040020B0977D8992
:102660003E409F3F8B16E742C199533F2E8ECA4D85
:10267000D4D2D23F008AAC4010B5044664B1802267
:102680006B216820FFF71EFE032002F0B1FB6420DF
:102690002F4981F87C000BE080226B216820FFF736
:1026A00011FE032002F0A4FB6420294981F87C007C
:1026B00000226B216820FFF705FE10221B216820F5
:1026C000FFF700FE08221C216820FFF7FBFD052212
:1026D0001A216820FFF7F6FD002238216820FFF755
:1026E000F1FD00226A216820FFF7ECFD0022232182
:1026F0006820FFF7E7FD802237216820FFF7E2FD21
:1027000075216820FFF7D2FD682808D101226B21CE
:10271000FFF7D8FD00226C216820FFF7D3FD2621AA
:102720000B48A0F876106FF00801A0F878100D2182
:10273000A0F87A1000200649A1F870000021044892
:10274000A0F8721040F20D21A0F87410012010BD05
:10275000880400202DE9F04F87B0A348D0E9044356
:10276000A2482246D0E90061304602F08DFD9F4A22
:1027700003C29D48D0E906439C482246D0E9026145
:10278000304602F081FD994AC2E902019648D0E93B
:10279000084310462246D0E90461304602F074FD39
:1027A000924AC2E90401924800780A2190FBF1F2B2
:1027B00001FB120000287DD18C480146D0E904437A
:1027C000D1E904612246304603F072F8CDE90201F6
:1027D0008648D0E902432246D0E90261304603F040
:1027E00067F8804689468148D0E900432246D0E90F
:1027F0000061304603F05CF8824642464B4602F0E8
:1028000043FDCDE90001DDE9022302F03DFDCDE904
:10281000040102F0B5FC774A03C20022764B7549E9
:1028200003C903F043F953D20022744B714903C921
:1028300003F002F84CD26C49B1F9040003F014FD26
:1028400006466949B1F9000003F00EFD074631461E
:1028500002F0F4FA05466A4903F0D4FB044603F09B
:1028600037FB614AC2E914011146B1F9020003F0D5
:10287000FBFC06465C49B1F9000003F0F5FC074695
:10288000314602F0DBFA05465D4903F0BBFB044626
:1028900003F01EFB544AC2E910011146B1F90200CF
:1028A00003F0E2FC06465049B1F9040003F0DCFCF9
:1028B000074600E017E0314602F0C0FA05465049ED
:1028C00003F0A0FB044603F003FB474AC2E91201F0
:1028D0000020474908700021444A1161516191600C
:1028E000D1601160516042480078401C4049087036
:1028F0003D49B1F90A0002F074FF8046414A424B5B
:1029000002F0D6FF0646414A414B02F0D1FF044691
:102910003548D0E914633246204603F0FDF8324AC8
:10292000C2E914011146B1F90C0002F05AFF064643
:10293000344A354B02F0BCFF0446344A344B02F0B3
:10294000B7FF80462848D0E910432246404602F0AF
:102950009BFC254AC2E910011146B1F9080002F0BA
:1029600040FF8046274A284B02F0A2FF0646274A2E
:10297000274B02F09DFF04461B48D0E91263324604
:10298000204603F0C9F8184AC2E912011046002295
:102990001346D0E91441204603F088F80BD21248C0
:1029A000D0E91443224600201A4903F0A7F90E4A41
:1029B000C2E91A010AE00C48D0E91443224600207B
:1029C000154903F09BF9084AC2E91A010648D0E903
:1029D000124322460020114903F090F9024AC2E94D
:1029E000180107B0BDE8F08F88040020080500201A
:1029F000380400204004002000C0574000405A40E6
:102A000034FA8E3CB0977D893E409F3F7B14AE47A1
:102A1000E17A843F00806640008066C0008056C036
:102A200000BFFEE77047000070B5002100230F22B1
:102A3000C47804B3154C246804F4E064C4F5E0647D
:102A4000210AC1F10403CA40447804FA03F18478EE
:102A50001440214309010E4C0678A155047804F076
:102A60001F050124AC4005786D11AD0005F1E0258E
:102A7000C5F8004109E0047804F01F050124AC40CA
:102A8000044D0678761145F8264070BD0CED00E047
:102A900000E400E080E100E002490143024A1160E5
:102AA000704700000000FA050CED00E030B589B079
:102AB00004460D460121032000F000FB01210D20FA
:102AC00000F01CFB01215F48FFF7ACF901215E48D3
:102AD000FFF7A8F901215D48FFF7A4F901215C483F
:102AE000FFF7A0F93B20ADF8200018208DF8230057
:102AF00003208DF8220008A95648FFF707F94FF484
:102B00000040ADF8200018208DF8230003208DF838
:102B1000220008A95048FFF7F9F8ADF81840ADF8C1
:102B200014500020ADF81A00ADF8160005A94B4866
:102B300000F096FE05A94FF0804000F091FE702055
:102B4000ADF804000120ADF806000220ADF80C003D
:102B500001A9424800F020FD01A9404800F0D2FD43
:102B600001A93E4800F028FE01A94FF0804000F086
:102B700013FD01A94FF0804000F064FD08213748A3
:102B800000F056FD0821354800F0AEFD082133481D
:102B900000F008FE0821314800F04CFE0821C8066C
:102BA00000F046FD0821C80600F09EFD4FF4FA70C3
:102BB0002B49088040F21630488040F2B2208880CD
:102BC00040F20730C88040F216300881002048816A
:102BD000002123488181C181018241820088204AED
:102BE0005289104481B24FF0804000F032FE1C4800
:102BF00042888089104481B2184800F02EFE18489F
:102C00008288C089104481B2144800F024FE144820
:102C1000C288008A104481B2104800F018FE1048A3
:102C20000289408A104481B24FF0804000F00FFECC
:102C300001210A4800F08AFC0121880700F086FC87
:102C400009B030BD00081A00000118000001300072
:102C500000023000000C0140000801400004004068
:102C6000680600202DE9FC5FF948807900F0040037
:102C700018B1F84890F87D0018B1F748007800289E
:102C80007BD0F649C86BF64903F006FC62D2F348E4
:102C900090F8430000285DD1EF48007858B3EF4921
:102CA000C86B03F0A5FA00B2C0F13C0000EB800055
:102CB0008000002801DA002019E0E849C86B03F021
:102CC00097FA00B2C0F13C0000EB80004FF4FA71BB
:102CD000B1EB800F01DA084609E0E049C86B03F068
:102CE00087FA00B2C0F13C0000EB8000800000B227
:102CF000DC49488145E0D949C86B03F079FA00B254
:102D0000D3494978081A00EB80008000002801DAD6
:102D100000201BE0D149C86B03F06AFA00B2CC492D
:102D20004978081A00EB80004FF4FA71B1EB800F7C
:102D300001DA08460AE0C949C86B03F059FA00B243
:102D4000C3494978081A00EB8000800000B2C549E9
:102D5000488116E0C048007880B9BD49487802F043
:102D600057FD06460022C04B02F0A2FD044602F0C9
:102D7000DBFC00B2BB49488103E048E00020B949D0
:102D80004881B448D0E91821104602F0CDFC0FFA72
:102D900080F8404602F025FD06460022B34B02F0C3
:102DA00087FD044602F0C0FC01B2AE488181A9480B
:102DB000D0E91821104602F0B7FC0FFA80F840461F
:102DC00002F00FFD06460022A84B02F071FD0446FA
:102DD00002F0AAFC01B2A348C1819E48D0E91A21A1
:102DE000104602F0A1FC00B2C0F10008404602F01B
:102DF000F8FC064600229D4B02F05AFD044602F004
:102E000093FC01B29748018264214182F3E090492A
:102E1000487802F0FDFC06460022934B02F048FD84
:102E2000044602F081FC00B28E4948818849497904
:102E3000A1F1640002F0D5FC06460F46844989786A
:102E4000A1F1640002F0CDFC0022894BCDE9000124
:102E500002F02EFD804632463B4602F04FFF82468E
:102E60000022844B02F0E8FC02D20020814939E0C4
:102E700077494979A1F1640002F0B3FC06460F4698
:102E800073498978A1F1640002F0ABFC824600220C
:102E9000774B02F00DFD32463B46CDE9000102F0D2
:102EA0002DFF80460022744B02F000FE02D200206B
:102EB000714917E066494979A1F1640002F091FC7B
:102EC0008046894662498978A1F1640002F089FC54
:102ED00006460022664B02F0EBFC824642464B4619
:102EE00002F00CFF044602F01FFC01B25D48818134
:102EF00057494979A1F1640002F073FCCDE9000162
:102F000053498978A1F1640002F06BFC80460022ED
:102F1000574B02F0CDFC0646DDE9002302F0B4F980
:102F200082460022534B02F087FC02D20020514916
:102F300039E047494979A1F1640002F052FC0646A4
:102F40000F4643498978A1F1640002F04AFC00224F
:102F5000474BCDE9000102F0ABFC804632463B46D0
:102F600002F092F982460022434B02F09FFD02D20A
:102F70000020414917E036494979A1F1640002F087
:102F800030FC06460F4632498978A1F1640002F010
:102F900028FC82460022364B02F08AFC80463246EC
:102FA0003B4602F071F9044602F0BEFB01B22D4827
:102FB000C1812749C978A1F1640002F012FC0646DC
:102FC00000222A4B02F074FC044602F0ADFB01B271
:102FD000244801821E490979A1F1640002F001FC34
:102FE00006460022214B02F063FC044602F09CFBE3
:102FF00001B21C4841821B4800881A4A5289104479
:1030000081B24FF0804000F024FC1648428880894D
:10301000104481B2194800F020FC12488288C0890F
:10302000104481B2154800F016FC0E48C288008A90
:10303000104481B2114800F00AFC0A480289408A13
:10304000104481B24FF0804000F001FCBDE8FC9FCD
:1030500098060020880400204A0400202005002053
:103060000000F04168060020000004400000F83F26
:103070000000F8BF00C062C000C062400004004011
:103080007047000001460020034A506820F4404089
:1030900008435060704700000010024029B1064A02
:1030A00052690243044B5A6104E0034A5269824365
:1030B000014B5A61704700000010024029B1064AD6
:1030C000D2690243044BDA6104E0034AD2698243C5
:1030D000014BDA61704700000010024029B1064A36
:1030E00012690243044B1A6104E0034A12698243E5
:1030F000014B1A61704700000010024029B1064AD6
:1031000092690243044B9A6104E0034A9269824344
:10311000014B9A61704700000010024029B1064A35
:10312000D2680243044BDA6004E0034AD268824367
:10313000014BDA60704700000010024030B50021FA
:103140000022002400232D4D6D6805F00C0121B1F3
:10315000042905D0082923D105E0294D056022E086
:10316000274D05601FE0254D6D6805F47012234D55
:103170006D6805F48034022505EB92421CB9214D9F
:10318000554305600BE01D4D6D6805F400351DB11C
:103190001C4D5543056002E0194D5543056002E0A2
:1031A000174D056000BF00BF144D6D6805F0F001BC
:1031B0000909154D6B5C0568DD4045600F4D6D6874
:1031C00005F4E061090A104D6B5C4568DD408560DF
:1031D0000A4D6D6805F46051C90A0B4D6B5C45687A
:1031E000DD40C560054D6D6805F44041890B074D14
:1031F0006B5CC568B5FBF3F5056130BD001002409E
:1032000000127A0000093D00200400203004002054
:10321000704710B500F002F810BD00000CB500209A
:10322000019000903348006840F4803031490860D4
:1032300000BF3048006800F4003000900198401C46
:103240000190009818B90198B0F5A06FF1D1294804
:10325000006800F4003010B10120009001E000206F
:1032600000900098012843D12348006840F01000E6
:10327000214908600846006820F0030008600846FD
:10328000006840F0020008601A4840681949486028
:103290000846406848600846406840F480604860DE
:1032A0000846406820F47C1048600846406840F4B6
:1032B000E81048600846006840F08070086000BF71
:1032C0000C48006800F000700028F9D009484068F8
:1032D00020F00300074948600846406840F00200BB
:1032E000486000BF0348406800F00C000828F9D18E
:1032F0000CBD00000010024000200240042808D14C
:103300004FF0E021096941F004014FF0E022116122
:1033100007E04FF0E021096921F004014FF0E022BD
:10332000116170477047000010B51348006840F005
:1033300001001149086008464068104908400E49DC
:103340004860084600680E4908400B490860084676
:10335000006820F4802008600846406820F4FE00E1
:1033600048604FF41F008860FFF753FF4FF0006084
:103370000449086010BD0000001002400000FFF882
:10338000FFFFF6FE08ED00E07FB504460D46012183
:10339000C802FFF7B3FEADF80840681E80B2ADF872
:1033A00004000020ADF80A00ADF806008DF80C000E
:1033B00001A90F4800F054FA01210D4800F0C0F8AF
:1033C000012241210A4800F0DEF819208DF80000A2
:1033D00000208DF801008DF8020001208DF8030017
:1033E0006846FFF721FB0121014800F0AFF87FBDDF
:1033F000002C014010B5494801780078401C474A2C
:10340000107001290CDD4648806D00F0FE00444933
:1034100088650A20C8650846806D40F0010088650F
:1034200040480078632803D100203E49087004E03A
:103430003C480078401C3B490870FEF7A1FDFFF7AF
:1034400053F828B1FFF786F90020374981F87C004E
:103450003449087800EBD0714910A0EB410109B163
:10346000FFF700FC2F480078192190FBF1F201FBD7
:10347000120008B900F042FE2C480078401C2B498D
:10348000087008460078322807DD3C2008700120CB
:10349000274908702749086002E000202449087085
:1034A000254890F84500401C234981F8450008460E
:1034B00090F84500462806DD502081F8450001209F
:1034C00081F8440003E000201B4981F844001648BD
:1034D00090F87C00401C144981F87C00084690F864
:1034E0007C0046280BDD502081F87C00012081F80B
:1034F0007D00FEF76DFD0120FFF7BEF803E0002020
:10350000094981F87D0001210C4800F02BF818B121
:1035100001210A4800F017F810BD00004B040020FC
:103520000000024000000020880400204904002020
:103530004A040020B801224220050020002C01404E
:10354000CA4302827047CA430282704721B102888F
:1035500042F00102028004E002884FF6FE731A4036
:103560000280704730B50246002000230024158AEF
:1035700005EA0103958905EA010413B10CB10120A4
:1035800000E0002030BD1AB183890B43838102E043
:1035900083898B438381704770B500240022002308
:1035A000058C4FF6FE7635400584028C8388048BAB
:1035B0004FF68F752C40B51E2C400D882C43751E80
:1035C0002A400D892A434D882A43144DA8420BD026
:1035D000134DA84208D0134DA84205D0124DA84261
:1035E00002D0124DA84213D14FF6F7752A404D89EB
:1035F0002A434FF6FB752A408D882A434FF6FF6514
:103600002B404FF6FF552B408D892B43CD892B4303
:1036100083800483CD888586028470BD002C0140A0
:103620000034014000400140004401400048014096
:103630000A460021018B4FF6F773194011430183AD
:103640007047000070B5002400220023058C4FF65F
:10365000EF7635400584028C8388048B48F6FF752D
:103660002C404FF6FF452C400D884FF6FF7606EABA
:1036700005252C434FF6DF752A400D8906EA05150E
:103680002A434D8806EA05152A43154DA84202D063
:10369000144DA8421DD14FF67F752A404D894FF633
:1036A000FF7606EA05152A434FF6BF752A408D8836
:1036B00006EA05152A434FF6FF352B404FF2FF75FA
:1036C0002B408D8906EA85052B43CD8906EA8505C1
:1036D0002B4383800483CD880587028470BD00005E
:1036E000002C0140003401400A460021018B4FF2BA
:1036F000FF7319404FF6FF7303EA02231943018356
:103700007047000070B5002400220023058C4FF69E
:10371000FF6635400584028C8388848B4FF68F7555
:103720002C404FF6FC752C400D882C434FF6FF556E
:103730002A400D894FF6FF7606EA05252A434D8873
:1037400006EA05252A43154DA84202D0144DA84289
:103750001DD14FF2FF752A404D894FF6FF7606EADC
:1037600005252A434FF6FF352A408D8806EA0525B0
:103770002A434EF6FF752B404DF6FF752B408D8981
:1037800006EA05152B43CD8906EA05152B438380F0
:103790008483CD888587028470BD0000002C0140A1
:1037A000003401400A460021818B4FF6F77319401F
:1037B000114381837047000070B50022002300246C
:1037C000058C4EF6FF7635400584038C8488828B09
:1037D00048F6FF752A404FF6FF452A400D884FF600
:1037E000FF7606EA05252A434DF6FF752B400D8925
:1037F00006EA05352B434D8806EA05352B430B4D6C
:10380000A84202D00A4DA84208D14BF6FF752C40C1
:103810008D894FF6FF7606EA85152C4384808283D6
:10382000CD88A0F84050038470BD0000002C0140FA
:10383000003401400A460021818B4FF2FF7319408A
:103840004FF6FF7303EA0223194381837047818691
:1038500070470187704781877047A0F84010704714
:10386000002202881D4B98420ED01D4B98420BD06F
:10387000B0F1804F08D01B4B984205D01A4B9842AC
:1038800002D01A4B984204D14FF68F731A404B88DE
:103890001A43174B984207D0164B984204D04FF664
:1038A000FF431A40CB881A4302808B8883850B889C
:1038B00003850A4B98420BD0094B984208D00E4B17
:1038C000984205D00D4B984202D00D4B984201D141
:1038D0000B7A03860123838270470000002C01408D
:1038E000003401400004004000080040000C00408B
:1038F000001000400014004000400140004401401E
:103900000048014010B586B0044601218804FFF745
:10391000D5FB01210820FFF7F1FB4FF40060ADF863
:10392000140004208DF8170005A91748FEF7EEF9DA
:1039300027208DF8000003208DF801008DF802008B
:1039400001208DF803006846FFF76EF8019400200F
:10395000ADF80800ADF80A00ADF80C00ADF81000A5
:103960000420ADF80E0001A9084800F0C1FA0122B8
:1039700040F22441054800F096FA0121034800F086
:103980007DFA06B010BD0000000C01400048004068
:10399000044800880348001D008800200249087080
:1039A00070470000003801404B0400202DE9F04F23
:1039B00091B00024FD48006B00F0FE00FB49086355
:1039C0000020FB4981F84500F848406B192814D2C3
:1039D000F8480088F748001D0088F448006B00F0A4
:1039E000FE00F2490863C82048630846006B40F0B7
:1039F0000100086311B0BDE8F08FEF48C06880F4A3
:103A00000050ED49C860ED48C07B4E2833D000BF60
:103A10002046611CCCB2E949085C4E28F8D121440B
:103A2000481C01F05FF9054601F0FCFBE049C86362
:103A3000002081F84300E2480078401CE04908700B
:103A4000DB4890F84200E8B9084600780C2819DDF8
:103A50000120D74981F84200D1E90601D44AC2E9E0
:103A60000A011146D1E90401C2E908011046406B80
:103A70001146886306E00020D14908700120CC4936
:103A800081F84300052400BF2046611CCCB2CB491D
:103A9000085C242801D0C72CF6DBC72C00D1A9E78D
:103AA000C649A01D085C303800EB8000082101EBFE
:103AB0004001C24AE01D105C30380844BC4908701F
:103AC000084600780978182901DB182100E0002158
:103AD000401AB7490870B94904F10900085C303848
:103AE0000A4604F10801515C303901EB810100EB19
:103AF0004100AF494870114604F10B00085C3038B2
:103B000004F10A01515C303901EB810100EB410005
:103B1000A749887004F11000C4B21146081901F0D9
:103B2000E1F8054601F07EFBA149486000BF204650
:103B3000611CCCB2A149085C2C28F8D100BF2046FA
:103B4000611CCCB29D49085C2C28F8D1081901F001
:103B5000C9F8054601F066FB9549886000BF20461C
:103B6000611CCCB29549085C2C28F8D100BF2046D6
:103B7000611CCCB29149085C2C28F8D100BF2046CA
:103B8000611CCCB28D49085C2C28F8D10819FCF7CF
:103B90006FFB874981F8300000BF2046611CCCB222
:103BA0008649085C2C28F8D100BF2046611CCCB2A5
:103BB0008249085C2C28F8D1081901F093F80546D1
:103BC00001F030FB7A494863486802F011FB8246F5
:103BD00002F04AFB814676484168484602F08DFC77
:103BE0008046784902F00EFA06467149486802F0AC
:103BF000FFFA642190FBF1F048430F9002F034FB90
:103C000083466B484168584602F077FC82466E490D
:103C100002F0F8F98046664948686C4902F0F2F90A
:103C2000834602F0E5FA824602F01EFB81464146D9
:103C300002F07AF90746314602F076F9054602F0BD
:103C400047F95B4AC2E904011146886802F0D0FADC
:103C5000824602F009FB814655488168484602F0D9
:103C60004CFC8046574902F0CDF906465049886819
:103C700002F0BEFA642190FBF1F000FB01FB584614
:103C800002F0F2FA82464A488168504602F035FC5A
:103C900081464D4902F0B6F945490F9088684B4975
:103CA00002F0B0F9824602F0A3FA814602F0DCFA93
:103CB00080460F9902F038F90746314602F034F990
:103CC000054602F005F93A4AC2E90601104690F8A5
:103CD0004200002869D0104690F84300002864D1C3
:103CE00010464FF020423A4BD0E90671384601F0B9
:103CF000DFFD054601F0F4F9CDE904012C49D1E9D5
:103D00000A514FF02042324B284601F0D1FD0746C0
:103D100001F0E6F98246DDE9042301F0C9FDCDE9B1
:103D2000080123484FF02042294BD0E9045128468E
:103D300001F0BEFD074688461D49D1E908514FF004
:103D40002042234B284601F0B3FD3A464346CDE9D5
:103D5000000101F0D3FF824600F0DAFFCDE9040153
:103D600013484FF020421A4BD0E90651284601F083
:103D70009FFD074600F0CCFF82468B460C484FF073
:103D80002042134BD0E90A51284601F091FD074625
:103D900000F0BEFF52465B46CDE9000101F088FD10
:103DA000CDE90201DDE9042314E04FE00000024008
:103DB0002005002000480040001001406805002058
:103DC00048040020007C1249000070420000C842F4
:103DD00046DF913F01F06CFDCDE90601DDE90823E6
:103DE00001F052FACDE90A0100F03EFE00221F4B1D
:103DF000CDE90C0101F05CFDCDE90E0101F012FAF4
:103E000081464946484602F07BFA194A0F90916B69
:103E1000506B02F07DFB164A0E90916B506B02F0D6
:103E200077FB0D900E9902F06BFA83460F9902F022
:103E30007BF8824602F04CF8054601F0A1F90746EE
:103E400001F0A2FC0A49A1F8400000BFC8200949BE
:103E500048630846006B40F001000863064800888C
:103E60000548001D008800BFC4E50000AE4D584164
:103E700020050020000002400048004021B1828956
:103E800042F40052828104E082894DF6FF731A40A9
:103E9000828170471AB1838A0B43838202E0838A4E
:103EA0008B4383827047F0B503460024002600252B
:103EB000002040F66A17B94200D100BF1846C1F38E
:103EC000421401F01F06012707FA06F5012C01D163
:103ED0000C3004E0022C01D1103000E014301AB193
:103EE00007682F43076002E00768AF430760F0BD33
:103EF0002DE9F04786B005460E460024A24600BFD5
:103F0000A1460027B08900B100BF2F462C8A4CF68D
:103F1000FF700440F08804432C82AC894EF6F31005
:103F20000440B08831890843718908430443AC8157
:103F3000AC8A4FF6FF400440B0890443AC8201A82C
:103F4000FFF7FCF81F48874202D1DDF810A001E01E
:103F5000DDF80CA0A88900F4004040B10AEBCA00CB
:103F600000EB0A1031684900B0FBF1F807E00AEBFA
:103F7000CA0000EB0A1031688900B0FBF1F8642038
:103F8000B8FBF0F004012009642101FB1089A88925
:103F900000F4004040B1322000EBC900B0FBF1F06A
:103FA00000F00700044308E0322000EB0910642110
:103FB000B0FBF1F000F00F0004432C8106B0BDE827
:103FC000F08700000038014000BFFEE700B58DB06B
:103FD0000F208DF8300003208DF8310002208DF87D
:103FE000320001208DF833000CA8FEF71DFD0121E1
:103FF0000846FFF753F83348FDF7BAFD3248019001
:104000003248029010200390122004900020059066
:104010008020069000200790089009904FF44050AF
:104020000A9000200B9001A92648FDF750FE4FF49E
:104030008050FDF783FD00212248FDF78DFD012111
:104040000846FFF72BF81F481430FDF791FD1E4876
:1040500001901F480290002003900A200490002045
:1040600005908020069000200790089009904FF45A
:1040700040500A9000200B9001A912481430FDF71F
:1040800026FE012202210F481430FDF717FE4FF4DF
:104090000030FDF753FD01210A481430FDF75CFDA7
:1040A00000210948001FFFF7E9FE0122C021064850
:1040B000001FFFF7EFFE01210348001FFFF7DEFEA0
:1040C0000DB000BD440002400438014086060020C7
:1040D000A206002010B54FF4964000F0BDF8FFF79F
:1040E00075FF4FF0FF300349088233200249087002
:1040F00010BD000086060020490400202DE9F04193
:10410000002400204D4908704871084640794C4908
:1041100091F8441008434949487108464079484994
:1041200091F8431040EA41004449487108464079FB
:10413000444991F87D1040EA810040494871404966
:10414000886B4FF0804101F05DFF06463C48416BB3
:10415000304602F0D2F9054602F066F83749487059
:104160003748B0F84000C8803549C86B02F05CF8A9
:104170003249887034484088A0F514501C38C0EB90
:10418000C000642190FBF1F02C49C8702D4800223A
:104190002E4BD0E91A51284601F08AFB074601F060
:1041A000C3FA00B22549888126480022274BD0E96E
:1041B0001851284601F07CFB074601F0B5FA00B221
:1041C0001E49C8811F48B0F9060000EB4000642179
:1041D00090FBF1F0643019490871194988681C494D
:1041E00002F08EF8054602F003F800B21349088188
:1041F00013494868164902F083F8054601F0F8FFB4
:1042000000B20E49488108E00C4800780B49095D6E
:1042100008440A490870601CC4B2122CF4D30D483B
:10422000406C00F0FE000B49486412208864084688
:10423000406C40F001004864BDE8F0818606002033
:1042400020050020880400204C0400200000594074
:104250000000C8420000024010B586B004460121AB
:1042600044F20100FEF74AFF01210820FEF746FF55
:1042700001210420FDF7D6FD4020ADF814000320F5
:104280008DF8160018208DF8170005A91B48FDF7BA
:104290003DFD8020ADF8140028208DF8170005A9F9
:1042A0001648FDF733FD25208DF8000002208DF81B
:1042B00001008DF8020001208DF803006846FEF72A
:1042C000B3FB01940020ADF80800ADF80A00ADF88A
:1042D0000C00ADF810000C20ADF80E0001A9084844
:1042E000FFF706FE012240F225510548FFF7DBFDEE
:1042F00001210348FFF7C2FD06B010BD000C0140CC
:1043000000380140490050EAC12018BF04204A0D7E
:1043100018BF40F0010040F2FF72B2EB515F08BFDE
:1043200040F00200012808BF052070472DE9F74F33
:10433000144694B00021C4E902111599079121F0A7
:104340000045C9498D4206DC1599C4E9000117B042
:104350000020BDE8F08FC549DFF814A3A9423CDD79
:104360000799C44E0029C44FC44A1599534619DD14
:1043700001F0C4FC554506D0C14AC24B01F0BEFC59
:10438000C4E900010AE04FF0D352BE4B01F0B6FC85
:1043900032463B4601F0B2FCC4E9000117B00120EF
:1043A000BDE8F08F00F070FF554506D0B44AB54B1C
:1043B00000F06AFFC4E900010AE04FF0D352B14BAC
:1043C00000F062FF32463B4600F05EFFC4E90001A8
:1043D00017B04FF0FF30BDE8F08FAB49A9421599F7
:1043E00078DB21F0004183468846A84AA84B01F0BB
:1043F0005FFA0022A74B00F047FF01F095F9099002
:1044000001F0EFF906460F469C4A534601F050FA78
:1044100043465A4601F080FB80468A46984A994BAB
:104420003046394601F044FA2A0D01250B924246E6
:10443000534601F071FB032DC4E9000139D00B98FC
:10444000C1F30A51401A05EB45111139814230DAA6
:104450009148C346784400EB0510CDF80CA00C90B1
:10446000D0E900233046394601F022FA02460B46D5
:10447000049106905846039901F040FC80468A4614
:1044800002460B465846039901F038FC049B069AF5
:1044900001F034FC83460C9803913946D0E902239D
:1044A000304601F005FA5A46039B01F027FC6D1CCB
:1044B000BDE707980028A2BF099817B0BDE8F08FA4
:1044C000616881F000416160099817B04042BDE821
:1044D000F08FFFE784461598C1F31301C0F30A502B
:1044E000A0F2F5304FEA601800F01F06C6F1200078
:1044F000139000200690079041F4801E05206D4621
:1045000076B1664A08EB00017A4452F8213002EB9A
:104510008101B3404A68139922FA01F1194305E079
:104520005F4908EB0002794451F82210A1FB0E27E5
:10453000A1FB0C131A449A4234BF0123002303EB5E
:10454000070A05EB8003D3E901B70F448F4234BF5C
:104550000121002193448B4411B1934502D903E01A
:10456000934501D2012100E00021C3E901B7514484
:1045700045F82010011EA0F10100C1DC0298059F42
:1045800000F10050800F12900298DDE90356800080
:1045900001F027F9834628460D9101F039F96FF0B3
:1045A0001D0202F05FF8CDE90E01304601F030F94E
:1045B0006FF03D0202F056F880468A46384601F018
:1045C00027F96FF05D0202F04DF807464246534668
:1045D000119100F059FEDDE90E2300F055FE5A4618
:1045E0000D9B00F051FE00250E465A4628460D9BB5
:1045F00001F084FBDDE90E2301F080FB42465346C7
:1046000001F07CFB3A46119B01F086FADFF898A096
:10461000244A534601F04CF907468846234A244B66
:104620003146284601F044F93A46434600F02CFE54
:10463000074688464FF0A84253463146284601F0C7
:1046400037F93A46434600F01FFE159A12F0004F24
:1046500004D0129A81F0004152421292C4E9000142
:10466000129817B0BDE8F08FFB21E93F7CD90240DA
:10467000FB21F93F7370032E8A19A33B00004054BD
:104680003163621A61B4D03DFB21394183C8C96DE1
:10469000305FE43F0000E03F28230000A422000038
:1046A00086220000182D4454FB21F93D3326A61123
:1046B000460B113C2DE9FF4D21F0004807460C4602
:1046C000B8F1795F08DA01F02FF8002801BF002067
:1046D000324904B0BDE8F08D3A46234610461946EB
:1046E00001F0E6F8054602462D480E460B46062127
:1046F000784400F05DF82A46334601F0D9F8DDE948
:10470000022382468B463846214601F0D1F8044602
:104710000F4652465B462846314601F0C9F822460C
:104720003B4601F0EBFA07468A464FF0FF32284637
:10473000314601F097FF1B4A90450ADA3A46534644
:1047400001F0DCFA04B00022BDE8F04D134B01F09B
:10475000E3B9154A4245A8BFA8F500154FF000047B
:10476000B8BF124D22462B4601F0C8FA06468846CD
:1047700022462B460020094901F0C0FA04460D46A6
:104780003A4653463046414601F0B8FA04B0224654
:104790002B46BDE8F04D01F0BFB900000000F03F2E
:1047A0005C2000003333D33F0000E93F0000D23FDC
:1047B0002DE9F0414F1E00EBC7010446D1E900018D
:1047C00015461E4637F006020DD02A46334601F044
:1047D0006FF87F1E04EBC703D3E9002300F054FDFC
:1047E00037F00602F1D1022F25D0042F13D0062F67
:1047F00018BFBDE8F0812A46334601F059F8D4E9E4
:104800000A2300F041FD2A46334601F051F8D4E96D
:10481000082300F039FD2A46334601F049F8D4E96F
:10482000062300F031FD2A46334601F041F8D4E971
:10483000042300F029FD2A46334601F039F8D4E973
:10484000022300F021FD2A46334601F031F8D4E975
:104850000023BDE8F04100F017BD00002DE9FF4D39
:10486000054621F0004084B00C46B0F1795F0BDAC8
:104870002846FFF747FD042808BF00F075F82846D2
:1048800008B02146BDE8F08D2A460B46104601F0DF
:104890000FF806460F462A46234601F009F88046DF
:1048A00026488A4632463B4605217844FFF780FF7A
:1048B00083461098029160B3214A224B40465146EC
:1048C00000F0F6FFCDE900015A4640465146029BF2
:1048D00000F0EEFF82468846DDE906014FF0FF3228
:1048E00001F0C0FE5246434601F008FA32463B460C
:1048F00000F0DEFFDDE9062301F000FADDE9002328
:1049000001F0FCF908B02A462346BDE8F04D01F05D
:1049100003B90B465A463046394600F0C9FF084AEB
:10492000084B00F0B1FC4246534600F0C1FF08B00E
:104930002A462346BDE8F04D00F0A6BC9A1F0000B1
:10494000495555555555C5BF012201F08BBE002272
:1049500013461046114600F053BD40F201320020CC
:104960004FF0E04101F07EBE024A0020110701F045
:1049700079BE000001FDFFFF10B50446D1E900013A
:1049800000F002F8206010BDF8B504460D466A46F6
:1049900000F016FB00987E30009000281EDC0022FC
:1049A00013462046294600F083FE17D0002140F62A
:1049B00008004FF0000006462046294600F032FC71
:1049C000044640F6080006EA00014FF0000034F00B
:1049D000004004BF0220FBF764FC29E00098FF2898
:1049E00028DB002108464FF0000000F440060022BA
:1049F00013462046294601F059F88CBF00250125B1
:104A00000220FBF74EFC4FF0FF4446B1002D0CBFD7
:104A10004FF400004FF48000B04218BF084C04214E
:104A200008464FF00000002D04BF84F00040F8BDA0
:104A30002046F8BD20462946BDE8F84000F0F2BB0C
:104A4000FFFF7F7F10B504460A46D4E900031946EC
:104A500000F0E2FAC4E9000110BD30380A2801D2A2
:104A600001207047002070472DE9F04D0546DFF822
:104A7000388221F000408D4F82B00C46404520DB4B
:104A8000A0EB080129430BD08949884201DC10D1F1
:104A90007DB102B028462146BDE8F04DFFF754BF76
:104AA000002CC7BF002001468248394602B0BDE84D
:104AB000F08D0120FBF7F5FB02B0BDE8F04DFFF7EC
:104AC00046BF7D49884244DA7C498142A1BF79488A
:104AD0007B4902B0BDE8F08D2A46234610461946B0
:104AE00000F0E6FE8346024676480E460B46062157
:104AF0007844FFF75DFE5A46334600F0D9FE07467C
:104B000071488A465A46334604217844FFF750FEDE
:104B10005A46334600F0CCFE0022434600F0B4FB78
:104B200002460B463846514600F06AFC2A462346A8
:104B300000F0BEFE654A664B00F0EEFF2A462346B3
:104B400000F0EAFF02B05B4ABDE8F04D5C4B00F0BC
:104B5000E3BF002C4FF000024BDA4646434628469E
:104B6000214600F091FB4FF0FF3201F07BFD04463F
:104B7000024658480D460B4606217844FFF718FEBA
:104B800022462B4600F094FE804653488A46224631
:104B90002B4604217844FFF70BFE22462B4600F0FB
:104BA00087FE0022334600F06FFB06468B46204608
:104BB000294600F0E5FA04460D4632465B4640467B
:104BC000514600F01DFC22462B4600F071FE3F4A84
:104BD0003F4B01F093F822462B4600F055FB012293
:104BE00001F040FD02B03B46BDE8F04D314A00F017
:104BF00093BF2D4B2846214600F08EFF4FF0FF3229
:104C000001F030FD05460E4600F0BAFA00270C46CA
:104C100080463A460B4600F037FB82468B463A46C2
:104C200023461046194600F043FE2A46334600F05C
:104C300073FF52465B4600F0E3FB824627488B46F3
:104C40002A46334606217844FFF7B2FD2A4633460A
:104C500000F02EFECDE9000121482A46334604210A
:104C60007844FFF7A5FD2A46334600F021FE0022D6
:104C70000D4B00F009FB02460B46DDE9000100F098
:104C8000BFFB4246234600F013FE52465B4600F04F
:104C9000FBFA3A46234600F0F7FA02B00122BDE8DB
:104CA000F04D01F0DFBC00000000F03FFB210940A7
:104CB0000000F07F182D44540000E03F0000603CED
:104CC000FB21F93F0C1C0000221C0000075C143380
:104CD00026A6913C821B0000981B0000B61A00001B
:104CE000CC1A000030B583B00446FBF7D5FA054670
:104CF0000020CDE90000024621466846FBF7F6FA9F
:104D00002846FBF7CEFADDE9000103B030BD000014
:104D100000B5244B21F0004287B09A42DCBF00224C
:104D2000134629DD204B9A4208D140B94FF00100CB
:104D3000FBF7B7FAFFF70BFE07B000BD03DBFFF789
:104D400003FE07B000BD02AAFFF7F0FA10F003015E
:104D500004BF0DF1080C9CE80F000DD001200129C3
:104D60000ED0022914D00DF1080C00909CE80F0021
:104D7000FFF774FD07B000BDFFF79CFC07B000BD56
:104D80000DF1080C00909CE80F00FFF767FD05E0AF
:104D90000DF1080C9CE80F00FFF78CFC07B081F0C8
:104DA000004100BDFB21E93F0000F07F10B56FF02E
:104DB0000400FEF7A3FA0A4800680A49B0FBF1F0C4
:104DC000094908700846007800EB4001C1EBC010AB
:104DD0004FF6FF7101EAC0000449088010BD0000D1
:104DE0000400002000127A00180000201A000020A1
:104DF0000146114A12884A434FF0E0235A610022CB
:104E00009A611A46126942F001021A6100BF4FF01E
:104E1000E022106900F001021AB100F48032002A89
:104E2000F5D04FF0E022126922F001024FF0E023AA
:104E30001A6100229A6170471A0000202DE9FE4F86
:104E4000814688460021484601F09EF906D100219E
:104E5000404601F099F901D10024A4E00021484620
:104E600001F01AFB01D2484601E089F00040834678
:104E70000021404601F010FB01D2404601E088F0DD
:104E8000004082465146584601F006FA05D2514686
:104E9000584601F0B7F8074604E05946504601F07D
:104EA000B1F807464149384601F0F6F901D23D46CE
:104EB0002BE04FF08741384601F022FA4FF07C5149
:104EC000019001F025FB0290029801F091F906464D
:104ED000304601F0C9F90190029901F00EFB0290F1
:104EE000334850F82650024652F826100346721CEA
:104EF00053F8220001F00CFB0090029901F000FA37
:104F00002946019001F010F805465946504601F037
:104F1000C3FA20D20021404601F0BEFA09D8002190
:104F2000484601F0B9FA01D82C463CE085F000442F
:104F300039E0204C0021484601F0AEFA05D8294658
:104F4000204601F0E5FA04462DE02146284601F00E
:104F5000DFFA044627E00021484601F09DFA11D807
:104F6000154C0021404601F097FA05D82946204605
:104F700001F0CEFA044616E02946204600F0D4FFA0
:104F8000044610E00D4C0021404601F085FA05D89A
:104F90002946204600F0C8FF044604E02946204682
:104FA00001F0B6FA04462046BDE8FE8F8180803BC2
:104FB0001C000020DB0F4940DB0FC93FDB0FC9BFDE
:104FC00010B5144600222260114A21F0004393429A
:104FD000A8BF10BD53EA000208BF10BDB3F5801F83
:104FE000A8BF226807DA362201F03CFB6FF03502D9
:104FF00021F000432260DFF81CC06FF31E510CEB60
:1050000023531A4441F0FF5141F00051226010BD7A
:105010000000F07F02FCFFFF2DE9F04106460C4640
:1050200040F2FF75174635EA14502BD00022134684
:10503000304600F03DFB25D03A463046214601F08F
:1050400011FB06460C4635EA145010D000221346D8
:10505000304600F02DFB15D10220FBF722F9FFF7B7
:1050600083FC0A46214662F31E01BDE8F08102205E
:10507000FBF717F9FFF771FC0A46214662F31E01A0
:10508000BDE8F08130462146BDE8F081012080F383
:10509000108800BF4FF4A060FDF7FEFCFDF704FA96
:1050A000FFF784FEFCF794FF0120FDF7E5FA90215D
:1050B00042F21070FDF7FAFCFCF7A0FCFCF792FB43
:1050C000FFF708F8FCF74EFF4FF47A714FF4347095
:1050D000FEF75AF9002080F3108800BF00BFFEE7FA
:1050E00000B5254B21F0004287B09A4203DC002234
:1050F000134600922BE0214B9A4208D140B94FF061
:105100000100FBF7CEF8FFF722FC07B000BD03DB80
:10511000FFF71AFC07B000BD02AAFFF707F910F06D
:1051200003014FF001000DD0012914D002291AD03B
:105130000DF1080C9CE80F00FFF7BCFA07B081F0F6
:10514000004100BD0DF1080C00909CE80F00FFF736
:1051500085FB07B000BD0DF1080C9CE80F00FFF7C0
:10516000A9FA07B000BD0DF1080C00909CE80F00F3
:10517000FFF774FBE2E70000FB21E93F0000F07F4E
:105180002DE9F04106460F4600F0D2FC041E0D4604
:1051900018BF0120284320F00040C0F17F6000F1DB
:1051A000E040C00F0ED0301C18BF0120384320F063
:1051B0000040C0F17F6000F1E040C00F04BF01205B
:1051C000FBF76FF820462946BDE8F08110B50029AD
:1051D0000AD00878002807D005487844FBF734FC4B
:1051E000002801D0002010BD0248784410BD000006
:1051F0005A1700005217000010B500290AD008788D
:10520000002807D005487844FBF71EFC002801D091
:10521000002010BD0248784410BD00004A1700006D
:105220004217000021F00042A2F16052B2F5801F47
:1052300001F0004328BFD2F17F6C0BD95FEA001C5C
:1052400043EAC20242EB507018BF704728BF20F0FB
:1052500001007047B2F5801FBCBF184670474FEA87
:10526000410C1CF5001F02D2084601F010B970B5C0
:1052700000F0C8FB00000089FFF7F6BF4FF00040C8
:10528000A0F580007047000010B591EA030F48BFF9
:1052900083F0004300F13A85841A71EB030C05D2C8
:1052A000121943EB0C03001B61EB0C01DFF824E146
:1052B0004FEA1154A4EB135C1EEA430F18BF9EEA99
:1052C000445F73D023EA0E03DCF1200E21EA04517F
:1052D00043F4801332D322FA0CFE10EB0E0023FAB3
:1052E0000CFE41EB0E01CCF1200E03FA0EFE10EB8A
:1052F0000E0051F10001B1F5801FCCF1200E32D229
:1053000001EB045112FA0EF2BDE8104058BF70478D
:10531000401C38BF5FEA420218BF7047002814BF24
:1053200020F0010041F100014FEA410313F5001F95
:1053300038BF7047A1F1C04100F0B2BB012A43EB76
:105340000302ACF1200CDCF11F0E32BF4FF0000E57
:1053500023FA0CF310EB030041EB0451B4EB115FA3
:10536000D0D0A1EB045101F5801149085FEA30006B
:1053700001EB04510ED350F1000038BF12FA0EFEBB
:1053800008D1BDE81040C9E7401C38BF5FEA4202BF
:10539000CAD1C3E7BDE810404FEA410313F5001F2F
:1053A00038BF7047A1F1C04100F07ABB9EEA445F6C
:1053B00008D011EA5E0FBDE8104004BF01F00041C3
:1053C00000207047BDE8104070B500F01BFB00BF27
:1053D00064FBBE3E0000E0FF02494FF0000001F018
:1053E0000FB900BF0000F87F491058BFC1F140411C
:1053F0005B1058BFC3F140438B42EFF3008070470E
:105400002DE9C04130B4DFF8A0C23CEA111418BF46
:105410003CEA131400F0EC8081EA03051CEA111445
:1054200044EAD57418BF1CEA131500F0C780A4EB3A
:1054300005044FF0004545EAC12145EAC32341EA8E
:10544000505143EA525304F17F74994204F50034F9
:105450004FEAC0204FEAC22208BF904200F09C8071
:105460004FEA13650FF24016765D4FEA134506FBCF
:1054700005F7C7F1807706FB07F74FEAD737A7FB99
:1054800003687642C8F58038A7FB06CE38BFA8F17E
:10549000010807FB08E64FF0000EA6FB028CE6FBB6
:1054A00003CEDCF1000CCEF1004E38BFAEF1010EA0
:1054B000A6FB0C584FF000074FF00005E6FB0E87E7
:1054C000A1FB08C6A0FB07CE16EB0E0645F10005B2
:1054D000E1FB076515F1E04E7EBFA4F580345FEA7D
:1054E00046066D4116F1800745F100054FEA172782
:1054F0004FEA066647EA0567A6F1DE46B6F1805F29
:105500004FEA15251FD9384624F0010C05EBC4716C
:10551000BCF1FE6F01EB0C1102D8F0BCBDE80081BC
:1055200024425CBF01F5801E9EEAC47F02D4F0BC19
:10553000BDE80081244238D4F0BCA1F1C041BDE8EF
:10554000004100F0ADBA4FEAD22242EA43524FEA9C
:10555000D323A7FB02864FEAD02040EA415007FB45
:1055600003661EEA0E0F4FEAD12105FB026658BF03
:10557000A6EB0056B6EB00564FEA520E4EEAC37E3B
:1055800018EB0E0E56EB530EBDD518EB02085E411C
:105590007F1C55F10005B6E74FF480154FF000076A
:1055A0004FF000064FF00008ADE7F0BC4FF00000F0
:1055B00001F1C04101F00041BDE8008111EA0C1F7A
:1055C0000CEA131500D00CE013EA0C1F00F0258044
:1055D0004FF00000F0BC81EA030101F00041BDE89A
:1055E0000081F0BCBDE8004181EA030100F058BA37
:1055F000F0BCBDE8004170B500F004FA097EFC3E45
:1056000000F007B881EA03014FF0000001F000410B
:10561000704781EA030100F043BAF0BCBDE80041E5
:105620004FF0000021497047FFFDFBF9F7F5F4F258
:10563000F0EEEDEBE9E8E6E4E3E1E0DEDDDBDAD82D
:10564000D7D5D4D3D1D0CFCDCCCBCAC8C7C6C5C48B
:10565000C2C1C0BFBEBDBCBBBAB9B8B7B6B5B4B3A2
:10566000B2B1B0AFAEADACABAAA9A8A8A7A6A5A48D
:10567000A3A3A2A1A09F9F9E9D9C9C9B9A99999851
:105680009797969595949393929191908F8F8E8EF4
:105690008D8C8C8B8B8A8989888887878685858481
:1056A00084838382828181800000FF070000F87F6D
:1056B00051EA030C17D41CF5801F58BFBCF5801F9E
:1056C00000F10680994218BF704708BF90427047AA
:1056D00007D711F5801F58BF13F5801F19D49942C1
:1056E0007047894270471CF5801F08D5BCF5801FA4
:1056F000F7D58B4218BF704708BF824270474FF4FE
:10570000001C1CEB410F38BF1CEB430F01D28B4236
:10571000704770B500F076F9922449004FF00051BF
:105720004FF08053FFF760BE4FEA41034FEA5353F7
:10573000A3F58063D3F11E03C8BFD3F1210C0CDDA8
:105740004FF0004242EAC12242EA505232FA03FCD0
:105750008CEAE17CACEBE1707047102BC4BF0020F9
:10576000704703F5787CBCF1FF3F04D06FF0004236
:1057700082EA2100704770B500F044F94992248014
:1057800000207047F2E700004FEA1153A3F5806351
:10579000D3F11E03A8BFD3F1200C08DB4FF0004269
:1057A00042EAC12252EA505232FA03F070470942EB
:1057B0000BD4102BC4BF0020704703F5787CBCF1DC
:1057C000FF3F05D04FF0FF3070474FF000007047AB
:1057D00070B500F017F900BF49922480002070478F
:1057E000F0E710F0004248BF4042B0FA80F310FAF0
:1057F00003F10AD0C3F11D0303F580634FEA415062
:1058000002EB035202EBD12170474FF000007047CA
:10581000B0FA80F310FA03F10AD0C3F11D0303F5C7
:1058200080634FEA41504FEA035202EBD1217047A7
:105830004FF000007047000051EA030C17D41CF52C
:10584000801F58BFBCF5801F00F10680994218BF29
:10585000704708BF9042704707D711F5801F58BFA7
:1058600013F5801F19D499427047894270471CF57F
:10587000801F08D5BCF5801FF7D58B4218BF704735
:1058800008BF824270474FF4001C1CEB410F38BF29
:105890001CEB430F01D28B42704770B500F0B2F899
:1058A000922449004FF000514FF08053FFF79CBD08
:1058B000DFF848C170B51CEA111E1EBF1CEA1315A3
:1058C0009EEA0C0F95EA0C0F00F06F8081EA03044A
:1058D00023EA4C134EEAD47E21EA4C1141F48011A4
:1058E00043F48013AE44A1FB024CA0FB0365AEF170
:1058F0007F7E361955EB0C05A1FB034C4CF10003E0
:10590000A0FB021C16EB0C06654153F10003094293
:1059100018BF46F0010613F4007F0BD14FEA0331A4
:105920004FEA0530340341EA155140EA16506FF052
:1059300003020AE04FEAC3214FEAC520F40241EA1C
:10594000555140EA56506FF0020202EB2E4201EB35
:10595000025585EACE710AD05FEA440C18BF24F0E4
:10596000004450F1000041F1000120EAD47040F2FF
:10597000FE7C624500D270BDA84214BF4FF0804447
:105980004FF04044002E08BF0024BEF1806FA8BF36
:10599000A1F1C041BDE8704080F282804FF000006C
:1059A00001F1C04101F0004170479EEA0C0F0CEA82
:1059B000131518BF95EA0C0F06D04FF0000081EACE
:1059C000030E0EF0004170BD00F01CF88900013E8E
:1059D00000F007B800F009B84FEA430C5FEA5C5CDE
:1059E00008D081EA030100F05BB84FEA410C5FEA9E
:1059F0005C5CF6D14FF00000014970470000FF07E2
:105A00000000F87F0EF1020E2EF0030E5EF8046B1C
:105A1000364205D4012A43EB030515F5001F12D8C1
:105A2000012841EB010C1CF5001F0CD80ED14FEAE8
:105A3000D17C15F5001F0CEB4C0C0CF1020C08BFCF
:105A40004CEBD37C04E04FF0080C01E04FEAD37C30
:105A50000CEB4C0526FA05F606F00706B6F1040C29
:105A600006D20EEB860CBDE870404CF0010C60478E
:105A7000DFE80CF0090B02024FF000414FF000008C
:105A8000A1F5002170BD19461046012851EB010413
:105A900018BFD4F5001484BF002001F0004170BD90
:105AA0000808A0F500114FEA3101704753EA010CD4
:105AB00017D41CF5801F58BFBCF5801F00F106806D
:105AC0008B4218BF704708BF8242704707D713F553
:105AD000801F58BF11F5801F19D48B4270479B421D
