:020000040800F2
:10000000B80C00203102000835280008ED1E000859
:1000100031280008CD1A0008B13A0008000000009D
:10002000000000000000000000000000B92E0008E1
:10003000F31C000800000000292D000865300008AE
:100040004B0200084B0200084B0200084B0200085C
:100050004B0200084B0200084B0200084B0200084C
:100060004B0200084B0200084B0200084B0200083C
:100070004B0200084B0200084B020008D11A00088E
:100080004B0200084B0200084B0200084B0200081C
:100090004B0200084B0200084B0200084B0200080C
:1000A0004B020008353100084B0200084B020008E3
:1000B0004B0200084B0200084B0200084B020008EC
:1000C0004B0200084B0200084B0200084B020008DC
:1000D0004B020008D93500084B020008F53500082E
:1000E0004B0200084B0200084B0200084B020008BC
:1000F0004B0200084B0200084B0200084B020008AC
:100100004B0200084B0200084B0200084B0200089B
:100110004B0200084B0200084B0200084B0200088B
:100120004B0200084B0200084B0200084B0200087B
:1001300000F002F800F06CF80AA090E8000C82448D
:100140008344AAF10107DA4501D100F061F8AFF26A
:10015000090EBAE80F0013F0010F18BFFB1A43F0A5
:1001600001031847385300005853000010F8013BB2
:100170000A4413F0030408BF10F8014B1D1108BF17
:1001800010F8015B641E05D010F8016B641E01F8C5
:10019000016BF9D1002D15D010F8014B03F00C03C1
:1001A0000C2BA1EB04040ABF10F8013BA4EB831451
:1001B000A4EB032405F1010314F8016B5B1E01F8A5
:1001C000016BF9D5914238BF10F8013BD1D370478C
:1001D0000023002400250026103A28BF78C1FBD850
:1001E000520728BF30C148BF0B6070471FB500F0F1
:1001F00093F904000020002104F036F8401C6060F0
:100200000020002104F01AF8E0601FBD10B510BDF9
:1002100000F05CF91146FFF7E9FF03F0BBFF00F0C7
:1002200009FC03B4FFF7F2FF03BC00F0E9FE000095
:100230000948804709480047FEE7FEE7FEE7FEE77A
:10024000FEE7FEE7FEE7FEE7FEE7FEE704480549B6
:10025000054A064B7047000069300008310100086C
:10026000B8060020B80C0020B8080020B80800200C
:1002700070B5064600F00CF80468054630460A22C0
:10028000002100F067F82C6070BD70477047704720
:10029000004870475406002010B5FFF7F9FF0068CA
:1002A00010BD10B50446FFF7F3FF046010BD000059
:1002B0000FB4002300B589B00CA900910B99CB6055
:1002C000214B7B440693214B7B44079304236FF01F
:1002D0000042CDE901321E4A7A446B46089202463A
:1002E000002005F073F809B05DF814FB70B5064600
:1002F0004FF0FF3015460C46324686B00091CDE9EE
:10030000010169460020049004A8FFF7D1FF0246CE
:100310000498211825B108B1084600E0204628605D
:10032000049800280DD0002A02DD0098884208D0E9
:100330003246081B69460094CDE9010404A8FFF782
:10034000B7FF06B070BD00002901000041010000A8
:10035000010100002DE9F04791460F468046044612
:10036000002614F8015B2DB100F030F80068405D04
:10037000C007F6D12B2D02D02D2D18D0641E4A4671
:100380003946204600F053F827B13968A14201D11F
:10039000C7F800804FF0020471050BD540420028D9
:1003A00003DDFFF775FF0460A007BDE8F08746F4A2
:1003B0008066E4E70028F8DAFFF76AFF04606FF070
:1003C0000040F2E7004870475406002010B500F0E6
:1003D000A3F8001D10BD00BF913E000010B50446FB
:1003E000FFF7F4FF0068005D00F0010010BD4268F7
:1003F00042B1016811F8013B23B1521EC0E900125D
:10040000184670470121C160881E704742685AB182
:10041000C368016843B983688B4205D0491E521CEA
:10042000C0E90012002070474FF0FF3070472DE9FF
:10043000F05F824615468B4600270AF10104B94653
:100440000078302801D09DB113E014F8010B01278A
:10045000782803D0582801D045B10AE00DB1102DFD
:1004600007D1002714F8010B102502E0082500E051
:100470000A250026B0460EE005FB080005FB06F144
:1004800001271FFA80F801EB1046B6F5803F00D334
:10049000B94614F8010B294600F042F80028EBDABF
:1004A000BBF1000F05D00FB1641E00E05446CBF83D
:1004B0000040B9F1000F06D0FFF7EAFE022101600B
:1004C000C81EBDE8F09F48EA0640FAE77546FFF708
:1004D00079FFAE4605006946534620F00700854681
:1004E00018B020B5FFF7B2FEBDE820404FF000067F
:1004F0004FF000074FF000084FF0000B21F007010C
:10050000AC46ACE8C009ACE8C009ACE8C009ACE84E
:10051000C0098D46704700000048704774060020EF
:100520003A2800D2303820F02002412A01D3A2F12B
:100530003700884201D34FF0FF3070472DE9FF4F5D
:1005400006468BB00878FF2806D0491C2D2805D018
:1005500000244FF0000908E000200CE00124F8E737
:1005600009EB8903491C00EB43090878FF28F7D100
:1005700014B1C9F100008146107800252C46AA4626
:1005800029462D2801D02B2804D1521C2D2813D008
:10059000002082468B461078FF280FD04FF0000CC9
:1005A0000A21521CA5FB017804FB018105FB0C11FB
:1005B000C5194BEB0104EEE70120EAE700210846EC
:1005C0004FF00000BAF1000F02D000EB80004008AD
:1005D000C0F38157012F01DD4FF0FF370E9955EA27
:1005E000040009EB01080BD04FF0020918F5FA7F5F
:1005F00016DA4FEACA70002F706008DD012007E0AC
:100600004FEACA70C6E900B00FB0BDE8F08F002015
:100610003060FFF73DFEC0F800901821084616E054
:10062000B8F5FA7F18DD002F02DAF748784401E0C8
:10063000F6487844D0E90010C6E9001040EACA70D4
:100640007060FFF725FEC0F80090142108460FB037
:10065000BDE8F04F04F057BE002108464FF00000FF
:10066000B8F10001099002DAC7F1000200E03A4651
:1006700001DAC8F1000106A800F026FA06AB93E8FB
:10068000070003AB83E8070044F23E005BEA040185
:100690000090584604D144F21E012C465D4600915C
:1006A000210C0904014306D10099240444EA1544AD
:1006B0002D041039009104F07F41014306D10099C7
:1006C000240244EA15642D020839009104F07041B7
:1006D000014306D10099240144EA15742D01091F34
:1006E000009104F04041014306D10099A40044EA7E
:1006F0009574AD00891E009104F00041084304D1B7
:1007000000986D196441401E00904FF001033A4675
:100710006846B8F1000FCDE9014503A902DD00F0FC
:1007200014FF01E000F0E7FEBAF1000F04460D46A9
:1007300001D084F00044002108464FF000000999E0
:1007400040F2FF77484010F00C0F07D124F0004032
:10075000284303D0C4F30A50B84212D1FFF798FDE2
:10076000C0F80090C4F30A50B8420AD1A8487844AF
:10077000D0E90010C6E9001004F0004108437060A1
:1007800042E7C6E900543FE72DE9FF4F1F464FF00F
:10079000000A4FF0FF38454691B0D7E90146CDF841
:1007A0003CA0FFF7B9FEC0680168405C1090B969D1
:1007B00012986D1C8847396A814688470028F6D10F
:1007C000B9F1FF3F0AD0002E24F4D06411DDB9F155
:1007D0002B0F08D0B9F12D0F0BD102E0404615B018
:1007E00013E744F48064B96912986D1C8847761E3B
:1007F0008146600504A901D52D2000E02B20002EA4
:1008000001F1010B0DF130088DF810003FDDB9F159
:10081000690F08D0B9F1490F05D0B9F16E0F02D0B8
:10082000B9F14E0F1CD13B4601A8009580E850025B
:10083000DDE912126FF0020004F0CCFDC11CCED134
:100840000EE0B96912986D1C884781461398761E90
:1008500044F4007405600F98401C002E0F9016DDC4
:10086000B9F1300FEDD0B9F1780F02D0B9F1580FCE
:100870000DD10F9801280AD13B46CDE90054DDE99E
:100880001212001F029604F0A3FDC11CA7D11099FB
:1008900089453ED144F0800406E01399681CAAF112
:1008A000010A44F400740860B9696D1C1298761E40
:1008B000884730288146F0D02BE01099894505D132
:1008C000200603D4761E44F0800418E0484603F066
:1008D000D4FA08B3761E0DF123018B4544F400745D
:1008E00008D2A9F130000BF8010B200607D5AAF1B8
:1008F000010003E0200602D40AF101008246A005AF
:1009000002D51399681C0860B96912986D1C884754
:100910008146002ED1DC53E0002E51DDB9F1650F88
:1009200002D0B9F1450F4BD1A00549D5B9696D1C6D
:100930001298761E24F440748847002E81460CDD00
:100940002B2804D0B9F12D0F07D144F48074B96974
:1009500012986D1C8847761E8146E00501D52D2131
:1009600000E02B2108F8011BCDF8008021E0761E65
:100970000DF13901884544F400740CD2A9F130001E
:1009800010F0FF0088F8000002D10099884509D9CD
:1009900008F1010806E0E00501D51E4801E042F239
:1009A0000F708246B96912986D1C8847814613986A
:1009B0000560002E04DD484603F05FFA0028D6D11A
:1009C000F96912988847FF2053468BF8000088F891
:1009D000000000200A900B9004AA0CA90AA8FFF7B7
:1009E000ADFDA00502D46FF00100F8E614F0240F6D
:1009F00012D0E0071CD13868DDE90A12031D3B6004
:100A00000068C0E9001213E0944E0000864E00001A
:100A10004A4D0000F1D8FFFF0AA9684603F0BCF96F
:100A2000E00705D13868009A011D3960006802604E
:100A30002846D4E610B50446AFF300802046BDE852
:100A40001040FFF7EEBB00004FF0013C50F8042BC4
:100A500051F8043B9A4221D1A2EB0C03934313EAD1
:100A6000CC1317D150F8042B51F8043B9A4215D1FE
:100A7000A2EB0C03934313EACC130BD150F8042BD5
:100A800051F8043B9A4209D1A2EB0C03934313EAB9
:100A9000CC13DBD04FF00000704700BFD01A01BA72
:100AA000B1FA81F101F0180122FA01F0CB40C1F155
:100AB0002001DBB2C0B2C01A2CFA01F3D11A914363
:100AC00011EAC311E6D170472DE9F0478146164679
:100AD0008AB0354878440DC88DE80D003248784416
:100AE000801C03AC0DC884E80D0041F69B3008441F
:100AF000372190FBF1F290FBF1F5A5F1800501FBA8
:100B000012041B3C02D56442012000E00020DFF803
:100B100098A080460027FA44AAF1BE0A0EE0E0073A
:100B20000AD03246684607EB470101230AEB8101F0
:100B300000F0F6FC8DE8070064107F1C002CEED15D
:100B4000194F7F44AE3F19E0E80715D007EB0410BA
:100B50000DF1180A90E80E008AE80E00C068F04215
:100B600001D1981908903246012306A903A800F084
:100B7000D7FC03AB83E807006D10641C002DE3D1A4
:100B80004FF0010332466946B8F1000F03A802D0C6
:100B900000F09CFC01E000F0C3FCC9E90001C9F8C9
:100BA00008200AB0BDE8F087AC4900002DE9FF4FEE
:100BB0001F464FF03C0987B04FF00042DDE91410AA
:100BC00001F10108DDF858A002EA4050039000202E
:100BD00005908346054604460490B969461E089868
:100BE0008847AAF1010A0290BAF1000F3BDD029892
:100BF0002E2815D01021FFF793FC00282EDB4FF094
:100C0000010B0599014317D0B9F1000F0BDB4A46E0
:100C1000C11700F0FBF905430C43A9F1040905E0F5
:100C2000012004900BE008B145F00105012005907A
:100C3000049820B9361D02E0049800B1361FB96946
:100C4000089808F101088847BBF1000FAAF1010AD2
:100C50000290C9D00999C1F80080C5E702987028B0
:100C600008D0502806D0F96908988847BBF1000FD2
:100C700014D04FE0002002900120BBF1000F04903F
:100C800009D0B969089808F101088847AAF1010953
:100C9000B9F1000F07DCF969089888476FF0010087
:100CA0000BB0BDE8F08F2B2804D02D280CD14FF0CD
:100CB000FF300490B969089808F101088847A9F144
:100CC0000109B9F1000FE6DD411CE4D00A21FFF76C
:100CD00027FC0028DFDB029908F1010801EB810104
:100CE00000EB41000290B969089888470A21FFF794
:100CF00017FC099AA9F10109B9F1000FC2F80080A7
:100D000001DD0028E7DAF969089888470499029814
:100D100000FB016655EA040004D004F040410900DC
:100D200002D006E0039898E0A40044EA9574AD0070
:100D3000B61E04F00041080002D16D196441761E10
:100D4000159810F0240F03D04FF00B095C4803E016
:100D50004FF028096FF07D008246564507DAAAEB6E
:100D600006018944B9F1410F01DD4FF0410901202D
:100D70000021A9F1010200F049F9024628400B4682
:100D80002140084301D0012100E00021501E0291C2
:100D900043F1FF3128402140084301D0012000E009
:100DA00000200299834651EA0B014FD000210846EA
:100DB0004FF00000039900F4400039B100EB8000CF
:100DC0004FF4400100EBD07001EA6000801501286B
:100DD00002DD4FF0FF3000E013D0401C36D0029807
:100DE00060B3BBF1000F0CD14A460120002100F096
:100DF0000DF928402140084301D0012000E00020E7
:100E0000E0B101204A46002100F000F903464019F4
:100E10000A4661412D1A8C4111D3B9F1400F09DD09
:100E2000159810F0240F02D0AAF1340603E0AAF1BD
:100E3000170600E0761C00254FF0004406E05B1E1C
:100E400042F1FF3220EA030521EA0204CAF101005F
:100E5000B04206DA1B490398084301900020009035
:100E60000EE0039AC4F3D321E80A0A43164940EA84
:100E700044500A433146CDE90002684602F0F2FFD1
:100E8000159810F0240F0BD01598C00715D13868AD
:100E9000DDE90012031D3B600068C0E900120CE0B0
:100EA00002A8694602F078FF1598C00705D1386896
:100EB000029A011D3960006802604046F0E60000B9
:100EC00002FCFFFF0000F07F0000F03F2DE9FF4F24
:100ED00092461D4685B04FF00041DDE9124BDDE939
:100EE00014727F1E01EA4B50414940F0FF4940EA2D
:100EF0000108002122F020004928049102D04E2848
:100F000028D04CE03BA0012607C88DE80700A9695E
:100F10000698641C88477F1E014606D41DF806000B
:100F200018B121F0200181420BD0E9690698884769
:100F3000032E34D0082E32D06FF0010009B0BDE886
:100F4000F08F761C032E01D0082EE0D1601CCAF869
:100F50000000DCE7A9690698641C88477F1E2AD434
:100F600020F02000412826D1A9690698641C8847F2
:100F70007F1E20D420F020004E281CD1A96906989D
:100F8000641C88477F1E48F4002849F48009CAF889
:100F9000004001D4282806D0E969069888475FEA0E
:100FA000CB7012D022E0A9690698641C88477F1E86
:100FB00001D4002803DAE96906988847BCE72928A4
:100FC000F1D1641CCAF80040E9E71BF0240F07D0F8
:100FD00028680499031D2B600068C0E9001805E02B
:100FE0002868021D2A600068C0F800902046A5E726
:100FF0000000F07F494E46494E4954590000000018
:1010000001491820ABBEFEE726000200B2F1200322
:101010000AD5C2F1200301FA02F120FA03F300FA23
:1010200002F041EA0301704700FA03F14FF00000BB
:101030007047704720F07F4C80EA030023F07F4721
:10104000ACEB070303F57C5300F0004003F1FF0312
:101050002DE980494FEA154B09B44FEA144325EABC
:101060000B4E24EA03480FF2042606EB1327490827
:101070003E785FEA320203FB0667C7F5000707FB0D
:1010800006F64FEA54374FEAD64606F1020607FB4A
:10109000066CCCF1005C4FEA1C472CEA074C07FBBE
:1010A00006F40CFB06F504EB15464FEA961634BF22
:1010B00000204FF000404FEAD13706FB07FC4FEA13
:1010C0001C4C0CFB0BF7D21B03FB0CF761EB07016D
:1010D0000CFB0EF7B0EB074072EB17420CFB08F766
:1010E00034BFA2EB0742B2EB074261EB17414FEA74
:1010F0000C444FEA910706FB07FC4FEA1C4C0CFB23
:101100000BF7B0EBC74072EB573203FB0CF734BF61
:10111000A2EBC742B2EBC74261EB57310CFB0EF7B3
:10112000B0EBC70072EB57720CFB08F734BFA2EBB1
:10113000C702B2EBC70261EB5771039F4FEA8161AF
:1011400041EA921104EBCC044FEAD1374FEA8262B4
:1011500006FB07FC42EA90124FEA80604FEA1C4C03
:101160000CFB0BF7D21B03FB0CF761EB07010CFB2D
:101170000EF7B0EB074072EB17420CFB08F734BFD9
:10118000A2EB0742B2EB074261EB17414FEA8C55E5
:101190004FEA910704EB9C2406FB07FC4FEA1C4C2A
:1011A0000CFB0BF7B0EBC74072EB573203FB0CF7AD
:1011B00034BFA2EBC742B2EBC74261EB57310CFB25
:1011C0000EF7B0EBC70072EB57720CFB08F734BF99
:1011D000A2EBC702B2EBC70261EB577115EB4C25CE
:1011E0004FEA816141EA92114FEA82624FEAD137B8
:1011F00042EA901206FB07FC44F100044FEA8060CB
:101200004FEA1C4C0CFB0BF7D21B03FB0CF761EBFA
:1012100007010CFB0EF7B0EB074072EB17420CFB1B
:1012200008F734BFA2EB0742B2EB074261EB17416C
:1012300015EB1C154FEA813141EA92414FEA8232A7
:1012400042EA90424FEA80304FEA0C7644F10004C3
:1012500048EA03434EEA0B484FF0000EB2EB080C8D
:1012600071EB030724BF624639464EEB0E0E4FF07A
:10127000000B0018524149414BEB0B0BB2EB080C31
:1012800071EB03077BF1000B24BF624639464EEB3E
:101290000E0E4FF0000B0018524149414BEB0B0B67
:1012A000B2EB080C71EB03077BF1000B24BF624625
:1012B00039464EEB0E0E51EA020718BF46F0010602
:1012C00016EB0E7655F1000254F1000103D5BDE88E
:1012D0008901BDE80088BDE88901BDE80048B6196C
:1012E000524141EB0101A3F10103704780807F7EF1
:1012F0007D7C7B7A7978777676757473727171708C
:101300006F6E6E6D6C6C6B6A6A696868676666653D
:101310006464636362616160605F5F5E5E5D5D5CCB
:101320005C5B5B5A5A59595858575756565555553C
:101330005454535352525251515050504F4F4F4E9C
:101340004E4D4D4D4C4C4C4B4B4B4A4A4A494949EA
:10135000484848474747474646464545454444442C
:1013600044434343434242424241414146EA0646E6
:10137000A3F570534FEA164646EA42564FEAD22288
:1013800042EA415210B54FEAD121A3F1010300F026
:101390002FF820F0004000F1020C00F0004701EBB4
:1013A00000501146BCF5006F40EA070000D210BDA6
:1013B000BAF1000F0AD01CB503B44FF004004FF08F
:1013C00004014FF000000FBCBDE810404FF00001D9
:1013D000BBF1010FB9BF04484FF0FF3103480021B2
:1013E00040EA070010BD00BFFFFFEF7F0000F07F65
:1013F000002B9C4630D477002BD01CB54FEA370722
:1014000003B44FF010004FF01001BAF1000F06D0F6
:10141000BCF1000FDCBF40F0080040F008014FF0C5
:1014200000000FBCBDE810400BF1010BBBF1010F38
:1014300008BF5FEA170722BF12F1010211F1010193
:101440004FF0004143F1000300F0004043EA000088
:101450007047F9D35708D0E746EA064613F1400F24
:101460004FEA16461FDD13F1200FDFBF16430A4671
:10147000002120335B42BED0C3F1200746EA064676
:1014800002FA07F74FEA164646EA0706C3F12007B5
:1014900022FA03F201FA07F721FA03F14FF00003F1
:1014A00042EA0702A7E746EA020646EA06464FEA8C
:1014B000164646EA0106BCBF46EA0646360C4FF021
:1014C00000034FF000024FF0000194E72DE9804C3B
:1014D0009A46934670B491E8380007C831EA400C48
:1014E00048BF34EA430C03D5FFF7A4FDFFF780FFA4
:1014F000F0BCBDE8008C2DE9804C9A46934670B450
:1015000091E8380007C831EA400C48BF34EA430C80
:1015100003D5FFF78FFDFFF729FFF0BCBDE8008C76
:101520002DE9804C9A46934670B491E8380007C87C
:1015300010F0804F08BF13F0804F03D100F01AF86D
:10154000FFF756FFF0BCBDE8008C2DE9804C9A46B1
:10155000934670B491E8380007C810F0804F08BF78
:1015600013F0804F03D100F005F8FFF7FFFEF0BC49
:10157000BDE8008C20F07F4780EA030023F07F4C19
:1015800007EB0C03A3F57C5300F00040A3F1FE032E
:1015900092F0000F00F0B38095F0000F00F077801C
:1015A0002DE901494FEA11404FEA144621EA00486B
:1015B00000FB06FC24EA064708FB06F607FB08F8D2
:1015C00000FB07F718EB06484CEB164C4FEA124BA2
:1015D00018EB07484FEA15464CEB174022EA0B4E32
:1015E0000BFB06FC25EA06470EFB06F607FB0EFE84
:1015F0000BFB07F71EEB064E4CEB164C4FF00006AC
:101600001EEB074E4CEB174B18EB0B0840F100009C
:1016100018EB0E0B58EB000840F100008F1A4FF04A
:1016200000013CBFC943661B14BFB5EB040C00218D
:101630003CBFC943F61B4FEA17444EEA8E0E27EA19
:1016400004454FEA1C4704FB07622CEA074C05FBE4
:1016500007F70CFB05F604FB0CFC16EB074642EB08
:10166000174216EB0C4642EB1C421BEB060658EBEE
:101670000202414146EA9E0601D5BDE80189B6193C
:10168000524141EB0101A3F10103BDE801894FEA99
:1016900014454FEA114724EA054621EA074C05FBA9
:1016A00007F406FB07F70CFB06F105FB0CFC11EB3E
:1016B000074144EB17444FEA124711EB0C4144EB4E
:1016C0001C4422EA074C05FB07F206FB07F70CFB5C
:1016D00006F605FB0CFC16EB074642EB174216EB31
:1016E0000C4642EB1C456A1854F1000148BF704794
:1016F000B619524141EB0101A3F10103704795F086
:10170000000F37D04FEA11424FEA144721EA024650
:1017100024EA074C02FB07F106FB07F70CFB06F473
:1017200002FB0CFC14EB074441EB17414FEA154751
:1017300014EB0C4441EB1C4125EA074C02FB07F576
:1017400006FB07F70CFB06F602FB0CFC16EB074644
:1017500045EB174516EB0C4645EB1C42121951F1AF
:10176000000148BF7047B619524141EB0101A3F196
:10177000010370474FEA14454FEA114724EA054632
:1017800021EA074C05FB07F106FB07F70CFB06F205
:101790004FF0000605FB0CFC12EB074241EB174132
:1017A00012EB0C4251EB1C4148BF7047921841EBC1
:1017B0000101A3F10103704721B1826842F00102E7
:1017C000826003E0826822F001028260704721B1EA
:1017D000826842F48072826003E0826822F4807240
:1017E0008260704700B58BB00121084601F0AAFA6B
:1017F000114800F0B1F9114800908015069010488A
:101800000190002002900A904FF4806007908020A1
:1018100005900020049020200890000209900420E8
:1018200003906946044800F046FA0121024800F09E
:1018300087F90BB000BD0000080002404C240140B5
:101840006804002010B504461248844208D10121E2
:10185000401501F0B7FA0021601501F0B3FA17E066
:101860000D48844208D10121001501F0ABFA002196
:10187000201501F0A7FA0BE00848844208D10121A5
:10188000C80301F09FFA00214FF4004001F09AFADA
:1018900010BD00000024014000280140003C014030
:1018A000014600208A6802F004020AB1012000E02B
:1018B00000207047014600208A6802F008020AB141
:1018C000012000E00020704730B5024600200023D0
:1018D00050680F4C20400D790C6844EA05242043E1
:1018E000506090680B4C2040D1E902542C434D7954
:1018F00044EA450420439060D06A20F470000C7CD8
:10190000641EE4B2234340EA0350D06230BD0000BD
:10191000FFFEF0FFFDF7F1FFF0B504460D46002095
:101920000021092D11DDE068A5F10A0606EB460746
:10193000072606FA07F18843A5F10A0606EB4606D4
:1019400003FA06F10843E0600CE0206905EB450767
:10195000072606FA07F1884305EB450603FA06F168
:1019600008432061072A0FDA606B561E06EB8607D4
:101970001F2606FA07F18843561E06EB860605FA6F
:1019800006F10843606322E00D2A0FDA206BD61FB0
:1019900006EB86071F2606FA07F18843D61F06EBDB
:1019A000860605FA06F10843206310E0E06AA2F11A
:1019B0000D0606EB86071F2606FA07F18843A2F1FB
:1019C0000D0606EB860605FA06F10843E062F0BD57
:1019D000816841F008018160704721B1826842F45A
:1019E000A002826003E0826822F4A0028260704755
:1019F000816841F0040181607047000000B587B044
:101A000001214FF4017001F0CDF94FF4404001F095
:101A10008DF90F20ADF8040000208DF8070001A912
:101A2000284800F067F92848FFF70CFF00200290D3
:101A300001208DF80C008DF80D004FF4602004900B
:101A40000020059004208DF8180002A91E48FFF719
:101A50003BFF0623012200211B48FFF75DFF062301
:101A6000022201211848FFF757FF06230322022113
:101A70001548FFF751FF0623042203211248FFF700
:101A80004BFF01211048FFF7A2FE01210E48FFF78E
:101A900093FE0D48FFF79CFF00BF0B48FFF70AFFBE
:101AA0000028FAD10848FFF7A3FF00BF0648FFF758
:101AB000F7FE0028FAD101210348FFF78EFF07B097
:101AC00000BD0000000801400024014000BFFEE707
:101AD00070B500254FF4003000F024F800200E49C6
:101AE0000870002409E00D4801780930001B0078D7
:101AF000081A0A490870601CC4B20A2CF3D30748BC
:101B0000007838B9064805490A6802604A684260A8
:101B10000989018170BD00004B04002048060020A7
:101B20003E06002000F0805111B10349086001E039
:101B3000024948607047000004040240000002406F
:101B400021B1026842F00102026004E002684FF62F
:101B5000FE731A400260704701684FF6FE72114032
:101B600001600021016041608160C1604B49884291
:101B700008D14A490839496841F00F01474A083AF3
:101B800051608AE045491431884208D143490839F7
:101B9000496841F0F001414A083A51607DE03F490F
:101BA0002831884208D13D490839496841F47061BB
:101BB0003A4A083A516070E038493C31884208D1CD
:101BC00036490839496841F47041344A083A51604D
:101BD00063E032495031884208D1304908394968B8
:101BE00041F470212D4A083A516056E02B49643186
:101BF000884208D129490839496841F47001274AC7
:101C0000083A516049E025497831884208D1234992
:101C10000839496841F07061204A083A51603CE057
:101C20001F49884206D1011F096841F00F01021FB8
:101C3000116032E01A491431884208D11849091F4D
:101C4000096841F0F001164A121F116025E014499D
:101C50002831884208D11249091F096841F470618E
:101C60000F4A121F116018E00D493C31884208D11B
:101C70000B49091F096841F47041094A121F11609C
:101C80000BE007495031884207D10549091F09680F
:101C900041F47021024A121F11607047080002408F
:101CA000080402401AB103680B43036002E00368B2
:101CB0008B430360704710B50022026847F6F0734B
:101CC0009A430C6A8B6823430C6923434C69234372
:101CD0008C692343CC6923434C6A23438C6A234396
:101CE0001A430260CB6843600B6883604B68C36033
:101CF00010BD70472DE9F041024600250026002066
:101D000000230024002791F803C00CF00F0591F880
:101D100003C00CF0100CBCF1000F03D091F802C00E
:101D20004CEA050591F800C0BCF1000F31D01468F1
:101D300000202BE04FF0010C0CFA00F3B1F800C0CA
:101D40000CEA03069E4220D183004FF00F0C0CFAE0
:101D500003F7BC4305FA03FC4CEA040491F803C002
:101D6000BCF1280F06D14FF0010C0CFA00FCC2F8B0
:101D700014C00AE091F803C0BCF1480F05D14FF040
:101D8000010C0CFA00FCC2F810C0401C0828D1D38A
:101D90001460B1F800C0BCF1FF0F34DD54680020BE
:101DA0002EE000F1080C4FF0010808FA0CF3B1F82E
:101DB00000C00CEA03069E4221D183004FF00F0CB5
:101DC0000CFA03F7BC4305FA03FC4CEA040491F84F
:101DD00003C0BCF1280F05D100F1080C08FA0CF87B
:101DE000C2F8148091F803C0BCF1480F07D100F18C
:101DF000080C4FF0010808FA0CF8C2F81080401CDB
:101E00000828CED35460BDE8F0810000F0B50A4642
:101E1000002300240021002500F00046B6F1004F09
:101E200002D11D4EF16901E01B4E7168C0F30345FC
:101E300083B200F44016B6F5401F08D121F070615E
:101E4000154E766826F07066134F7E6012E000F43F
:101E50008016B6F5801F06D1032606FA05F4A143C5
:101E600041F0706106E0460D360103FA06F6B14313
:101E700041F0706122B1460D360103FA06F6314396
:101E800000F00046B6F1004F02D1034EF16101E0CF
:101E9000014E7160F0BD000000000140016170471B
:101EA000002100BF0FE00F4830F8110001EB4102A4
:101EB0000D4B33F81220104401EB410203EB4202B8
:101EC0009080481CC1B20429EDDB0748808840F6A9
:101ED0007B4250434FF47A7290FBF2F0024A5080FA
:101EE00001207047680400205004002000BFFEE776
:101EF0002DE9F0470746894616461D460024A046B0
:101F00000121544800F06EF905E0102C02D90020A0
:101F1000BDE8F087641C50494E4800F025F90028C0
:101F2000F3D000247806010E00224A4800F0ECF9B4
:101F300004E0102C01D90020EAE7641C4749454819
:101F400000F012F90028F4D000244946414800F07E
:101F5000E4F904E0102C01D90020D9E7641C3F49C2
:101F6000891E3C4800F000F90028F3D00024012D20
:101F700003D00121374800F0EBF80121354800F08B
:101F800031F904E0102C01D90020C1E7641C32496A
:101F9000304800F0E9F80028F4D02E4814300088CA
:101FA00000247806010E01222A4800F0ADF904E071
:101FB000102C01D90020ABE7641C2749491C254897
:101FC00000F0D2F80028F3D02248143000882148CD
:101FD0001830008800244FF0010810E000BF1E49AF
:101FE0003F311C4800F0C0F80028F8D0194800F034
:101FF00087F906F8010B08F1010000F0FF08A84579
:10200000ECDB012D07D000BF13493F31114800F030
:10201000ABF80028F8D000210E4800F099F8012D07
:1020200001D0012000E0002001460A4800F0E6F857
:10203000084800F065F9307000BF07493F31054896
:1020400000F092F80028F8D00121024800F080F852
:1020500000205DE7005400400100030082000700FB
:102060002DE9F04706468946174698460024002584
:1020700001212A4800F0B6F805E0102C02D9002012
:10208000BDE8F087641C2649244800F06DF800285C
:10209000F3D000247006010E0022204800F034F92D
:1020A00004E0102C01D90020EAE7641C1D491B48FC
:1020B00000F05AF80028F4D000244946174800F0F0
:1020C0002CF904E0102C01D90020D9E7641C154933
:1020D000891C124800F048F80028F3D0002400259D
:1020E00013E0795D0D4800F018F904E0102C01D9D7
:1020F0000020C5E7641C0B49891C084800F034F82F
:102100000028F3D00024681CC5B24545E9DB012155
:10211000024800F073F80120B2E7000000540040CC
:10212000010003008200070013B50446012301AA41
:102130009DF804102046FFF7DBFE1CBD37B50446B2
:102140000D46012302AA29462046FFF789FF3EBD1E
:1021500021B1028842F48062028004E002884FF6D6
:10216000FF331A400280704770B5024600240025F4
:1021700000230020958A138B1B0445EA030626F0F2
:102180007F4404EA01068E4201D1012000E00020D4
:1021900070BD21B1028842F00102028004E0028891
:1021A0004FF6FE731A4002807047000010B50446D7
:1021B0000B48844209D10121480500F0E3FD0021CC
:1021C0004FF4001000F0DEFD08E00121880500F06A
:1021D000D9FD00214FF4800000F0D4FD10BD0000B7
:1021E0000054004021B1028842F48072028004E071
:1021F00002884FF6FF631A400280704721B10288BF
:1022000042F40072028004E002884FF6FF531A4045
:10221000028070472DE9F04385B004460D46002644
:10222000B1460427DFF8CC80A6884FF6C070064080
:10223000684600F0D7FDDDF808802F48B8FBF0F0C5
:102240001FFA80F946EA0906A68020884FF6FE713B
:102250000840208000262949286888420CD8286830
:102260004000B8FBF0F087B2042F00DA04273E43A9
:1022700009F10100208427E0E8884BF6FF718842CD
:1022800006D1286800EB4000B8FBF0F087B209E007
:10229000286800EBC00101EB0010B8FBF0F087B23A
:1022A00047F48047C7F30B0008B947F0010747F42C
:1022B000004006434FF4967009FB00F04FF47A712A
:1022C00090FBF1F0401C2084A683208840F00100A0
:1022D000208026884FF6F5300640A8886989084393
:1022E00006432680A88929890843208105B0BDE8D6
:1022F000F083000000127A0040420F00A086010027
:102300000146088AC0B2704712B141F0010102E0F3
:102310004FF6FE731940018270470182704700003A
:1023200008B50121102000F03DFD4FF4C040ADF88C
:10233000000010208DF8030002208DF8020069468D
:102340000648FFF7D7FC4FF400510448FFF7A6FDFD
:102350004FF480410148FFF7A1FD08BD0010014086
:102360002DE9FF5F4FF0000ADFF870B10E236A46D7
:102370003B216820FFF7BCFD18B9002004B0BDE880
:10238000F09F0FE0012000EB4A001DF800001DF84F
:102390001A1040EA012000B22BF81A000AF10100DD
:1023A00000F0FF0ABAF1070FECDB4C480189B0F8E6
:1023B0004600084400B24949088108464189B0F8FE
:1023C0004800084401B2454841818189B0F84A007B
:1023D000084401B24148818100884049B1F8401069
:1023E000084400B23D49088008464188B0F84200E0
:1023F000084400B23949488008468188B0F8440052
:10240000084400B235498880B1F9080002F09BF811
:102410000646334A334B02F0FDF8044601F03AFF1A
:102420002E49C861B1F90A0002F08DF806462C4A1F
:102430002C4B02F0EFF8044601F02CFF274908620C
:10244000B1F90C0002F07FF80646254A254B02F050
:10245000E1F8044601F01EFF20494862B1F900008E
:1024600002F071F80646204A204B02F0D3F80446E9
:1024700001F010FF19490861B1F9020002F063F898
:102480000646194A194B02F0C5F8044601F002FF4E
:1024900012494861B1F9040002F055F80646124AA3
:1024A000124B02F0B7F8044601F0F4FE0B498861C4
:1024B000B1F9060002F047F880460D4A0D4B02F0D4
:1024C000A9F8064600220C4B01F016FF044602F064
:1024D0000BF800B20149C88001204FE788040020B2
:1024E000B0977D893E409F3F8B16E742C199533F8D
:1024F0002E8ECA4DD4D2D23F008AAC4010B5802275
:102500006B216820FFF71AFEC82001F0F5FC0022BD
:102510006B216820FFF712FE10221B216820FFF7B5
:102520000DFE08221C216820FFF708FE05221A2153
:102530006820FFF703FE002238216820FFF7FEFD28
:1025400000226A216820FFF7F9FD0022232168207C
:10255000FFF7F4FD802237216820FFF7EFFD75219A
:102560006820FFF7E1FD682808D101226B21FFF701
:10257000E5FD00226C216820FFF7E0FD26210C48D4
:10258000A0F846106FF00801A0F848100D21A0F83F
:102590004A1000200649A1F8400000210448A0F894
:1025A000421040F20D21A0F84410012010BD00009F
:1025B000880400202DE9F04F87B09249086902F0A5
:1025C0002DFB04469048D0E900633246204601F0D6
:1025D00093FE8D4A03C28B49486902F01FFB0446F3
:1025E0008948D0E902633246204601F085FE864ADA
:1025F000C2E902018349886902F010FB04460D46D6
:102600008149D1E904633246294601F075FE7E4ACC
:10261000C2E904017D4800780A2190FBF1F201FB38
:10262000120000287ED178490846D1E904432246A9
:10263000D0E90461304601F0EDFFCDE902017248B6
:10264000D0E902432246D0E90261304601F0E2FFC0
:10265000804689466C48D0E900432246D0E90061B3
:10266000304601F0D7FF824642464B4601F044FE19
:10267000CDE90001DDE9022301F03EFECDE90401D0
:1026800001F0B5FD624A03C20022624B604903C9F2
:1026900002F0BEF843D200225F4B5D4903C901F04E
:1026A0007DFF3CD25749B1F9040002F063FC0546B6
:1026B0005449B1F9000002F05DFC0646294601F0DC
:1026C00041FC0446554902F043FB4E49C863B1F949
:1026D000020002F04FFC05464A49B1F9000002F041
:1026E00049FC0646294601F02DFC04464B4902F000
:1026F0002FFB44494863B1F9020002F03BFC054658
:102700004049B1F9040002F035FC0646294601F0C3
:1027100019FC0446414902F01BFB3A49886300203A
:102720003A4900E008E008700021374A1161516120
:102730009160D1601160516034480078401C334989
:1027400008703049B1F90A0001F0FDFE8046344AB4
:10275000344B01F05FFF8246334A344B01F05AFF9D
:10276000CDE904012749C86B02F058FA0646DDE9B5
:10277000042302F069F9044601F08CFD2149C86385
:10278000B1F90C0001F0DFFE8246254A254B01F02D
:1027900041FF0646244A254B01F03CFF04460D4606
:1027A0001849486B02F03AFA22462B46CDE904015B
:1027B00001F0A2FD804601F06DFD12494863B1F9B8
:1027C000080001F0C0FE164A164BCDE9040101F0E5
:1027D00021FF8046144A154B01F01CFF82468B46B0
:1027E0000849886B02F01AFA064652465B4602F028
:1027F0002BF9044601F04EFD0249886307B0BDE89D
:10280000F08F000088040020D80400203804002045
:102810004004002000C0574000405A4034FA8E3C2B
:10282000B0977D893E409F3F7B14AE47E17A843F5D
:1028300000BFFEE77047000070B5002100230F22A3
:10284000C47804B3154C246804F4E064C4F5E0646F
:10285000210AC1F10403CA40447804FA03F18478E0
:102860001440214309010E4C0678A155047804F068
:102870001F050124AC4005786D11AD0005F1E02580
:10288000C5F8004109E0047804F01F050124AC40BC
:10289000044D0678761145F8264070BD0CED00E039
:1028A00000E400E080E100E002490143024A1160D7
:1028B000704700000000FA050CED00E030B589B06B
:1028C00004460D460121032000F04CFA01210D20A1
:1028D00000F068FA01215F48FFF798FA01215E488D
:1028E000FFF794FA01215D48FFF790FA01215C4857
:1028F000FFF78CFA3B20ADF8200018208DF823005C
:1029000003208DF8220008A95648FFF7F3F94FF489
:102910000040ADF8200018208DF8230003208DF82A
:10292000220008A95048FFF7E5F9ADF81840ADF8C6
:1029300014500020ADF81A00ADF8160005A94B4858
:1029400000F0F8FD05A94FF0804000F0F3FD702085
:10295000ADF804000120ADF806000220ADF80C002F
:1029600001A9424800F082FC01A9404800F034FD72
:1029700001A93E4800F08AFD01A94FF0804000F017
:1029800075FC01A94FF0804000F0C6FC08213748D3
:1029900000F0B8FC0821354800F010FD082133484C
:1029A00000F06AFD0821314800F0AEFD0821C8069C
:1029B00000F0A8FC0821C80600F000FD4FF4FA70F2
:1029C0002B49088040F21630488040F2C1208880B0
:1029D00040F20730C88040F2EE2008810020488194
:1029E000002123488181C181018241820088204ADF
:1029F0005289104481B24FF0804000F094FD1C4891
:102A000042888089104481B2184800F090FD18482F
:102A10008288C089104481B2144800F086FD1448B1
:102A2000C288008A104481B2104800F07AFD104834
:102A30000289408A104481B24FF0804000F071FD5D
:102A400001210A4800F0ECFB0121880700F0E8FBB7
:102A500009B030BD00081A00000118000001300064
:102A600000023000000C014000080140000400405A
:102A7000180600202DE9FC5FA148007890B1A1481C
:102A8000B0F92400142803DD96209F49488102E014
:102A900000209D49488100219B488181C18101829C
:102AA000418200E19949487801F064FD0646002220
:102AB000974B01F0AFFD044601F016FD00B29249BC
:102AC000488192484079032190FBF1F8404601F09B
:102AD0003AFD82468B468D498978A1F1640001F068
:102AE00032FD804600228B4B01F094FD0646524693
:102AF0005B4601F0A9FF0022874BCDE9000101F000
:102B00004DFD02D2002084493DE0804840790321F8
:102B100090FBF1FA504601F016FD06460F467B4940
:102B20008978A1F1640001F00EFD82460022794B04
:102B300001F070FD804632463B4601F085FF0022E1
:102B4000764BCDE9000101F063FE02D2002073490B
:102B500019E06E484079032190FBF1FA504601F0EC
:102B6000F2FC06460F4669498978A1F1640001F03C
:102B7000EAFC82460022674B01F04CFD804632465B
:102B80003B4601F061FF044601F0AEFC01B25E4835
:102B900081815E484079032190FBF1FA504601F0B3
:102BA000D2FC06460F4659498978A1F1640001F02C
:102BB000CAFC82460022574B01F02CFD804632466B
:102BC0003B4601F099FB0022534BCDE9000101F097
:102BD000E5FC02D2002050493DE04C4840790321F9
:102BE00090FBF1F8404601F0AEFC06460F4647491F
:102BF0008978A1F1640001F0A6FC80460022454BD3
:102C000001F008FD824632463B4601F075FB00228A
:102C1000424BCDE9000101F0FBFD02D200203F490B
:102C200019E03A484079032190FBF1F6304601F073
:102C30008AFC8046894635498978A1F1640001F013
:102C400082FC06460022334B01F0E4FC82464246F9
:102C50004B4601F051FB044601F046FC01B22A4804
:102C6000C1812A49C978A1F1640001F06CFC0646D3
:102C700000222B4B01F0CEFC044601F035FC01B2E2
:102C80002148018221490979A1F1640001F05BFC2E
:102C900006460022224B01F0BDFC044601F024FC54
:102CA00001B21948418218480088174A52891044D5
:102CB00081B24FF0804000F036FC13484288808992
:102CC000104481B2174800F032FC0F488288C08956
:102CD000104481B2134800F028FC0B48C288008AD7
:102CE000104481B20F4800F01CFC07480289408A5A
:102CF000104481B24FF0804000F013FCBDE8FC9F0F
:102D00004C040020F0040020180600203E0600209D
:102D1000000004400000F8BF00C062C000C0624074
:102D20000000F83F0004004070470000014600200A
:102D3000034A506820F44040084350607047000048
:102D40000010024029B1064A52690243044B5A61FD
:102D500004E0034A52698243014B5A617047000004
:102D60000010024029B1064AD2690243044BDA61DD
:102D700004E0034AD2698243014BDA6170470000E4
:102D80000010024029B1064A12690243044B1A613D
:102D900004E0034A12698243014B1A617047000044
:102DA0000010024029B1064A92690243044B9A611D
:102DB00004E0034A92698243014B9A617047000024
:102DC0000010024029B1064AD2680243044BDA607F
:102DD00004E0034AD2688243014BDA607047000086
:102DE0000010024030B500210022002400232D4DA8
:102DF0006D6805F00C0121B1042905D0082923D103
:102E000005E0294D056022E0274D05601FE0254DB6
:102E10006D6805F47012234D6D6805F48034022549
:102E200005EB92421CB9214D554305600BE01D4D49
:102E30006D6805F400351DB11C4D5543056002E079
:102E4000194D5543056002E0174D056000BF00BFF6
:102E5000144D6D6805F0F0010909154D6B5C0568AE
:102E6000DD4045600F4D6D6805F4E061090A104DC5
:102E70006B5C4568DD4085600A4D6D6805F4605106
:102E8000C90A0B4D6B5C4568DD40C560054D6D683A
:102E900005F44041890B074D6B5CC568B5FBF3F544
:102EA000056130BD0010024000127A0000093D00AB
:102EB0002004002030040020704710B500F002F814
:102EC00010BD00000CB50020019000903348006850
:102ED00040F480303149086000BF3048006800F499
:102EE000003000900198401C0190009818B901989A
:102EF000B0F5A06FF1D12948006800F4003010B19E
:102F00000120009001E0002000900098012843D1AA
:102F10002348006840F01000214908600846006816
:102F200020F0030008600846006840F002000860D6
:102F30001A48406819494860084640684860084691
:102F4000406840F4806048600846406820F47C1087
:102F500048600846406840F4E81048600846006849
:102F600040F08070086000BF0C48006800F00070FE
:102F70000028F9D00948406820F00300074948605C
:102F80000846406840F00200486000BF03484068BF
:102F900000F00C000828F9D10CBD00000010024020
:102FA0000020024010B586B0002401210920FFF75F
:102FB000F9FE01214805FFF7D5FE01210220FEF7A9
:102FC00025FF4FF44070ADF814001C208DF8170059
:102FD00003208DF8160005A91548FEF78BFE15484D
:102FE000FFF7E4F80020ADF808004FF48060ADF87A
:102FF0000E000001ADF810004BF6FF70ADF80A00AE
:103000000D4801900120ADF80C0001A90948FFF717
:1030100001F901210748FFF7BCF801210548FFF736
:10302000EDF801210348FFF7DDF806B010BD000000
:10303000000C014000540040A0860100042808D183
:103040004FF0E021096941F004014FF0E0221161E5
:1030500007E04FF0E021096921F004014FF0E02280
:10306000116170477047000010B51348006840F0C8
:1030700001001149086008464068104908400E499F
:103080004860084600680E4908400B490860084639
:10309000006820F4802008600846406820F4FE00A4
:1030A00048604FF41F008860FFF707FF4FF0006093
:1030B0000449086010BD0000001002400000FFF845
:1030C000FFFFF6FE08ED00E07FB504460D46012146
:1030D000C802FFF767FEADF80840681E80B2ADF881
:1030E00004000020ADF80A00ADF806008DF80C00D1
:1030F00001A90F4800F01EFA01210D4800F08AF8DE
:10310000012241210A4800F0A8F819208DF800009A
:1031100000208DF801008DF8020001208DF80300D9
:103120006846FFF789FB0121014800F079F87FBD6F
:10313000002C014010B52F4801780078401C2D4A22
:10314000107001290CDD2C48806D00F0FE002A492A
:1031500088650A20C8650846806D40F001008865D2
:1031600026480078401C2549087008460078322817
:1031700005DD4520087001202149087002E000208B
:103180001F4908701F480078632803D100201D499B
:10319000087004E01B480078401C1A490870FEF7CC
:1031A0007FFEFFF7DDF808B1FFF704FA154908784C
:1031B00000EBD0714910A0EB410109B1FFF75AFCB7
:1031C00010480078192190FBF1F201FB120038B988
:1031D0000D48807900F001000C49086000F0FCFC0B
:1031E00001210B4800F028F818B10121084800F02F
:1031F00014F810BD4D040020000002404B040020D4
:103200004C040020000000203E060020B8012242AD
:10321000002C0140CA4302827047CA4302827047B1
:1032200021B1028842F00102028004E002884FF6D8
:10323000FE731A400280704730B50246002000231A
:103240000024158A05EA0103958905EA010413B1F2
:103250000CB1012000E0002030BD1AB183890B437E
:10326000838102E083898B438381704770B500249A
:1032700000220023058C4FF6FE7635400584028C33
:103280008388048B4FF68F752C40B51E2C400D881B
:103290002C43751E2A400D892A434D882A43144D1C
:1032A000A8420BD0134DA84208D0134DA84205D018
:1032B000124DA84202D0124DA84213D14FF6F77515
:1032C0002A404D892A434FF6FB752A408D882A43B0
:1032D0004FF6FF652B404FF6FF552B408D892B4352
:1032E000CD892B4383800483CD888586028470BD7D
:1032F000002C0140003401400040014000440140E6
:10330000004801400A460021018B4FF6F77319402F
:10331000114301837047000070B500240022002390
:10332000058C4FF6EF7635400584028C8388048B3C
:1033300048F6FF752C404FF6FF452C400D884FF6A0
:10334000FF7606EA05252C434FF6DF752A400D89E6
:1033500006EA05152A434D8806EA05152A43154D48
:10336000A84202D0144DA8421DD14FF67F752A40C5
:103370004D894FF6FF7606EA05152A434FF6BF75CD
:103380002A408D8806EA05152A434FF6FF352B4063
:103390004FF2FF752B408D8906EA85052B43CD89B9
:1033A00006EA85052B4383800483CD880587028444
:1033B00070BD0000002C0140003401400A4600218D
:1033C000018B4FF2FF7319404FF6FF7303EA02239C
:1033D000194301837047000070B5002400220023C8
:1033E000058C4FF6FF6635400584028C8388848BFC
:1033F0004FF68F752C404FF6FC752C400D882C43F2
:103400004FF6FF552A400D894FF6FF7606EA05254F
:103410002A434D8806EA05252A43154DA84202D0C5
:10342000144DA8421DD14FF2FF752A404D894FF629
:10343000FF7606EA05252A434FF6FF352A408D8898
:1034400006EA05252A434EF6FF752B404DF6FF751B
:103450002B408D8906EA05152B43CD8906EA051513
:103460002B4383808483CD888587028470BD0000D0
:10347000002C0140003401400A460021818B4FF6A8
:10348000F7731940114381837047000070B5002223
:1034900000230024058C4EF6FF7635400584038C0E
:1034A0008488828B48F6FF752A404FF6FF452A40F4
:1034B0000D884FF6FF7606EA05252A434DF6FF757F
:1034C0002B400D8906EA05352B434D8806EA053564
:1034D0002B430B4DA84202D00A4DA84208D14BF60F
:1034E000FF752C408D894FF6FF7606EA85152C4333
:1034F00084808283CD88A0F84050038470BD000092
:10350000002C0140003401400A460021818B4FF21B
:10351000FF7319404FF6FF7303EA022319438183B7
:103520007047818670470187704781877047A0F890
:1035300040107047002202881D4B98420ED01D4B50
:1035400098420BD0B0F1804F08D01B4B984205D069
:103550001A4B984202D01A4B984204D14FF68F73FF
:103560001A404B881A43174B984207D0164B984283
:1035700004D04FF6FF431A40CB881A4302808B8851
:1035800083850B8803850A4B98420BD0094B9842E0
:1035900008D00E4B984205D00D4B984202D00D4BEF
:1035A000984201D10B7A0386012383827047000081
:1035B000002C01400034014000040040000800409D
:1035C000000C00400010004000140040004001408A
:1035D0000044014000480140044800880348001DA1
:1035E0000088002002490870704700000038014040
:1035F0004D0400202DE9F05FD148406B192813D20B
:10360000D0480088CF48001D0088CD48006B00F0EE
:10361000FE00CB490863C82048630846006B40F0B1
:1036200001000863BDE8F09FC748C06880F40050FF
:10363000C549C8600020C549087000BFC34801786B
:103640000078401CC14A1070C148405C4E28F5D13A
:10365000BF4912781144481CFCF70AFE00B2BD496C
:10366000888400BFB94801780078401CB74A1070C0
:10367000B748405C242803D010460078C728F1DB07
:10368000B2480078C72800D1CCE7B149AF480078EC
:10369000801D085C303800EB8000082101EB400100
:1036A000AB4AAA480078C01D105C30380844A949CC
:1036B0000870084600783C287EDA084600780978C9
:1036C000182901DB182100E00021401AA1490870E7
:1036D0009F499E4800780930085C30380A469B496B
:1036E00009780831515C303901EB810100EB410070
:1036F000984948701146954800780B30085C30387E
:10370000924909780A31515C303901EB810100EBB3
:103710004100904988708D48007810308B490870BE
:1037200011468A4A1278881800F0AEFB044600F071
:10373000B1FD8849486000BF844801780078401C8A
:10374000824A10708248405C2C28F5D100BF7F4827
:1037500001780078401C7D4A10707D48405C2C2820
:10376000F5D17B491278881800F08EFB044600F0F2
:1037700091FD7849886000BF744801780078401C4A
:10378000724A10707248405C2C28F5D100BF6F4817
:1037900001780078401C6D4A10706D48405C2C2800
:1037A000F5D100BF694801780078401C674A107065
:1037B0006748405C2C2800E0AAE0F3D16449127805
:1037C0008818FCF755FD634981F8200000BF5F4869
:1037D00001780078401C5D4A10705D48405C2C28E0
:1037E000F5D100BF594801780078401C574A107045
:1037F0005748405C2C28F5D1554912788818FCF7B9
:1038000037FD00B253494884486801F097FB814670
:1038100001F0B0FB80464F484168404601F0F3FCA0
:1038200007464D4901F094FA05464A49486801F0B7
:1038300085FB642190FBF1F000FB01FB584601F091
:1038400099FB824643484168504601F0DCFC8146C2
:10385000424901F07DFA07463E494868404901F077
:1038600077FA824601F06AFB814601F083FB8046CD
:10387000394601F0FFF90646294601F0FBF90446F6
:1038800001F0CCF9334AC2E904011146886801F01D
:1038900055FB814601F06EFB80462E48816840460C
:1038A00001F0B1FC07462C4901F052FA05462949BE
:1038B000886801F043FB642190FBF1F000FB01FB01
:1038C000584601F057FB824622488168504601F075
:1038D0009AFC8146214901F03BFA07461D49886858
:1038E0001F4901F035FA824601F028FB814601F0BC
:1038F00041FB8046394601F0BDF90646294601F0F4
:10390000B9F9044601F08AF9124AC2E9060102E057
:103910000020104988840A48006B00F0FE00084926
:103920000863C82048630846006B40F00100086344
:10393000044800880348001D008800BF72E60000AC
:1039400000000240004800400010014049040020EF
:1039500018050020F0040020007C1249000070428D
:103960000000C84221B1828942F40052828104E001
:1039700082894DF6FF731A40828170471AB1838A9B
:103980000B43838202E0838A8B4383827047F0B5C6
:103990000346002400260025002040F66A17B9429D
:1039A00000D100BF1846C1F3421401F01F060127E1
:1039B00007FA06F5012C01D10C3004E0022C01D1EC
:1039C000103000E014301AB107682F43076002E09E
:1039D0000768AF430760F0BD2DE9F04786B00546A4
:1039E0000E460024A24600BFA1460027B08900B1C0
:1039F00000BF2F462C8A4CF6FF700440F088044329
:103A00002C82AC894EF6F3100440B088318908430B
:103A1000718908430443AC81AC8A4FF6FF400440EF
:103A2000B0890443AC8201A8FFF7DCF91F48874244
:103A300002D1DDF810A001E0DDF80CA0A88900F4A7
:103A4000004040B10AEBCA0000EB0A10316849009F
:103A5000B0FBF1F807E00AEBCA0000EB0A1031688E
:103A60008900B0FBF1F86420B8FBF0F004012009F4
:103A7000642101FB1089A88900F4004040B1322084
:103A800000EBC900B0FBF1F000F00700044308E0D0
:103A9000322000EB09106421B0FBF1F000F00F00C0
:103AA00004432C8106B0BDE8F087000000380140D7
:103AB00000BFFEE700B58DB00F208DF83000032069
:103AC0008DF8310002208DF8320001208DF833008E
:103AD0000CA8FEF7B1FE01210846FFF733F9334881
:103AE000FEF73AF8324801903248029010200390D5
:103AF000122004900020059080200690002007905E
:103B0000089009904FF440500A9000200B9001A9B2
:103B10002648FEF7D0F84FF48050FEF703F8002156
:103B20002248FEF70DF801210846FFF70BF91F4860
:103B30001430FEF711F81E4801901F480290002033
:103B400003900A2004900020059080200690002019
:103B50000790089009904FF440500A9000200B9075
:103B600001A912481430FEF7A6F8012202210F48DD
:103B70001430FEF797F84FF40030FDF7D3FF012122
:103B80000A481430FDF7DCFF00210948001FFFF749
:103B9000E9FE0122C0210648001FFFF7EFFE0121C8
:103BA0000348001FFFF7DEFE0DB000BD44000240D9
:103BB000043801402C0600204806002010B54FF4C0
:103BC000964000F083F8FFF775FF4FF0FF30014992
:103BD000088210BD2C06002070B500240020354955
:103BE00008703548B0F922000A2190FBF1F0314904
:103BF0004870314890F82400887030484088A0F51B
:103C000014501C38C0EBC000642190FBF1F029492E
:103C1000C8702B49C86B2B4901F0F8F9054601F033
:103C20008DF900B2234988812549886B254901F027
:103C3000EDF9054601F082F900B21E49C88120481D
:103C4000B0F9060042F210710844C82190FBF1F06F
:103C500018490871184988681A4901F0D7F90546CA
:103C600001F06CF900B213490881134948681549FD
:103C700001F0CCF9054601F061F900B20D49488127
:103C800008E00C4800780B49095D084409490870B0
:103C9000601CC4B2122CF4D30B48406C00F0FE0040
:103CA00009494864122088640846406C40F00100CD
:103CB000486470BD2C060020F00400205004002051
:103CC000880400200000C8420000024010B586B001
:103CD0000446012144F20100FFF764F801210820A5
:103CE000FFF760F801210420FEF790F84020ADF8BE
:103CF000140003208DF8160018208DF8170005A970
:103D00001B48FDF7F7FF8020ADF8140028208DF840
:103D1000170005A91648FDF7EDFF25208DF80000D6
:103D200002208DF801008DF8020001208DF80300BB
:103D30006846FEF781FD01940020ADF80800ADF85B
:103D40000A00ADF80C00ADF810000C20ADF80E0024
:103D500001A90848FFF740FE012240F2255105481D
:103D6000FFF715FE01210348FFF7FCFD06B010BD6B
:103D7000000C01400038014040F2013200204FF0B9
:103D8000E04101F0F5BA0000024A0020110701F0FD
:103D9000EFBA000001FDFFFF10B50446D1E90001B4
:103DA00000F002F8206010BDF8B504460D466A46E2
:103DB00000F08AF900987E30009000281EDC002276
:103DC00013462046294600F053FB17D0002140F649
:103DD00008004FF0000006462046294600F05AFA37
:103DE000044640F6080006EA00014FF0000034F0F7
:103DF000004004BF0220FCF754FA29E00098FF2895
:103E000028DB002108464FF0000000F440060022A5
:103E100013462046294600F0FBFC8CBF00250125F7
:103E20000220FCF73EFA4FF0FF4446B1002D0CBFD4
:103E30004FF400004FF48000B04218BF084C04213A
:103E400008464FF00000002D04BF84F00040F8BD8C
:103E50002046F8BD20462946BDE8F84000F01ABAD1
:103E6000FFFF7F7F10B504460A46D4E900031946D8
:103E700000F056F9C4E9000110BD30380A2801D21B
:103E8000012070470020704730B583B00446FCF72E
:103E900003FA05460020CDE90000024621466846A7
:103EA000FCF724FA2846FCF7FCF9DDE9000103B031
:103EB00030BD000010B56FF00400FFF7BFF80A48EE
:103EC00000680A49B0FBF1F009490870084600781B
:103ED00000EB4001C1EBC0104FF6FF7101EAC000DA
:103EE0000449088010BD00000400002000127A0080
:103EF000180000201A0000200146114A12884A4387
:103F00004FF0E0235A6100229A611A46126942F08A
:103F100001021A6100BF4FF0E022106900F00102B7
:103F20001AB100F48032002AF5D04FF0E022126975
:103F300022F001024FF0E0231A6100229A617047DB
:103F40001A0000202DE9FE4F814688460021484690
:103F500000F0C0FF06D10021404600F0BBFF01D1B8
:103F60000024A4E00021484601F01CF901D2484693
:103F700001E089F0004083460021404601F012F93B
:103F800001D2404601E088F0004082465146584642
:103F900001F008F805D25146584600F0D9FE074610
:103FA00004E05946504600F0D3FE074641493846E2
:103FB00000F0F8FF01D23D462BE04FF08741384634
:103FC00001F024F84FF07C51019001F027F90290A4
:103FD000029800F0B3FF0646304600F0CBFF019098
:103FE000029901F010F90290334850F82650024629
:103FF00052F826100346721C53F8220001F00EF905
:104000000090029901F002F82946019000F032FE7A
:1040100005465946504601F0C5F820D200214046D9
:1040200001F0C0F809D80021484601F0BBF801D8DA
:104030002C463CE085F0004439E0204C0021484605
:1040400001F0B0F805D82946204601F0E7F804460B
:104050002DE02146284601F0E1F8044627E0002142
:10406000484601F09FF811D8154C0021404601F058
:1040700099F805D82946204601F0D0F8044616E004
:104080002946204600F0F6FD044610E00D4C0021C4
:10409000404601F087F805D82946204600F0EAFDA1
:1040A000044604E02946204601F0B8F804462046BC
:1040B000BDE8FE8F8180803B1C000020DB0F494063
:1040C000DB0FC93FDB0FC9BF10B5144600222260C9
:1040D000114A21F000439342A8BF10BD53EA0002E9
:1040E00008BF10BDB3F5801FA8BF226807DA3622CB
:1040F00001F03EF96FF0350221F000432260DFF855
:104100001CC06FF31E510CEB23531A4441F0FF51B6
:1041100041F00051226010BD0000F07F02FCFFFF63
:104120002DE9F04106460C4640F2FF75174635EA88
:1041300014502BD000221346304600F099F925D0B8
:104140003A463046214601F013F906460C4635EA58
:10415000145010D000221346304600F089F915D1D2
:104160000220FCF79EF8FFF70FFE0A46214662F395
:104170001E01BDE8F0810220FCF793F8FFF7FCFD7B
:104180000A46214662F31E01BDE8F0813046214611
:10419000BDE8F081012080F3108800BF4FF4A060DB
:1041A000FEF782FBFEF7BCF8FFF784FEFEF7FAFE8F
:1041B000902142F21070FEF781FBFDF71FFCFDF726
:1041C00011FBFFF7FBFC4FF47A714FF43470FEF7EC
:1041D0007BFF6420FFF790FEFEF790F9002080F34C
:1041E000108800BF02E00A20FFF786FEFBE72DE9FA
:1041F000F04106460F4600F041FB041E0D4618BF75
:104200000120284320F00040C0F17F6000F1E04031
:10421000C00F0ED0301C18BF0120384320F00040E2
:10422000C0F17F6000F1E040C00F04BF0120FCF747
:1042300038F820462946BDE8F081000010B5002975
:104240000AD00878002807D005487844FCF7FCFB22
:10425000002801D0002010BD0248784410BD0000A5
:10426000821200007A12000010B500290AD00878E6
:10427000002807D005487844FCF7E6FB002801D069
:10428000002010BD0248784410BD000072120000EA
:104290006A12000021F00042A2F16052B2F5801FC4
:1042A00001F0004328BFD2F17F6C0BD95FEA001CFC
:1042B00043EAC20242EB507018BF704728BF20F09B
:1042C00001007047B2F5801FBCBF184670474FEA27
:1042D000410C1CF5001F02D2084600F05EBF70B50D
:1042E00000F042FA00000089FFF7F6BF4FF00040EF
:1042F000A0F580007047000010B591EA030F48BF99
:1043000083F0004300F1A883841A71EB030C05D2FB
:10431000121943EB0C03001B61EB0C01DFF824E1E5
:104320004FEA1154A4EB135C1EEA430F18BF9EEA38
:10433000445F73D023EA0E03DCF1200E21EA04511E
:1043400043F4801332D322FA0CFE10EB0E0023FA52
:104350000CFE41EB0E01CCF1200E03FA0EFE10EB29
:104360000E0051F10001B1F5801FCCF1200E32D2C8
:1043700001EB045112FA0EF2BDE8104058BF70472D
:10438000401C38BF5FEA420218BF7047002814BFC4
:1043900020F0010041F100014FEA410313F5001F35
:1043A00038BF7047A1F1C04100F02CBA012A43EB9D
:1043B0000302ACF1200CDCF11F0E32BF4FF0000EF7
:1043C00023FA0CF310EB030041EB0451B4EB115F43
:1043D000D0D0A1EB045101F5801149085FEA30000B
:1043E00001EB04510ED350F1000038BF12FA0EFE5B
:1043F00008D1BDE81040C9E7401C38BF5FEA42025F
:10440000CAD1C3E7BDE810404FEA410313F5001FCE
:1044100038BF7047A1F1C04100F0F4B99EEA445F93
:1044200008D011EA5E0FBDE8104004BF01F0004162
:1044300000207047BDE8104070B500F095F900BF4E
:1044400064FBBE3E0000E0FF02494FF0000000F0B8
:104450005DBF00BF0000F87F491058BFC1F1404167
:104460005B1058BFC3F140438B42EFF300807047AD
:1044700051EA030C17D41CF5801F58BFBCF5801FF0
:1044800000F10680994218BF704708BF90427047FC
:1044900007D711F5801F58BF13F5801F19D4994213
:1044A0007047894270471CF5801F08D5BCF5801FF6
:1044B000F7D58B4218BF704708BF824270474FF450
:1044C000001C1CEB410F38BF1CEB430F01D28B4289
:1044D000704770B500F048F9922449004FF0005140
:1044E0004FF08053FFF7B8BF4FEA41034FEA5353F1
:1044F000A3F58063D3F11E03C8BFD3F1210C0CDDFB
:104500004FF0004242EAC12242EA505232FA03FC22
:104510008CEAE17CACEBE1707047102BC4BF00204B
:10452000704703F5787CBCF1FF3F04D06FF0004288
:1045300082EA2100704770B500F016F94992248094
:1045400000207047F2E710F0004248BF4042B0FA46
:1045500080F310FA03F10AD0C3F11D0303F5806361
:104560004FEA415002EB035202EBD12170474FF06A
:1045700000007047B0FA80F310FA03F10AD0C3F1DB
:104580001D0303F580634FEA41504FEA035202EBEB
:10459000D12170474FF000007047000051EA030C32
:1045A00017D41CF5801F58BFBCF5801F00F1068092
:1045B000994218BF704708BF9042704707D711F55E
:1045C000801F58BF13F5801F19D499427047894244
:1045D00070471CF5801F08D5BCF5801FF7D58B42AE
:1045E00018BF704708BF824270474FF4001C1CEB95
:1045F000410F38BF1CEB430F01D28B42704770B59F
:1046000000F0B2F8922449004FF000514FF080536F
:10461000FFF722BFDFF848C170B51CEA111E1EBFAC
:104620001CEA13159EEA0C0F95EA0C0F00F06F8040
:1046300081EA030423EA4C134EEAD47E21EA4C11AA
:1046400041F4801143F48013AE44A1FB024CA0FB63
:104650000365AEF17F7E361955EB0C05A1FB034CCB
:104660004CF10003A0FB021C16EB0C06654153F154
:104670000003094218BF46F0010613F4007F0BD176
:104680004FEA03314FEA0530340341EA155140EA5D
:1046900016506FF003020AE04FEAC3214FEAC5202B
:1046A000F40241EA555140EA56506FF0020202EB23
:1046B0002E4201EB025585EACE710AD05FEA440C26
:1046C00018BF24F0004450F1000041F1000120EA3D
:1046D000D47040F2FE7C624500D270BDA84214BF87
:1046E0004FF080444FF04044002E08BF0024BEF13C
:1046F000806FA8BFA1F1C041BDE8704080F2828008
:104700004FF0000001F1C04101F0004170479EEA06
:104710000C0F0CEA131518BF95EA0C0F06D04FF0DA
:10472000000081EA030E0EF0004170BD00F01CF89D
:104730008900013E00F007B800F009B84FEA430CC9
:104740005FEA5C5C08D081EA030100F05BB84FEAE5
:10475000410C5FEA5C5CF6D14FF000000149704704
:104760000000FF070000F87F0EF1020E2EF0030E8E
:104770005EF8046B364205D4012A43EB030515F5B8
:10478000001F12D8012841EB010C1CF5001F0CD8AA
:104790000ED14FEAD17C15F5001F0CEB4C0C0CF13F
:1047A000020C08BF4CEBD37C04E04FF0080C01E096
:1047B0004FEAD37C0CEB4C0526FA05F606F007060B
:1047C000B6F1040C06D20EEB860CBDE870404CF03E
:1047D000010C6047DFE80CF0090B02024FF00041CA
:1047E0004FF00000A1F5002170BD194610460128C8
:1047F00051EB010418BFD4F5001484BF002001F070
:10480000004170BD0808A0F500114FEA3101704762
:1048100053EA010C17D41CF5801F58BFBCF5801F4C
:1048200000F106808B4218BF704708BF8242704774
:1048300007D713F5801F58BF11F5801F19D48B427D
:1048400070479B4270471CF5801F08D5BCF5801F40
:10485000F7D5994218BF704708BF904270474FF490
:10486000001C1CEB430F38BF1CEB410F01D29942D7
:1048700070470FB40CBC03BCFFF7C1BE2DE9F0417B
:1048800001F5801CBCF5001FC0F2C3804FEA115C2B
:1048900021EA0C510CF1FD0C41F480115FEA5C0C33
:1048A0000CF5C07C01D3400049413DA4890241EA96
:1048B000905187028E0E0A0CA45D04FB04F602FBE5
:1048C00006F6C6F14046A4FB0662F60D46EA42260D
:1048D00006FB06F4A4FB01235242C3F1404338BF58
:1048E0005B1EA6FB02420024E6FB0324D20B42EA35
:1048F0004446A6FB0623A1FB02E2A3FB07E4A4189F
:104900004FF0000252F10002E3FB01426442C2F1A7
:10491000404E38BFAEF1010EA6FB04234FF000025B
:10492000E6FB0E32A2FB03464FF00004B61954F129
:104930000004E2FB0264A1FB06E6A4FB07E816EB19
:1049400008064FF0000858F10008E4FB01687642C1
:10495000C8F1405838BFA8F10108A2FB06E4A3FB48
:1049600008E52D194FF0000454F10004E2FB08544F
:10497000A1FB05E6A7FB04E818EB06084FF00006CC
:1049800056F10006E1FB048618F1200556F10006F9
:10499000A809A8F11B08B10908F03F08B8F10A0FEF
:1049A00040EA86601CD901EB0C51BDE8F08100BFE4
:1049B000FCF5EEE8E2DDD8D3CFCBC7C3C0BDB9B6B6
:1049C000B4B1AEACA9A7A5A3A19F9D9B9A989695BB
:1049D0009392908F8D8C8B89888786858483828142
:1049E000A0FB006800FB01F208EB4208B8EB872847
:1049F00007D5341858EB0104D5D5401C51F10001FE
:104A0000D1E7341A78EB0104CDD4401E71F10001D6
:104A1000C9E75FEA4C0C5FEA9C5C0DD105D34FF00F
:104A2000000001F00041BDE8F081BDE8F04170B543
:104A3000FFF79AFE6DDBFFBEBDE8F0414FF00000CE
:104A4000004970470000F87F10B591EA030F48BF96
:104A500083F000433FF558AC841A71EB030C07D286
:104A600012198CF0004C43EB0C03001B61EB0C01A2
:104A7000DFF8A4E14FEA1154A4EB135C1EEA430FE4
:104A800018BF9EEA445F00F0B08023EA6E035242F2
:104A900021EA0451C3EB6E0338BF5B1EDCF1200E2C
:104AA00025D322FA0CFE10EB0E0043FA0CFE41EB6C
:104AB0000E01CCF1200E03FA0EFE10EB0E0051F1A8
:104AC0000001CCF1200E29D412FA0EF201EB0451B0
:104AD000BDE8104058BF7047401C1CBFB2F1004FEA
:104AE000704700280CBF491C20F00100704712EBF2
:104AF000020E43EB030218BF4FF0010E4EEA4202D2
:104B0000ACF1200CDCF11E0E54D943FA0CFE10EB74
:104B10000E0051F1FF31CCF11E0ED5D50EF1010E74
:104B200012FA0EFE404141EB010101EB445C5FEAE9
:104B30005C5C10D910EBDE7001EB045138BFBEF1A4
:104B4000004FBDE8104018BF704700280CBF491C3B
:104B500020F00100704730D24FEAD42C11F500113B
:104B600024F400641BD0B1FA81F20B3AA41AA41EFB
:104B7000D2F12003914030FA03F31943904001EB46
:104B8000CC71002C01EB0451BDE81040A8BF704768
:104B900001F1C0414FF0000001F000417047B0FA50
:104BA00080F310FA03F100D110BDE41A173C480558
:104BB000C90AE4E701EB045110BD491001EB0451AF
:104BC000BDE810404FEA300002E04FF000017047AE
:104BD0004A0008BF0042F8D0B2F5001F28BF704756
:104BE00001F000414FF0000070479EEA445F07D09B
:104BF00011EA5E0FBDE8104004BF0021002070479D
:104C0000BDE8104070B5FFF7AFFD00BF40DFF63ED6
:104C100083F00041104670470000E0FF43004FEA78
:104C2000D30C4FEA3C0C43401FBF40070CF16051CE
:104C300013F0FE4F70471CF0006F03D100200CF002
:104C4000004170470CF0004343EA507010B540EA51
:104C5000CC0000F05CFA00BF000000924FEA0001B7
:104C6000FFF7D0BD4FF000414FF00000A1F500214B
:104C70007047000090EA010F48BF81F0004100F149
:104C8000D482421A3CBF801A89184FEAD0524FF0A2
:104C90007F4C1CEA410FA2EBD15318BF9CEA026F74
:104CA00000F03B804FF0004C4CEA00204CEA012120
:104CB00021FA03FC10EB0C0C1ED202F1FF325FEA6A
:104CC0001C2040EBC25038BF70471CF07F0F4FEAEA
:104CD000400C18BFBCF17F4F38BF7047C3F12003B1
:104CE000994008BF20F00100BCF17F4F38BF7047EA
:104CF000A0F1C04000F051BA4FEA3C00000A40EB7E
:104D0000C25028BF1CF0FF0F4FEA400CE6D018BF7E
:104D1000BCF17F4F38BF7047EAE79CEA026F05D0CD
:104D200010EA5C0F08BF00F00040704710B500F0BB
:104D3000EEF900BF64FBBE3E401058BFC0F14040DA
:104D4000491058BFC1F140418142EFF300807047E4
:104D50004FF47F0C1CEAD0121EBF1CEAD11392EA5A
:104D60000C0F93EA0C0F00F0858090EA010F48BF0A
:104D700042F4807240F4000C41F400002CF07F41BA
:104D800020F07F4000B58142A2EB03020FF2081C25
:104D9000ACEB504EC0F100009EF800E04FEA4E0E22
:104DA00000FB0EFC38BF49004FEA2C1C02F5FA024A
:104DB0000CFB0EF34FEACE1E4FEA112C4FEAC12135
:104DC0000EEB635E42EB22420EFB0CFC4FEA1C53DF
:104DD00000FB03114FEA112C4FEA01310EFB0CFCD2
:104DE0004FEADC4C00FB0C11C14228BF09184CEB08
:104DF00003335DF804EB10EB410143EBC250B2F515
:104E00007C0F38BF704729D512F0F00F1CBF00F19E
:104E1000C04000F00040704700818283848586870F
:104E200088898B8C8D8E8F919293959697999A9C69
:104E30009D9FA0A2A3A5A7A8AAACAEB0B2B3B5B7D8
:104E4000B9BCBEC0C2C5C7C9CCCED1D4D7D9DCDFAE
:104E5000E2E6E9ECF0F3F7FAFE0000004FEA400C5E
:104E60000CF1807CBCF17E4F28BF7047B0F1C04090
:104E700000F093B990EA010F0CEAD11348BF42F455
:104E80008072624538BF634507D213F47F0F16D096
:104E900080EA010000F00040704710B500F037F9DB
:104EA000097EFC3E00F005B880EA010000F00040F9
:104EB000704780EA010000F0004000F06EB912F483
:104EC0007F0F04BF0248704780EA010000F065B917
:104ED0000000C07F50EA010C00F113801CF5000FA8
:104EE00058BFBCF5000F01D48842704707D710F5B2
:104EF000000F58BF11F5000F15D488427047894242
:104F000070471CF5000F04D5BCF5000FF7D58142A2
:104F100070474FF0807C1CEB400F38BF1CEB410FFB
:104F200001D28142704710B500F0F1F89224490097
:104F30004FF000504FF08051FFF7FEBE41000B0EC6
:104F4000D3F19E0208D950F400034FEA032323FA59
:104F500002F048BF4042704710B500F0D8F800BFDB
:104F600049922480002070476FF0004282EA2000BE
:104F70007047000010F0004148BF4042B0FA80F393
:104F800010FA03F2C3F19D030BD051EAC35101EBB8
:104F90001220530638BF704700F1010008BF20F00F
:104FA0000100704750EA010C00F113801CF5000F5E
:104FB00058BFBCF5000F01D48842704707D710F5E1
:104FC000000F58BF11F5000F15D488427047894271
:104FD00070471CF5000F04D5BCF5000FF7D58142D2
:104FE00070474FF0807C1CEB400F38BF1CEB410F2B
:104FF00001D28142704710B500F089F8922449002F
:105000004FF000504FF08051FFF796BE4FF47F0CE9
:105010001CEAD0121EBF1CEAD11392EA0C0F93EACD
:105020000C0F00F0478090EA010F48BF42F48072F5
:105030004FF0004C4CEA00204CEA012102EB030245
:10504000A0FB0113A2F50002002918BF43F00103E1
:105050005B0028BF4FEA330342EB22425FEA132C86
:105060004CEBC2502EBFBCEB436FB2F57C0F7047C8
:105070004FEA036CBCF1004F08BF20F00100B2F50D
:105080007C0F38BF70470BD582F0FF0212F5803FCE
:10509000C8BF704700F1C040D8BF00F00040704763
:1050A00000F5000C5FEA4C0C48BF7047B0F1C040FF
:1050B00000F073B890EA010F0CEAD11348BF42F434
:1050C0008072624538BF634504D280EA010000F077
:1050D0000040704710B500F01AF800BF8900013E8B
:1050E00000F007B800F009B85FEA410C5FEA1C6CF9
:1050F00008D080EA010000F050B85FEA400C5FEA97
:105100001C6CF6D14FF00040A0F5800070470EF106
:10511000020E2EF0030E5EF8044B244204D44FEA34
:105120004102B2F17F4F11D84FEA4003B3F17F4FF4
:105130000CD80ED14FEAD07CB2F17F4F0CEB4C0C67
:105140000CF1020C08BF4CEBD17C04E04FF0080CD2
:1051500001E04FEAD17C0CEB4C0324FA03F404F099
:105160000704B4F1040C06D20EEB840CBDE8104029
:105170004CF0010C6047DFE80CF0070802024FF02A
:105180000040A0F5800010BD0846420018BFD2F1D3
:10519000807288BF00F0004010BDFF2141EAD0506E
:1051A000C005704751EA000C00F113801CF5000F98
:1051B00058BFBCF5000F01D48142704707D711F5E5
:1051C000000F58BF10F5000F15D481427047894277
:1051D00070471CF5000F04D5BCF5000FF7D58842C9
:1051E00070474FF0807C1CEB410F38BF1CEB400F29
:1051F00001D28842704780EA010081EA000180EA1A
:105200000100FFF7F8BE80F0004090EA010F7FF543
:1052100038AD81F0004100F008B8000090EA010FBD
:1052200048BF81F000413FF52CAD421A04D882F00E
:105230000042A0EB020011444FEAD0524FF07F4CE5
:105240001CEA410FA2EBD15318BF9CEA026F4AD06F
:105250004FF0004C4CEA00204CEA012121FA03FCFB
:10526000B0EB0C0C0FD412F0FE0F36D05FEA4C00FE
:105270001DD5001240EBC25038BF70471CF03F0FE5
:1052800018BF70470BE0A2F101025FEA1C2040EB5F
:10529000C25038BF70471CF07F0F18BF7047C3F172
:1052A0002003994014BF401E20F001007047800881
:1052B0004FEA122308BF7047B0FA80FCA2EB0C0241
:1052C000CCF1280C60FA0CF093EA122F04BF00EB2B
:1052D000C25070474FEAC3707047130A5FEADC1090
:1052E00008BF7047F6E79CEA026F04D010EA5C0F33
:1052F00008BF0020704710B5FFF709FF40DFF63EFA
:1053000081F0004070474FF0000070470CF00F0331
:10531000092B08BF082000F05F800A2B0BD0082B58
:1053200018BF704708BF1CF0400F0AD04FF00000B4
:105330004FF0000170471CF0400F18BF4FF00040C5
:1053400070471CF0100F08D020F0704300F07F422F
:1053500042EAD3014FEA4370704700F0604021F009
:105360007F4242EA000201F07F4040EA72707047DB
:105370004FF0FF0C4CF4E06C1CEA11531CBF9CEA8C
:10538000030C9445C2BFDA4201EB02517047002B77
:105390000DD0BCF1000F0FD0002A01F00041A4BFD6
:1053A00041F0E04141F07F614FF00000704701F0B3
:1053B00000414FF00000704750EA01334FF09B0C62
:1053C00018BF4CF0806C7FF43FA87047FBF7DCB946
:1053D000FBF7ECBBFBF77ABD1CF4801F11D01CF46B
:1053E000E02F03D06FEACC31490070474FF04050B6
:1053F000EFF3008222F0704242EA000282F300885A
:1054000070474FF00000704702400000000000A00D
:105410000000000005400000000000C8000000007F
:105420000C4000000000409C0000000019400000FB
:105430000020BCBE0000000034400000BFC91B8E2D
:1054400000000004B5400000504BCFD06607E2CF0B
:10545000010000006C4100003E8251AADFEEA7343B
:1054600001000000D9420000DCB5A0E23A301F97ED
:10547000FFFFFFFFB4450000FD25A0C8E9A3C14F11
:10548000FFFFFFFFFF3F0000000000800000000062
:10549000FF3F00000000008000000000F8550008F9
:1054A00000000020500400006C010008285A000889
:1054B0005004002068080000D0010008000000002F
:1054C0000000F07FFFFFFFFFFFFFEF7F1C000000E9
:1054D00043000000F8FFFFFF0C0000000E0000007A
:1054E0000F0000002E00000010010000430000002B
:1054F000F8FFFFFF004040404040404040404141F5
:105500004141414040404040404040404040404098
:105510004040404040050202020202020202020232
:10552000020202020220202020202020202020022F
:1055300002020202020290909090909010101010BF
:10554000101010101010101010101010101010105B
:1055500002020202020288888888888808080808EF
:1055600008080808080808080808080808080808BB
:1055700002020202400000000000000000000000E3
:10558000000000000000000000000000000000001B
:10559000000000000000000000000000000000000B
:1055A00000000000000000000000000000000000FB
:1055B00000000000000000000000000000000000EB
:1055C00000000000000000000000000000000000DB
:1055D00000000000000000000000000000000000CB
:1055E00000000000000000000000000000000000BB
:1055F00000000000000000002200015005A24A0443
:105600000001600901020304060708091000FF00F9
:105610005680803BD37F003C77BE403CCF7D803CB2
:105620005B9BA03CA6B7C03C6ED2E03CB775003D8A
:105630003581103D918B203DAB94303D609C403DC9
:1056400092A2503D25A7603DF1A9703D6F55803D68
:10565000E354883D4753903D8C50983D9F4CA03D6E
:105660007247A83DF740B03D1B39B83DD22FC03D31
:105670000C25C83DB218D03DC60AD83D2DFBDF3DF4
:10568000D9E9E73DB0D6EF3DBEC1F73DDBAAFF3D0E
:1056900004C9033E95BB073E20AD0B3E979D0F3ED0
:1056A000F58C133E397B173E56681B3E3E541F3E19
:1056B000F83E233E7728273EB4102B3EA1F72E3E1E
:1056C00045DD323E93C1363E7DA43A3E0A863E3EDB
:1056D0002766423ED844463E12224A3EC7FD4D3E12
:1056E000FED7513EAFB0553EC687593E4B5D5D3E3D
:1056F0003731613E7C03653E1AD4683E0AA36C3E96
:105700004770703EC83B743E8805783E86CD00FFEA
:10571000007B3EB5937F3E0EAC813E538D833EAE03
:105720006D853E164D873E8D2B893E0F098B3E9928
:10573000E58C3E2BC18E3EC19B903E5475923EE956
:105740004D943E7B25963E07FC973E8BD1993E02B9
:10575000A69B3E6F799D3ECD4B9F3E1C1DA13E57A3
:10576000EDA23E7FBCA43E8D8AA63E8457A83E6231
:1057700023AA3E23EEAB3EC2B7AD3E4580AF3EA46A
:1057800047B13EE20DB33EF9D2B43EE996B63EB122
:1057900059B83E4F1BBA3EC2DBBB3E079BBD3E1E07
:1057A00059BF3E0416C13EBCD1C23E3F8CC43E8EA2
:1057B00045C63EA4FDC73E89B4C93E336ACB3EA46C
:1057C0001ECD3EDAD1CE3ED583D03E9434D23E18A3
:1057D000E4D33E5A92D53E603FD73E21EBD83EA35C
:1057E00095DA3EE33EDC3EE1E6DD3E9A8DDF3E0D9E
:1057F00033E13E3AD7E23E227AE43EC51BE63E1B49
:10580000BCE73E2F5BE93EF7F8EA3E7695EC3E00BA
:10581000FF00A930EE3E93CAEF3E3563F13E86FAB3
:10582000F23E8F90F43E4925F63EB9B8F73EDA4A8B
:10583000F93EAFDBFA3E386BFC3E71F9FD3E5A860D
:10584000FF3EFC88003F234E013FA212023F7BD661
:10585000023FAC99033F365C043F171E053F51DF02
:10586000053FE39F063FCE5F073F121F083FADDDB8
:10587000083FA29B093FEF580A3F94150B3F93D175
:105880000B3FE98C0C3F9A470D3FA2010E3F03BB33
:105890000E3FBF730F3FD32B103F41E3103F089AD9
:1058A000113F2A50123FA405133F79BA133FA86E47
:1058B000143F3322153F18D5153F5787163FF1384F
:1058C000173FE7E9173F389A183FE749193FEFF8C4
:1058D000193F55A71A3F18551B3F37021C3FB3AE5F
:1058E0001C3F8E5A1D3FC4051E3F5AB01E3F4E5AE4
:1058F0001F3FA103203F52AC203F6354213FD3FB05
:10590000213FA4A2223FD548233F67EE233F5A936D
:1059100000FF00243FAD37253F63DB253F7A7E261D
:105920003FF420273FD2C2273F1364283FB7042902
:105930003FBFA4293F2C442A3FFEE22A3F33812B5C
:105940003FD11E2C3FD2BB2C3F3C582D3F0CF42D99
:105950003F438F2E3FE1292F3FE9C32F3F595D3051
:105960003F33F6303F758E313F2126323F39BD320D
:105970003FBB53333FA9E9333F027F343FC7133561
:105980003FF9A7353F993B363FA6CE363F216137D9
:105990003F0BF3373F6484383F2E15393F65A539F7
:1059A0003F0F353A3F2AC43A3FB4523B3FB3E03B46
:1059B0003F226E3C3F06FB3C3F5D873D3F26133E4A
:1059C0003F679E3E3F1A293F3F44B33F3FE43C4080
:1059D0003FF9C5403F864E413F89D6413F065E4272
:1059E0003FFAE4423F676B433F4FF1433FB0764499
:1059F0003F8CFB443FE27F453FB403463F0187466F
:105A00003FCB09473F138C473FD70D483F198F487D
:105A10003F3004DD0F49046D14046D1804000619AD
:085A2000020406080001000069
:0400000508000231BC
:00000001FF
