:020000040800F2
:1000000030070020CD0100088B02000883020008A1
:10001000870200087D020008C304000800000000F9
:100020000000000000000000000000008F02000837
:1000300081020008000000008D020008790300081A
:10004000E7010008E7010008E7010008E7010008F0
:10005000E7010008E7010008E7010008E7010008E0
:10006000E7010008E7010008E7010008E7010008D0
:10007000E7010008E7010008E7010008E7010008C0
:10008000E7010008E7010008E7010008E7010008B0
:10009000E7010008E7010008E7010008E7010008A0
:1000A000E7010008E7010008E7010008E701000890
:1000B000E7010008E7010008E7010008E701000880
:1000C000E7010008E7010008E7010008E701000870
:1000D000E7010008DD030008E7010008E701000868
:1000E000E7010008E7010008E7010008E701000850
:1000F000E7010008E7010008E7010008E701000840
:10010000E7010008E7010008E7010008E70100082F
:10011000E7010008E7010008E7010008E70100081F
:10012000E7010008E7010008E7010008E70100080F
:1001300000F002F800F03AF80AA090E8000C8244BF
:100140008344AAF10107DA4501D100F02FF8AFF29C
:10015000090EBAE80F0013F0010F18BFFB1A43F0A5
:10016000010318476C0300008C030000103A24BF01
:1001700078C878C1FAD8520724BF30C830C144BF0C
:1001800004680C607047000000230024002500264E
:10019000103A28BF78C1FBD8520728BF30C148BFEA
:1001A0000B6070471FB51FBD10B510BD00F033F8D0
:1001B0001146FFF7F7FF00F089F900F051F803B49A
:1001C000FFF7F2FF03BC00F07EF90000094880470A
:1001D00009480047FEE7FEE7FEE7FEE7FEE7FEE729
:1001E000FEE7FEE7FEE7FEE704480549054A064B41
:1001F000704700007D030008310100083001002035
:100200003007002030030020300300207047704783
:10021000704770477047754600F02CF8AE460500F1
:100220006946534620F00700854618B020B5FFF711
:10023000DBFFBDE820404FF000064FF000074FF015
:1002400000084FF0000B21F00701AC46ACE8C009F4
:10025000ACE8C009ACE8C009ACE8C0098D467047FD
:1002600010B50446AFF300802046BDE81040FFF70C
:10027000A6BF000000487047D000002000BFFEE786
:10028000704700BFFEE700BFFEE77047704770474A
:1002900010B500F001F810BD0CB5002001900090E1
:1002A0003348006840F480303149086000BF30486E
:1002B000006800F4003000900198401C0190009804
:1002C00018B90198B0F5A06FF1D12948006800F481
:1002D000003010B10120009001E000200090009853
:1002E000012843D12348006840F0100021490860EC
:1002F0000846006820F0030008600846006840F0E7
:10030000020008601A484068194948600846406879
:1003100048600846406840F480604860084640688D
:1003200020F47C1048600846406840F4E8104860BB
:100330000846006840F08070086000BF0C48006804
:1003400000F000700028F9D00948406820F0030050
:10035000074948600846406840F00200486000BF16
:100360000348406800F00C000828F9D10CBD0000DB
:1003700000100240002002407047000010B51348F2
:10038000006840F0010011490860084640681049C3
:1003900008400E494860084600680E4908400B496D
:1003A00008600846006820F480200860084640681D
:1003B00020F4FE0048604FF41F008860FFF768FFDC
:1003C0004FF000600449086010BD000000100240BA
:1003D0000000FFF8FFFFF6FE08ED00E010B540F268
:1003E00025511D4800F03EF810B31B4800F064F89A
:1003F000C4B21A48008800F40040C8B91748008801
:1004000000F4804060B10A2C03D00020134908801A
:1004100020E01248008840F400401049088019E0AC
:100420000D2C06D10D48008840F480400B4908800F
:1004300010E00A480088C0F30D0009490C54074831
:100440000088401C0549088008460088C72801DD4F
:100450000020088010BD000000380140040000208A
:100460000800002070B5024600240023002500206B
:1004700040F66A16B14200D100BFC1F3421501F047
:100480001F03012606FA03F3012D02D1968933409A
:1004900006E0022D02D1168A334001E0968A3340ED
:1004A0000C12012606FA04F41688344013B10CB17C
:1004B000012000E0002070BD01468888C0F30800DC
:1004C000704700BFFEE7014600BF704700BFFEE770
:1004D000F004000800000020080000006C01000883
:1004E000F804000808000020280700008801000820
:0804F000000000000000000004
:04000005080001CD21
:00000001FF
