:020000040800F2
:10000000280C002031020008A32B0008111C000856
:100010009F2B0008B9170008D53C0008000000001D
:100020000000000000000000000000006F34000825
:100030007919000800000000E53000084536000886
:100040004B0200084B0200084B0200084B0200085C
:100050004B0200084B0200084B0200084B0200084C
:100060004B0200084B0200084B0200084B0200083C
:100070004B0200084B0200084B0200084B0200082C
:100080004B0200084B0200084B0200084B0200081C
:100090004B0200084B0200084B0200084B0200080C
:1000A0004B020008A93600084B0200084B0200086A
:1000B0004B0200084B0200084B0200084B020008EC
:1000C0004B0200084B0200084B0200084B020008DC
:1000D0004B0200084B0200084B02000815390008CB
:1000E0004B0200084B0200084B0200084B020008BC
:1000F0004B0200084B0200084B0200084B020008AC
:100100004B0200084B0200084B0200084B0200089B
:100110004B0200084B0200084B0200084B0200088B
:100120004B0200084B0200084B0200084B0200087B
:1001300000F002F800F06CF80AA090E8000C82448D
:100140008344AAF10107DA4501D100F061F8AFF26A
:10015000090EBAE80F0013F0010F18BFFB1A43F0A5
:1001600001031847506300007063000010F8013B62
:100170000A4413F0030408BF10F8014B1D1108BF17
:1001800010F8015B641E05D010F8016B641E01F8C5
:10019000016BF9D1002D15D010F8014B03F00C03C1
:1001A0000C2BA1EB04040ABF10F8013BA4EB831451
:1001B000A4EB032405F1010314F8016B5B1E01F8A5
:1001C000016BF9D5914238BF10F8013BD1D370478C
:1001D0000023002400250026103A28BF78C1FBD850
:1001E000520728BF30C148BF0B6070471FB500F0F1
:1001F00093F904000020002104F0BEFA401C606066
:100200000020002104F0A2FAE0601FBD10B510BD6F
:1002100000F05CF91146FFF7E9FF04F03BF900F04C
:1002200009FC03B4FFF7F2FF03BC00F0E9FE000095
:100230000948804709480047FEE7FEE7FEE7FEE77A
:10024000FEE7FEE7FEE7FEE7FEE7FEE704480549B6
:10025000054A064B70470000493600083101000886
:1002600028060020280C002028080020280800204C
:1002700070B5064600F00CF80468054630460A22C0
:10028000002100F067F82C6070BD70477047704720
:1002900000487047C805002010B5FFF7F9FF006857
:1002A00010BD10B50446FFF7F3FF046010BD000059
:1002B0000FB4002300B589B00CA900910B99CB6055
:1002C000214B7B440693214B7B44079304236FF01F
:1002D0000042CDE901321E4A7A446B46089202463A
:1002E000002005F04BFC09B05DF814FB70B5064624
:1002F0004FF0FF3015460C46324686B00091CDE9EE
:10030000010169460020049004A8FFF7D1FF0246CE
:100310000498211825B108B1084600E0204628605D
:10032000049800280DD0002A02DD0098884208D0E9
:100330003246081B69460094CDE9010404A8FFF782
:10034000B7FF06B070BD00002901000041010000A8
:10035000010100002DE9F04791460F468046044612
:10036000002614F8015B2DB100F030F80068405D04
:10037000C007F6D12B2D02D02D2D18D0641E4A4671
:100380003946204600F053F827B13968A14201D11F
:10039000C7F800804FF0020471050BD540420028D9
:1003A00003DDFFF775FF0460A007BDE8F08746F4A2
:1003B0008066E4E70028F8DAFFF76AFF04606FF070
:1003C0000040F2E700487047C805002010B500F073
:1003D000A3F8001D10BD00BFA143000010B50446E6
:1003E000FFF7F4FF0068005D00F0010010BD4268F7
:1003F00042B1016811F8013B23B1521EC0E900125D
:10040000184670470121C160881E704742685AB182
:10041000C368016843B983688B4205D0491E521CEA
:10042000C0E90012002070474FF0FF3070472DE9FF
:10043000F05F824615468B4600270AF10104B94653
:100440000078302801D09DB113E014F8010B01278A
:10045000782803D0582801D045B10AE00DB1102DFD
:1004600007D1002714F8010B102502E0082500E051
:100470000A250026B0460EE005FB080005FB06F144
:1004800001271FFA80F801EB1046B6F5803F00D334
:10049000B94614F8010B294600F042F80028EBDABF
:1004A000BBF1000F05D00FB1641E00E05446CBF83D
:1004B0000040B9F1000F06D0FFF7EAFE022101600B
:1004C000C81EBDE8F09F48EA0640FAE77546FFF708
:1004D00079FFAE4605006946534620F00700854681
:1004E00018B020B5FFF7B2FEBDE820404FF000067F
:1004F0004FF000074FF000084FF0000B21F007010C
:10050000AC46ACE8C009ACE8C009ACE8C009ACE84E
:10051000C0098D467047000000487047E80500207C
:100520003A2800D2303820F02002412A01D3A2F12B
:100530003700884201D34FF0FF3070472DE9FF4F5D
:1005400006468BB00878FF2806D0491C2D2805D018
:1005500000244FF0000908E000200CE00124F8E737
:1005600009EB8903491C00EB43090878FF28F7D100
:1005700014B1C9F100008146107800252C46AA4626
:1005800029462D2801D02B2804D1521C2D2813D008
:10059000002082468B461078FF280FD04FF0000CC9
:1005A0000A21521CA5FB017804FB018105FB0C11FB
:1005B000C5194BEB0104EEE70120EAE700210846EC
:1005C0004FF00000BAF1000F02D000EB80004008AD
:1005D000C0F38157012F01DD4FF0FF370E9955EA27
:1005E000040009EB01080BD04FF0020918F5FA7F5F
:1005F00016DA4FEACA70002F706008DD012007E0AC
:100600004FEACA70C6E900B00FB0BDE8F08F002015
:100610003060FFF73DFEC0F800901821084616E054
:10062000B8F5FA7F18DD002F02DAF748784401E0C8
:10063000F6487844D0E90010C6E9001040EACA70D4
:100640007060FFF725FEC0F80090142108460FB037
:10065000BDE8F04F05F02FBA002108464FF000002A
:10066000B8F10001099002DAC7F1000200E03A4651
:1006700001DAC8F1000106A800F026FA06AB93E8FB
:10068000070003AB83E8070044F23E005BEA040185
:100690000090584604D144F21E012C465D4600915C
:1006A000210C0904014306D10099240444EA1544AD
:1006B0002D041039009104F07F41014306D10099C7
:1006C000240244EA15642D020839009104F07041B7
:1006D000014306D10099240144EA15742D01091F34
:1006E000009104F04041014306D10099A40044EA7E
:1006F0009574AD00891E009104F00041084304D1B7
:1007000000986D196441401E00904FF001033A4675
:100710006846B8F1000FCDE9014503A902DD00F0FC
:1007200014FF01E000F0E7FEBAF1000F04460D46A9
:1007300001D084F00044002108464FF000000999E0
:1007400040F2FF77484010F00C0F07D124F0004032
:10075000284303D0C4F30A50B84212D1FFF798FDE2
:10076000C0F80090C4F30A50B8420AD1A8487844AF
:10077000D0E90010C6E9001004F0004108437060A1
:1007800042E7C6E900543FE72DE9FF4F1F464FF00F
:10079000000A4FF0FF38454691B0D7E90146CDF841
:1007A0003CA0FFF7B9FEC0680168405C1090B969D1
:1007B00012986D1C8847396A814688470028F6D10F
:1007C000B9F1FF3F0AD0002E24F4D06411DDB9F155
:1007D0002B0F08D0B9F12D0F0BD102E0404615B018
:1007E00013E744F48064B96912986D1C8847761E3B
:1007F0008146600504A901D52D2000E02B20002EA4
:1008000001F1010B0DF130088DF810003FDDB9F159
:10081000690F08D0B9F1490F05D0B9F16E0F02D0B8
:10082000B9F14E0F1CD13B4601A8009580E850025B
:10083000DDE912126FF0020005F0A4F9C11CCED15F
:100840000EE0B96912986D1C884781461398761E90
:1008500044F4007405600F98401C002E0F9016DDC4
:10086000B9F1300FEDD0B9F1780F02D0B9F1580FCE
:100870000DD10F9801280AD13B46CDE90054DDE99E
:100880001212001F029605F07BF9C11CA7D1109926
:1008900089453ED144F0800406E01399681CAAF112
:1008A000010A44F400740860B9696D1C1298761E40
:1008B000884730288146F0D02BE01099894505D132
:1008C000200603D4761E44F0800418E0484603F066
:1008D000F6FA08B3761E0DF123018B4544F400743B
:1008E00008D2A9F130000BF8010B200607D5AAF1B8
:1008F000010003E0200602D40AF101008246A005AF
:1009000002D51399681C0860B96912986D1C884754
:100910008146002ED1DC53E0002E51DDB9F1650F88
:1009200002D0B9F1450F4BD1A00549D5B9696D1C6D
:100930001298761E24F440748847002E81460CDD00
:100940002B2804D0B9F12D0F07D144F48074B96974
:1009500012986D1C8847761E8146E00501D52D2131
:1009600000E02B2108F8011BCDF8008021E0761E65
:100970000DF13901884544F400740CD2A9F130001E
:1009800010F0FF0088F8000002D10099884509D9CD
:1009900008F1010806E0E00501D51E4801E042F239
:1009A0000F708246B96912986D1C8847814613986A
:1009B0000560002E04DD484603F081FA0028D6D1F8
:1009C000F96912988847FF2053468BF8000088F891
:1009D000000000200A900B9004AA0CA90AA8FFF7B7
:1009E000ADFDA00502D46FF00100F8E614F0240F6D
:1009F00012D0E0071CD13868DDE90A12031D3B6004
:100A00000068C0E9001213E0AC5E00009E5E0000CA
:100A1000625D0000F1D8FFFF0AA9684603F0DEF925
:100A2000E00705D13868009A011D3960006802604E
:100A30002846D4E610B50446AFF300802046BDE852
:100A40001040FFF7EEBB00004FF0013C50F8042BC4
:100A500051F8043B9A4221D1A2EB0C03934313EAD1
:100A6000CC1317D150F8042B51F8043B9A4215D1FE
:100A7000A2EB0C03934313EACC130BD150F8042BD5
:100A800051F8043B9A4209D1A2EB0C03934313EAB9
:100A9000CC13DBD04FF00000704700BFD01A01BA72
:100AA000B1FA81F101F0180122FA01F0CB40C1F155
:100AB0002001DBB2C0B2C01A2CFA01F3D11A914363
:100AC00011EAC311E6D170472DE9F0478146164679
:100AD0008AB0354878440DC88DE80D003248784416
:100AE000801C03AC0DC884E80D0041F69B3008441F
:100AF000372190FBF1F290FBF1F5A5F1800501FBA8
:100B000012041B3C02D56442012000E00020DFF803
:100B100098A080460027FA44AAF1BE0A0EE0E0073A
:100B20000AD03246684607EB470101230AEB8101F0
:100B300000F0F6FC8DE8070064107F1C002CEED15D
:100B4000194F7F44AE3F19E0E80715D007EB0410BA
:100B50000DF1180A90E80E008AE80E00C068F04215
:100B600001D1981908903246012306A903A800F084
:100B7000D7FC03AB83E807006D10641C002DE3D1A4
:100B80004FF0010332466946B8F1000F03A802D0C6
:100B900000F09CFC01E000F0C3FCC9E90001C9F8C9
:100BA00008200AB0BDE8F087C45900002DE9FF4FC6
:100BB0001F464FF03C0987B04FF00042DDE91410AA
:100BC00001F10108DDF858A002EA4050039000202E
:100BD00005908346054604460490B969461E089868
:100BE0008847AAF1010A0290BAF1000F3BDD029892
:100BF0002E2815D01021FFF793FC00282EDB4FF094
:100C0000010B0599014317D0B9F1000F0BDB4A46E0
:100C1000C11700F0FBF905430C43A9F1040905E0F5
:100C2000012004900BE008B145F00105012005907A
:100C3000049820B9361D02E0049800B1361FB96946
:100C4000089808F101088847BBF1000FAAF1010AD2
:100C50000290C9D00999C1F80080C5E702987028B0
:100C600008D0502806D0F96908988847BBF1000FD2
:100C700014D04FE0002002900120BBF1000F04903F
:100C800009D0B969089808F101088847AAF1010953
:100C9000B9F1000F07DCF969089888476FF0010087
:100CA0000BB0BDE8F08F2B2804D02D280CD14FF0CD
:100CB000FF300490B969089808F101088847A9F144
:100CC0000109B9F1000FE6DD411CE4D00A21FFF76C
:100CD00027FC0028DFDB029908F1010801EB810104
:100CE00000EB41000290B969089888470A21FFF794
:100CF00017FC099AA9F10109B9F1000FC2F80080A7
:100D000001DD0028E7DAF969089888470499029814
:100D100000FB016655EA040004D004F040410900DC
:100D200002D006E0039898E0A40044EA9574AD0070
:100D3000B61E04F00041080002D16D196441761E10
:100D4000159810F0240F03D04FF00B095C4803E016
:100D50004FF028096FF07D008246564507DAAAEB6E
:100D600006018944B9F1410F01DD4FF0410901202D
:100D70000021A9F1010200F049F9024628400B4682
:100D80002140084301D0012100E00021501E0291C2
:100D900043F1FF3128402140084301D0012000E009
:100DA00000200299834651EA0B014FD000210846EA
:100DB0004FF00000039900F4400039B100EB8000CF
:100DC0004FF4400100EBD07001EA6000801501286B
:100DD00002DD4FF0FF3000E013D0401C36D0029807
:100DE00060B3BBF1000F0CD14A460120002100F096
:100DF0000DF928402140084301D0012000E00020E7
:100E0000E0B101204A46002100F000F903464019F4
:100E10000A4661412D1A8C4111D3B9F1400F09DD09
:100E2000159810F0240F02D0AAF1340603E0AAF1BD
:100E3000170600E0761C00254FF0004406E05B1E1C
:100E400042F1FF3220EA030521EA0204CAF101005F
:100E5000B04206DA1B490398084301900020009035
:100E60000EE0039AC4F3D321E80A0A43164940EA84
:100E700044500A433146CDE90002684603F014F8B5
:100E8000159810F0240F0BD01598C00715D13868AD
:100E9000DDE90012031D3B600068C0E900120CE0B0
:100EA00002A8694602F09AFF1598C00705D1386874
:100EB000029A011D3960006802604046F0E60000B9
:100EC00002FCFFFF0000F07F0000F03F2DE9FF4F24
:100ED00092461D4685B04FF00041DDE9124BDDE939
:100EE00014727F1E01EA4B50414940F0FF4940EA2D
:100EF0000108002122F020004928049102D04E2848
:100F000028D04CE03BA0012607C88DE80700A9695E
:100F10000698641C88477F1E014606D41DF806000B
:100F200018B121F0200181420BD0E9690698884769
:100F3000032E34D0082E32D06FF0010009B0BDE886
:100F4000F08F761C032E01D0082EE0D1601CCAF869
:100F50000000DCE7A9690698641C88477F1E2AD434
:100F600020F02000412826D1A9690698641C8847F2
:100F70007F1E20D420F020004E281CD1A96906989D
:100F8000641C88477F1E48F4002849F48009CAF889
:100F9000004001D4282806D0E969069888475FEA0E
:100FA000CB7012D022E0A9690698641C88477F1E86
:100FB00001D4002803DAE96906988847BCE72928A4
:100FC000F1D1641CCAF80040E9E71BF0240F07D0F8
:100FD00028680499031D2B600068C0E9001805E02B
:100FE0002868021D2A600068C0F800902046A5E726
:100FF0000000F07F494E46494E4954590000000018
:1010000001491820ABBEFEE726000200B2F1200322
:101010000AD5C2F1200301FA02F120FA03F300FA23
:1010200002F041EA0301704700FA03F14FF00000BB
:101030007047704720F07F4C80EA030023F07F4721
:10104000ACEB070303F57C5300F0004003F1FF0312
:101050002DE980494FEA154B09B44FEA144325EABC
:101060000B4E24EA03480FF2042606EB1327490827
:101070003E785FEA320203FB0667C7F5000707FB0D
:1010800006F64FEA54374FEAD64606F1020607FB4A
:10109000066CCCF1005C4FEA1C472CEA074C07FBBE
:1010A00006F40CFB06F504EB15464FEA961634BF22
:1010B00000204FF000404FEAD13706FB07FC4FEA13
:1010C0001C4C0CFB0BF7D21B03FB0CF761EB07016D
:1010D0000CFB0EF7B0EB074072EB17420CFB08F766
:1010E00034BFA2EB0742B2EB074261EB17414FEA74
:1010F0000C444FEA910706FB07FC4FEA1C4C0CFB23
:101100000BF7B0EBC74072EB573203FB0CF734BF61
:10111000A2EBC742B2EBC74261EB57310CFB0EF7B3
:10112000B0EBC70072EB57720CFB08F734BFA2EBB1
:10113000C702B2EBC70261EB5771039F4FEA8161AF
:1011400041EA921104EBCC044FEAD1374FEA8262B4
:1011500006FB07FC42EA90124FEA80604FEA1C4C03
:101160000CFB0BF7D21B03FB0CF761EB07010CFB2D
:101170000EF7B0EB074072EB17420CFB08F734BFD9
:10118000A2EB0742B2EB074261EB17414FEA8C55E5
:101190004FEA910704EB9C2406FB07FC4FEA1C4C2A
:1011A0000CFB0BF7B0EBC74072EB573203FB0CF7AD
:1011B00034BFA2EBC742B2EBC74261EB57310CFB25
:1011C0000EF7B0EBC70072EB57720CFB08F734BF99
:1011D000A2EBC702B2EBC70261EB577115EB4C25CE
:1011E0004FEA816141EA92114FEA82624FEAD137B8
:1011F00042EA901206FB07FC44F100044FEA8060CB
:101200004FEA1C4C0CFB0BF7D21B03FB0CF761EBFA
:1012100007010CFB0EF7B0EB074072EB17420CFB1B
:1012200008F734BFA2EB0742B2EB074261EB17416C
:1012300015EB1C154FEA813141EA92414FEA8232A7
:1012400042EA90424FEA80304FEA0C7644F10004C3
:1012500048EA03434EEA0B484FF0000EB2EB080C8D
:1012600071EB030724BF624639464EEB0E0E4FF07A
:10127000000B0018524149414BEB0B0BB2EB080C31
:1012800071EB03077BF1000B24BF624639464EEB3E
:101290000E0E4FF0000B0018524149414BEB0B0B67
:1012A000B2EB080C71EB03077BF1000B24BF624625
:1012B00039464EEB0E0E51EA020718BF46F0010602
:1012C00016EB0E7655F1000254F1000103D5BDE88E
:1012D0008901BDE80088BDE88901BDE80048B6196C
:1012E000524141EB0101A3F10103704780807F7EF1
:1012F0007D7C7B7A7978777676757473727171708C
:101300006F6E6E6D6C6C6B6A6A696868676666653D
:101310006464636362616160605F5F5E5E5D5D5CCB
:101320005C5B5B5A5A59595858575756565555553C
:101330005454535352525251515050504F4F4F4E9C
:101340004E4D4D4D4C4C4C4B4B4B4A4A4A494949EA
:10135000484848474747474646464545454444442C
:1013600044434343434242424241414146EA0646E6
:10137000A3F570534FEA164646EA42564FEAD22288
:1013800042EA415210B54FEAD121A3F1010300F026
:101390002FF820F0004000F1020C00F0004701EBB4
:1013A00000501146BCF5006F40EA070000D210BDA6
:1013B000BAF1000F0AD01CB503B44FF004004FF08F
:1013C00004014FF000000FBCBDE810404FF00001D9
:1013D000BBF1010FB9BF04484FF0FF3103480021B2
:1013E00040EA070010BD00BFFFFFEF7F0000F07F65
:1013F000002B9C4630D477002BD01CB54FEA370722
:1014000003B44FF010004FF01001BAF1000F06D0F6
:10141000BCF1000FDCBF40F0080040F008014FF0C5
:1014200000000FBCBDE810400BF1010BBBF1010F38
:1014300008BF5FEA170722BF12F1010211F1010193
:101440004FF0004143F1000300F0004043EA000088
:101450007047F9D35708D0E746EA064613F1400F24
:101460004FEA16461FDD13F1200FDFBF16430A4671
:10147000002120335B42BED0C3F1200746EA064676
:1014800002FA07F74FEA164646EA0706C3F12007B5
:1014900022FA03F201FA07F721FA03F14FF00003F1
:1014A00042EA0702A7E746EA020646EA06464FEA8C
:1014B000164646EA0106BCBF46EA0646360C4FF021
:1014C00000034FF000024FF0000194E72DE9804C3B
:1014D0009A46934670B491E8380007C831EA400C48
:1014E00048BF34EA430C03D5FFF7A4FDFFF780FFA4
:1014F000F0BCBDE8008C2DE9804C9A46934670B450
:1015000091E8380007C831EA400C48BF34EA430C80
:1015100003D5FFF78FFDFFF729FFF0BCBDE8008C76
:101520002DE9804C9A46934670B491E8380007C87C
:1015300010F0804F08BF13F0804F03D100F01AF86D
:10154000FFF756FFF0BCBDE8008C2DE9804C9A46B1
:10155000934670B491E8380007C810F0804F08BF78
:1015600013F0804F03D100F005F8FFF7FFFEF0BC49
:10157000BDE8008C20F07F4780EA030023F07F4C19
:1015800007EB0C03A3F57C5300F00040A3F1FE032E
:1015900092F0000F00F0B38095F0000F00F077801C
:1015A0002DE901494FEA11404FEA144621EA00486B
:1015B00000FB06FC24EA064708FB06F607FB08F8D2
:1015C00000FB07F718EB06484CEB164C4FEA124BA2
:1015D00018EB07484FEA15464CEB174022EA0B4E32
:1015E0000BFB06FC25EA06470EFB06F607FB0EFE84
:1015F0000BFB07F71EEB064E4CEB164C4FF00006AC
:101600001EEB074E4CEB174B18EB0B0840F100009C
:1016100018EB0E0B58EB000840F100008F1A4FF04A
:1016200000013CBFC943661B14BFB5EB040C00218D
:101630003CBFC943F61B4FEA17444EEA8E0E27EA19
:1016400004454FEA1C4704FB07622CEA074C05FBE4
:1016500007F70CFB05F604FB0CFC16EB074642EB08
:10166000174216EB0C4642EB1C421BEB060658EBEE
:101670000202414146EA9E0601D5BDE80189B6193C
:10168000524141EB0101A3F10103BDE801894FEA99
:1016900014454FEA114724EA054621EA074C05FBA9
:1016A00007F406FB07F70CFB06F105FB0CFC11EB3E
:1016B000074144EB17444FEA124711EB0C4144EB4E
:1016C0001C4422EA074C05FB07F206FB07F70CFB5C
:1016D00006F605FB0CFC16EB074642EB174216EB31
:1016E0000C4642EB1C456A1854F1000148BF704794
:1016F000B619524141EB0101A3F10103704795F086
:10170000000F37D04FEA11424FEA144721EA024650
:1017100024EA074C02FB07F106FB07F70CFB06F473
:1017200002FB0CFC14EB074441EB17414FEA154751
:1017300014EB0C4441EB1C4125EA074C02FB07F576
:1017400006FB07F70CFB06F602FB0CFC16EB074644
:1017500045EB174516EB0C4645EB1C42121951F1AF
:10176000000148BF7047B619524141EB0101A3F196
:10177000010370474FEA14454FEA114724EA054632
:1017800021EA074C05FB07F106FB07F70CFB06F205
:101790004FF0000605FB0CFC12EB074241EB174132
:1017A00012EB0C4251EB1C4148BF7047921841EBC1
:1017B0000101A3F10103704700BFFEE700F0805173
:1017C00011B10349086001E0024948607047000018
:1017D000040402400000024021B1026842F001020C
:1017E000026004E002684FF6FE731A400260704720
:1017F00001684FF6FE7211400160002101604160F6
:101800008160C1604B49884208D14A49083949681A
:1018100041F00F01474A083A51608AE045491431C6
:10182000884208D143490839496841F0F001414AEA
:10183000083A51607DE03F492831884208D13D494E
:101840000839496841F470613A4A083A516070E0D9
:1018500038493C31884208D136490839496841F451
:101860007041344A083A516063E03249503188424D
:1018700008D130490839496841F470212D4A083AA5
:10188000516056E02B496431884208D12949083912
:10189000496841F47001274A083A516049E02549F6
:1018A0007831884208D123490839496841F070618C
:1018B000204A083A51603CE01F49884206D1011F86
:1018C000096841F00F01021F116032E01A4914311A
:1018D000884208D11849091F096841F0F001164AE9
:1018E000121F116025E014492831884208D112499D
:1018F000091F096841F470610F4A121F116018E056
:101900000D493C31884208D10B49091F096841F44F
:101910007041094A121F11600BE00749503188429B
:1019200007D10549091F096841F47021024A121FB5
:1019300011607047080002400804024010B5002200
:10194000026847F6F0739A430C6A8B6823430C696C
:1019500023434C6923438C692343CC6923434C6A5A
:1019600023438C6A23431A430260CB6843600B68AD
:1019700083604B68C36010BD7047000010B504461B
:101980002948844208D10121042001F0EDFB002107
:10199000042001F0E9FB46E02448844208D10121FB
:1019A000082001F0E1FB0021082001F0DDFB3AE016
:1019B0001F48844208D10121102001F0D5FB0021ED
:1019C000102001F0D1FB2EE01A48844208D10121F9
:1019D000202001F0C9FB0021202001F0C5FB22E0FE
:1019E0001548844208D10121402001F0BDFB0021AF
:1019F000402001F0B9FB16E01048844208D10121D3
:101A0000802001F0B1FB0021802001F0ADFB0AE055
:101A10000B48844207D10121801501F0A5FB00216C
:101A2000A01501F0A1FB10BD00080140000C014011
:101A3000001001400014014000180140001C01404A
:101A4000002001402DE9F04102460025002600203B
:101A500000230024002791F803C00CF00F0591F833
:101A600003C00CF0100CBCF1000F03D091F802C0C1
:101A70004CEA050591F800C0BCF1000F31D01468A4
:101A800000202BE04FF0010C0CFA00F3B1F800C07D
:101A90000CEA03069E4220D183004FF00F0C0CFA93
:101AA00003F7BC4305FA03FC4CEA040491F803C0B5
:101AB000BCF1280F06D14FF0010C0CFA00FCC2F863
:101AC00014C00AE091F803C0BCF1480F05D14FF0F3
:101AD000010C0CFA00FCC2F810C0401C0828D1D33D
:101AE0001460B1F800C0BCF1FF0F34DD5468002071
:101AF0002EE000F1080C4FF0010808FA0CF3B1F8E1
:101B000000C00CEA03069E4221D183004FF00F0C67
:101B10000CFA03F7BC4305FA03FC4CEA040491F801
:101B200003C0BCF1280F05D100F1080C08FA0CF82D
:101B3000C2F8148091F803C0BCF1480F07D100F13E
:101B4000080C4FF0010808FA0CF8C2F81080401C8D
:101B50000828CED35460BDE8F0814161704701612F
:101B60007047000000B58DB00D208DF830000320C7
:101B70008DF8310002208DF8320001208DF83300FD
:101B80000CA801F0C3F80121084601F0ADFA1D4888
:101B9000FFF72EFE1C4801901C4802900020039085
:101BA000C820049000200590802006900020079017
:101BB000089009904FF400500A9000200B9001A962
:101BC0001048FFF7BBFE00210F48001F01F0DCFFAB
:101BD0004FF40030FFF7F2FD4FF48020FFF7EEFDE9
:101BE00001210848FFF7F8FD012240210648001FA7
:101BF00001F0D6FF01210448001F01F0C5FF0DB020
:101C000000BD0000300002400448004000050020F4
:101C100000BFFEE72DE9F0410646884617461D46FF
:101C200000240121524800F069F906E0B4F5807FF4
:101C300002D90020BDE8F081641C4E494C4800F0F8
:101C400013F90028F2D000247006010E0022484843
:101C500000F0E6F905E0B4F5807F01D90020E9E75E
:101C6000641C4549424800F0FFF80028F3D00024E6
:101C700041463F4800F0DDF905E0B4F5807F01D929
:101C80000020D7E7641C3C49891E394800F0ECF875
:101C90000028F2D00024012D03D00121344800F0A7
:101CA000D7F80121324800F029F905E0B4F5807F2A
:101CB00001D90020BEE7641C2E492D4800F0D4F85D
:101CC0000028F3D000247006010E0122284800F0FD
:101CD000A7F9012D25D105E0B4F5807F01D90020B9
:101CE000A8E7641C2349491C214800F0BDF80028DE
:101CF000F2D01F48143000881D48183000881C4856
:101D000000F08AF904460121194800F003F900BFE8
:101D100018493F31164800F0A7F80028F8D02046AF
:101D200088E705E0B4F5807F01D9002082E7641CD4
:101D30001049491C0E4800F097F80028F2D009E03D
:101D40001E2002F059FA0A4800F066F907F8010B64
:101D5000681EC5B2002DF3DC0021054800F078F8BC
:101D60000121034800F0D6F801F0F6FB204661E7B8
:101D700000540040010003008200070013B5044630
:101D8000012301AA9DF804102046FFF743FF1CBD64
:101D90002DE9F04105460F46164600240121294849
:101DA00000F0ACF806E0B4F5807F02D90020BDE871
:101DB000F081641C2449234800F056F80028F2D032
:101DC00000246806010E00221E4800F029F905E0F3
:101DD000B4F5807F01D90020E9E7641C1B4919484C
:101DE00000F042F80028F3D000243946154800F0EE
:101DF00020F905E0B4F5807F01D90020D7E7641C05
:101E00001249891C0F4800F02FF80028F2D0002456
:101E100000BF31460B4800F00CF905E0B4F5807FB7
:101E200001D90020C3E7641C0849891C054800F05B
:101E30001BF80028F2D000240121024800F06AF8C3
:101E40000120B4E7005400400100030082000700B5
:101E500021B1028842F48062028004E002884FF6D9
:101E6000FF331A400280704770B5024600240025F7
:101E700000230020958A138B1B0445EA030626F0F5
:101E80007F4404EA01068E4201D1012000E00020D7
:101E900070BD21B1028842F00102028004E0028894
:101EA0004FF6FE731A400280704721B1828842F4D7
:101EB0000062828004E082884FF2FF731A408280C1
:101EC0007047000010B504460B48844209D1012137
:101ED000480501F029F900214FF4001001F024F920
:101EE00008E00121880501F01FF900214FF480006E
:101EF00001F01AF910BD00000054004021B1028821
:101F000042F48072028004E002884FF6FF631A40B8
:101F10000280704721B1028842F40072028004E01E
:101F200002884FF6FF531A40028070472DE9F043B4
:101F300085B004460D460026B1460427DFF8CC8064
:101F4000A6884FF6C0700640684601F01DF9DDF81E
:101F500008802F48B8FBF0F01FFA80F946EA09061E
:101F6000A68020884FF6FE7108402080002629496F
:101F7000286888420CD828684000B8FBF0F087B287
:101F8000042F00DA04273E4309F10100208427E0F2
:101F9000E8884BF6FF71884206D1286800EB4000C4
:101FA000B8FBF0F087B209E0286800EBC00101EB54
:101FB0000010B8FBF0F087B247F48047C7F30B007E
:101FC00008B947F0010747F4004006434FF4967004
:101FD00009FB00F04FF47A7190FBF1F0401C208473
:101FE000A683208840F00100208026884FF6F53037
:101FF0000640A8886989084306432680A88929895C
:102000000843208105B0BDE8F083000000127A008B
:1020100040420F00A08601000146088AC0B2704706
:1020200012B141F0010102E04FF6FE731940018246
:10203000704701827047000000B58DB00F208DF809
:10204000300003208DF8310002208DF8320001208D
:102050008DF833000CA800F059FE0121084601F06C
:1020600043F82048FFF7C4FB1E481430FFF7C0FBBD
:102070001D4801901D4802901020039014200490E8
:10208000002005908020069000200790089009907D
:102090004FF400500A9000200B9001A91148FFF75F
:1020A0004DFC11480190114802900020039014202B
:1020B0000490002005908020069000200790089052
:1020C00009904FF400500A9000200B9001A9054898
:1020D0001430FFF733FC012103481038FFF7E5FE09
:1020E0000DB000BD6C000240105400407C04002084
:1020F00000B597B0FE48C06880F48040FC49C860D5
:10210000FC48B0F900000A9003F00CFB0B9003F0C0
:102110005DF9F94AF94BCDE90C0102F047FECDE932
:102120000E0102F03FFBF34908610846B0F90200D6
:102130000A9003F0F7FA0B9003F048F9EE4AEF4BE0
:10214000CDE90C0102F032FECDE90E0102F02AFBCE
:10215000E84948610846B0F904000A9003F0E2FA41
:102160000B9003F033F9E44AE44BCDE90C0102F0A3
:102170001DFECDE90E0102F015FBDE49886108461F
:10218000B0F90600099002F0BEFDDD4ADD4BCDE955
:102190000A0102F00BFE0022DB4BCDE90C0102F03C
:1021A00033FBCDE90E0102F07FFD00B2D149C880BA
:1021B0000846B0F908000A9003F0B4FA0B9003F057
:1021C00005F9D24AD24BCDE90C0102F0EFFDCDE981
:1021D0000E0102F0E7FAC749C8610846B0F90A00E3
:1021E0000A9003F09FFA0B9003F0F0F8C74AC84B2F
:1021F000CDE90C0102F0DAFDCDE90E0102F0D2FAD0
:10220000BC4908620846B0F90C000A9003F08AFA4B
:102210000B9003F0DBF8BD4ABD4BCDE90C0102F099
:10222000C5FDCDE90E0102F0BDFAB249486208468B
:10223000C069B8490F9003F0C1FAAE4988620846F8
:10224000006AB4490F9003F0B9FAAA49C862084677
:10225000406AB0490F9003F0B1FAA64908630846F6
:10226000006900210F9003F00DFA0DD1A1484069DB
:1022700000210F9003F006FA06D19E4880690021E4
:102280000F9003F0FFF97CD09A4880690C90994830
:1022900080690B900C9903F091FA0E909548406973
:1022A0000A909448406909900A9903F087FA0C90C3
:1022B000904800690A908F48006909900A9903F0D4
:1022C0007DFA0B900C9903F0ADF80D900E9903F088
:1022D000A9F80F9002F056F91390864800690F9004
:1022E000139903F00DF983490861084640690F907E
:1022F000139903F005F97F494861084680690F90FA
:10230000139903F0FDF87B4988618348016883488D
:10231000006803F053FA0E90814801688148006814
:1023200003F04CFA0D900E9903F050FB4FF08041F2
:102330000F9003F043FA16907948016876480068D8
:1023400003F03CFA0E90774801687448006803F087
:1023500035FA0D900E9903F065F84FF080410F901B
:1023600003F02CFA15906C480168006803F026FA17
:102370000D906C480168006803F020FA0C900D99EC
:1023800000E074E303F04EF84FF080410E9003F04C
:1023900015FA4FF07E510F9003F00DFB1490554845
:1023A00080690D90159903F009FA0F905148406922
:1023B0000D90149903F002FA0E900F9903F006FBAA
:1023C00012904C4800690D90149903F0F7F90F90A2
:1023D000484880690D90169903F0F0F90E900F9916
:1023E00003F0F4FA1190434840690D90169903F0F8
:1023F000E5F90F903F4800690D90159903F0DEF95B
:102400000E900F9903F0E2FA109047480168129875
:1024100003F0D4F94FF08041069003F0CFF9079014
:1024200002F0D4FF414A424BCDE9080102F0BEFC64
:10243000CDE90C013F48006802F0C8FFCDE90A0170
:10244000DDE90C2302F0E0F9CDE90E0102F0AAF972
:102450003849086034480168119803F0AFF94FF02B
:102460008041069003F0AAF9079002F0AFFF2F4ACF
:102470002F4BCDE9080102F099FCCDE90C012E4863
:10248000006802F0A3FFCDE90A01DDE90C2302F0A8
:10249000BBF9CDE90E0102F085F927490860224811
:1024A0000168109803F08AF94FF08041069003F01C
:1024B00085F9079002F08AFF1C4A1D4BCDE90801FF
:1024C00002F074FCCDE90C011C48006802F07EFFAC
:1024D000CDE90A01DDE90C2302F096F9CDE90E0100
:1024E00002F060F91549086015491248006829E0B2
:1024F00000100140900400208B16E742C199533F21
:102500002E8ECA4DD4D2D23F008AAC40B0977D897E
:102510003E409F3F34FA8E3C500400204804002087
:10252000540400204C040020440400207B14AE47D7
:10253000E17A743F580400205C040020600400200D
:10254000C1B832BE03F006F901D2FE4809E0FE49E7
:10255000FE48006803F0FEF901D2FB4801E0FB48A9
:102560000068FA490860F749F848006803F0F2F893
:1025700001D2F44809E0F449F448006803F0EAF9AC
:1025800001D2F14801E0F1480068F0490860ED49E6
:10259000EE48006803F0DEF801D2EA4809E0EA49B3
:1025A000EA48006803F0D6F901D2E74801E0E748BD
:1025B0000068E649086008460168129802F032FF98
:1025C0000E90E34801680E9803F0F8F80F90E14888
:1025D000C06901460E900F9802F024FFDD49C861E2
:1025E000DD480168119802F01DFF0E90D84801687F
:1025F0000E9803F0E3F80F90D648006A01460E905B
:102600000F9802F00FFFD3490862D4480168109870
:1026100002F008FF0E90CE4801680E9803F0CEF845
:102620000F90CC48406A01460E900F9802F0FAFED7
:10263000C84948620846406A01460490C848006894
:1026400003F0BCF80690C348006A01460290C548F2
:10265000006803F0B3F80490C348006880F00040BD
:102660000290BC48C06901460190029803F0A6F8A8
:102670000390049903F0AAF90590069903F0A6F9CE
:10268000079002F0A3FEB94AB94BCDE9080102F068
:102690008DFBCDE90C01B748006802F097FECDE94B
:1026A0000A01DDE90C2302F0AFF8CDE90E0102F0DA
:1026B00079F8B0490860A748006A01460490A84824
:1026C000006803F07BF80690A248406A0146029039
:1026D000A448006803F072F804909E48C06901465F
:1026E0000290A448006803F069F80390049902F08E
:1026F00099FE0590069903F069F9079002F066FECD
:102700009A4A9B4BCDE9080102F050FBCDE90C0140
:102710009548006802F05AFECDE90A01DDE90C2374
:1027200002F072F8CDE90E0102F03CF88E49086023
:102730008848C069014604908948006803F03EF863
:1027400006908448406A014602908748006803F07A
:1027500035F804907F48006A014602908548006879
:1027600003F02CF80390049903F030F905900699D2
:1027700002F058FE079002F029FE7C4A7C4BCDE91E
:10278000080102F013FBCDE90C017648006802F065
:102790001DFECDE90A01DDE90C2302F035F8CDE993
:1027A0000E0101F0FFFF6F4908606A48C0690146E9
:1027B00004906C48006803F001F806906548006AD0
:1027C000014602906848006802F0F8FF04906148F2
:1027D000406A014602906748006802F0EFFF0390EC
:1027E000049902F01FFE0590069903F0EFF8079098
:1027F00002F0ECFD5D4A5E4BCDE9080102F0D6FA2D
:10280000CDE90C015648006802F0E0FDCDE90A016F
:10281000DDE90C2301F0F8FFCDE90E0101F0C2FF64
:102820004F49086008460168006802F0C7FF0E9033
:102830004C480168006802F0C1FF0C904A480168EA
:10284000006802F0BBFF0A904A480168006802F085
:10285000B5FF09900A9902F0E5FD0B900C9902F082
:10286000E1FD0D900E9902F0DDFD0F9001F08AFE62
:10287000139040481399006802F042FE3D490860F9
:1028800039481399006802F03BFE37490860354823
:102890001399006802F034FE3249086030481399F9
:1028A000006802F02DFE2E490860084601684FF0CE
:1028B000804002F083FF099029480168099802F0DE
:1028C0007DFF0B90274801684FF0404002F076FFF3
:1028D000099024480168099802F070FF0A900B994A
:1028E00003F074F84FF07E510C9002F09BFD0E90B7
:1028F000204801684FF0804002F060FF0A901848BD
:1029000001680A9802F05AFF0C90174801684FF0CE
:10291000804002F053FF0A90124801680A9802F0C2
:102920004DFF0B900C9902F07DFD0D900E9901F07A
:1029300089FC11490F9002F041FF0649486309489C
:1029400001681BE0C1B832BEC1B8323E5804002055
:1029500040040020900400205C040020600400205B
:1029600054040020500400204C0400207B14AE4787
:10297000E17A743F48040020333365424FF08040D1
:1029800002F01CFF09903E480168099802F016FF0A
:102990000B903C4801684FF0404002F00FFF099057
:1029A00038480168099802F009FF0A900B9903F072
:1029B0000DF84FF07E510C9002F034FD0E9032482D
:1029C00001684FF0804002F0F9FE0A902D4801683E
:1029D0000A9802F0F3FE0C90294801684FF08040FD
:1029E00002F0ECFE0A90294801680A9802F0E6FE1F
:1029F0000B900C9902F016FD0D900E9901F022FC3F
:102A000023490F9002F0DAFE224988631E480168CC
:102A10004FF0804002F0D2FE0690194801680698F7
:102A200002F0CCFE0890174801684FF0404002F0D9
:102A3000C5FE069015480168069802F0BFFE079093
:102A4000089902F0EFFC099002F0C0FCCDE90A0100
:102A500001F03CFA4FF0C0420F4BCDE90C0102F0FF
:102A6000A5F9CDE90E0101F09DFE0A49C8630B48A6
:102A7000C06880F480400949C86017B000BD0000FC
:102A8000500400204C04002048040020540400207E
:102A9000333365429004002066A64C40001001408C
:102AA0007FB500240D4D0E236A463B216820FFF7B9
:102AB000B1F80DE0012000EB44001DF800001DF806
:102AC000141040EA012000B225F81400601CC4B2C2
:102AD000072CEFDB012004B070BD00009004002043
:102AE00070B580226B216820FFF752F9C82001F0F1
:102AF0005DFB00226B216820FFF74AF910221B21A1
:102B00006820FFF745F908221C216820FFF740F9EB
:102B1000092219216820FFF73BF985B200223821EC
:102B20006820FFF735F900226A216820FFF730F9A5
:102B3000002223216820FFF72BF98022372168200B
:102B4000FFF726F975216820FFF718F9682824D1C6
:102B500001226B21FFF71CF900226C216820FFF78E
:102B600017F9BC2D01DB012410E0622D01DB0224EA
:102B70000CE02A2D01DB032408E0142D01DB0424E2
:102B800004E00A2D01DB052400E00624E2B21A214C
:102B90006820FFF7FDF8C0B270BD0120FCE700BF60
:102BA000FEE7704770B50446002504F0700400F09D
:102BB00033F805460A48006820F01000084908600C
:102BC000272001F027FD44EA050001F023FD044819
:102BD000006840F010000249086000F01DF870BD68
:102BE0000C08014070B504460A48006820F0100047
:102BF00008490860204601F00DFDFF2001F00AFDA4
:102C000005460448006840F0100002490860284664
:102C100070BD00000C08014010B50948006820F0A4
:102C2000100007490860072001F0F4FC044604483E
:102C3000006840F0100002490860204610BD000006
:102C40000C08014070B504460E461546052D01DD01
:102C5000052000E028460546052C01DD052000E0A2
:102C60002046044604F10A01C8B22A46314600F063
:102C700011F870BD70B505460C46052C01DD052028
:102C800000E02046044622462946102000F002F8C3
:102C900070BD00002DE9F04105460E4617460D486F
:102CA000006820F010000B49086045F0200001F09A
:102CB000B1FC002404E0305D01F0ACFC601CC4B247
:102CC000BC42F8DB0348006840F01000014908608E
:102CD000BDE8F0810C08014070B504460D460A4875
:102CE000006820F010000849086044F0200001F05E
:102CF00091FC284601F08EFC0348006840F010006B
:102D00000149086070BD00000C08014070B5002149
:102D100000230F22C47804B3154C246804F4E06443
:102D2000C4F5E064210AC1F10403CA40447804FAFE
:102D300003F184781440214309010E4C0678A15513
:102D4000047804F01F050124AC4005786D11AD0036
:102D500005F1E025C5F8004109E0047804F01F05FD
:102D60000124AC40044D0678761145F8264070BD2C
:102D70000CED00E000E400E080E100E002490143E6
:102D8000024A1160704700000000FA050CED00E0F7
:102D900070B5002418E004F1B000002100F092F9B1
:102DA0000021084600F08EF90021102000F08AF979
:102DB000002505E00121002000F084F9681CC5B25F
:102DC000802DF7DB601CC4B2082CE4DB70BD10B5AD
:102DD0000021AE2000F076F90021402000F072F9C9
:102DE0000021B02000F06EF90021C82000F06AF93F
:102DF0000021812000F066F90021FF2000F062F937
:102E00000021A12000F05EF90021A62000F05AF96F
:102E10000021A82000F056F900211F2000F052F9EF
:102E20000021D32000F04EF90021084600F04AF9B5
:102E30000021D52000F046F90021F02000F042F9F1
:102E40000021D92000F03EF90021222000F03AF9BB
:102E50000021DA2000F036F90021022000F032F9DA
:102E60000021DB2000F02EF90021492000F02AF992
:102E700000218D2000F026F90021142000F022F915
:102E80000021AF2000F01EF9FFF782FF10BD70B5E2
:102E900004460D4605F1B000002100F013F91021A1
:102EA00041EA1410002100F00DF904F00F00002198
:102EB00000F008F970BD00002DE9F04707460E4606
:102EC0009046994600250024A8F12000C5B27F2F26
:102ED00002DD0027B01CC6B2B9F1100F24D1314673
:102EE0003846FFF7D4FF002408E004EB0511194A27
:102EF000505C012100F0E6F8601CC4B2082CF4DB41
:102F0000701CC1B23846FFF7C2FF002409E004EB91
:102F1000051108310F4A505C012100F0D3F8601C04
:102F2000C4B2082CF3DB12E031463846FFF7AFFF9E
:102F300000240AE005EB4501074A02EB4101085D68
:102F4000012100F0BFF8601CC4B2062CF2DBBDE822
:102F5000F0870000E05D0008B85B00082DE9F84F3D
:102F60000546894690461E46DDE90A74A24604EBF2
:102F7000DA71491001FB0651C8B223462E22494698
:102F8000FFF79AFF404602F0B1FB824633465246B5
:102F900049462846009400F023F83E4604E00F49D5
:102FA000404602F00BFC8046301EA6F10101CEB275
:102FB000F5D1404602F09AFB8346A24604EBDA7153
:102FC000491001FB0751891DC8B23B465A46494684
:102FD000009400F005F8BDE8F88F000000002041E3
:102FE0002DE9FF5F0646174698460E9C4FF0000AF3
:102FF000002F0CDA7F4223462D2230460199FFF73D
:103000005BFF204604EBD07106EB6101CEB20025D8
:1030100037E0A8EB0500401EC1B20A2001F0EEFA2D
:10302000B7FBF0F00A21B0FBF1F201FB1209BAF193
:10303000000F15D1A8F10100A84211DDB9F1000F70
:103040000CD1A34604EBDB71491001FB0561C8B24A
:10305000234620220199FFF72FFF10E04FF0010ACD
:10306000A34604EBDB71491001FB0561C8B209F10D
:103070003001CAB223460199FFF71EFF00BF681C4A
:10308000C5B24545C5DBBDE8FF9F2DE9F0410446CB
:103090000F461546984600260FE0AA5D434639467E
:1030A0002046FFF709FF04F10800C4B2782C02DDC6
:1030B0000024B81CC7B2701CC6B2A85D0028ECD1B1
:1030C000BDE8F08170B504460D462DB1E2B2402155
:1030D0003C20FEF75DFE04E0E2B200213C20FEF75A
:1030E00057FE70BD7047000029B1064A526902437D
:1030F000044B5A6104E0034A52698243014B5A610E
:10310000704700000010024029B1064AD26902430C
:10311000044BDA6104E0034AD2698243014BDA616D
:10312000704700000010024029B1064A12690243AC
:10313000044B1A6104E0034A12698243014B1A618D
:10314000704700000010024029B1064A926902430C
:10315000044B9A6104E0034A92698243014B9A61ED
:10316000704700000010024029B1064AD2680243AD
:10317000044BDA6004E0034AD2688243014BDA6010
:10318000704700000010024030B5002100220024EA
:1031900000232D4D6D6805F00C0121B1042905D0E7
:1031A000082923D105E0294D056022E0274D05605F
:1031B0001FE0254D6D6805F47012234D6D6805F410
:1031C0008034022505EB92421CB9214D5543056020
:1031D0000BE01D4D6D6805F400351DB11C4D5543C8
:1031E000056002E0194D5543056002E0174D05608A
:1031F00000BF00BF144D6D6805F0F0010909154DC1
:103200006B5C0568DD4045600F4D6D6805F4E0615D
:10321000090A104D6B5C4568DD4085600A4D6D689C
:1032200005F46051C90A0B4D6B5C4568DD40C56013
:10323000054D6D6805F44041890B074D6B5CC56811
:10324000B5FBF3F5056130BD0010024000127A00B5
:1032500000093D002C0400203C0400201CB520A1E6
:1032600003C9CDE900012048006840F004001E4970
:1032700008607020FFF796FC01211C20FFF72CFD51
:1032800007211D20FFF728FD1C20FFF7ABFC1D20A8
:10329000FFF7A8FC0A210020FFF71EFD01210846C8
:1032A000FFF71AFD01210220FFF716FD0321084652
:1032B000FFF712FDFF210420FFF70EFD3C21052042
:1032C000FFF70AFD26210620FFF706FD05216846C7
:1032D000FFF7D0FC052269460020FFF7B3FC1CBDB8
:1032E00034431010010000000C08014000B587B005
:1032F00001210420FFF728FF01208DF81A00182073
:103300008DF81B002020ADF8180006A92648FEF70E
:1033100099FB8020ADF8180006A92348FEF792FB20
:103320004020ADF8180006A91F48FEF78BFB1020BF
:103330008DF81B00ADF8180006A91B48FEF782FBAC
:1033400010211948FEF70BFC184800F03DF8012148
:103350000803FFF7F9FE0021144800F029F80020C7
:10336000ADF804004FF48270ADF806000020ADF80F
:103370000A00ADF80C00ADF808004FF40070ADF88D
:103380000E002820ADF810000020ADF81200072034
:10339000ADF8140001A9054800F04BF801210348DD
:1033A00000F006F807B000BD000801400030014001
:1033B00021B1028842F04002028004E002884FF608
:1033C000BF731A400280704710B50446114884420A
:1033D00008D101218014FFF7C7FE0021A014FFF7D8
:1033E000C3FE16E00C48844208D101210014FFF707
:1033F0009BFE00212014FFF797FE0AE00748844255
:1034000007D10121C013FFF78FFE0021E013FFF762
:103410008BFE10BD0030014000380040003C0040F1
:103420000246002013890B400BB1012000E0002070
:10343000704710B50022028802F441520B884C8874
:1034400023438C882343CC8823430C8923434C8912
:1034500023438C892343CC8923431A430280838BE3
:103460004FF2FF74234083830B8A038210BD7047A1
:1034700010B500F001F810BD0CB5002001900090CF
:103480003348006840F480303149086000BF30485C
:10349000006800F4003000900198401C01900098F2
:1034A00018B90198B0F5A06FF1D12948006800F46F
:1034B000003010B10120009001E000200090009841
:1034C000012843D12348006840F0100021490860DA
:1034D0000846006820F0030008600846006840F0D5
:1034E000020008601A484068194948600846406868
:1034F00048600846406840F480604860084640687C
:1035000020F47C1048600846406840F4E8104860A9
:103510000846006840F08070086000BF0C480068F2
:1035200000F000700028F9D00948406820F003003E
:10353000074948600846406840F00200486000BF04
:103540000348406800F00C000828F9D10CBD0000C9
:10355000001002400020024010B586B00024012176
:103560000820FFF7F1FD4020ADF8140014208DF87D
:10357000170003208DF8160005A92548FEF762FA0A
:103580000FE040212248FEF7EAFA0A2000F034FE5C
:1035900040211F48FEF7E1FA0A2000F02DFE601CD2
:1035A000C4B20A2CEDDB1A48FEF7E8F90121480500
:1035B000FFF7AAFDC020ADF814001C208DF81700FD
:1035C00003208DF8160005A91148FEF73BFA1148B3
:1035D000FEF778FC0020ADF80800ADF80E004FF4BF
:1035E0008040ADF810004BF6FF70ADF80A000A48B5
:1035F00001900120ADF80C0001A90648FEF796FCE9
:1036000001210448FEF745FCFEF716FD06B010BD8B
:10361000000C014000540040E0930400042808D14D
:103620004FF0E021096941F004014FF0E0221161FF
:1036300007E04FF0E021096921F004014FF0E0229A
:10364000116170477047000010B51348006840F0E2
:1036500001001149086008464068104908400E49B9
:103660004860084600680E4908400B490860084653
:10367000006820F4802008600846406820F4FE00BE
:1036800048604FF41F008860FFF7F2FE4FF00060C3
:103690000449086010BD0000001002400000FFF85F
:1036A000FFFFF6FE08ED00E01CB501213A4800F0EE
:1036B000C5F818B10121384800F0B1F8FFF7F0F96A
:1036C000FEF716FD35480078002864D00020334905
:1036D00008700C2000903248B0F906200423002125
:1036E0000846FFF77DFC0C2000902E48027802234C
:1036F00000214C20FFF774FC0C20009029484278F0
:10370000022300216220FFF76BFC0C20009025486B
:103710008278022300217420FFF762FC0C200090C5
:103720002048B0F92A20052301210B20FFF758FC7F
:103730000C2000901B4890F82820022301215A20D9
:10374000FFF74EFC0C200521CDE9001015480B4673
:103750000221026A0020FFF701FC0C200521CDE9BF
:10376000001010480B460321426A0020FFF7F6FBC9
:103770000C2000900B48B0F92C20032302215A2082
:10378000FFF72EFC0C200623009007480321026857
:103790005A20FFF725FC1CBD002C014066040020C8
:1037A00090040020D00400200C0000207FB50446C7
:1037B0000D460121C802FFF7C7FCADF80840681E9E
:1037C00080B2ADF804000020ADF80A00ADF80600A4
:1037D0008DF80C0001A90F4800F04AF801210D48AE
:1037E00000F01AF8012241210A4800F038F81920A7
:1037F0008DF8000000208DF801008DF802000120F6
:103800008DF803006846FFF781FA0121014800F0B6
:1038100009F87FBD002C0140CA4302827047CA43A9
:103820000282704721B1028842F00102028004E066
:1038300002884FF6FE731A400280704730B5024688
:10384000002000230024158A05EA0103958905EA72
:10385000010413B10CB1012000E0002030BD1AB109
:1038600083890B43838102E083898B438381704783
:10387000002202881D4B98420ED01D4B98420BD05F
:10388000B0F1804F08D01B4B984205D01A4B98429C
:1038900002D01A4B984204D14FF68F731A404B88CE
:1038A0001A43174B984207D0164B984204D04FF654
:1038B000FF431A40CB881A4302808B8883850B888C
:1038C00003850A4B98420BD0094B984208D00E4B07
:1038D000984205D00D4B984202D00D4B984201D131
:1038E0000B7A03860123838270470000002C01407D
:1038F000003401400004004000080040000C00407B
:10390000001000400014004000400140004401400D
:103910000048014070B59348406B192812D2924874
:1039200000889148001D00888E48006B00F0FE0062
:103930008C490863C82048630846006B40F00100CA
:10394000086370BD8948C06880F400508749C8602A
:1039500000208749087000BF854801780078401C26
:10396000834A10708348405C4E28F5D18149127813
:103970001144481CFCF77CFC00B27F49888500BFDD
:103980007B4801780078401C794A10707948405C87
:10399000242803D010460078C728F1DB744800784B
:1039A000C72800D1CDE7734971480078801D085CB5
:1039B000303800EB8000082101EB40016D4A6C4873
:1039C0000078C01D105C303808446B490870084608
:1039D00000780978182901DB182100E00021401A3D
:1039E000654908706349624800780930085C3038DE
:1039F0000A465F4909780831515C303901EB810191
:103A000000EB41005C4948701146594800780B3082
:103A1000085C3038564909780A31515C303901EB7D
:103A2000810100EB41005449887051480078103002
:103A30004F49087000205149087011464C4A1278CD
:103A4000881800F07BFB044600F0ACFE4A4908628F
:103A500000204A49087000BF454801780078401CA2
:103A6000434A10704348405C2C28F5D100BF4048C1
:103A700001780078401C3E4A10703E48405C2C287B
:103A8000F5D13C491278881800F058FB044600F044
:103A900089FE3949486200BF354801780078401CEA
:103AA000334A10703348405C2C28F5D100BF3048B1
:103AB00001780078401C2E4A10702E48405C2C285B
:103AC000F5D100BF2A4801780078401C284A1070C0
:103AD0002848405C2C28F5D1264912788818FCF734
:103AE000C7FB254981F8280000BF214801780078EC
:103AF000401C1F4A10701F48405C2C28F5D100BFA5
:103B00001B4801780078401C194A10701948405C25
:103B10002C28F5D1174912788818FCF7A9FB00B2B8
:103B2000154948850F48006B00F0FE000D490863F9
:103B3000C82048630846006B40F00100086301207C
:103B40000E4908700E48006800EB40000D490860FF
:103B500000200B490860044800880348001D0088C5
:103B600000BFEEE6000002400048004000100140A7
:103B70006504002000050020D00400206604002019
:103B8000080000200C00002021B1828942F400527C
:103B9000828104E082894DF6FF731A40828170476A
:103BA0001AB1838A0B43838202E0838A8B43838228
:103BB0007047F0B50346002400260025002040F69B
:103BC0006A17B94200D100BF1846C1F3421401F090
:103BD0001F06012707FA06F5012C01D10C3004E07D
:103BE000022C01D1103000E014301AB107682F43C5
:103BF000076002E00768AF430760F0BD2DE9F047BA
:103C000086B005460E460024A24600BFA146002706
:103C1000B08900B100BF2F462C8A4CF6FF700440DB
:103C2000F08804432C82AC894EF6F3100440B0882F
:103C300031890843718908430443AC81AC8A4FF64B
:103C4000FF400440B0890443AC8201A8FFF79CFA0E
:103C50001F48874202D1DDF810A001E0DDF80CA07A
:103C6000A88900F4004040B10AEBCA0000EB0A103A
:103C700031684900B0FBF1F807E00AEBCA0000EB3D
:103C80000A1031688900B0FBF1F86420B8FBF0F04D
:103C900004012009642101FB1089A88900F4004077
:103CA00040B1322000EBC900B0FBF1F000F007009A
:103CB000044308E0322000EB09106421B0FBF1F06E
:103CC00000F00F0004432C8106B0BDE8F08700002F
:103CD0000038014000BFFEE7490050EAC12018BF8C
:103CE00004204A0D18BF40F0010040F2FF72B2EB11
:103CF000515F08BF40F00200012808BF052070474F
:103D00002DE9F0414F1E00EBC7010446D1E9000147
:103D100015461E4637F006020DD02A46334601F0FE
:103D200045F87F1E04EBC703D3E9002300F06CFDC8
:103D300037F00602F1D1022F25D0042F13D0062F21
:103D400018BFBDE8F0812A46334601F02FF8D4E9C8
:103D50000A2300F059FD2A46334601F027F8D4E93A
:103D6000082300F051FD2A46334601F01FF8D4E93C
:103D7000062300F049FD2A46334601F017F8D4E93E
:103D8000042300F041FD2A46334601F00FF8D4E940
:103D9000022300F039FD2A46334601F007F8D4E942
:103DA0000023BDE8F04100F02FBD012201F0B8BEB4
:103DB000002213461046114600F0E2BD40F20132E7
:103DC00000204FF0E04101F0ABBE0000024A0020AD
:103DD000110701F0A5BE000001FDFFFF10B504466C
:103DE000D1E9000100F002F8206010BDF8B50446EA
:103DF0000D466A4600F0E8FA00987E3000900028F0
:103E00001EDC002213462046294600F011FF17D081
:103E1000002140F608004FF00000064620462946E3
:103E200000F0C0FC044640F6080006EA00014FF02E
:103E3000000034F0004004BF0220FCF732FA29E011
:103E40000098FF2828DB002108464FF0000000F40E
:103E50004006002213462046294601F0A5F88CBFF3
:103E6000002501250220FCF71CFA4FF0FF4446B163
:103E7000002D0CBF4FF400004FF48000B04218BF7B
:103E8000084C042108464FF00000002D04BF84F0C8
:103E90000040F8BD2046F8BD20462946BDE8F84060
:103EA00000F080BCFFFF7F7F10B504460A46D4E9CE
:103EB0000003194600F0B4FAC4E9000110BD30381F
:103EC0000A2801D201207047002070472DE9F04DEB
:103ED0008D4F21F0004A86B005460C46BA452ADBD4
:103EE000AAEB070028430AD08848824501DC1AD192
:103EF000CDB106B02846BDE8F04DFFF756BF844A65
:103F0000844B284600F052FF07460E46824A834BF8
:103F10002846214600F04AFF06B03A463346BDE83F
:103F2000F04D00F071BC0120FCF7BBF906B0BDE814
:103F3000F04DFFF73DBF7A48824542DABAF1795F2A
:103F40000BDA2846FFF7C8FE042808BFFFF73EFF3C
:103F5000284606B02146BDE8F08D2A460B4610469D
:103F600000F024FF834602466E480E460B460621AB
:103F70007844FFF7C5FE5A46334600F017FF8046E7
:103F800069488A465A46334604217844FFF7B8FE0A
:103F90005A46334600F00AFF00223B4600F034FC4C
:103FA00002460B464046514600F0EAFC2A462346AC
:103FB00000F0FCFE06B02A462346BDE8F04D00F0B6
:103FC00023BC284624F0004100223D463B4601F038
:103FD00021F84FF0FF3201F0A3FD06460246534898
:103FE0000F460B4606217844FFF78AFE32463B46D1
:103FF00000F0DCFECDE900014D4832463B4604218D
:104000007844FFF77DFE32463B4600F0CFFE0022AB
:104010002B4600F0F9FB834602913046394600F00A
:1040200029FB804643480D46504517DCDDE9000179
:104030005A46029B00F0A4FC42462B4600F0B6FE16
:1040400042462B4600F0E0FB012201F069FD304AB8
:10405000304B01F0D1F8304A304B4CE04FF0000AC1
:1040600052460B46404600F0CFFBCDE903105246C6
:104070002B461046194600F099FE32463B4600F0AA
:10408000C9FFDDE9033200F07BFC06460F46DDE99F
:1040900000015A46029B00F073FC83460091012206
:1040A0003046394601F03CFD194A1A4B00F0B2FF88
:1040B00006460F4601224046294601F031FD5A4688
:1040C000009B00F073FE32463B4601F095F8064631
:1040D0000F4601225046294601F022FD0E4DDFF821
:1040E00058802A46434600F095FF32463B4600F092
:1040F00091FF2A46434600F08DFF002CD8BF81F087
:10410000004106B0BDE8F08D0000F03F0000F07FF8
:10411000075C143326A6913C182D4454FB21F93F2B
:104120000000E03F5C24000072240000E623000051
:10413000FC2300003333EF3FFB21E93F30B583B070
:104140000446FCF7A9F805460020CDE90000024628
:1041500021466846FCF7CAF82846FCF7A2F8DDE9D4
:10416000000103B030BD000010B56FF00400FFF790
:1041700055FA0A4800680A49B0FBF1F0094908708D
:104180000846007800EB4001C1EBC0104FF6FF710C
:1041900001EAC0000449088010BD000010000020A2
:1041A00000127A0024000020260000200146114A57
:1041B00012884A434FF0E0235A6100229A611A465E
:1041C000126942F001021A6100BF4FF0E02210694B
:1041D00000F001021AB100F48032002AF5D04FF04D
:1041E000E022126922F001024FF0E0231A6100225E
:1041F0009A617047260000200146114A12784A430E
:104200004FF0E0235A6100229A611A46126942F087
:1042100001021A6100BF4FF0E022106900F00102B4
:104220001AB100F48032002AF5D04FF0E022126972
:1042300022F001024FF0E0231A6100229A617047D8
:10424000240000202DE9FE4F814688460021484683
:1042500001F018FA06D10021404601F013FA01D10D
:104260000024A4E00021484601F074FB01D2484636
:1042700001E089F0004083460021404601F06AFBDE
:1042800001D2404601E088F000408246514658463F
:1042900001F060FA05D25146584601F031F907465F
:1042A00004E05946504601F02BF90746414938468B
:1042B00001F050FA01D23D462BE04FF087413846DD
:1042C00001F07CFA4FF07C51019001F07FFB0290ED
:1042D000029801F00BFA0646304601F023FA0190ED
:1042E000029901F068FB0290334850F826500246CC
:1042F00052F826100346721C53F8220001F066FBA8
:104300000090029901F05AFA2946019001F08AF8CA
:1043100005465946504601F01DFB20D2002140467B
:1043200001F018FB09D80021484601F013FB01D821
:104330002C463CE085F0004439E0204C0021484602
:1043400001F008FB05D82946204601F03FFB044652
:104350002DE02146284601F039FB044627E00021E4
:10436000484601F0F7FA11D8154C0021404601F0FB
:10437000F1FA05D82946204601F028FB044616E04C
:104380002946204601F04EF8044610E00D4C00216D
:10439000404601F0DFFA05D82946204601F042F8F0
:1043A000044604E02946204601F010FB044620465E
:1043B000BDE8FE8F8180803B28000020DB0F494054
:1043C000DB0FC93FDB0FC9BF10B5144600222260C6
:1043D000114A21F000439342A8BF10BD53EA0002E6
:1043E00008BF10BDB3F5801FA8BF226807DA3622C8
:1043F00001F096FB6FF0350221F000432260DFF8F8
:104400001CC06FF31E510CEB23531A4441F0FF51B3
:1044100041F00051226010BD0000F07F02FCFFFF60
:104420002DE9F04106460C4640F2FF75174635EA85
:1044300014502BD000221346304600F0F9FB25D053
:104440003A463046214601F06BFB06460C4635EAFB
:10445000145010D000221346304600F0E9FB15D16D
:104460000220FBF71EFFFFF7B1FC0A46214662F36C
:104470001E01BDE8F0810220FBF713FFFFF79EFC51
:104480000A46214662F31E01BDE8F081304621460E
:10449000BDE8F08108B5012080F3108800BF01213C
:1044A0001020FEF751FE4FF4C040ADF80000102080
:1044B0008DF8030002208DF8020069462548FDF7BB
:1044C000C1FA4FF4A060FEF759FC4FF47A714FF433
:1044D0003470FFF76BF9FFF747FEFFF73DF8FEF783
:1044E00005FF4FF4165000F0EBF84FF49670FFF70D
:1044F0005DFEFEF7B3FEFEF7F3FAFDF733FBFEF7C2
:1045000066FC0C2314A200210846FEF7BEFD0C2316
:1045100015A201210020FEF7B8FD174800881648B3
:10452000001D00881548006B00F0FE001349086369
:10453000C82048630846006B40F001000863002073
:1045400080F3108800BF04E00D480068401C0C494F
:104550000860F9E7001001402020206354696D6570
:104560003A20203A20203A00483A2020204D2020AE
:10457000475053780000000000480040000002400F
:10458000080000202DE9F05F04464FF07F594FF0FE
:104590007C51204601F012F9824625462E461648E7
:1045A000A0EB660635462946504601F007F98346DA
:1045B000294601F003F98046494601F0FCF9074617
:1045C000294601F0FBF805462946504601F0F6F869
:1045D0008346294601F0F2F88046494601F0EBF99E
:1045E0000746294601F0EAF805462946204601F02B
:1045F000E5F8BDE8F09F0000865A375F10B5024627
:10460000012000E050430B1EA1F10104E1B2F9D1F9
:1046100010BD000070B504460026002507E0681CA8
:1046200080B205464FF6FF71884200D105E00221B5
:104630000F48FEF7F5FE0028F1D000BF47F6FF75E2
:104640000B48848107E0681C80B205464FF6FF7175
:10465000884200D105E001210548FEF7E1FE00286F
:10466000F1D000BF02488089C6B2304670BD00005C
:10467000003001402DE9F04106460F4600F0D6FC1F
:10468000041E0D4618BF0120284320F00040C0F151
:104690007F6000F1E040C00F0ED0301C18BF012039
:1046A000384320F00040C0F17F6000F1E040C00FCF
:1046B00004BF0120FBF7F5FD20462946BDE8F08147
:1046C00010B586B0044601218804FEF71DFD0121C6
:1046D0000820FEF739FD4FF40060ADF81400042007
:1046E0008DF8170005A91748FDF7ACF927208DF8BC
:1046F000000003208DF801008DF8020001208DF8E4
:1047000003006846FEF702FB01940020ADF80800A4
:10471000ADF80A00ADF80C00ADF810000420ADF8BB
:104720000E0001A90848FFF769FA012240F224416E
:104730000548FFF73EFA01210348FFF725FA06B0C6
:1047400010BD0000000C01400048004010B50029D9
:104750000AD00878002807D005487844FCF774F997
:10476000002801D0002010BD0248784410BD000090
:104770008A1D0000821D000010B500290AD00878AB
:10478000002807D005487844FCF75EF9002801D0DE
:10479000002010BD0248784410BD00007A1D0000C2
:1047A000721D000021F00042A2F16052B2F5801F9C
:1047B00001F0004328BFD2F17F6C0BD95FEA001CE7
:1047C00043EAC20242EB507018BF704728BF20F086
:1047D00001007047B2F5801FBCBF184670474FEA12
:1047E000410C1CF5001F02D2084601F0AEB870B5AE
:1047F00000F086FB00000089FFF7F6BF4FF0004095
:10480000A0F580007047000010B591EA030F48BF83
:1048100083F0004300F1F884841A71EB030C05D295
:10482000121943EB0C03001B61EB0C01DFF824E1D0
:104830004FEA1154A4EB135C1EEA430F18BF9EEA23
:10484000445F73D023EA0E03DCF1200E21EA045109
:1048500043F4801332D322FA0CFE10EB0E0023FA3D
:104860000CFE41EB0E01CCF1200E03FA0EFE10EB14
:104870000E0051F10001B1F5801FCCF1200E32D2B3
:1048800001EB045112FA0EF2BDE8104058BF704718
:10489000401C38BF5FEA420218BF7047002814BFAF
:1048A00020F0010041F100014FEA410313F5001F20
:1048B00038BF7047A1F1C04100F070BB012A43EB43
:1048C0000302ACF1200CDCF11F0E32BF4FF0000EE2
:1048D00023FA0CF310EB030041EB0451B4EB115F2E
:1048E000D0D0A1EB045101F5801149085FEA3000F6
:1048F00001EB04510ED350F1000038BF12FA0EFE46
:1049000008D1BDE81040C9E7401C38BF5FEA420249
:10491000CAD1C3E7BDE810404FEA410313F5001FB9
:1049200038BF7047A1F1C04100F038BB9EEA445F38
:1049300008D011EA5E0FBDE8104004BF01F000414D
:1049400000207047BDE8104070B500F0D9FA00BFF4
:1049500064FBBE3E0000E0FF02494FF0000001F0A2
:10496000ADB800BF0000F87F491058BFC1F1404109
:104970005B1058BFC3F140438B42EFF30080704798
:104980002DE9C04130B4DFF8A0C23CEA111418BFD1
:104990003CEA131400F0EC8081EA03051CEA1114D0
:1049A00044EAD57418BF1CEA131500F0C780A4EBC5
:1049B00005044FF0004545EAC12145EAC32341EA19
:1049C000505143EA525304F17F74994204F5003484
:1049D0004FEAC0204FEAC22208BF904200F09C80FC
:1049E0004FEA13650FF24016765D4FEA134506FB5A
:1049F00005F7C7F1807706FB07F74FEAD737A7FB24
:104A000003687642C8F58038A7FB06CE38BFA8F108
:104A1000010807FB08E64FF0000EA6FB028CE6FB40
:104A200003CEDCF1000CCEF1004E38BFAEF1010E2A
:104A3000A6FB0C584FF000074FF00005E6FB0E8771
:104A4000A1FB08C6A0FB07CE16EB0E0645F100053C
:104A5000E1FB076515F1E04E7EBFA4F580345FEA07
:104A600046066D4116F1800745F100054FEA17270C
:104A70004FEA066647EA0567A6F1DE46B6F1805FB3
:104A80004FEA15251FD9384624F0010C05EBC471F7
:104A9000BCF1FE6F01EB0C1102D8F0BCBDE8008147
:104AA00024425CBF01F5801E9EEAC47F02D4F0BCA4
:104AB000BDE80081244238D4F0BCA1F1C041BDE87A
:104AC000004100F06BBA4FEAD22242EA43524FEA69
:104AD000D323A7FB02864FEAD02040EA415007FBD0
:104AE00003661EEA0E0F4FEAD12105FB026658BF8E
:104AF000A6EB0056B6EB00564FEA520E4EEAC37EC6
:104B000018EB0E0E56EB530EBDD518EB02085E41A6
:104B10007F1C55F10005B6E74FF480154FF00007F4
:104B20004FF000064FF00008ADE7F0BC4FF000007A
:104B300001F1C04101F00041BDE8008111EA0C1F04
:104B40000CEA131500D00CE013EA0C1F00F02580CE
:104B50004FF00000F0BC81EA030101F00041BDE824
:104B60000081F0BCBDE8004181EA030100F016BA03
:104B7000F0BCBDE8004170B500F0C2F9097EFC3E12
:104B800000F007B881EA03014FF0000001F0004196
:104B9000704781EA030100F001BAF0BCBDE80041B2
:104BA0004FF0000021497047FFFDFBF9F7F5F4F2E3
:104BB000F0EEEDEBE9E8E6E4E3E1E0DEDDDBDAD8B8
:104BC000D7D5D4D3D1D0CFCDCCCBCAC8C7C6C5C416
:104BD000C2C1C0BFBEBDBCBBBAB9B8B7B6B5B4B32D
:104BE000B2B1B0AFAEADACABAAA9A8A8A7A6A5A418
:104BF000A3A3A2A1A09F9F9E9D9C9C9B9A999998DC
:104C00009797969595949393929191908F8F8E8E7E
:104C10008D8C8C8B8B8A898988888787868585840B
:104C200084838382828181800000FF070000F87FF7
:104C300051EA030C17D41CF5801F58BFBCF5801F28
:104C400000F10680994218BF704708BF9042704734
:104C500007D711F5801F58BF13F5801F19D499424B
:104C60007047894270471CF5801F08D5BCF5801F2E
:104C7000F7D58B4218BF704708BF824270474FF488
:104C8000001C1CEB410F38BF1CEB430F01D28B42C1
:104C9000704770B500F034F9922449004FF000518C
:104CA0004FF08053FFF760BE4FEA41034FEA535382
:104CB000A3F58063D3F11E03C8BFD3F1210C0CDD33
:104CC0004FF0004242EAC12242EA505232FA03FC5B
:104CD0008CEAE17CACEBE1707047102BC4BF002084
:104CE000704703F5787CBCF1FF3F04D06FF00042C1
:104CF00082EA2100704770B500F002F949922480E1
:104D000000207047F2E710F0004248BF4042B0FA7E
:104D100080F310FA03F10AD0C3F11D0303F5806399
:104D20004FEA415002EB035202EBD12170474FF0A2
:104D30000000704751EA030C17D41CF5801F58BFC0
:104D4000BCF5801F00F10680994218BF704708BF6C
:104D50009042704707D711F5801F58BF13F5801F89
:104D600019D499427047894270471CF5801F08D5B5
:104D7000BCF5801FF7D58B4218BF704708BF824231
:104D800070474FF4001C1CEB410F38BF1CEB430F66
:104D900001D28B42704770B500F0B2F892244900FE
:104DA0004FF000514FF08053FFF7DEBDDFF848C1F0
:104DB00070B51CEA111E1EBF1CEA13159EEA0C0FEB
:104DC00095EA0C0F00F06F8081EA030423EA4C138C
:104DD0004EEAD47E21EA4C1141F4801143F4801351
:104DE000AE44A1FB024CA0FB0365AEF17F7E3619F9
:104DF00055EB0C05A1FB034C4CF10003A0FB021C7E
:104E000016EB0C06654153F10003094218BF46F04A
:104E1000010613F4007F0BD14FEA03314FEA05304E
:104E2000340341EA155140EA16506FF003020AE0DC
:104E30004FEAC3214FEAC520F40241EA555140EA46
:104E400056506FF0020202EB2E4201EB025585EA4A
:104E5000CE710AD05FEA440C18BF24F0004450F130
:104E6000000041F1000120EAD47040F2FE7C62456E
:104E700000D270BDA84214BF4FF080444FF04044B0
:104E8000002E08BF0024BEF1806FA8BFA1F1C04171
:104E9000BDE8704080F282804FF0000001F1C04117
:104EA00001F0004170479EEA0C0F0CEA131518BF81
:104EB00095EA0C0F06D04FF0000081EA030E0EF0C9
:104EC000004170BD00F01CF88900013E00F007B8F9
:104ED00000F009B84FEA430C5FEA5C5C08D081EA55
:104EE000030100F05BB84FEA410C5FEA5C5CF6D16D
:104EF0004FF00000014970470000FF070000F87FF5
:104F00000EF1020E2EF0030E5EF8046B364205D44D
:104F1000012A43EB030515F5001F12D8012841EBC8
:104F2000010C1CF5001F0CD80ED14FEAD17C15F5F1
:104F3000001F0CEB4C0C0CF1020C08BF4CEBD37CAB
:104F400004E04FF0080C01E04FEAD37C0CEB4C0579
:104F500026FA05F606F00706B6F1040C06D20EEBAB
:104F6000860CBDE870404CF0010C6047DFE80CF0A7
:104F7000090B02024FF000414FF00000A1F50021A3
:104F800070BD19461046012851EB010418BFD4F535
:104F9000001484BF002001F0004170BD0808A0F596
:104FA00000114FEA3101704753EA010C17D41CF588
:104FB000801F58BFBCF5801F00F106808B4218BFD0
:104FC000704708BF8242704707D713F5801F58BF4C
:104FD00011F5801F19D48B4270479B4270471CF516
:104FE000801F08D5BCF5801FF7D5994218BF7047C0
:104FF00008BF904270474FF4001C1CEB430F38BFB2
:105000001CEB410F01D2994270470FB40CBC03BC9A
:10501000FFF7C1BE91EA030F10B581F000413FF5E3
:10502000FBAB83F0004300F0EFB800002DE9F04146
:1050300001F5801CBCF5001FC0F2C3804FEA115C73
:1050400021EA0C510CF1FD0C41F480115FEA5C0C7B
:105050000CF5C07C01D3400049413DA4890241EADE
:10506000905187028E0E0A0CA45D04FB04F602FB2D
:1050700006F6C6F14046A4FB0662F60D46EA422655
:1050800006FB06F4A4FB01235242C3F1404338BFA0
:105090005B1EA6FB02420024E6FB0324D20B42EA7D
:1050A0004446A6FB0623A1FB02E2A3FB07E4A418E7
:1050B0004FF0000252F10002E3FB01426442C2F1F0
:1050C000404E38BFAEF1010EA6FB04234FF00002A4
:1050D000E6FB0E32A2FB03464FF00004B61954F172
:1050E0000004E2FB0264A1FB06E6A4FB07E816EB62
:1050F00008064FF0000858F10008E4FB016876420A
:10510000C8F1405838BFA8F10108A2FB06E4A3FB90
:1051100008E52D194FF0000454F10004E2FB085497
:10512000A1FB05E6A7FB04E818EB06084FF0000614
:1051300056F10006E1FB048618F1200556F1000641
:10514000A809A8F11B08B10908F03F08B8F10A0F37
:1051500040EA86601CD901EB0C51BDE8F08100BF2C
:10516000FCF5EEE8E2DDD8D3CFCBC7C3C0BDB9B6FE
:10517000B4B1AEACA9A7A5A3A19F9D9B9A98969503
:105180009392908F8D8C8B8988878685848382818A
:10519000A0FB006800FB01F208EB4208B8EB87288F
:1051A00007D5341858EB0104D5D5401C51F1000146
:1051B000D1E7341A78EB0104CDD4401E71F100011F
:1051C000C9E75FEA4C0C5FEA9C5C0DD105D34FF058
:1051D000000001F00041BDE8F081BDE8F04170B58C
:1051E000FFF78EFE6DDBFFBEBDE8F0414FF0000023
:1051F000004970470000F87F10B591EA030F48BFDF
:1052000083F000433FF508AB841A71EB030C07D21F
:1052100012198CF0004C43EB0C03001B61EB0C01EA
:10522000DFF8A4E14FEA1154A4EB135C1EEA430F2C
:1052300018BF9EEA445F00F0B08023EA6E0352423A
:1052400021EA0451C3EB6E0338BF5B1EDCF1200E74
:1052500025D322FA0CFE10EB0E0043FA0CFE41EBB4
:105260000E01CCF1200E03FA0EFE10EB0E0051F1F0
:105270000001CCF1200E29D412FA0EF201EB0451F8
:10528000BDE8104058BF7047401C1CBFB2F1004F32
:10529000704700280CBF491C20F00100704712EB3A
:1052A000020E43EB030218BF4FF0010E4EEA42021A
:1052B000ACF1200CDCF11E0E54D943FA0CFE10EBBD
:1052C0000E0051F1FF31CCF11E0ED5D50EF1010EBD
:1052D00012FA0EFE404141EB010101EB445C5FEA32
:1052E0005C5C10D910EBDE7001EB045138BFBEF1ED
:1052F000004FBDE8104018BF704700280CBF491C84
:1053000020F00100704730D24FEAD42C11F5001183
:1053100024F400641BD0B1FA81F20B3AA41AA41E43
:10532000D2F12003914030FA03F31943904001EB8E
:10533000CC71002C01EB0451BDE81040A8BF7047B0
:1053400001F1C0414FF0000001F000417047B0FA98
:1053500080F310FA03F100D110BDE41A173C4805A0
:10536000C90AE4E701EB045110BD491001EB0451F7
:10537000BDE810404FEA300002E04FF000017047F6
:105380004A0008BF0042F8D0B2F5001F28BF70479E
:1053900001F000414FF0000070479EEA445F07D0E3
:1053A00011EA5E0FBDE8104004BF002100207047E5
:1053B000BDE8104070B5FFF7A3FD00BF40DFF63E2B
:1053C00083F00041104670470000E0FF43004FEAC1
:1053D000D30C4FEA3C0C43401FBF40070CF1605117
:1053E00013F0FE4F70471CF0006F03D100200CF04B
:1053F000004170470CF0004343EA507010B540EA9A
:10540000CC0000F05CFA00BF000000924FEA0001FF
:10541000FFF7C4BD4FF000414FF00000A1F500219F
:105420007047000090EA010F48BF81F0004100F191
:10543000D482421A3CBF801A89184FEAD0524FF0EA
:105440007F4C1CEA410FA2EBD15318BF9CEA026FBC
:1054500000F03B804FF0004C4CEA00204CEA012168
:1054600021FA03FC10EB0C0C1ED202F1FF325FEAB2
:105470001C2040EBC25038BF70471CF07F0F4FEA32
:10548000400C18BFBCF17F4F38BF7047C3F12003F9
:10549000994008BF20F00100BCF17F4F38BF704732
:1054A000A0F1C04000F051BA4FEA3C00000A40EBC6
:1054B000C25028BF1CF0FF0F4FEA400CE6D018BFC7
:1054C000BCF17F4F38BF7047EAE79CEA026F05D016
:1054D00010EA5C0F08BF00F00040704710B500F004
:1054E000EEF900BF64FBBE3E401058BFC0F1404023
:1054F000491058BFC1F140418142EFF3008070472D
:105500004FF47F0C1CEAD0121EBF1CEAD11392EAA2
:105510000C0F93EA0C0F00F0858090EA010F48BF52
:1055200042F4807240F4000C41F400002CF07F4102
:1055300020F07F4000B58142A2EB03020FF2081C6D
:10554000ACEB504EC0F100009EF800E04FEA4E0E6A
:1055500000FB0EFC38BF49004FEA2C1C02F5FA0292
:105560000CFB0EF34FEACE1E4FEA112C4FEAC1217D
:105570000EEB635E42EB22420EFB0CFC4FEA1C5327
:1055800000FB03114FEA112C4FEA01310EFB0CFC1A
:105590004FEADC4C00FB0C11C14228BF09184CEB50
:1055A00003335DF804EB10EB410143EBC250B2F55D
:1055B0007C0F38BF704729D512F0F00F1CBF00F1E7
:1055C000C04000F000407047008182838485868758
:1055D00088898B8C8D8E8F919293959697999A9CB2
:1055E0009D9FA0A2A3A5A7A8AAACAEB0B2B3B5B721
:1055F000B9BCBEC0C2C5C7C9CCCED1D4D7D9DCDFF7
:10560000E2E6E9ECF0F3F7FAFE0000004FEA400CA6
:105610000CF1807CBCF17E4F28BF7047B0F1C040D8
:1056200000F093B990EA010F0CEAD11348BF42F49D
:105630008072624538BF634507D213F47F0F16D0DE
:1056400080EA010000F00040704710B500F037F923
:10565000097EFC3E00F005B880EA010000F0004041
:10566000704780EA010000F0004000F06EB912F4CB
:105670007F0F04BF0248704780EA010000F065B95F
:105680000000C07F50EA010C00F113801CF5000FF0
:1056900058BFBCF5000F01D48842704707D710F5FA
:1056A000000F58BF11F5000F15D48842704789428A
:1056B00070471CF5000F04D5BCF5000FF7D58142EB
:1056C00070474FF0807C1CEB400F38BF1CEB410F44
:1056D00001D28142704710B500F0F1F892244900E0
:1056E0004FF000504FF08051FFF7FEBE41000B0E0F
:1056F000D3F19E0208D950F400034FEA032323FAA2
:1057000002F048BF4042704710B500F0D8F800BF23
:1057100049922480002070476FF0004282EA200006
:105720007047000010F0004148BF4042B0FA80F3DB
:1057300010FA03F2C3F19D030BD051EAC35101EB00
:105740001220530638BF704700F1010008BF20F057
:105750000100704750EA010C00F113801CF5000FA6
:1057600058BFBCF5000F01D48842704707D710F529
:10577000000F58BF11F5000F15D4884270478942B9
:1057800070471CF5000F04D5BCF5000FF7D581421A
:1057900070474FF0807C1CEB400F38BF1CEB410F73
:1057A00001D28142704710B500F089F89224490077
:1057B0004FF000504FF08051FFF796BE4FF47F0C32
:1057C0001CEAD0121EBF1CEAD11392EA0C0F93EA16
:1057D0000C0F00F0478090EA010F48BF42F480723E
:1057E0004FF0004C4CEA00204CEA012102EB03028E
:1057F000A0FB0113A2F50002002918BF43F001032A
:105800005B0028BF4FEA330342EB22425FEA132CCE
:105810004CEBC2502EBFBCEB436FB2F57C0F704710
:105820004FEA036CBCF1004F08BF20F00100B2F555
:105830007C0F38BF70470BD582F0FF0212F5803F16
:10584000C8BF704700F1C040D8BF00F000407047AB
:1058500000F5000C5FEA4C0C48BF7047B0F1C04047
:1058600000F073B890EA010F0CEAD11348BF42F47C
:105870008072624538BF634504D280EA010000F0BF
:105880000040704710B500F01AF800BF8900013ED3
:1058900000F007B800F009B85FEA410C5FEA1C6C41
:1058A00008D080EA010000F050B85FEA400C5FEADF
:1058B0001C6CF6D14FF00040A0F5800070470EF14F
:1058C000020E2EF0030E5EF8044B244204D44FEA7D
:1058D0004102B2F17F4F11D84FEA4003B3F17F4F3D
:1058E0000CD80ED14FEAD07CB2F17F4F0CEB4C0CB0
:1058F0000CF1020C08BF4CEBD17C04E04FF0080C1B
:1059000001E04FEAD17C0CEB4C0324FA03F404F0E1
:105910000704B4F1040C06D20EEB840CBDE8104071
:105920004CF0010C6047DFE80CF0070802024FF072
:105930000040A0F5800010BD0846420018BFD2F11B
:10594000807288BF00F0004010BDFF2141EAD050B6
:10595000C005704751EA000C00F113801CF5000FE0
:1059600058BFBCF5000F01D48142704707D711F52D
:10597000000F58BF10F5000F15D4814270478942BF
:1059800070471CF5000F04D5BCF5000FF7D5884211
:1059900070474FF0807C1CEB410F38BF1CEB400F71
:1059A00001D28842704780EA010081EA000180EA62
:1059B0000100FFF7F8BE80F0004090EA010F7FF58C
:1059C00038AD81F0004100F008B8000090EA010F06
:1059D00048BF81F000413FF52CAD421A04D882F057
:1059E0000042A0EB020011444FEAD0524FF07F4C2E
:1059F0001CEA410FA2EBD15318BF9CEA026F4AD0B8
:105A00004FF0004C4CEA00204CEA012121FA03FC43
:105A1000B0EB0C0C0FD412F0FE0F36D05FEA4C0046
:105A20001DD5001240EBC25038BF70471CF03F0F2D
:105A300018BF70470BE0A2F101025FEA1C2040EBA7
:105A4000C25038BF70471CF07F0F18BF7047C3F1BA
:105A50002003994014BF401E20F0010070478008C9
:105A60004FEA122308BF7047B0FA80FCA2EB0C0289
:105A7000CCF1280C60FA0CF093EA122F04BF00EB73
:105A8000C25070474FEAC3707047130A5FEADC10D8
:105A900008BF7047F6E79CEA026F04D010EA5C0F7B
:105AA00008BF0020704710B5FFF709FF40DFF63E42
:105AB00081F0004070474FF0000070470CF00F037A
:105AC000092B08BF082000F05F800A2B0BD0082BA1
:105AD00018BF704708BF1CF0400F0AD04FF00000FD
