:020000040800F2
:10000000800C00203102000879270008B11F000889
:1000100075270008CD1A00089D3A0008000000006E
:10002000000000000000000000000000CD2E0008CD
:100030008D1C0008000000003D2D000879300008EC
:100040004B0200084B0200084B0200084B0200085C
:100050004B0200084B0200084B0200084B0200084C
:100060004B0200084B0200084B0200084B0200083C
:100070004B0200084B0200084B0200084B0200082C
:100080004B0200084B0200084B0200084B0200081C
:100090004B0200084B0200084B0200084B0200080C
:1000A0004B020008493100084B0200084B020008CF
:1000B0004B0200084B0200084B0200084B020008EC
:1000C0004B0200084B0200084B0200084B020008DC
:1000D0004B0200084B0200084B020008E9360008FA
:1000E0004B0200084B0200084B0200084B020008BC
:1000F0004B0200084B0200084B0200084B020008AC
:100100004B0200084B0200084B0200084B0200089B
:100110004B0200084B0200084B0200084B0200088B
:100120004B0200084B0200084B0200084B0200087B
:1001300000F002F800F06CF80AA090E8000C82448D
:100140008344AAF10107DA4501D100F061F8AFF26A
:10015000090EBAE80F0013F0010F18BFFB1A43F0A5
:1001600001031847345B0000545B000010F8013BAA
:100170000A4413F0030408BF10F8014B1D1108BF17
:1001800010F8015B641E05D010F8016B641E01F8C5
:10019000016BF9D1002D15D010F8014B03F00C03C1
:1001A0000C2BA1EB04040ABF10F8013BA4EB831451
:1001B000A4EB032405F1010314F8016B5B1E01F8A5
:1001C000016BF9D5914238BF10F8013BD1D370478C
:1001D0000023002400250026103A28BF78C1FBD850
:1001E000520728BF30C148BF0B6070471FB500F0F1
:1001F00093F904000020002104F03CF8401C6060EA
:100200000020002104F020F8E0601FBD10B510BDF3
:1002100000F05CF91146FFF7E9FF03F091FF00F0F1
:1002200009FC03B4FFF7F2FF03BC00F0E9FE000095
:100230000948804709480047FEE7FEE7FEE7FEE77A
:10024000FEE7FEE7FEE7FEE7FEE7FEE704480549B6
:10025000054A064B704700007D3000083101000858
:1002600080060020800C00208008002080080020EC
:1002700070B5064600F00CF80468054630460A22C0
:10028000002100F067F82C6070BD70477047704720
:10029000004870471C06002010B5FFF7F9FF006802
:1002A00010BD10B50446FFF7F3FF046010BD000059
:1002B0000FB4002300B589B00CA900910B99CB6055
:1002C000214B7B440693214B7B44079304236FF01F
:1002D0000042CDE901321E4A7A446B46089202463A
:1002E000002005F065F809B05DF814FB70B506460E
:1002F0004FF0FF3015460C46324686B00091CDE9EE
:10030000010169460020049004A8FFF7D1FF0246CE
:100310000498211825B108B1084600E0204628605D
:10032000049800280DD0002A02DD0098884208D0E9
:100330003246081B69460094CDE9010404A8FFF782
:10034000B7FF06B070BD00002901000041010000A8
:10035000010100002DE9F04791460F468046044612
:10036000002614F8015B2DB100F030F80068405D04
:10037000C007F6D12B2D02D02D2D18D0641E4A4671
:100380003946204600F053F827B13968A14201D11F
:10039000C7F800804FF0020471050BD540420028D9
:1003A00003DDFFF775FF0460A007BDE8F08746F4A2
:1003B0008066E4E70028F8DAFFF76AFF04606FF070
:1003C0000040F2E7004870471C06002010B500F01E
:1003D000A3F8001D10BD00BF9D3E000010B50446EF
:1003E000FFF7F4FF0068005D00F0010010BD4268F7
:1003F00042B1016811F8013B23B1521EC0E900125D
:10040000184670470121C160881E704742685AB182
:10041000C368016843B983688B4205D0491E521CEA
:10042000C0E90012002070474FF0FF3070472DE9FF
:10043000F05F824615468B4600270AF10104B94653
:100440000078302801D09DB113E014F8010B01278A
:10045000782803D0582801D045B10AE00DB1102DFD
:1004600007D1002714F8010B102502E0082500E051
:100470000A250026B0460EE005FB080005FB06F144
:1004800001271FFA80F801EB1046B6F5803F00D334
:10049000B94614F8010B294600F042F80028EBDABF
:1004A000BBF1000F05D00FB1641E00E05446CBF83D
:1004B0000040B9F1000F06D0FFF7EAFE022101600B
:1004C000C81EBDE8F09F48EA0640FAE77546FFF708
:1004D00079FFAE4605006946534620F00700854681
:1004E00018B020B5FFF7B2FEBDE820404FF000067F
:1004F0004FF000074FF000084FF0000B21F007010C
:10050000AC46ACE8C009ACE8C009ACE8C009ACE84E
:10051000C0098D4670470000004870473C06002027
:100520003A2800D2303820F02002412A01D3A2F12B
:100530003700884201D34FF0FF3070472DE9FF4F5D
:1005400006468BB00878FF2806D0491C2D2805D018
:1005500000244FF0000908E000200CE00124F8E737
:1005600009EB8903491C00EB43090878FF28F7D100
:1005700014B1C9F100008146107800252C46AA4626
:1005800029462D2801D02B2804D1521C2D2813D008
:10059000002082468B461078FF280FD04FF0000CC9
:1005A0000A21521CA5FB017804FB018105FB0C11FB
:1005B000C5194BEB0104EEE70120EAE700210846EC
:1005C0004FF00000BAF1000F02D000EB80004008AD
:1005D000C0F38157012F01DD4FF0FF370E9955EA27
:1005E000040009EB01080BD04FF0020918F5FA7F5F
:1005F00016DA4FEACA70002F706008DD012007E0AC
:100600004FEACA70C6E900B00FB0BDE8F08F002015
:100610003060FFF73DFEC0F800901821084616E054
:10062000B8F5FA7F18DD002F02DAF748784401E0C8
:10063000F6487844D0E90010C6E9001040EACA70D4
:100640007060FFF725FEC0F80090142108460FB037
:10065000BDE8F04F04F049BE002108464FF000000D
:10066000B8F10001099002DAC7F1000200E03A4651
:1006700001DAC8F1000106A800F026FA06AB93E8FB
:10068000070003AB83E8070044F23E005BEA040185
:100690000090584604D144F21E012C465D4600915C
:1006A000210C0904014306D10099240444EA1544AD
:1006B0002D041039009104F07F41014306D10099C7
:1006C000240244EA15642D020839009104F07041B7
:1006D000014306D10099240144EA15742D01091F34
:1006E000009104F04041014306D10099A40044EA7E
:1006F0009574AD00891E009104F00041084304D1B7
:1007000000986D196441401E00904FF001033A4675
:100710006846B8F1000FCDE9014503A902DD00F0FC
:1007200014FF01E000F0E7FEBAF1000F04460D46A9
:1007300001D084F00044002108464FF000000999E0
:1007400040F2FF77484010F00C0F07D124F0004032
:10075000284303D0C4F30A50B84212D1FFF798FDE2
:10076000C0F80090C4F30A50B8420AD1A8487844AF
:10077000D0E90010C6E9001004F0004108437060A1
:1007800042E7C6E900543FE72DE9FF4F1F464FF00F
:10079000000A4FF0FF38454691B0D7E90146CDF841
:1007A0003CA0FFF7B9FEC0680168405C1090B969D1
:1007B00012986D1C8847396A814688470028F6D10F
:1007C000B9F1FF3F0AD0002E24F4D06411DDB9F155
:1007D0002B0F08D0B9F12D0F0BD102E0404615B018
:1007E00013E744F48064B96912986D1C8847761E3B
:1007F0008146600504A901D52D2000E02B20002EA4
:1008000001F1010B0DF130088DF810003FDDB9F159
:10081000690F08D0B9F1490F05D0B9F16E0F02D0B8
:10082000B9F14E0F1CD13B4601A8009580E850025B
:10083000DDE912126FF0020004F0BEFDC11CCED142
:100840000EE0B96912986D1C884781461398761E90
:1008500044F4007405600F98401C002E0F9016DDC4
:10086000B9F1300FEDD0B9F1780F02D0B9F1580FCE
:100870000DD10F9801280AD13B46CDE90054DDE99E
:100880001212001F029604F095FDC11CA7D1109909
:1008900089453ED144F0800406E01399681CAAF112
:1008A000010A44F400740860B9696D1C1298761E40
:1008B000884730288146F0D02BE01099894505D132
:1008C000200603D4761E44F0800418E0484603F066
:1008D000AAFA08B3761E0DF123018B4544F4007487
:1008E00008D2A9F130000BF8010B200607D5AAF1B8
:1008F000010003E0200602D40AF101008246A005AF
:1009000002D51399681C0860B96912986D1C884754
:100910008146002ED1DC53E0002E51DDB9F1650F88
:1009200002D0B9F1450F4BD1A00549D5B9696D1C6D
:100930001298761E24F440748847002E81460CDD00
:100940002B2804D0B9F12D0F07D144F48074B96974
:1009500012986D1C8847761E8146E00501D52D2131
:1009600000E02B2108F8011BCDF8008021E0761E65
:100970000DF13901884544F400740CD2A9F130001E
:1009800010F0FF0088F8000002D10099884509D9CD
:1009900008F1010806E0E00501D51E4801E042F239
:1009A0000F708246B96912986D1C8847814613986A
:1009B0000560002E04DD484603F035FA0028D6D144
:1009C000F96912988847FF2053468BF8000088F891
:1009D000000000200A900B9004AA0CA90AA8FFF7B7
:1009E000ADFDA00502D46FF00100F8E614F0240F6D
:1009F00012D0E0071CD13868DDE90A12031D3B6004
:100A00000068C0E9001213E0905600008256000012
:100A100046550000F1D8FFFF0AA9684603F092F995
:100A2000E00705D13868009A011D3960006802604E
:100A30002846D4E610B50446AFF300802046BDE852
:100A40001040FFF7EEBB00004FF0013C50F8042BC4
:100A500051F8043B9A4221D1A2EB0C03934313EAD1
:100A6000CC1317D150F8042B51F8043B9A4215D1FE
:100A7000A2EB0C03934313EACC130BD150F8042BD5
:100A800051F8043B9A4209D1A2EB0C03934313EAB9
:100A9000CC13DBD04FF00000704700BFD01A01BA72
:100AA000B1FA81F101F0180122FA01F0CB40C1F155
:100AB0002001DBB2C0B2C01A2CFA01F3D11A914363
:100AC00011EAC311E6D170472DE9F0478146164679
:100AD0008AB0354878440DC88DE80D003248784416
:100AE000801C03AC0DC884E80D0041F69B3008441F
:100AF000372190FBF1F290FBF1F5A5F1800501FBA8
:100B000012041B3C02D56442012000E00020DFF803
:100B100098A080460027FA44AAF1BE0A0EE0E0073A
:100B20000AD03246684607EB470101230AEB8101F0
:100B300000F0F6FC8DE8070064107F1C002CEED15D
:100B4000194F7F44AE3F19E0E80715D007EB0410BA
:100B50000DF1180A90E80E008AE80E00C068F04215
:100B600001D1981908903246012306A903A800F084
:100B7000D7FC03AB83E807006D10641C002DE3D1A4
:100B80004FF0010332466946B8F1000F03A802D0C6
:100B900000F09CFC01E000F0C3FCC9E90001C9F8C9
:100BA00008200AB0BDE8F087A85100002DE9FF4FEA
:100BB0001F464FF03C0987B04FF00042DDE91410AA
:100BC00001F10108DDF858A002EA4050039000202E
:100BD00005908346054604460490B969461E089868
:100BE0008847AAF1010A0290BAF1000F3BDD029892
:100BF0002E2815D01021FFF793FC00282EDB4FF094
:100C0000010B0599014317D0B9F1000F0BDB4A46E0
:100C1000C11700F0FBF905430C43A9F1040905E0F5
:100C2000012004900BE008B145F00105012005907A
:100C3000049820B9361D02E0049800B1361FB96946
:100C4000089808F101088847BBF1000FAAF1010AD2
:100C50000290C9D00999C1F80080C5E702987028B0
:100C600008D0502806D0F96908988847BBF1000FD2
:100C700014D04FE0002002900120BBF1000F04903F
:100C800009D0B969089808F101088847AAF1010953
:100C9000B9F1000F07DCF969089888476FF0010087
:100CA0000BB0BDE8F08F2B2804D02D280CD14FF0CD
:100CB000FF300490B969089808F101088847A9F144
:100CC0000109B9F1000FE6DD411CE4D00A21FFF76C
:100CD00027FC0028DFDB029908F1010801EB810104
:100CE00000EB41000290B969089888470A21FFF794
:100CF00017FC099AA9F10109B9F1000FC2F80080A7
:100D000001DD0028E7DAF969089888470499029814
:100D100000FB016655EA040004D004F040410900DC
:100D200002D006E0039898E0A40044EA9574AD0070
:100D3000B61E04F00041080002D16D196441761E10
:100D4000159810F0240F03D04FF00B095C4803E016
:100D50004FF028096FF07D008246564507DAAAEB6E
:100D600006018944B9F1410F01DD4FF0410901202D
:100D70000021A9F1010200F049F9024628400B4682
:100D80002140084301D0012100E00021501E0291C2
:100D900043F1FF3128402140084301D0012000E009
:100DA00000200299834651EA0B014FD000210846EA
:100DB0004FF00000039900F4400039B100EB8000CF
:100DC0004FF4400100EBD07001EA6000801501286B
:100DD00002DD4FF0FF3000E013D0401C36D0029807
:100DE00060B3BBF1000F0CD14A460120002100F096
:100DF0000DF928402140084301D0012000E00020E7
:100E0000E0B101204A46002100F000F903464019F4
:100E10000A4661412D1A8C4111D3B9F1400F09DD09
:100E2000159810F0240F02D0AAF1340603E0AAF1BD
:100E3000170600E0761C00254FF0004406E05B1E1C
:100E400042F1FF3220EA030521EA0204CAF101005F
:100E5000B04206DA1B490398084301900020009035
:100E60000EE0039AC4F3D321E80A0A43164940EA84
:100E700044500A433146CDE90002684602F0C8FFFB
:100E8000159810F0240F0BD01598C00715D13868AD
:100E9000DDE90012031D3B600068C0E900120CE0B0
:100EA00002A8694602F04EFF1598C00705D13868C0
:100EB000029A011D3960006802604046F0E60000B9
:100EC00002FCFFFF0000F07F0000F03F2DE9FF4F24
:100ED00092461D4685B04FF00041DDE9124BDDE939
:100EE00014727F1E01EA4B50414940F0FF4940EA2D
:100EF0000108002122F020004928049102D04E2848
:100F000028D04CE03BA0012607C88DE80700A9695E
:100F10000698641C88477F1E014606D41DF806000B
:100F200018B121F0200181420BD0E9690698884769
:100F3000032E34D0082E32D06FF0010009B0BDE886
:100F4000F08F761C032E01D0082EE0D1601CCAF869
:100F50000000DCE7A9690698641C88477F1E2AD434
:100F600020F02000412826D1A9690698641C8847F2
:100F70007F1E20D420F020004E281CD1A96906989D
:100F8000641C88477F1E48F4002849F48009CAF889
:100F9000004001D4282806D0E969069888475FEA0E
:100FA000CB7012D022E0A9690698641C88477F1E86
:100FB00001D4002803DAE96906988847BCE72928A4
:100FC000F1D1641CCAF80040E9E71BF0240F07D0F8
:100FD00028680499031D2B600068C0E9001805E02B
:100FE0002868021D2A600068C0F800902046A5E726
:100FF0000000F07F494E46494E4954590000000018
:1010000001491820ABBEFEE726000200B2F1200322
:101010000AD5C2F1200301FA02F120FA03F300FA23
:1010200002F041EA0301704700FA03F14FF00000BB
:101030007047704720F07F4C80EA030023F07F4721
:10104000ACEB070303F57C5300F0004003F1FF0312
:101050002DE980494FEA154B09B44FEA144325EABC
:101060000B4E24EA03480FF2042606EB1327490827
:101070003E785FEA320203FB0667C7F5000707FB0D
:1010800006F64FEA54374FEAD64606F1020607FB4A
:10109000066CCCF1005C4FEA1C472CEA074C07FBBE
:1010A00006F40CFB06F504EB15464FEA961634BF22
:1010B00000204FF000404FEAD13706FB07FC4FEA13
:1010C0001C4C0CFB0BF7D21B03FB0CF761EB07016D
:1010D0000CFB0EF7B0EB074072EB17420CFB08F766
:1010E00034BFA2EB0742B2EB074261EB17414FEA74
:1010F0000C444FEA910706FB07FC4FEA1C4C0CFB23
:101100000BF7B0EBC74072EB573203FB0CF734BF61
:10111000A2EBC742B2EBC74261EB57310CFB0EF7B3
:10112000B0EBC70072EB57720CFB08F734BFA2EBB1
:10113000C702B2EBC70261EB5771039F4FEA8161AF
:1011400041EA921104EBCC044FEAD1374FEA8262B4
:1011500006FB07FC42EA90124FEA80604FEA1C4C03
:101160000CFB0BF7D21B03FB0CF761EB07010CFB2D
:101170000EF7B0EB074072EB17420CFB08F734BFD9
:10118000A2EB0742B2EB074261EB17414FEA8C55E5
:101190004FEA910704EB9C2406FB07FC4FEA1C4C2A
:1011A0000CFB0BF7B0EBC74072EB573203FB0CF7AD
:1011B00034BFA2EBC742B2EBC74261EB57310CFB25
:1011C0000EF7B0EBC70072EB57720CFB08F734BF99
:1011D000A2EBC702B2EBC70261EB577115EB4C25CE
:1011E0004FEA816141EA92114FEA82624FEAD137B8
:1011F00042EA901206FB07FC44F100044FEA8060CB
:101200004FEA1C4C0CFB0BF7D21B03FB0CF761EBFA
:1012100007010CFB0EF7B0EB074072EB17420CFB1B
:1012200008F734BFA2EB0742B2EB074261EB17416C
:1012300015EB1C154FEA813141EA92414FEA8232A7
:1012400042EA90424FEA80304FEA0C7644F10004C3
:1012500048EA03434EEA0B484FF0000EB2EB080C8D
:1012600071EB030724BF624639464EEB0E0E4FF07A
:10127000000B0018524149414BEB0B0BB2EB080C31
:1012800071EB03077BF1000B24BF624639464EEB3E
:101290000E0E4FF0000B0018524149414BEB0B0B67
:1012A000B2EB080C71EB03077BF1000B24BF624625
:1012B00039464EEB0E0E51EA020718BF46F0010602
:1012C00016EB0E7655F1000254F1000103D5BDE88E
:1012D0008901BDE80088BDE88901BDE80048B6196C
:1012E000524141EB0101A3F10103704780807F7EF1
:1012F0007D7C7B7A7978777676757473727171708C
:101300006F6E6E6D6C6C6B6A6A696868676666653D
:101310006464636362616160605F5F5E5E5D5D5CCB
:101320005C5B5B5A5A59595858575756565555553C
:101330005454535352525251515050504F4F4F4E9C
:101340004E4D4D4D4C4C4C4B4B4B4A4A4A494949EA
:10135000484848474747474646464545454444442C
:1013600044434343434242424241414146EA0646E6
:10137000A3F570534FEA164646EA42564FEAD22288
:1013800042EA415210B54FEAD121A3F1010300F026
:101390002FF820F0004000F1020C00F0004701EBB4
:1013A00000501146BCF5006F40EA070000D210BDA6
:1013B000BAF1000F0AD01CB503B44FF004004FF08F
:1013C00004014FF000000FBCBDE810404FF00001D9
:1013D000BBF1010FB9BF04484FF0FF3103480021B2
:1013E00040EA070010BD00BFFFFFEF7F0000F07F65
:1013F000002B9C4630D477002BD01CB54FEA370722
:1014000003B44FF010004FF01001BAF1000F06D0F6
:10141000BCF1000FDCBF40F0080040F008014FF0C5
:1014200000000FBCBDE810400BF1010BBBF1010F38
:1014300008BF5FEA170722BF12F1010211F1010193
:101440004FF0004143F1000300F0004043EA000088
:101450007047F9D35708D0E746EA064613F1400F24
:101460004FEA16461FDD13F1200FDFBF16430A4671
:10147000002120335B42BED0C3F1200746EA064676
:1014800002FA07F74FEA164646EA0706C3F12007B5
:1014900022FA03F201FA07F721FA03F14FF00003F1
:1014A00042EA0702A7E746EA020646EA06464FEA8C
:1014B000164646EA0106BCBF46EA0646360C4FF021
:1014C00000034FF000024FF0000194E72DE9804C3B
:1014D0009A46934670B491E8380007C831EA400C48
:1014E00048BF34EA430C03D5FFF7A4FDFFF780FFA4
:1014F000F0BCBDE8008C2DE9804C9A46934670B450
:1015000091E8380007C831EA400C48BF34EA430C80
:1015100003D5FFF78FFDFFF729FFF0BCBDE8008C76
:101520002DE9804C9A46934670B491E8380007C87C
:1015300010F0804F08BF13F0804F03D100F01AF86D
:10154000FFF756FFF0BCBDE8008C2DE9804C9A46B1
:10155000934670B491E8380007C810F0804F08BF78
:1015600013F0804F03D100F005F8FFF7FFFEF0BC49
:10157000BDE8008C20F07F4780EA030023F07F4C19
:1015800007EB0C03A3F57C5300F00040A3F1FE032E
:1015900092F0000F00F0B38095F0000F00F077801C
:1015A0002DE901494FEA11404FEA144621EA00486B
:1015B00000FB06FC24EA064708FB06F607FB08F8D2
:1015C00000FB07F718EB06484CEB164C4FEA124BA2
:1015D00018EB07484FEA15464CEB174022EA0B4E32
:1015E0000BFB06FC25EA06470EFB06F607FB0EFE84
:1015F0000BFB07F71EEB064E4CEB164C4FF00006AC
:101600001EEB074E4CEB174B18EB0B0840F100009C
:1016100018EB0E0B58EB000840F100008F1A4FF04A
:1016200000013CBFC943661B14BFB5EB040C00218D
:101630003CBFC943F61B4FEA17444EEA8E0E27EA19
:1016400004454FEA1C4704FB07622CEA074C05FBE4
:1016500007F70CFB05F604FB0CFC16EB074642EB08
:10166000174216EB0C4642EB1C421BEB060658EBEE
:101670000202414146EA9E0601D5BDE80189B6193C
:10168000524141EB0101A3F10103BDE801894FEA99
:1016900014454FEA114724EA054621EA074C05FBA9
:1016A00007F406FB07F70CFB06F105FB0CFC11EB3E
:1016B000074144EB17444FEA124711EB0C4144EB4E
:1016C0001C4422EA074C05FB07F206FB07F70CFB5C
:1016D00006F605FB0CFC16EB074642EB174216EB31
:1016E0000C4642EB1C456A1854F1000148BF704794
:1016F000B619524141EB0101A3F10103704795F086
:10170000000F37D04FEA11424FEA144721EA024650
:1017100024EA074C02FB07F106FB07F70CFB06F473
:1017200002FB0CFC14EB074441EB17414FEA154751
:1017300014EB0C4441EB1C4125EA074C02FB07F576
:1017400006FB07F70CFB06F602FB0CFC16EB074644
:1017500045EB174516EB0C4645EB1C42121951F1AF
:10176000000148BF7047B619524141EB0101A3F196
:10177000010370474FEA14454FEA114724EA054632
:1017800021EA074C05FB07F106FB07F70CFB06F205
:101790004FF0000605FB0CFC12EB074241EB174132
:1017A00012EB0C4251EB1C4148BF7047921841EBC1
:1017B0000101A3F10103704721B1826842F00102E7
:1017C000826003E0826822F001028260704721B1EA
:1017D000826842F48072826003E0826822F4807240
:1017E0008260704700B58BB00121084601F0B4FA61
:1017F000114800F087F911480090801506901048B4
:101800000190002002900A904FF4806007908020A1
:1018100005900020049020200890000209900420E8
:1018200003906946044800F013FA0121024800F0D1
:101830005DF90BB000BD0000080002404C240140DF
:101840003004002010B504461248844208D101211A
:10185000401501F0C1FA0021601501F0BDFA17E052
:101860000D48844208D10121001501F0B5FA00218C
:10187000201501F0B1FA0BE00848844208D101219B
:10188000C80301F0A9FA00214FF4004001F0A4FAC6
:1018900010BD00000024014000280140003C014030
:1018A000014600208A6802F004020AB1012000E02B
:1018B00000207047014600208A6802F008020AB141
:1018C000012000E00020704730B5024600200023D0
:1018D00050680F4C20400D790C6844EA05242043E1
:1018E000506090680B4C2040D1E902542C434D7954
:1018F00044EA450420439060D06A20F470000C7CD8
:10190000641EE4B2234340EA0350D06230BD0000BD
:10191000FFFEF0FFFDF7F1FFF0B504460D46002095
:101920000021092D11DDE068A5F10A0606EB460746
:10193000072606FA07F18843A5F10A0606EB4606D4
:1019400003FA06F10843E0600CE0206905EB450767
:10195000072606FA07F1884305EB450603FA06F168
:1019600008432061072A0FDA606B561E06EB8607D4
:101970001F2606FA07F18843561E06EB860605FA6F
:1019800006F10843606322E00D2A0FDA206BD61FB0
:1019900006EB86071F2606FA07F18843D61F06EBDB
:1019A000860605FA06F10843206310E0E06AA2F11A
:1019B0000D0606EB86071F2606FA07F18843A2F1FB
:1019C0000D0606EB860605FA06F10843E062F0BD57
:1019D000816841F008018160704721B1826842F45A
:1019E000A002826003E0826822F4A0028260704755
:1019F000816841F0040181607047000000B587B044
:101A000001214FF4017001F0D7F94FF4004001F0CB
:101A100097F90F20ADF8040000208DF8070001A908
:101A2000284800F034F92848FFF70CFF0020029006
:101A300001208DF80C008DF80D004FF4602004900B
:101A40000020059004208DF8180002A91E48FFF719
:101A50003BFF0723012200211B48FFF75DFF0723FF
:101A6000022201211848FFF757FF07230322022112
:101A70001548FFF751FF0723042203211248FFF7FF
:101A80004BFF01211048FFF7A2FE01210E48FFF78E
:101A900093FE0D48FFF79CFF00BF0B48FFF70AFFBE
:101AA0000028FAD10848FFF7A3FF00BF0648FFF758
:101AB000F7FE0028FAD101210348FFF78EFF07B097
:101AC00000BD0000000801400024014000BFFEE707
:101AD00000F0805111B10349086001E002494860FB
:101AE00070470000040402400000024021B1026877
:101AF00042F00102026004E002684FF6FE731A40F1
:101B00000260704701684FF6FE72114001600021CB
:101B1000016041608160C1604B49884208D14A49F7
:101B20000839496841F00F01474A083A51608AE094
:101B300045491431884208D143490839496841F080
:101B4000F001414A083A51607DE03F49283188421E
:101B500008D13D490839496841F470613A4A083A68
:101B6000516070E038493C31884208D13649083923
:101B7000496841F47041344A083A516063E032499F
:101B80005031884208D130490839496841F4702100
:101B90002D4A083A516056E02B496431884208D1F9
:101BA00029490839496841F47001274A083A5160C7
:101BB00049E025497831884208D1234908394968E4
:101BC00041F07061204A083A51603CE01F49884268
:101BD00006D1011F096841F00F01021F116032E0B8
:101BE0001A491431884208D11849091F096841F07F
:101BF000F001164A121F116025E01449283188426D
:101C000008D11249091F096841F470610F4A121F77
:101C1000116018E00D493C31884208D10B49091F79
:101C2000096841F47041094A121F11600BE007492D
:101C30005031884207D10549091F096841F47021D4
:101C4000024A121F11607047080002400804024057
:101C500010B50022026847F6F0739A430C6A8B684D
:101C600023430C6923434C6923438C692343CC6988
:101C700023434C6A23438C6A23431A430260CB6894
:101C800043600B6883604B68C36010BD70472DE9EB
:101C9000F0410246002500260020002300240027F2
:101CA00091F803C00CF00F0591F803C00CF0100C74
:101CB000BCF1000F03D091F802C04CEA050591F881
:101CC00000C0BCF1000F31D0146800202BE04FF0B1
:101CD000010C0CFA00F3B1F800C00CEA03069E42B6
:101CE00020D183004FF00F0C0CFA03F7BC4305FA28
:101CF00003FC4CEA040491F803C0BCF1280F06D1A0
:101D00004FF0010C0CFA00FCC2F814C00AE091F884
:101D100003C0BCF1480F05D14FF0010C0CFA00FCD8
:101D2000C2F810C0401C0828D1D31460B1F800C01C
:101D3000BCF1FF0F34DD546800202EE000F1080CE8
:101D40004FF0010808FA0CF3B1F800C00CEA0306E2
:101D50009E4221D183004FF00F0C0CFA03F7BC43D5
:101D600005FA03FC4CEA040491F803C0BCF1280F07
:101D700005D100F1080C08FA0CF8C2F8148091F8AB
:101D800003C0BCF1480F07D100F1080C4FF0010867
:101D900008FA0CF8C2F81080401C0828CED3546012
:101DA000BDE8F081F0B50A4600230024002100259B
:101DB00000F00046B6F1004F02D11D4EF16901E07E
:101DC0001B4E7168C0F3034583B200F44016B6F5AC
:101DD000401F08D121F07061154E766826F07066BC
:101DE000134F7E6012E000F48016B6F5801F06D116
:101DF000032606FA05F4A14341F0706106E0460DA2
:101E0000360103FA06F6B14341F0706122B1460D86
:101E1000360103FA06F6314300F00046B6F1004FF2
:101E200002D1034EF16101E0014E7160F0BD00008E
:101E30000000014000B58DB00D208DF8300003206A
:101E40008DF8310002208DF8320001208DF833002A
:101E50000CA800F093FC0121084600F07DFF1D480E
:101E6000FFF750FE1C4801901C4802900020039090
:101E7000C820049000200590802006900020079044
:101E8000089009904FF400500A9000200B9001A98F
:101E90001048FFF7DDFE00210F48001F01F058FD3C
:101EA0004FF40030FFF714FE4FF48020FFF710FED0
:101EB00001210848FFF71AFE012240210648001FB1
:101EC00001F052FD01210448001F01F041FD0DB059
:101ED00000BD0000300002400448004030050020F2
:101EE00010B54FF4165001F0B9FBFFF7A3FF10BD7A
:101EF0002A4800780A2821D100202849087028485B
:101F000000680A2190FBF1F040F67B41484342F221
:101F1000107190FBF1F023490880214840680A21A4
:101F200090FBF1F02049898848431E4948800020F1
:101F30001B49086048608860C86020E01748007846
:101F4000401C16490870164800681849098808445A
:101F500013490860084640681449498808441049F4
:101F60004860084680681149898808440C4988609F
:101F70000846C0680D49C98808440949C86008482E
:101F800000680A2190FBF1F040F67B41484342F2A1
:101F9000107190FBF1F080B2704700004004002007
:101FA0008804002038040020980400203004002019
:101FB00000BFFEE72DE9F0470746894616461D4655
:101FC0000024A0460121574800F078F906E0B4F556
:101FD000807F02D90020BDE8F087641C5249514837
:101FE00000F02EF90028F2D000247806010E00221D
:101FF0004C4800F0F5F905E0B4F5807F01D90020E8
:10200000E9E7641C4949474800F01AF90028F3D071
:1020100000244946434800F0ECF905E0B4F5807F20
:1020200001D90020D7E7641C4049891E3D4800F0D3
:1020300007F90028F2D00024012D03D001213948EE
:1020400000F0F2F80121374800F038F905E0B4F566
:10205000807F01D90020BEE7641C3349314800F07D
:10206000EFF80028F3D02F481430008800247806B9
:10207000010E01222B4800F0B3F905E0B4F5807F92
:1020800001D90020A7E7641C2749491C254800F016
:10209000D7F80028F2D0234814300088214818309F
:1020A000008800244FF0010810E000BF1E493F31B6
:1020B0001C4800F0C5F80028F8D01A4800F08CF948
:1020C00006F8010B08F1010000F0FF08A845ECDB61
:1020D000012D07D000BF14493F31124800F0B0F87D
:1020E0000028F8D000210F4800F09EF8012D01D003
:1020F000012000E0002001460A4800F0EBF8094802
:1021000000F06AF9307000BF07493F31054800F020
:1021100097F80028F8D00121024800F085F8002047
:1021200059E700000054004001000300820007004E
:102130002DE9F047064689461746984600240025B3
:1021400001212C4800F0BAF806E0B4F5807F02D9EE
:102150000020BDE8F087641C2749264800F070F88D
:102160000028F2D000247006010E0022214800F061
:1021700037F905E0B4F5807F01D90020E9E7641C58
:102180001E491C4800F05CF80028F3D000244946A2
:10219000184800F02EF905E0B4F5807F01D9002041
:1021A000D7E7641C1549891C124800F049F800283B
:1021B000F2D00024002514E0795D0E4800F019F9F2
:1021C00005E0B4F5807F01D90020C2E7641C0B490B
:1021D000891C084800F034F80028F2D00024681C5C
:1021E000C5B24545E8DB0121024800F073F8012043
:1021F000AFE7000000540040010003008200070028
:1022000013B50446012301AA9DF804102046FFF7E8
:10221000D1FE1CBD37B504460D46012302AA29464E
:102220002046FFF785FF3EBD21B1028842F480625F
:10223000028004E002884FF6FF331A4002807047A4
:1022400070B502460024002500230020958A138BD8
:102250001B0445EA030626F07F4404EA01068E4289
:1022600001D1012000E0002070BD21B1028842F0C0
:102270000102028004E002884FF6FE731A400280D9
:102280007047000010B504460B48844209D1012173
:10229000480500F081FD00214FF4001000F07CFDA6
:1022A00008E00121880500F077FD00214FF480004F
:1022B00000F072FD10BD00000054004021B1028802
:1022C00042F48072028004E002884FF6FF631A40F5
:1022D0000280704721B1028842F40072028004E05B
:1022E00002884FF6FF531A40028070472DE9F043F1
:1022F00085B004460D460026B1460427DFF8CC80A1
:10230000A6884FF6C0700640684600F075FDDDF8FF
:1023100008802F48B8FBF0F01FFA80F946EA09065A
:10232000A68020884FF6FE710840208000262949AB
:10233000286888420CD828684000B8FBF0F087B2C3
:10234000042F00DA04273E4309F10100208427E02E
:10235000E8884BF6FF71884206D1286800EB400000
:10236000B8FBF0F087B209E0286800EBC00101EB90
:102370000010B8FBF0F087B247F48047C7F30B00BA
:1023800008B947F0010747F4004006434FF4967040
:1023900009FB00F04FF47A7190FBF1F0401C2084AF
:1023A000A683208840F00100208026884FF6F53073
:1023B0000640A8886989084306432680A889298998
:1023C0000843208105B0BDE8F083000000127A00C8
:1023D00040420F00A08601000146088AC0B2704743
:1023E00012B141F0010102E04FF6FE731940018283
:1023F00070470182704700002DE9FF5F4FF0000A2F
:10240000DFF888B00E236A463B216820FFF7D2FD33
:102410000FE0012000EB4A001DF800001DF81A1023
:1024200040EA012000B22BF81A000AF1010000F086
:10243000FF0ABAF1070FECDB144800894D3800B2EF
:102440001249088108464089143001B20F48418181
:102450008089083801B20D4881810146B1F9060032
:1024600002F077F880460A4A0A4B02F0C5F80646A1
:102470000022094B01F046FF044602F03BF800B28F
:102480000249C880012004B0BDE8F09FA8040020E4
:102490002E8ECA4DD4D2D23F008AAC4010B58022D5
:1024A0006B216820FFF7B6FEC82001F0FBFC00227C
:1024B0006B216820FFF7AEFE10221B216820FFF77A
:1024C000A9FE08221C216820FFF7A4FE05221A217C
:1024D0006820FFF79FFE002238216820FFF79AFE50
:1024E00000226A216820FFF795FE00222321682040
:1024F000FFF790FE802237216820FFF78BFE7521C1
:102500006820FFF77DFE682808D101226B21FFF7C4
:1025100081FE00226C216820FFF77CFE012010BDA7
:102520002DE9FF5F8849B1F9000002F015FD04466E
:1025300086480168204602F08FFB84490860824982
:10254000B1F9020002F008FD0446804841682046C7
:1025500002F082FB7D4948607B49B1F9040002F03A
:10256000FBFC044679488168204602F075FB7749F8
:102570008860774800780A2190FBF1F201FB120095
:10258000002873D1714A9168906802F031FD6F4A5A
:1025900003905168506802F02BFD82466B4A116827
:1025A000106802F025FD8346514602F055FB814636
:1025B000039902F051FB044602F022FB074601F0AA
:1025C0001CFE054601F06CFE6249086062496148E4
:1025D000006802F0D9FD42D260495E48006802F00E
:1025E000D3FC3CD25849B1F9040002F0B5FC0546D1
:1025F0005549B1F9000002F0AFFC0646294601F04A
:1026000077FC0446564902F095FB4F49C863B1F97F
:10261000020002F0A1FC05464B49B1F9000002F0AE
:102620009BFC0646294601F063FC04464C4902F037
:1026300081FB45494863B1F9020002F08DFC054673
:102640004149B1F9040002F087FC0646294601F031
:102650004FFC0446424902F06DFB3B498863002071
:102660003B490870394988604860086038480078FC
:10267000401C374908703449B1F90A0002F06CFC7B
:10268000019002F0BDFA8046364A374B01F0B4FFA4
:10269000364A374BCDE9020101F0AEFF04460D4644
:1026A0002949C86B02F0ACFA064622462B4602F0D6
:1026B000BDF9824601F0F4FD2349C863B1F90C006D
:1026C00002F04AFC019002F09BFA8246254A264B12
:1026D00001F092FF8046254A254B01F08DFF04460C
:1026E0000D461949486B02F08BFA064622462B46E6
:1026F00001F008FECDE9020101F0D2FD1249486364
:10270000B1F9080002F028FC019002F079FA0646BF
:10271000144A154B01F070FF8246144A144B01F025
:102720006BFF04460D460849886B02F069FA2246A1
:102730002B46CDE9020102F079F9804601F0B0FDA7
:1027400001498863BDE8FF9FA8040020F40400202D
:10275000580400205C040020007C92470010A4472D
:1027600034FA8E3CB0977D893E409F3F7B14AE4744
:10277000E17A843F00BFFEE77047000070B500219A
:1027800000230F22C47804B3154C246804F4E064D9
:10279000C4F5E064210AC1F10403CA40447804FA94
:1027A00003F184781440214309010E4C0678A155A9
:1027B000047804F01F050124AC4005786D11AD00CC
:1027C00005F1E025C5F8004109E0047804F01F0593
:1027D0000124AC40044D0678761145F8264070BDC2
:1027E0000CED00E000E400E080E100E0024901437C
:1027F000024A1160704700000000FA050CED00E08D
:1028000070B5002418E004F1B000002100F0A4F934
:102810000021084600F0A0F90021102000F09CF9EA
:10282000002505E00121002000F096F9681CC5B2E2
:10283000802DF7DB601CC4B2082CE4DB70BD10B542
:102840000021AE2000F088F9022000F066F8002197
:10285000A62000F081F90021B02000F07DF90021D0
:10286000402000F079F90021A02000F075F9002146
:10287000C02000F071F90021D32000F06DF9002193
:10288000084600F069F90021DA2000F065F900211E
:10289000122000F061F90021A82000F05DF900216C
:1028A0003F2000F059F90021D52000F055F9002112
:1028B000F02000F051F90021D92000F04DF900215D
:1028C000222000F049F90021DB2000F045F9002129
:1028D000492000F041F900218D2000F03DF9002150
:1028E000142000F039F90021AF2000F035F9FFF78E
:1028F00087FF10BD70B504460E46154636B12B460F
:10290000224640213C20FFF713FC05E02B462246DF
:1029100000213C20FFF70CFC70BD10B504460021DF
:10292000812000F019F90021204600F015F910BDB2
:1029300070B504460D4605F1B000002100F00CF919
:10294000102141EA1410002100F006F904F00F00F4
:10295000002100F001F970BD2DE9F04705460E4653
:10296000174698460024A146A7F12000C4B27F2D47
:1029700004DDA5F18000C5B2701CC6B2B8F1100F1D
:1029800019D131462846FFF7D3FF124901EB041055
:1029900008220121FFF7AEFF701CC1B22846FFF7E5
:1029A000C7FF082101EB04110A4A881808220121F7
:1029B000FFF7A0FF0CE031462846FFF7B9FF04EB14
:1029C0004401054A02EB410006220121FFF792FF74
:1029D000BDE8F08714560008EC5300082DE9F84FC5
:1029E0000546894690461E46DDE90A74A24604EB78
:1029F000DA71491001FB0651C8B223462E2249461E
:102A0000FFF7AAFF404602F08BFA82463346524651
:102A100049462846009400F023F83E4604E00F495A
:102A2000404602F0E5FA8046301EA6F10101CEB222
:102A3000F5D1404602F074FA8346A24604EBDA71FF
:102A4000491001FB0751891DC8B23B465A46494609
:102A5000009400F005F8BDE8F88F00000000204168
:102A60002DE9FF5F0646174698460E9C4FF0000A78
:102A7000002F0CDA7F4223462D2230460199FFF7C2
:102A80006BFF204604EBD07106EB6101CEB200254E
:102A900037E0A8EB0500401EC1B20A2001F0A2FBFE
:102AA000B7FBF0F00A21B0FBF1F201FB1209BAF119
:102AB000000F15D1A8F10100A84211DDB9F1000FF6
:102AC0000CD1A34604EBDB71491001FB0561C8B2D0
:102AD000234620220199FFF73FFF10E04FF0010A43
:102AE000A34604EBDB71491001FB0561C8B209F193
:102AF0003001CAB223460199FFF72EFF00BF681CC0
:102B0000C5B24545C5DBBDE8FF9F2DE9F041044650
:102B1000884615461E46002719E0EA5D33464146C1
:102B20002046FFF719FF102E01D1082000E00620F3
:102B30002044C4B2782C08DD0024102E01D10220DC
:102B400000E00120404400F0FF08781CC7B2E85DB7
:102B50000028E2D1BDE8F08170B504460D462DB1E4
:102B6000E2B240213C20FFF755FB04E0E2B2002135
:102B70003C20FFF74FFB70BD30B589B004460D46D1
:102B80000121032000F0F8F801210D2000F014F9D4
:102B900001214948FFF706F901214848FFF702F9EA
:102BA00001214748FFF7FEF801214648FFF7FAF8F0
:102BB0003B20ADF8200018208DF8230003208DF86D
:102BC000220008A94048FFF762F84FF40040ADF832
:102BD000200018208DF8230003208DF8220008A97A
:102BE0003A48FFF754F8ADF81840ADF814500020FB
:102BF000ADF81A00ADF8160005A9354800F0DCFC68
:102C000005A94FF0804000F0D7FC7020ADF804001B
:102C10000120ADF806000220ADF80C0001A92C48F7
:102C200000F066FB01A92A4800F018FC01A9284819
:102C300000F06EFC01A94FF0804000F059FB01A9A3
:102C40004FF0804000F0AAFB0821214800F09CFBD7
:102C500008211F4800F0F4FB08211D4800F04EFC3D
:102C600008211B4800F092FC0821C80600F08CFBEC
:102C70000821C80600F0E4FB0121154800F012FB12
:102C80000121880700F00EFBFA201249088040F26B
:102C90001630488040F2C120888040F2EE20C88083
:102CA00008814FF4FA70488101460A488181C18148
:102CB0000182418209B030BD00081A0000011800ED
:102CC0000001300000023000000C0140000801400B
:102CD00000040040F805002010B516480088154A89
:102CE0005289104481B2144800F05DFC11484288BA
:102CF0008089104481B2104800F05BFC0D48828846
:102D0000C089104481B20C4800F051FC0948C288C7
:102D1000008A104481B24FF0804000F044FC054826
:102D20000289408A104481B24FF0804000F03DFC9F
:102D300010BD0000F80500200004004070470000AE
:102D400001460020034A506820F440400843506088
:102D5000704700000010024029B1064A5269024340
:102D6000044B5A6104E0034A52698243014B5A61A1
:102D7000704700000010024029B1064AD2690243A0
:102D8000044BDA6104E0034AD2698243014BDA6101
:102D9000704700000010024029B1064A1269024340
:102DA000044B1A6104E0034A12698243014B1A6121
:102DB000704700000010024029B1064A92690243A0
:102DC000044B9A6104E0034A92698243014B9A6181
:102DD000704700000010024029B1064AD268024341
:102DE000044BDA6004E0034AD2688243014BDA60A4
:102DF000704700000010024030B50021002200247E
:102E000000232D4D6D6805F00C0121B1042905D07A
:102E1000082923D105E0294D056022E0274D0560F2
:102E20001FE0254D6D6805F47012234D6D6805F4A3
:102E30008034022505EB92421CB9214D55430560B3
:102E40000BE01D4D6D6805F400351DB11C4D55435B
:102E5000056002E0194D5543056002E0174D05601D
:102E600000BF00BF144D6D6805F0F0010909154D54
:102E70006B5C0568DD4045600F4D6D6805F4E061F1
:102E8000090A104D6B5C4568DD4085600A4D6D6830
:102E900005F46051C90A0B4D6B5C4568DD40C560A7
:102EA000054D6D6805F44041890B074D6B5CC568A5
:102EB000B5FBF3F5056130BD0010024000127A0049
:102EC00000093D004104002051040020704710B566
:102ED00000F002F810BD00000CB500200190009039
:102EE0003348006840F480303149086000BF304802
:102EF000006800F4003000900198401C0190009898
:102F000018B90198B0F5A06FF1D12948006800F414
:102F1000003010B10120009001E0002000900098E6
:102F2000012843D12348006840F01000214908607F
:102F30000846006820F0030008600846006840F07A
:102F4000020008601A48406819494860084640680D
:102F500048600846406840F4806048600846406821
:102F600020F47C1048600846406840F4E81048604F
:102F70000846006840F08070086000BF0C48006898
:102F800000F000700028F9D00948406820F00300E4
:102F9000074948600846406840F00200486000BFAA
:102FA0000348406800F00C000828F9D10CBD00006F
:102FB000001002400020024010B586B0002401211C
:102FC0000920FFF7F9FE01214805FFF7D5FE012191
:102FD0000220FEF7E7FE4FF44070ADF814001C200D
:102FE0008DF8170003208DF8160005A91548FEF787
:102FF0004EFE1548FFF746F90020ADF808004FF4E3
:103000008060ADF80E000001ADF810004BF6FF70C7
:10301000ADF80A000D4801900120ADF80C0001A99F
:103020000948FFF763F901210748FFF71EF901215D
:103030000548FFF74FF901210348FFF73FF906B0B4
:1030400010BD0000000C014000540040400D030082
:10305000042808D14FF0E021096941F004014FF044
:10306000E022116107E04FF0E021096921F004013D
:103070004FF0E022116170477047000010B513480F
:10308000006840F001001149086008464068104996
:1030900008400E494860084600680E4908400B4940
:1030A00008600846006820F48020086008464068F0
:1030B00020F4FE0048604FF41F008860FFF707FF10
:1030C0004FF000600449086010BD0000001002408D
:1030D0000000FFF8FFFFF6FE08ED00E07FB50446B4
:1030E0000D460121C802FFF767FEADF80840681ED3
:1030F00080B2ADF804000020ADF80A00ADF806007B
:103100008DF80C0001A90F4800F056FA01210D4876
:1031100000F0C2F8012241210A4800F0E0F819202D
:103120008DF8000000208DF801008DF802000120CC
:103130008DF803006846FFF721FB0121014800F0EC
:10314000B1F87FBD002C01401CB54D4800786428C3
:1031500003D100204A49087004E049480078401C27
:1031600047490870FEF7C4FEFFF746F9FFF7D8F9A4
:103170004349087800EBD0714910A0EB410109B137
:10318000FFF7AAFD3E480078192190FBF1F201FB00
:10319000120008B900F00AFD01213A4800F08EF84B
:1031A00018B10121374800F07AF837480078002834
:1031B00064D00020344908700C2000903348B0F9E6
:1031C0000620042300210846FFF74AFC0C2000904B
:1031D0002F480278022300214C20FFF741FC0C20ED
:1031E00000902B484278022300216220FFF738FC30
:1031F0000C20009026488278022300217420FFF7DB
:103200002FFC0C2000902248B0F92A200523012130
:103210000B20FFF725FC0C2000901D4890F828207B
:10322000022301215A20FFF71BFC0C200521CDE9C8
:10323000001017480B460221026A0020FFF7CEFB60
:103240000C200521CDE9001011480B460321426AEC
:103250000020FFF7C3FB0C2000900D48B0F92C2094
:10326000032302215A20FFF7FBFB0C2006230090CA
:103270000848032102685A20FFF7F2FB1CBD00003A
:1032800012000020002C01407E040020A804002031
:10329000000500200C000020CA4302827047CA4388
:1032A0000282704721B1028842F00102028004E0EC
:1032B00002884FF6FE731A400280704730B502460E
:1032C000002000230024158A05EA0103958905EAF8
:1032D000010413B10CB1012000E0002030BD1AB18F
:1032E00083890B43838102E083898B438381704709
:1032F00070B5002400220023058C4FF6FE76354081
:103300000584028C8388048B4FF68F752C40B51E84
:103310002C400D882C43751E2A400D892A434D8868
:103320002A43144DA8420BD0134DA84208D0134D88
:10333000A84205D0124DA84202D0124DA84213D186
:103340004FF6F7752A404D892A434FF6FB752A4000
:103350008D882A434FF6FF652B404FF6FF552B40D3
:103360008D892B43CD892B4383800483CD8885862B
:10337000028470BD002C0140003401400040014037
:1033800000440140004801400A460021018B4FF6ED
:10339000F7731940114301837047000070B5002492
:1033A00000220023058C4FF6EF7635400584028C11
:1033B0008388048B48F6FF752C404FF6FF452C4060
:1033C0000D884FF6FF7606EA05252C434FF6DF758C
:1033D0002A400D8906EA05152A434D8806EA051597
:1033E0002A43154DA84202D0144DA8421DD14FF6D4
:1033F0007F752A404D894FF6FF7606EA05152A4368
:103400004FF6BF752A408D8806EA05152A434FF608
:10341000FF352B404FF2FF752B408D8906EA85055D
:103420002B43CD8906EA85052B4383800483CD8811
:103430000587028470BD0000002C0140003401406B
:103440000A460021018B4FF2FF7319404FF6FF73BC
:1034500003EA0223194301837047000070B500247A
:1034600000220023058C4FF6FF6635400584028C50
:103470008388848B4FF68F752C404FF6FC752C405B
:103480000D882C434FF6FF552A400D894FF6FF76E5
:1034900006EA05252A434D8806EA05252A43154DE7
:1034A000A84202D0144DA8421DD14FF2FF752A4008
:1034B0004D894FF6FF7606EA05252A434FF6FF357C
:1034C0002A408D8806EA05252A434EF6FF752B40D3
:1034D0004DF6FF752B408D8906EA05152B43CD89E6
:1034E00006EA05152B4383808483CD888587028473
:1034F00070BD0000002C0140003401400A4600214C
:10350000818B4FF6F7731940114381837047000098
:1035100070B5002200230024058C4EF6FF7635405E
:103520000584038C8488828B48F6FF752A404FF609
:10353000FF452A400D884FF6FF7606EA05252A4307
:103540004DF6FF752B400D8906EA05352B434D8856
:1035500006EA05352B430B4DA84202D00A4DA8427E
:1035600008D14BF6FF752C408D894FF6FF7606EAA1
:1035700085152C4384808283CD88A0F84050038435
:1035800070BD0000002C0140003401400A460021BB
:10359000818B4FF2FF7319404FF6FF7303EA02234A
:1035A00019438183704781867047018770478187FF
:1035B0007047A0F840107047002202881D4B9842C7
:1035C0000ED01D4B98420BD0B0F1804F08D01B4B52
:1035D000984205D01A4B984202D01A4B984204D117
:1035E0004FF68F731A404B881A43174B984207D0F7
:1035F000164B984204D04FF6FF431A40CB881A432B
:1036000002808B8883850B8803850A4B98420BD0F8
:10361000094B984208D00E4B984205D00D4B98426A
:1036200002D00D4B984201D10B7A0386012383828D
:1036300070470000002C01400034014000040040AD
:1036400000080040000C0040001000400014004042
:1036500000400140004401400048014010B586B0E0
:10366000044601218804FFF787FB01210820FFF7AA
:10367000A3FB4FF40060ADF8140004208DF8170090
:1036800005A91748FEF703FB27208DF8000003204B
:103690008DF801008DF8020001208DF803006846C6
:1036A000FFF76CF801940020ADF80800ADF80A00AF
:1036B000ADF80C00ADF810000420ADF80E0001A923
:1036C000084800F07FF9012240F22441054800F04B
:1036D00054F90121034800F03BF906B010BD000089
:1036E000000C01400048004070B59048406B19281C
:1036F00012D28F4800888E48001D00888B48006BCE
:1037000000F0FE0089490863C82048630846006B42
:1037100040F00100086370BD8648C06880F4005026
:103720008449C86000208449087000BF824801783D
:103730000078401C804A10708048405C4E28F5D1CB
:103740007E4912781144481CFCF792FD00B27C4976
:10375000888500BF784801780078401C764A107050
:103760007648405C242803D010460078C728F1DB57
:1037700071480078C72800D1CDE770496E480078BD
:10378000801D085C303800EB8000082101EB40010F
:103790006A4A69480078C01D105C3038084468499E
:1037A0000870084600780978182901DB182100E024
:1037B0000021401A6249087060495F48007809306A
:1037C000085C30380A465C4909780831515C303968
:1037D00001EB810100EB4100594948701146564800
:1037E00000780B30085C3038534909780A31515C55
:1037F000303901EB810100EB4100514988704E489E
:10380000007810304C49087011464B4A12788818DD
:1038100000F010FB044600F043FD4949086200BF78
:10382000454801780078401C434A10704348405C8A
:103830002C28F5D100BF404801780078401C3E4A52
:1038400010703E48405C2C28F5D13C49127888180D
:1038500000F0F0FA044600F023FD3949486200BF49
:10386000354801780078401C334A10703348405C7A
:103870002C28F5D100BF304801780078401C2E4A32
:1038800010702E48405C2C28F5D100BF2A480178E2
:103890000078401C284A10702848405C2C28F5D13C
:1038A000264912788818FCF7E3FC254981F828009E
:1038B00000BF214801780078401C1F4A10701F4843
:1038C000405C2C28F5D100BF1B4801780078401CD3
:1038D000194A10701948405C2C28F5D11749127804
:1038E0008818FCF7C5FC00B2154948850F48006BE5
:1038F00000F0FE000D490863C82048630846006BCD
:1039000040F00100086301200E4908700E4800686D
:1039100000EB40000D49086000200B490860044896
:1039200000880348001D008800BFF4E60000024044
:1039300000480040001001407D04002030050020B8
:10394000000500207E040020080000200C0000205C
:1039500021B1828942F40052828104E082894DF6CD
:10396000FF731A40828170471AB1838A0B438382A6
:1039700002E0838A8B4383827047F0B503460024BC
:1039800000260025002040F66A17B94200D100BF8A
:103990001846C1F3421401F01F06012707FA06F585
:1039A000012C01D10C3004E0022C01D1103000E0D8
:1039B00014301AB107682F43076002E00768AF436D
:1039C0000760F0BD2DE9F04786B005460E4600249D
:1039D000A24600BFA1460027B08900B100BF2F4614
:1039E0002C8A4CF6FF700440F08804432C82AC898A
:1039F0004EF6F3100440B0883189084371890843BA
:103A00000443AC81AC8A4FF6FF400440B0890443C4
:103A1000AC8201A8FFF7F0F91F48874202D1DDF818
:103A200010A001E0DDF80CA0A88900F4004040B12E
:103A30000AEBCA0000EB0A1031684900B0FBF1F84C
:103A400007E00AEBCA0000EB0A1031688900B0FBFE
:103A5000F1F86420B8FBF0F004012009642101FBB7
:103A60001089A88900F4004040B1322000EBC90061
:103A7000B0FBF1F000F00700044308E0322000EB57
:103A800009106421B0FBF1F000F00F0004432C8119
:103A900006B0BDE8F08700000038014000BFFEE737
:103AA00000B58DB00E208DF8300003208DF8310068
:103AB00002208DF8320001208DF833000CA8FEF7AB
:103AC0005DFE01210846FFF747F93048FEF71AF876
:103AD0002F4801902F48029010200390049000205E
:103AE00005908020069000200790089009904FF4E0
:103AF00040500A9000200B9001A92448FEF7A8F836
:103B00004FF48050FDF7E4FF00212048FDF7EEFF61
:103B100001210846FFF720F91C481430FDF7F2FF99
:103B20001B4801901C48029000200390082004903C
:103B300000200590802006900020079008900990B2
:103B40004FF440500A9000200B9001A90F48143008
:103B5000FEF77EF84FF48030FDF7BAFF01210B48E5
:103B60001430FDF7C3FF00210948001FFFF7F0FEE6
:103B70000122C0210648001FFFF7F6FE012104487C
:103B8000001FFFF7E5FE0DB000BD0000440002403D
:103B9000043801400C0600207F04002010B54FF4CB
:103BA000165000F06DF8FFF77BFF10BD70B50024D4
:103BB0002D48B0F92A000A2190FBF1F02B4908703A
:103BC000294890F82C004870294800880A2190FB69
:103BD000F1F0264988702749C86B274901F008FA97
:103BE000054601F09DF900B2204988812149886B82
:103BF000214901F0FDF9054601F092F900B21B4997
:103C0000C8811C48B0F9060042F210710844C8216E
:103C100090FBF1F01549C8701349486A164901F044
:103C2000E7F9054601F07CF900B2104908810E4918
:103C3000086A114901F0DCF9054601F071F900B29A
:103C40000A49488108E0094800790849095D0844A3
:103C500006490871601CC4B2102CF4D30121074836
:103C6000FDF744FF70BD0000000500200C06002099
:103C700038040020A80400200000C842440002408C
:103C800010B586B0044601218803FFF775F80121BD
:103C90000820FFF791F84020ADF8140003208DF8BC
:103CA000160018208DF8170005A91C48FDF7EFFF36
:103CB0008020ADF8140028208DF8170005A91748BA
:103CC000FDF7E5FF25208DF8000003208DF80100A9
:103CD0008DF8020001208DF803006846FEF74EFDC6
:103CE00001940020ADF80800ADF80A00ADF80C0012
:103CF000ADF810000420ADF80E0001A90848FFF748
:103D000061FE012240F224410548FFF736FE012101
:103D10000348FFF71DFE06B010BD0000000C014077
:103D20000038014040F2013200204FF0E04101F044
:103D300011BB0000024A0020110701F00BBB00007C
:103D400001FDFFFF10B50446D1E9000100F002F8C3
:103D5000206010BDF8B504460D466A4600F08AF9A9
:103D600000987E30009000281EDC0022134620467A
:103D7000294600F083FB17D0002140F608004FF0E1
:103D8000000006462046294600F08AFA044640F61E
:103D9000080006EA00014FF0000034F0004004BFC4
:103DA0000220FCF77EFA29E00098FF2828DB00219A
:103DB00008464FF0000000F440060022134620465B
:103DC000294600F017FD8CBF002501250220FCF7D5
:103DD00068FA4FF0FF4446B1002D0CBF4FF40000CD
:103DE0004FF48000B04218BF084C042108464FF041
:103DF0000000002D04BF84F00040F8BD2046F8BD4F
:103E000020462946BDE8F84000F04ABAFFFF7F7F10
:103E100010B504460A46D4E90003194600F056F9E5
:103E2000C4E9000110BD30380A2801D201207047D2
:103E30000020704730B583B00446FCF72DFA0546E4
:103E40000020CDE90000024621466846FCF74EFA04
:103E50002846FCF726FADDE9000103B030BD00007A
:103E600010B56FF00400FFF7F3F80A4800680A493C
:103E7000B0FBF1F0094908700846007800EB4001FA
:103E8000C1EBC0104FF6FF7101EAC0000449088081
:103E900010BD00001400002000127A00280000204D
:103EA0002A0000200146114A12884A434FF0E023BD
:103EB0005A6100229A611A46126942F001021A619F
:103EC00000BF4FF0E022106900F001021AB100F4C7
:103ED0008032002AF5D04FF0E022126922F0010270
:103EE0004FF0E0231A6100229A6170472A000020F7
:103EF0002DE9FE4F814688460021484600F0DCFF50
:103F000006D10021404600F0D7FF01D10024A4E0F3
:103F10000021484601F038F901D2484601E089F015
:103F2000004083460021404601F02EF901D2404670
:103F300001E088F0004082465146584601F024F8DE
:103F400005D25146584600F0F5FE074604E05946B2
:103F5000504600F0EFFE07464149384601F014F89C
:103F600001D23D462BE04FF08741384601F040F842
:103F70004FF07C51019001F043F90290029800F05B
:103F8000CFFF0646304600F0E7FF0190029901F0AE
:103F90002CF90290334850F82650024652F8261069
:103FA0000346721C53F8220001F02AF9009002998E
:103FB00001F01EF82946019000F04EFE05465946D4
:103FC000504601F0E1F820D20021404601F0DCF833
:103FD00009D80021484601F0D7F801D82C463CE02A
:103FE00085F0004439E0204C0021484601F0CCF82F
:103FF00005D82946204601F003F904462DE0214664
:10400000284601F0FDF8044627E00021484601F06B
:10401000BBF811D8154C0021404601F0B5F805D881
:104020002946204601F0ECF8044616E029462046D1
:1040300000F012FE044610E00D4C0021404601F055
:10404000A3F805D82946204600F006FE044604E001
:104050002946204601F0D4F804462046BDE8FE8FEC
:104060008180803B2C000020DB0F4940DB0FC93FE3
:10407000DB0FC9BF10B5144600222260114A21F09F
:1040800000439342A8BF10BD53EA000208BF10BD11
:10409000B3F5801FA8BF226807DA362201F05AF96B
:1040A0006FF0350221F000432260DFF81CC06FF38F
:1040B0001E510CEB23531A4441F0FF5141F00051C3
:1040C000226010BD0000F07F02FCFFFF2DE9F041EF
:1040D00006460C4640F2FF75174635EA14502BD0C1
:1040E00000221346304600F0C9F925D03A46304642
:1040F000214601F02FF906460C4635EA145010D03F
:1041000000221346304600F0B9F915D10220FCF721
:10411000C8F8FFF70FFE0A46214662F31E01BDE80C
:10412000F0810220FCF7BDF8FFF7FCFD0A462146AE
:1041300062F31E01BDE8F08130462146BDE8F08102
:10414000012080F3108800BF4FF4A060FEF74EFB03
:10415000FFF786FEFEF730FF902142F21070FEF767
:104160000BFDFDF74BFCFDF73DFBFFF717FDFDF7E2
:10417000B7FE4FF47A714FF43470FEF7AFFF64204E
:10418000FFF790FEFEF78AF9FEF759FB10230CA209
:1041900000210846FEF7B9FC10230DA202210020E1
:1041A000FEF7B3FC002080F3108800BF07E00A2070
:1041B000FFF778FE0A480068401C09490860F6E7E6
:1041C0002020206354696D653A20203A20203A006F
:1041D000483A2020204D202047505378000000000E
:1041E0000800002010B50246012000E050430B1EDD
:1041F000A1F10104E1B2F9D110BD2DE9F04106466B
:104200000F4600F02DFB041E0D4618BF0120284369
:1042100020F00040C0F17F6000F1E040C00F0ED000
:10422000301C18BF0120384320F00040C0F17F60EF
:1042300000F1E040C00F04BF0120FCF732F8204637
:104240002946BDE8F081000010B500290AD00878A1
:10425000002807D005487844FCF7F6FB002801D079
:10426000002010BD0248784410BD0000721A000002
:104270006A1A000010B500290AD00878002807D073
:1042800005487844FCF7E0FB002801D0002010BD71
:104290000248784410BD0000621A00005A1A00005B
:1042A00021F00042A2F16052B2F5801F01F00043FC
:1042B00028BFD2F17F6C0BD95FEA001C43EAC2022F
:1042C00042EB507018BF704728BF20F001007047C4
:1042D000B2F5801FBCBF184670474FEA410C1CF571
:1042E000001F02D2084600F04ABF70B500F02EFA57
:1042F00000000089FFF7F6BF4FF00040A0F58000F6
:104300007047000010B591EA030F48BF83F00043E7
:1043100000F19483841A71EB030C05D2121943EB5C
:104320000C03001B61EB0C01DFF824E14FEA115490
:10433000A4EB135C1EEA430F18BF9EEA445F73D0E0
:1043400023EA0E03DCF1200E21EA045143F480132A
:1043500032D322FA0CFE10EB0E0023FA0CFE41EBD6
:104360000E01CCF1200E03FA0EFE10EB0E0051F1FF
:104370000001B1F5801FCCF1200E32D201EB0451C7
:1043800012FA0EF2BDE8104058BF7047401C38BF0B
:104390005FEA420218BF7047002814BF20F00100F6
:1043A00041F100014FEA410313F5001F38BF704788
:1043B000A1F1C04100F018BA012A43EB0302ACF1AD
:1043C000200CDCF11F0E32BF4FF0000E23FA0CF36D
:1043D00010EB030041EB0451B4EB115FD0D0A1EB23
:1043E000045101F5801149085FEA300001EB0451E6
:1043F0000ED350F1000038BF12FA0EFE08D1BDE80E
:104400001040C9E7401C38BF5FEA4202CAD1C3E787
:10441000BDE810404FEA410313F5001F38BF704755
:10442000A1F1C04100F0E0B99EEA445F08D011EA72
:104430005E0FBDE8104004BF01F00041002070474E
:10444000BDE8104070B500F081F900BF64FBBE3ECE
:104450000000E0FF02494FF0000000F049BF00BF3C
:104460000000F87F491058BFC1F140415B1058BFB0
:10447000C3F140438B42EFF30080704751EA030CD5
:1044800017D41CF5801F58BFBCF5801F00F10680B3
:10449000994218BF704708BF9042704707D711F57F
:1044A000801F58BF13F5801F19D499427047894265
:1044B00070471CF5801F08D5BCF5801FF7D58B42CF
:1044C00018BF704708BF824270474FF4001C1CEBB6
:1044D000410F38BF1CEB430F01D28B42704770B5C0
:1044E00000F034F9922449004FF000514FF080530E
:1044F000FFF7B8BF4FEA41034FEA5353A3F5806378
:10450000D3F11E03C8BFD3F1210C0CDD4FF00042E4
:1045100042EAC12242EA505232FA03FC8CEAE17CC0
:10452000ACEBE1707047102BC4BF0020704703F55F
:10453000787CBCF1FF3F04D06FF0004282EA21009A
:10454000704770B500F002F949922480002070474E
:10455000F2E710F0004248BF4042B0FA80F310FA90
:1045600003F10AD0C3F11D0303F580634FEA415004
:1045700002EB035202EBD12170474FF0000070476D
:1045800051EA030C17D41CF5801F58BFBCF5801FDF
:1045900000F10680994218BF704708BF90427047EB
:1045A00007D711F5801F58BF13F5801F19D4994202
:1045B0007047894270471CF5801F08D5BCF5801FE5
:1045C000F7D58B4218BF704708BF824270474FF43F
:1045D000001C1CEB410F38BF1CEB430F01D28B4278
:1045E000704770B500F0B2F8922449004FF00051C6
:1045F0004FF08053FFF736BFDFF848C170B51CEAB3
:10460000111E1EBF1CEA13159EEA0C0F95EA0C0F33
:1046100000F06F8081EA030423EA4C134EEAD47E53
:1046200021EA4C1141F4801143F48013AE44A1FB04
:10463000024CA0FB0365AEF17F7E361955EB0C05ED
:10464000A1FB034C4CF10003A0FB021C16EB0C0673
:10465000654153F10003094218BF46F0010613F407
:10466000007F0BD14FEA03314FEA0530340341EAB2
:10467000155140EA16506FF003020AE04FEAC321D9
:104680004FEAC520F40241EA555140EA56506FF016
:10469000020202EB2E4201EB025585EACE710AD0EE
:1046A0005FEA440C18BF24F0004450F1000041F1CF
:1046B000000120EAD47040F2FE7C624500D270BD59
:1046C000A84214BF4FF080444FF04044002E08BF72
:1046D0000024BEF1806FA8BFA1F1C041BDE87040C9
:1046E00080F282804FF0000001F1C04101F00041F2
:1046F00070479EEA0C0F0CEA131518BF95EA0C0FD1
:1047000006D04FF0000081EA030E0EF0004170BDAC
:1047100000F01CF88900013E00F007B800F009B86D
:104720004FEA430C5FEA5C5C08D081EA030100F0C9
:104730005BB84FEA410C5FEA5C5CF6D14FF00000D9
:10474000014970470000FF070000F87F0EF1020EDC
:104750002EF0030E5EF8046B364205D4012A43EBBB
:10476000030515F5001F12D8012841EB010C1CF5BB
:10477000001F0CD80ED14FEAD17C15F5001F0CEBB1
:104780004C0C0CF1020C08BF4CEBD37C04E04FF056
:10479000080C01E04FEAD37C0CEB4C0526FA05F639
:1047A00006F00706B6F1040C06D20EEB860CBDE847
:1047B00070404CF0010C6047DFE80CF0090B02027E
:1047C0004FF000414FF00000A1F5002170BD1946E7
:1047D0001046012851EB010418BFD4F5001484BF22
:1047E000002001F0004170BD0808A0F500114FEA5B
:1047F0003101704753EA010C17D41CF5801F58BFD4
:10480000BCF5801F00F106808B4218BF704708BFBF
:104810008242704707D713F5801F58BF11F5801FDC
:1048200019D48B4270479B4270471CF5801F08D5F6
:10483000BCF5801FF7D5994218BF704708BF90425A
:1048400070474FF4001C1CEB430F38BF1CEB410FAB
:1048500001D2994270470FB40CBC03BCFFF7C1BE34
:104860002DE9F04101F5801CBCF5001FC0F2C380AA
:104870004FEA115C21EA0C510CF1FD0C41F480115E
:104880005FEA5C0C0CF5C07C01D3400049413DA4BB
:10489000890241EA905187028E0E0A0CA45D04FB46
:1048A00004F602FB06F6C6F14046A4FB0662F60DCE
:1048B00046EA422606FB06F4A4FB01235242C3F15A
:1048C000404338BF5B1EA6FB02420024E6FB0324E4
:1048D000D20B42EA4446A6FB0623A1FB02E2A3FB5D
:1048E00007E4A4184FF0000252F10002E3FB01427A
:1048F0006442C2F1404E38BFAEF1010EA6FB042364
:104900004FF00002E6FB0E32A2FB03464FF000041C
:10491000B61954F10004E2FB0264A1FB06E6A4FB15
:1049200007E816EB08064FF0000858F10008E4FB12
:1049300001687642C8F1405838BFA8F10108A2FBCF
:1049400006E4A3FB08E52D194FF0000454F1000420
:10495000E2FB0854A1FB05E6A7FB04E818EB0608F8
:104960004FF0000656F10006E1FB048618F1200521
:1049700056F10006A809A8F11B08B10908F03F0884
:10498000B8F10A0F40EA86601CD901EB0C51BDE872
:10499000F08100BFFCF5EEE8E2DDD8D3CFCBC7C392
:1049A000C0BDB9B6B4B1AEACA9A7A5A3A19F9D9B4C
:1049B0009A9896959392908F8D8C8B89888786850F
:1049C00084838281A0FB006800FB01F208EB4208AF
:1049D000B8EB872807D5341858EB0104D5D5401C0F
:1049E00051F10001D1E7341A78EB0104CDD4401E17
:1049F00071F10001C9E75FEA4C0C5FEA9C5C0DD1E4
:104A000005D34FF0000001F00041BDE8F081BDE8A2
:104A1000F04170B5FFF79AFE6DDBFFBEBDE8F041D7
:104A20004FF00000004970470000F87F10B591EA90
:104A3000030F48BF83F000433FF56CAC841A71EB61
:104A4000030C07D212198CF0004C43EB0C03001B33
:104A500061EB0C01DFF8A4E14FEA1154A4EB135C05
:104A60001EEA430F18BF9EEA445F00F0B08023EABD
:104A70006E03524221EA0451C3EB6E0338BF5B1E42
:104A8000DCF1200E25D322FA0CFE10EB0E0043FAC7
:104A90000CFE41EB0E01CCF1200E03FA0EFE10EBE2
:104AA0000E0051F10001CCF1200E29D412FA0EF2C1
:104AB00001EB0451BDE8104058BF7047401C1CBFBB
:104AC000B2F1004F704700280CBF491C20F00100D4
:104AD000704712EB020E43EB030218BF4FF0010EBA
:104AE0004EEA4202ACF1200CDCF11E0E54D943FA1E
:104AF0000CFE10EB0E0051F1FF31CCF11E0ED5D59E
:104B00000EF1010E12FA0EFE404141EB010101EBE4
:104B1000445C5FEA5C5C10D910EBDE7001EB045181
:104B200038BFBEF1004FBDE8104018BF70470028E5
:104B30000CBF491C20F00100704730D24FEAD42C42
:104B400011F5001124F400641BD0B1FA81F20B3A84
:104B5000A41AA41ED2F12003914030FA03F31943A2
:104B6000904001EBCC71002C01EB0451BDE81040EA
:104B7000A8BF704701F1C0414FF0000001F00041B3
:104B80007047B0FA80F310FA03F100D110BDE41AB7
:104B9000173C4805C90AE4E701EB045110BD491070
:104BA00001EB0451BDE810404FEA300002E04FF045
:104BB000000170474A0008BF0042F8D0B2F5001F5C
:104BC00028BF704701F000414FF0000070479EEA97
:104BD000445F07D011EA5E0FBDE8104004BF00211A
:104BE00000207047BDE8104070B5FFF7AFFD00BF73
:104BF00040DFF63E83F00041104670470000E0FFC2
:104C000043004FEAD30C4FEA3C0C43401FBF400720
:104C10000CF1605113F0FE4F70471CF0006F03D190
:104C200000200CF0004170470CF0004343EA507044
:104C300010B540EACC0000F05CFA00BF0000009222
:104C40004FEA0001FFF7D0BD4FF000414FF00000E8
:104C5000A1F500217047000090EA010F48BF81F0E4
:104C6000004100F1D482421A3CBF801A89184FEAF1
:104C7000D0524FF07F4C1CEA410FA2EBD15318BF2A
:104C80009CEA026F00F03B804FF0004C4CEA0020A1
:104C90004CEA012121FA03FC10EB0C0C1ED202F1AC
:104CA000FF325FEA1C2040EBC25038BF70471CF057
:104CB0007F0F4FEA400C18BFBCF17F4F38BF7047E1
:104CC000C3F12003994008BF20F00100BCF17F4FE1
:104CD00038BF7047A0F1C04000F051BA4FEA3C0025
:104CE000000A40EBC25028BF1CF0FF0F4FEA400CF7
:104CF000E6D018BFBCF17F4F38BF7047EAE79CEAA7
:104D0000026F05D010EA5C0F08BF00F0004070474A
:104D100010B500F0EEF900BF64FBBE3E401058BF76
:104D2000C0F14040491058BFC1F140418142EFF30A
:104D3000008070474FF47F0C1CEAD0121EBF1CEAA3
:104D4000D11392EA0C0F93EA0C0F00F0858090EAE1
:104D5000010F48BF42F4807240F4000C41F400009F
:104D60002CF07F4120F07F4000B58142A2EB03028E
:104D70000FF2081CACEB504EC0F100009EF800E0B2
:104D80004FEA4E0E00FB0EFC38BF49004FEA2C1CC8
:104D900002F5FA020CFB0EF34FEACE1E4FEA112C7D
:104DA0004FEAC1210EEB635E42EB22420EFB0CFC8C
:104DB0004FEA1C5300FB03114FEA112C4FEA01315B
:104DC0000EFB0CFC4FEADC4C00FB0C11C14228BF6F
:104DD00009184CEB03335DF804EB10EB410143EB96
:104DE000C250B2F57C0F38BF704729D512F0F00FD2
:104DF0001CBF00F1C04000F000407047008182837A
:104E00008485868788898B8C8D8E8F9192939596D9
:104E100097999A9C9D9FA0A2A3A5A7A8AAACAEB063
:104E2000B2B3B5B7B9BCBEC0C2C5C7C9CCCED1D468
:104E3000D7D9DCDFE2E6E9ECF0F3F7FAFE00000098
:104E40004FEA400C0CF1807CBCF17E4F28BF7047CC
:104E5000B0F1C04000F093B990EA010F0CEAD11311
:104E600048BF42F48072624538BF634507D213F4ED
:104E70007F0F16D080EA010000F00040704710B5A7
:104E800000F037F9097EFC3E00F005B880EA010029
:104E900000F00040704780EA010000F0004000F0A0
:104EA0006EB912F47F0F04BF0248704780EA010018
:104EB00000F065B90000C07F50EA010C00F11380DA
:104EC0001CF5000F58BFBCF5000F01D48842704795
:104ED00007D710F5000F58BF11F5000F15D4884201
:104EE0007047894270471CF5000F04D5BCF5000FD0
:104EF000F7D5814270474FF0807C1CEB400F38BFE4
:104F00001CEB410F01D28142704710B500F0F1F85F
:104F1000922449004FF000504FF08051FFF7FEBE41
:104F200041000B0ED3F19E0208D950F400034FEA62
:104F3000032323FA02F048BF4042704710B500F047
:104F4000D8F800BF49922480002070476FF00042DB
:104F500082EA20007047000010F0004148BF404244
:104F6000B0FA80F310FA03F2C3F19D030BD051EABB
:104F7000C35101EB1220530638BF704700F1010006
:104F800008BF20F00100704750EA010C00F11380C7
:104F90001CF5000F58BFBCF5000F01D488427047C4
:104FA00007D710F5000F58BF11F5000F15D4884230
:104FB0007047894270471CF5000F04D5BCF5000FFF
:104FC000F7D5814270474FF0807C1CEB400F38BF13
:104FD0001CEB410F01D28142704710B500F089F8F7
:104FE000922449004FF000504FF08051FFF796BED9
:104FF0004FF47F0C1CEAD0121EBF1CEAD11392EAB8
:105000000C0F93EA0C0F00F0478090EA010F48BFA5
:1050100042F480724FF0004C4CEA00204CEA01212F
:1050200002EB0302A0FB0113A2F50002002918BF46
:1050300043F001035B0028BF4FEA330342EB2242F7
:105040005FEA132C4CEBC2502EBFBCEB436FB2F5A2
:105050007C0F70474FEA036CBCF1004F08BF20F093
:105060000100B2F57C0F38BF70470BD582F0FF020C
:1050700012F5803FC8BF704700F1C040D8BF00F0B4
:105080000040704700F5000C5FEA4C0C48BF7047C9
:10509000B0F1C04000F073B890EA010F0CEAD113F0
:1050A00048BF42F48072624538BF634504D280EA4B
:1050B000010000F00040704710B500F01AF800BF82
:1050C0008900013E00F007B800F009B85FEA410C22
:1050D0005FEA1C6C08D080EA010000F050B85FEA7B
:1050E000400C5FEA1C6CF6D14FF00040A0F5800048
:1050F00070470EF1020E2EF0030E5EF8044B2442B0
:1051000004D44FEA4102B2F17F4F11D84FEA400375
:10511000B3F17F4F0CD80ED14FEAD07CB2F17F4F64
:105120000CEB4C0C0CF1020C08BF4CEBD17C04E0F6
:105130004FF0080C01E04FEAD17C0CEB4C0324FA51
:1051400003F404F00704B4F1040C06D20EEB840C53
:10515000BDE810404CF0010C6047DFE80CF0070898
:1051600002024FF00040A0F5800010BD084642004A
:1051700018BFD2F1807288BF00F0004010BDFF213F
:1051800041EAD050C005704751EA000C00F113808D
:105190001CF5000F58BFBCF5000F01D481427047C9
:1051A00007D711F5000F58BF10F5000F15D4814235
:1051B0007047894270471CF5000F04D5BCF5000FFD
:1051C000F7D5884270474FF0807C1CEB410F38BF09
:1051D0001CEB400F01D28842704780EA010081EA4F
:1051E000000180EA0100FFF7F8BE80F0004090EA7D
:1051F000010F7FF538AD81F0004100F008B80000E4
:1052000090EA010F48BF81F000413FF52CAD421AF2
:1052100004D882F00042A0EB020011444FEAD052C1
:105220004FF07F4C1CEA410FA2EBD15318BF9CEA10
:10523000026F4AD04FF0004C4CEA00204CEA0121AA
:1052400021FA03FCB0EB0C0C0FD412F0FE0F36D099
:105250005FEA4C001DD5001240EBC25038BF7047CA
:105260001CF03F0F18BF70470BE0A2F101025FEA8C
:105270001C2040EBC25038BF70471CF07F0F18BF96
:105280007047C3F12003994014BF401E20F0010075
:10529000704780084FEA122308BF7047B0FA80FCBD
:1052A000A2EB0C02CCF1280C60FA0CF093EA122F5E
:1052B00004BF00EBC25070474FEAC3707047130A37
:1052C0005FEADC1008BF7047F6E79CEA026F04D083
:1052D00010EA5C0F08BF0020704710B5FFF709FF08
:1052E00040DFF63E81F0004070474FF0000070470D
:1052F0000CF00F03092B08BF082000F05F800A2B79
:105300000BD0082B18BF704708BF1CF0400F0AD005
:105310004FF000004FF0000170471CF0400F18BF25
:105320004FF0004070471CF0100F08D020F0704381
:1053300000F07F4242EAD3014FEA4370704700F029
:10534000604021F07F4242EA000201F07F4040EAE3
:10535000727070474FF0FF0C4CF4E06C1CEA115374
:105360001CBF9CEA030C9445C2BFDA4201EB025118
:105370007047002B0DD0BCF1000F0FD0002A01F0B8
:105380000041A4BF41F0E04141F07F614FF00000D7
:10539000704701F000414FF00000704750EA0133C0
:1053A0004FF09B0C18BF4CF0806C7FF453A87047F3
:1053B000FBF7EAB9FBF7FABBFBF788BD1CF4801FCB
:1053C00011D01CF4E02F03D06FEACC3149007047B4
:1053D0004FF04050EFF3008222F0704242EA0002A8
:1053E00082F3008870474FF0000070470000000013
:1053F00000000000002F000000000700070000145C
:105400007F147F1400242A7F2A1200626408132369
:1054100000364955225000000503000000001C2200
:105420004100000041221C000014083E081400083E
:10543000083E0808000000A06000000808080808EE
:10544000000060600000002010080402003E514986
:10545000453E0000427F4000004261514946002124
:1054600041454B31001814127F100027454545393E
:10547000003C4A4949300001710905030036494999
:10548000493600064949291E000036360000000052
:10549000563600000008142241000014141414149D
:1054A0000000412214080002015109060032495946
:1054B000513E007C1211127C007F49494936003E62
:1054C00041414122007F4141221C007F494949411D
:1054D000007F09090901003E4149497A007F080817
:1054E000087F0000417F4100002040413F01007FD4
:1054F00008142241007F40404040007F020C027FA0
:10550000007F0408107F003E4141413E007F0909B1
:105510000906003E4151215E007F091929460046D7
:10552000494949310001017F0101003F4040403FAE
:10553000001F2040201F003F4038403F00631408F8
:1055400014630007087008070061514945430000D3
:105550007F41410000552A552A55000041417F00F6
:1055600000040201020400404040404000000102EB
:105570000400002054545478007F484444380038D4
:105580004444442000384444487F0038545454185C
:1055900000087E0901020018A4A4A47C007F08046E
:1055A00004780000447D4000004080847D00007F3E
:1055B000102844000000417F4000007C041804785B
:1055C000007C0804047800384444443800FC242457
:1055D00024180018242418FC007C0804040800483F
:1055E0005454542000043F444020003C4040207C60
:1055F000001C2040201C003C4030403C004428104F
:105600002844001CA0A0A07C004464544C44141402
:10561000141414140000000000000000000000003A
:1056200000000000000000F800000000000000334F
:105630003000000000100C06100C060000000000F6
:105640000000000040C07840C0784000043F0404DF
:105650003F040400007088FC08300000001820FFA0
:10566000211E0000F008F000E018000000211C03DB
:105670001E211E0000F00888700000001E21232457
:105680001927211010160E00000000000000000075
:1056900000000000000000E0180402000000000705
:1056A0001820400000020418E0000000004020180C
:1056B00007000000404080F0804040000202010FDF
:1056C00001020200000000F0000000000101011FC3
:1056D00001010100000000000000000080B0700027
:1056E00000000000000000000000000000010101B7
:1056F0000101010100000000000000000030300046
:10570000000000000000000080601804006018061F
:105710000100000000E010080810E000000F102059
:1057200020100F00001010F8000000000020203FA3
:10573000202000000070080808887000003028242D
:1057400022213000003008888848300000182020CE
:1057500020110E000000C02010F8000000070424F3
:10576000243F240000F80888880808000019212038
:1057700020110E0000E0108888180000000F112092
:1057800020110E0000380808C83808000000003F4B
:10579000000000000070880808887000001C2221AA
:1057A00021221C0000E010080810E0000000312257
:1057B00022110F00000000C0C000000000000030F7
:1057C0003000000000000080000000000000806049
:1057D00000000000000080402010080000010204CA
:1057E00008102000404040404040400004040404B1
:1057F000040404000008102040800000002010086D
:1058000004020100007048080808F00000000030A1
:1058100036010000C030C828E810E000071827242F
:1058200023140B000000C038E0000000203C2302DD
:105830000227382008F8888888700000203F202040
:1058400020110E00C0300808080838000718202072
:105850002010080008F808080810E000203F202069
:1058600020100F0008F88888E8081000203F20204A
:105870002320180008F88888E8081000203F20003E
:1058800003000000C0300808083800000718202076
:10589000221E020008F808000008F808203F210135
:1058A00001213F20000808F8080800000020203FE0
:1058B0002020000000000808F8080800C080808050
:1058C0007F00000008F888C028180800203F200149
:1058D0002638200008F8080000000000203F2020A3
:1058E0002020300008F8F800F8F80800203F003FBA
:1058F000003F200008F830C00008F808203F2000D2
:1059000007183F00E01008080810E0000F102020E2
:1059100020100F0008F808080808F000203F2101B7
:1059200001010000E01008080810E0000F1824240E
:1059300038504F0008F8888888887000203F200081
:10594000030C302000708808080838000038202137
:1059500021221C00180808F8080818000000203F41
:105960002000000008F808000008F808001F2020A8
:1059700020201F000878880000C838080000073879
:105980000E010000F80800F80008F800033C0700CA
:10599000073C0300081868808068180820302C0332
:1059A000032C30200838C800C83808000000203F09
:1059B0002000000010080808C838080020382621F8
:1059C00020201800000000FE020202000000007FFC
:1059D00040404000000C30C000000000000000010A
:1059E0000638C00000020202FE00000000404040F5
:1059F0007F0000000000040202020400000000001A
:105A00000000000000000000000000008080808096
:105A1000808080800002020400000000000000007E
:105A20000000000000008080808000000019242217
:105A300022223F2008F8008080000000003F112053
:105A400020110E000000008080800000000E112058
:105A500020201100000000808088F800000E112036
:105A600020103F200000808080800000001F222244
:105A700022221300008080F0888888180020203FB0
:105A8000202000000000808080808000006B9494C3
:105A90009493600008F8008080800000203F21007F
:105AA00000203F2000809898000000000020203F48
:105AB00020200000000000809898000000C0808036
:105AC000807F000008F8000080808000203F2402D2
:105AD0002D302000000808F8000000000020203FC2
