:020000040800F2
:10000000A0070020E90100083F220008C91B0008E2
:100010003B22000871170008ED30000800000000C6
:10002000000000000000000000000000F72A0008A7
:1000300031190008000000006D270008C92C0008D5
:10004000030200080302000803020008030200087C
:10005000030200080302000803020008030200086C
:10006000030200080302000803020008030200085C
:10007000030200080302000803020008030200084C
:10008000030200080302000803020008030200083C
:10009000030200080302000803020008030200082C
:1000A000030200080302000803020008030200081C
:1000B000030200080302000803020008030200080C
:1000C00003020008030200080302000803020008FC
:1000D0000302000803020008030200082D2D000897
:1000E00003020008030200080302000803020008DC
:1000F00003020008030200080302000803020008CC
:1001000003020008030200080302000803020008BB
:1001100003020008030200080302000803020008AB
:10012000030200080302000803020008030200089B
:1001300000F002F800F048F80AA090E8000C8244B1
:100140008344AAF10107DA4501D100F03DF8AFF28E
:10015000090EBAE80F0013F0010F18BFFB1A43F0A5
:1001600001031847CC490000EC490000103A24BFB5
:1001700078C878C1FAD8520724BF30C830C144BF0C
:1001800004680C607047000000230024002500264E
:10019000103A28BF78C1FBD8520728BF30C148BFEA
:1001A0000B6070471FB500F093F904000020002198
:1001B00003F09EFA401C60600020002103F082FAE8
:1001C000E0601FBD10B510BD00F05CF91146FFF7EF
:1001D000E9FF03F0FFF800F009FC03B4FFF7F2FFBA
:1001E00003BC00F0E9FE00000948804709480047C9
:1001F000FEE7FEE7FEE7FEE7FEE7FEE7FEE7FEE7D7
:10020000FEE7FEE704480549054A064B7047000033
:10021000CD2C000831010008A0010020A00700201B
:10022000A0030020A003002070B5064600F00CF8E3
:100230000468054630460A22002100F067F82C6069
:1002400070BD7047704770470048704740010020FC
:1002500010B5FFF7F9FF006810BD10B50446FFF7B1
:10026000F3FF046010BD00000FB4002300B589B097
:100270000CA900910B99CB60214B7B440693214B39
:100280007B44079304236FF00042CDE901321E4AFC
:100290007A446B4608920246002003F0D4FF09B06E
:1002A0005DF814FB70B506464FF0FF3015460C465E
:1002B000324686B00091CDE90101694600200490E4
:1002C00004A8FFF7D1FF02460498211825B108B110
:1002D000084600E020462860049800280DD0002A37
:1002E00002DD0098884208D03246081B6946009417
:1002F000CDE9010404A8FFF7B7FF06B070BD000008
:100300002901000041010000010100002DE9F04732
:1003100091460F4680460446002614F8015B2DB135
:1003200000F030F80068405DC007F6D12B2D02D0F8
:100330002D2D18D0641E4A463946204600F053F849
:1003400027B13968A14201D1C7F800804FF00204FB
:1003500071050BD54042002803DDFFF775FF0460EF
:10036000A007BDE8F08746F48066E4E70028F8DAE5
:10037000FFF76AFF04606FF00040F2E70048704743
:100380004001002010B500F0A3F8001D10BD00BF13
:100390006133000010B50446FFF7F4FF0068005D0C
:1003A00000F0010010BD426842B1016811F8013B44
:1003B00023B1521EC0E90012184670470121C160E6
:1003C000881E704742685AB1C368016843B98368A0
:1003D0008B4205D0491E521CC0E900120020704714
:1003E0004FF0FF3070472DE9F05F824615468B468F
:1003F00000270AF10104B9460078302801D09DB1E8
:1004000013E014F8010B0127782803D0582801D0F5
:1004100045B10AE00DB1102D07D1002714F8010BEA
:10042000102502E0082500E00A250026B0460EE06F
:1004300005FB080005FB06F101271FFA80F801EB18
:100440001046B6F5803F00D3B94614F8010B294693
:1004500000F042F80028EBDABBF1000F05D00FB135
:10046000641E00E05446CBF80040B9F1000F06D0FE
:10047000FFF7EAFE02210160C81EBDE8F09F48EACE
:100480000640FAE77546FFF779FFAE460500694674
:10049000534620F00700854618B020B5FFF7B2FE9E
:1004A000BDE820404FF000064FF000074FF0000875
:1004B0004FF0000B21F00701AC46ACE8C009ACE8F6
:1004C000C009ACE8C009ACE8C0098D46704700001F
:1004D00000487047600100203A2800D2303820F0F0
:1004E0002002412A01D3A2F13700884201D34FF004
:1004F000FF3070472DE9FF4F06468BB00878FF2884
:1005000006D0491C2D2805D000244FF0000908E032
:1005100000200CE00124F8E709EB8903491C00EBFB
:1005200043090878FF28F7D114B1C9F100008146CA
:10053000107800252C46AA4629462D2801D02B28C4
:1005400004D1521C2D2813D0002082468B461078EF
:10055000FF280FD04FF0000C0A21521CA5FB017898
:1005600004FB018105FB0C11C5194BEB0104EEE7FF
:100570000120EAE7002108464FF00000BAF1000F21
:1005800002D000EB80004008C0F38157012F01DD4D
:100590004FF0FF370E9955EA040009EB01080BD024
:1005A0004FF0020918F5FA7F16DA4FEACA70002FE9
:1005B000706008DD012007E04FEACA70C6E900B0AC
:1005C0000FB0BDE8F08F00203060FFF73DFEC0F8AF
:1005D00000901821084616E0B8F5FA7F18DD002FC4
:1005E00002DAF748784401E0F6487844D0E9001090
:1005F000C6E9001040EACA707060FFF725FEC0F837
:100600000090142108460FB0BDE8F04F03F0B8BDCC
:10061000002108464FF00000B8F10001099002DA0D
:10062000C7F1000200E03A4601DAC8F1000106A86D
:1006300000F026FA06AB93E8070003AB83E8070057
:1006400044F23E005BEA04010090584604D144F2B3
:100650001E012C465D460091210C0904014306D180
:100660000099240444EA15442D041039009104F043
:100670007F41014306D10099240244EA15642D020A
:100680000839009104F07041014306D1009924011A
:1006900044EA15742D01091F009104F04041014303
:1006A00006D10099A40044EA9574AD00891E00911A
:1006B00004F00041084304D100986D196441401EC4
:1006C00000904FF001033A466846B8F1000FCDE9BB
:1006D000014503A902DD00F014FF01E000F0E7FE90
:1006E000BAF1000F04460D4601D084F00044002109
:1006F00008464FF00000099940F2FF77484010F09B
:100700000C0F07D124F00040284303D0C4F30A5053
:10071000B84212D1FFF798FDC0F80090C4F30A5018
:10072000B8420AD1A8487844D0E90010C6E90010C0
:1007300004F000410843706042E7C6E900543FE717
:100740002DE9FF4F1F464FF0000A4FF0FF38454696
:1007500091B0D7E90146CDF83CA0FFF7B9FEC068DB
:100760000168405C1090B96912986D1C8847396A1D
:10077000814688470028F6D1B9F1FF3F0AD0002E04
:1007800024F4D06411DDB9F12B0F08D0B9F12D0F8D
:100790000BD102E0404615B013E744F48064B96918
:1007A00012986D1C8847761E8146600504A901D504
:1007B0002D2000E02B20002E01F1010B0DF130085F
:1007C0008DF810003FDDB9F1690F08D0B9F1490F7C
:1007D00005D0B9F16E0F02D0B9F14E0F1CD13B46D6
:1007E00001A8009580E85002DDE912126FF00200C6
:1007F00003F02DFDC11CCED10EE0B96912986D1C1D
:10080000884781461398761E44F4007405600F985B
:10081000401C002E0F9016DDB9F1300FEDD0B9F16C
:10082000780F02D0B9F1580F0DD10F9801280AD1D5
:100830003B46CDE90054DDE91212001F029603F099
:1008400004FDC11CA7D1109989453ED144F0800414
:1008500006E01399681CAAF1010A44F400740860C8
:10086000B9696D1C1298761E884730288146F0D0F1
:100870002BE01099894505D1200603D4761E44F05B
:10088000800418E0484602F0B4FC08B3761E0DF16F
:1008900023018B4544F4007408D2A9F130000BF811
:1008A000010B200607D5AAF1010003E0200602D4BF
:1008B0000AF101008246A00502D51399681C086060
:1008C000B96912986D1C88478146002ED1DC53E02F
:1008D000002E51DDB9F1650F02D0B9F1450F4BD1B2
:1008E000A00549D5B9696D1C1298761E24F4407490
:1008F0008847002E81460CDD2B2804D0B9F12D0F3E
:1009000007D144F48074B96912986D1C8847761E2B
:100910008146E00501D52D2100E02B2108F8011BBF
:10092000CDF8008021E0761E0DF13901884544F4B0
:1009300000740CD2A9F1300010F0FF0088F800001C
:1009400002D10099884509D908F1010806E0E005BF
:1009500001D51E4801E042F20F708246B969129833
:100960006D1C8847814613980560002E04DD4846BB
:1009700002F03FFC0028D6D1F96912988847FF2081
:1009800053468BF8000088F8000000200A900B9076
:1009900004AA0CA90AA8FFF7ADFDA00502D46FF0C8
:1009A0000100F8E614F0240F12D0E0071CD13868DB
:1009B000DDE90A12031D3B600068C0E9001213E084
:1009C000704500006245000026440000F1D8FFFF9A
:1009D0000AA9684602F09CFBE00705D13868009A36
:1009E000011D3960006802602846D4E610B504464F
:1009F000AFF300802046BDE81040FFF7EEBB0000DB
:100A00004FF0013C50F8042B51F8043B9A4221D19D
:100A1000A2EB0C03934313EACC1317D150F8042B29
:100A200051F8043B9A4215D1A2EB0C03934313EA0D
:100A3000CC130BD150F8042B51F8043B9A4209D146
:100A4000A2EB0C03934313EACC13DBD04FF000006E
:100A5000704700BFD01A01BAB1FA81F101F0180154
:100A600022FA01F0CB40C1F12001DBB2C0B2C01AC2
:100A70002CFA01F3D11A914311EAC311E6D1704760
:100A80002DE9F047814616468AB0354878440DC8AE
:100A90008DE80D0032487844801C03AC0DC884E812
:100AA0000D0041F69B300844372190FBF1F290FB9A
:100AB000F1F5A5F1800501FB12041B3C02D564424F
:100AC000012000E00020DFF898A080460027FA44CB
:100AD000AAF1BE0A0EE0E0070AD03246684607EBEC
:100AE000470101230AEB810100F0F6FC8DE80700C5
:100AF00064107F1C002CEED1194F7F44AE3F19E0EB
:100B0000E80715D007EB04100DF1180A90E80E0065
:100B10008AE80E00C068F04201D198190890324668
:100B2000012306A903A800F0D7FC03AB83E8070064
:100B30006D10641C002DE3D14FF00103324669466D
:100B4000B8F1000F03A802D000F09CFC01E000F017
:100B5000C3FCC9E90001C9F808200AB0BDE8F08764
:100B6000884000002DE9FF4F1F464FF03C0987B039
:100B70004FF00042DDE9141001F10108DDF858A042
:100B800002EA405003900020059083460546044643
:100B90000490B969461E08988847AAF1010A029094
:100BA000BAF1000F3BDD02982E2815D01021FFF777
:100BB00093FC00282EDB4FF0010B0599014317D061
:100BC000B9F1000F0BDB4A46C11700F0FBF90543F2
:100BD0000C43A9F1040905E0012004900BE008B1E1
:100BE00045F0010501200590049820B9361D02E06A
:100BF000049800B1361FB969089808F101088847C0
:100C0000BBF1000FAAF1010A0290C9D00999C1F8FD
:100C10000080C5E70298702808D0502806D0F969EE
:100C200008988847BBF1000F14D04FE000200290D5
:100C30000120BBF1000F049009D0B969089808F1B0
:100C400001088847AAF10109B9F1000F07DCF96929
:100C5000089888476FF001000BB0BDE8F08F2B2893
:100C600004D02D280CD14FF0FF300490B9690898BA
:100C700008F101088847A9F10109B9F1000FE6DD83
:100C8000411CE4D00A21FFF727FC0028DFDB029992
:100C900008F1010801EB810100EB41000290B96904
:100CA000089888470A21FFF717FC099AA9F101095A
:100CB000B9F1000FC2F8008001DD0028E7DAF96918
:100CC000089888470499029800FB016655EA0400D9
:100CD00004D004F04041090002D006E0039898E0F7
:100CE000A40044EA9574AD00B61E04F0004108006B
:100CF00002D16D196441761E159810F0240F03D0AF
:100D00004FF00B095C4803E04FF028096FF07D00BD
:100D10008246564507DAAAEB06018944B9F1410F2C
:100D200001DD4FF0410901200021A9F1010200F08D
:100D300049F9024628400B462140084301D00121D1
:100D400000E00021501E029143F1FF312840214074
:100D5000084301D0012000E000200299834651EAB7
:100D60000B014FD0002108464FF00000039900F41A
:100D7000400039B100EB80004FF4400100EBD0702F
:100D800001EA60008015012802DD4FF0FF3000E02D
:100D900013D0401C36D0029860B3BBF1000F0CD1C9
:100DA0004A460120002100F00DF928402140084367
:100DB00001D0012000E00020E0B101204A460021DE
:100DC00000F000F9034640190A4661412D1A8C4192
:100DD00011D3B9F1400F09DD159810F0240F02D09E
:100DE000AAF1340603E0AAF1170600E0761C0025FC
:100DF0004FF0004406E05B1E42F1FF3220EA03059B
:100E000021EA0204CAF10100B04206DA1B49039844
:100E100008430190002000900EE0039AC4F3D32110
:100E2000E80A0A43164940EA44500A433146CDE9EC
:100E30000002684602F0D2F9159810F0240F0BD08A
:100E40001598C00715D13868DDE90012031D3B6015
:100E50000068C0E900120CE002A8694602F058F9E7
:100E60001598C00705D13868029A011D39600068DD
:100E700002604046F0E6000002FCFFFF0000F07F49
:100E80000000F03F2DE9FF4F92461D4685B04FF020
:100E90000041DDE9124BDDE914727F1E01EA4B507F
:100EA000414940F0FF4940EA0108002122F02000BA
:100EB0004928049102D04E2828D04CE03BA00126BE
:100EC00007C88DE80700A9690698641C88477F1E3B
:100ED000014606D41DF8060018B121F02001814218
:100EE0000BD0E96906988847032E34D0082E32D0FB
:100EF0006FF0010009B0BDE8F08F761C032E01D021
:100F0000082EE0D1601CCAF80000DCE7A969069849
:100F1000641C88477F1E2AD420F02000412826D157
:100F2000A9690698641C88477F1E20D420F0200001
:100F30004E281CD1A9690698641C88477F1E48F476
:100F4000002849F48009CAF8004001D4282806D0B6
:100F5000E969069888475FEACB7012D022E0A96958
:100F60000698641C88477F1E01D4002803DAE969CB
:100F700006988847BCE72928F1D1641CCAF80040CC
:100F8000E9E71BF0240F07D028680499031D2B60A4
:100F90000068C0E9001805E02868021D2A600068A2
:100FA000C0F800902046A5E70000F07F494E464972
:100FB0004E4954590000000001491820ABBEFEE71D
:100FC00026000200B2F120030AD5C2F1200301FA83
:100FD00002F120FA03F300FA02F041EA030170473C
:100FE00000FA03F14FF000007047704720F07F4C8B
:100FF00080EA030023F07F47ACEB070303F57C5343
:1010000000F0004003F1FF032DE980494FEA154B42
:1010100009B44FEA144325EA0B4E24EA03480FF2C1
:10102000042606EB132749083E785FEA320203FBE9
:101030000667C7F5000707FB06F64FEA54374FEA85
:10104000D64606F1020607FB066CCCF1005C4FEABF
:101050001C472CEA074C07FB06F40CFB06F504EBD7
:1010600015464FEA961634BF00204FF000404FEA75
:10107000D13706FB07FC4FEA1C4C0CFB0BF7D21BCD
:1010800003FB0CF761EB07010CFB0EF7B0EB07401D
:1010900072EB17420CFB08F734BFA2EB0742B2EB2E
:1010A000074261EB17414FEA0C444FEA910706FBF8
:1010B00007FC4FEA1C4C0CFB0BF7B0EBC74072EB84
:1010C000573203FB0CF734BFA2EBC742B2EBC74267
:1010D00061EB57310CFB0EF7B0EBC70072EB5772A8
:1010E0000CFB08F734BFA2EBC702B2EBC70261EBFF
:1010F0005771039F4FEA816141EA921104EBCC04DE
:101100004FEAD1374FEA826206FB07FC42EA9012AF
:101110004FEA80604FEA1C4C0CFB0BF7D21B03FB21
:101120000CF761EB07010CFB0EF7B0EB074072EB1D
:1011300017420CFB08F734BFA2EB0742B2EB0742A1
:1011400061EB17414FEA8C554FEA910704EB9C2461
:1011500006FB07FC4FEA1C4C0CFB0BF7B0EBC7403F
:1011600072EB573203FB0CF734BFA2EBC742B2EB72
:10117000C74261EB57310CFB0EF7B0EBC70072EBC7
:1011800057720CFB08F734BFA2EBC702B2EBC702E1
:1011900061EB577115EB4C254FEA816141EA9211E1
:1011A0004FEA82624FEAD13742EA901206FB07FC0F
:1011B00044F100044FEA80604FEA1C4C0CFB0BF733
:1011C000D21B03FB0CF761EB07010CFB0EF7B0EB36
:1011D000074072EB17420CFB08F734BFA2EB074243
:1011E000B2EB074261EB174115EB1C154FEA813159
:1011F00041EA92414FEA823242EA90424FEA80301D
:101200004FEA0C7644F1000448EA03434EEA0B48E7
:101210004FF0000EB2EB080C71EB030724BF6246DF
:1012200039464EEB0E0E4FF0000B0018524149416B
:101230004BEB0B0BB2EB080C71EB03077BF1000BD4
:1012400024BF624639464EEB0E0E4FF0000B0018DD
:10125000524149414BEB0B0BB2EB080C71EB03070E
:101260007BF1000B24BF624639464EEB0E0E51EA6D
:10127000020718BF46F0010616EB0E7655F1000284
:1012800054F1000103D5BDE88901BDE80088BDE83F
:101290008901BDE80048B619524141EB0101A3F1B3
:1012A0000103704780807F7E7D7C7B7A79787776BA
:1012B00076757473727171706F6E6E6D6C6C6B6A33
:1012C0006A696868676666656464636362616160D1
:1012D000605F5F5E5E5D5D5C5C5B5B5A5A5959584E
:1012E00058575756565555555454535352525251B8
:1012F000515050504F4F4F4E4E4D4D4D4C4C4C4B0E
:101300004B4B4A4A4A494949484848474747474654
:101310004646454545444444444343434342424290
:101320004241414146EA0646A3F570534FEA16464C
:1013300046EA42564FEAD22242EA415210B54FEAFB
:10134000D121A3F1010300F02FF820F0004000F1BB
:10135000020C00F0004701EB00501146BCF5006F95
:1013600040EA070000D210BDBAF1000F0AD01CB548
:1013700003B44FF004004FF004014FF000000FBC25
:10138000BDE810404FF00001BBF1010FB9BF0448A8
:101390004FF0FF310348002140EA070010BD00BFB5
:1013A000FFFFEF7F0000F07F002B9C4630D47700DA
:1013B0002BD01CB54FEA370703B44FF010004FF0A5
:1013C0001001BAF1000F06D0BCF1000FDCBF40F0F5
:1013D000080040F008014FF000000FBCBDE81040CD
:1013E0000BF1010BBBF1010F08BF5FEA170722BF2A
:1013F00012F1010211F101014FF0004143F100032C
:1014000000F0004043EA00007047F9D35708D0E7E6
:1014100046EA064613F1400F4FEA16461FDD13F168
:10142000200FDFBF16430A46002120335B42BED0A7
:10143000C3F1200746EA064602FA07F74FEA1646C6
:1014400046EA0706C3F1200722FA03F201FA07F77A
:1014500021FA03F14FF0000342EA0702A7E746EA48
:10146000020646EA06464FEA164646EA0106BCBFB1
:1014700046EA0646360C4FF000034FF000024FF0EC
:10148000000194E72DE9804C9A46934670B491E8A8
:10149000380007C831EA400C48BF34EA430C03D592
:1014A000FFF7A4FDFFF780FFF0BCBDE8008C2DE93D
:1014B000804C9A46934670B491E8380007C831EAE8
:1014C000400C48BF34EA430C03D5FFF78FFDFFF70C
:1014D00029FFF0BCBDE8008C2DE9804C9A4693466C
:1014E00070B491E8380007C810F0804F08BF13F0BF
:1014F000804F03D100F01AF8FFF756FFF0BCBDE8AB
:10150000008C2DE9804C9A46934670B491E83800DF
:1015100007C810F0804F08BF13F0804F03D100F0D0
:1015200005F8FFF7FFFEF0BCBDE8008C20F07F4718
:1015300080EA030023F07F4C07EB0C03A3F57C53F8
:1015400000F00040A3F1FE0392F0000F00F0B38022
:1015500095F0000F00F077802DE901494FEA114026
:101560004FEA144621EA004800FB06FC24EA06473D
:1015700008FB06F607FB08F800FB07F718EB064820
:101580004CEB164C4FEA124B18EB07484FEA154646
:101590004CEB174022EA0B4E0BFB06FC25EA0647F4
:1015A0000EFB06F607FB0EFE0BFB07F71EEB064EC7
:1015B0004CEB164C4FF000061EEB074E4CEB174B56
:1015C00018EB0B0840F1000018EB0E0B58EB00086D
:1015D00040F100008F1A4FF000013CBFC943661B69
:1015E00014BFB5EB040C00213CBFC943F61B4FEA06
:1015F00017444EEA8E0E27EA04454FEA1C4704FBC7
:1016000007622CEA074C05FB07F70CFB05F604FB09
:101610000CFC16EB074642EB174216EB0C4642EB6E
:101620001C421BEB060658EB0202414146EA9E06AD
:1016300001D5BDE80189B619524141EB0101A3F181
:101640000103BDE801894FEA14454FEA114724EA36
:10165000054621EA074C05FB07F406FB07F70CFBE0
:1016600006F105FB0CFC11EB074144EB17444FEA74
:10167000124711EB0C4144EB1C4422EA074C05FBDA
:1016800007F206FB07F70CFB06F605FB0CFC16EB56
:10169000074642EB174216EB0C4642EB1C456A1814
:1016A00054F1000148BF7047B619524141EB0101A6
:1016B000A3F10103704795F0000F37D04FEA1142B4
:1016C0004FEA144721EA024624EA074C02FB07F1DD
:1016D00006FB07F70CFB06F402FB0CFC14EB0744BB
:1016E00041EB17414FEA154714EB0C4441EB1C4109
:1016F00025EA074C02FB07F506FB07F70CFB06F68D
:1017000002FB0CFC16EB074645EB174516EB0C46A7
:1017100045EB1C42121951F1000148BF7047B61940
:10172000524141EB0101A3F1010370474FEA144517
:101730004FEA114724EA054621EA074C05FB07F169
:1017400006FB07F70CFB06F24FF0000605FB0CFC4E
:1017500012EB074241EB174112EB0C4251EB1C41DB
:1017600048BF7047921841EB0101A3F10103704794
:1017700000BFFEE700F0805111B10349086001E0AD
:101780000249486070470000040402400000024023
:1017900021B1026842F00102026004E002684FF6E3
:1017A000FE731A400260704701684FF6FE721140E6
:1017B00001600021016041608160C1604B49884245
:1017C00008D14A490839496841F00F01474A083AA7
:1017D00051608AE045491431884208D143490839AB
:1017E000496841F0F001414A083A51607DE03F49C3
:1017F0002831884208D13D490839496841F470616F
:101800003A4A083A516070E038493C31884208D180
:1018100036490839496841F47041344A083A516000
:1018200063E032495031884208D13049083949686B
:1018300041F470212D4A083A516056E02B49643139
:10184000884208D129490839496841F47001274A7A
:10185000083A516049E025497831884208D1234946
:101860000839496841F07061204A083A51603CE00B
:101870001F49884206D1011F096841F00F01021F6C
:10188000116032E01A491431884208D11849091F01
:10189000096841F0F001164A121F116025E0144951
:1018A0002831884208D11249091F096841F4706142
:1018B0000F4A121F116018E00D493C31884208D1CF
:1018C0000B49091F096841F47041094A121F116050
:1018D0000BE007495031884207D10549091F0968C3
:1018E00041F47021024A121F116070470800024043
:1018F0000804024010B50022026847F6F0739A43CC
:101900000C6A8B6823430C6923434C6923438C691D
:101910002343CC6923434C6A23438C6A23431A43F1
:101920000260CB6843600B6883604B68C36010BD86
:101930007047000010B504462948844208D10121AF
:10194000042000F055FF0021042000F051FF46E084
:101950002448844208D10121082000F049FF0021D9
:10196000082000F045FF3AE01F48844208D10121D9
:10197000102000F03DFF0021102000F039FF2EE084
:101980001A48844208D10121202000F031FF0021B3
:10199000202000F02DFF22E01548844208D10121CB
:1019A000402000F025FF0021402000F021FF16E03C
:1019B0001048844208D10121802000F019FF002145
:1019C000802000F015FF0AE00B48844207D1012176
:1019D000801500F00DFF0021A01500F009FF10BDDB
:1019E00000080140000C01400010014000140140BB
:1019F00000180140001C0140002001402DE9F04189
:101A0000024600250026002000230024002791F82C
:101A100003C00CF00F0591F803C00CF0100CBCF1E2
:101A2000000F03D091F802C04CEA050591F800C000
:101A3000BCF1000F31D0146800202BE04FF0010CF6
:101A40000CFA00F3B1F800C00CEA03069E4220D164
:101A500083004FF00F0C0CFA03F7BC4305FA03FCAC
:101A60004CEA040491F803C0BCF1280F06D14FF0F2
:101A7000010C0CFA00FCC2F814C00AE091F803C093
:101A8000BCF1480F05D14FF0010C0CFA00FCC2F874
:101A900010C0401C0828D1D31460B1F800C0BCF1BC
:101AA000FF0F34DD546800202EE000F1080C4FF0E9
:101AB000010808FA0CF3B1F800C00CEA03069E42D4
:101AC00021D183004FF00F0C0CFA03F7BC4305FA49
:101AD00003FC4CEA040491F803C0BCF1280F05D1C3
:101AE00000F1080C08FA0CF8C2F8148091F803C051
:101AF000BCF1480F07D100F1080C4FF0010808FABB
:101B00000CF8C2F81080401C0828CED35460BDE801
:101B1000F0814161704701617047000000B58DB0F0
:101B20000D208DF8300003208DF8310002208DF853
:101B3000320001208DF833000CA800F035FC0121A3
:101B4000084600F015FE1D48FFF72EFE1C480190C8
:101B50001C48029000200390C820049000200590AB
:101B60008020069000200790089009904FF40050C4
:101B70000A9000200B9001A91048FFF7BBFE00213E
:101B80000F48001F01F00CFA4FF40030FFF7F2FD90
:101B90004FF48020FFF7EEFD01210848FFF7F8FD24
:101BA000012240210648001F01F006FA01210448E5
:101BB000001F01F0F5F90DB000BD0000300002403B
:101BC000044800407800002000BFFEE72DE9F04106
:101BD0000546884616461F46002401213D4800F070
:101BE000A3F906E0B4F5807F02D90020BDE8F081BA
:101BF000641C3949374800F059F90028F2D0002414
:101C00006806010E0022334800F020FA05E0B4F522
:101C1000807F01D90020E9E7641C30492D4800F09D
:101C200045F90028F3D0002441462A4800F017FA6D
:101C300005E0B4F5807F01D90020D7E7641C27496F
:101C4000891E244800F032F90028F2D00024012136
:101C5000204800F01FF901211E4800F065F905E059
:101C6000B4F5807F01D90020C0E7641C1A491948E7
:101C700000F01CF90028F3D000246806010E0122B0
:101C8000144800F0E3F905E0B4F5807F01D90020A5
:101C9000ACE7641C1049491C0E4800F007F9002805
:101CA000F2D009E0642001F009FB0A4800F0CAF90B
:101CB00006F8010B781EC7B2002FF3DC002105489F
:101CC00000F0E8F80121034800F03AF900F088FF3D
:101CD00020468BE70054004001000300820007000B
:101CE00070B505460E4600240121374800F01CF966
:101CF00005E0B4F5807F01D9002070BD641C334934
:101D0000314800F0D3F80028F3D000246806010E13
:101D100000222D4800F09AF905E0B4F5807F01D942
:101D20000020EAE7641C2A49274800F0BFF8002891
:101D3000F3D000243146244800F091F905E0B4F5D1
:101D4000807F01D90020D8E7641C2149891E1E48E4
:101D500000F0ACF80028F2D0002401211A4800F06D
:101D6000E3F805E0B4F5807F01D90020C5E7641CE5
:101D70001649154800F09AF80028F3D000246806A8
:101D8000010E0122104800F061F905E0B4F5807FF2
:101D900001D90020B1E7641C0C49491C0A4800F035
:101DA00085F80028F2D00024642001F087FA064864
:101DB00000F048F904460121034800F0C1F800F0A2
:101DC0000FFF204699E70000005400400100030087
:101DD000820007002DE9F04105460F461646002413
:101DE0000121294800F0A0F806E0B4F5807F02D96F
:101DF0000020BDE8F081641C2449234800F056F817
:101E00000028F2D000246806010E00221E4800F0CF
:101E10001DF905E0B4F5807F01D90020E9E7641CD5
:101E20001B49194800F042F80028F3D00024394635
:101E3000154800F014F905E0B4F5807F01D90020C1
:101E4000D7E7641C1249891C0F4800F02FF80028BE
:101E5000F2D0002400BF31460B4800F000F905E045
:101E6000B4F5807F01D90020C3E7641C0849891CB0
:101E7000054800F01BF80028F2D000240121024898
:101E800000F05EF80120B4E70054004001000300B8
:101E90008200070021B1028842F48062028004E0DF
:101EA00002884FF6FF331A400280704770B5024631
:101EB0000024002500230020958A138B1B0445EA8B
:101EC000030626F07F4404EA01068E4201D1012078
:101ED00000E0002070BD21B1028842F001020280C2
:101EE00004E002884FF6FE731A400280704700003B
:101EF00010B504460B48844209D10121480500F081
:101F000057FC00214FF4001000F052FC08E00121C2
:101F1000880500F04DFC00214FF4800000F048FCE3
:101F200010BD00000054004021B1028842F48072CC
:101F3000028004E002884FF6FF631A400280704777
:101F400021B1028842F40072028004E002884FF658
:101F5000FF531A40028070472DE9F04385B00446D4
:101F60000D460026B1460427DFF8CC80A6884FF640
:101F7000C0700640684600F04BFCDDF808802F4832
:101F8000B8FBF0F01FFA80F946EA0906A68020881F
:101F90004FF6FE71084020800026294928688842B3
:101FA0000CD828684000B8FBF0F087B2042F00DAA4
:101FB00004273E4309F10100208427E0E8884BF61E
:101FC000FF71884206D1286800EB4000B8FBF0F0B2
:101FD00087B209E0286800EBC00101EB0010B8FBF4
:101FE000F0F087B247F48047C7F30B0008B947F019
:101FF000010747F4004006434FF4967009FB00F0D8
:102000004FF47A7190FBF1F0401C2084A683208865
:1020100040F00100208026884FF6F5300640A88861
:102020006989084306432680A889298908432081B5
:1020300005B0BDE8F083000000127A0040420F00B6
:10204000A08601000146088AC0B2704712B141F073
:10205000010102E04FF6FE731940018270470182D0
:1020600070472DE9FC4104460D46164606236A4694
:102070003B216820FFF7AAFD08B9012000E00020FD
:102080000746BFB99DF801009DF8001040EA012005
:1020900000B220809DF803009DF8021040EA012064
:1020A00000B228809DF805009DF8041040EA012048
:1020B00000B230803846BDE8FC812DE9FC41044681
:1020C0000D46164606236A4643216820FFF77EFD2B
:1020D00008B9012000E000200746BFB99DF80100C3
:1020E0009DF8001040EA012000B220809DF8030016
:1020F0009DF8021040EA012000B228809DF80500FA
:102100009DF8041040EA012000B230803846BDE856
:10211000FC8100002DE9F84F02236A464121682026
:10212000FFF754FD9DF801009DF8001040EA0120E2
:102130000FFA80FA504601F073FD804600220B4BE7
:1021400001F0DAFB06460A4A0A4B01F019FB044685
:1021500001F0E4FA83460849584601F045FF044679
:1021600001F026FF00B2BDE8F88F00000040754086
:10217000A4703D0AD74342400000C84270B5802297
:102180006B216820FFF726FEC82001F071F80022BD
:102190006B216820FFF71EFE18221B216820FFF725
:1021A00019FE00221B216820FFF714FE13221921BB
:1021B0006820FFF70FFE85B2002238216820FFF764
:1021C00009FE00226A216820FFF704FE0022232175
:1021D0006820FFF7FFFD802237216820FFF7FAFD16
:1021E00075216820FFF77CFD682824D101226B212E
:1021F000FFF7F0FD00226C216820FFF7EBFDBC2DFE
:1022000001DB012410E0622D01DB02240CE02A2D09
:1022100001DB032408E0142D01DB042404E00A2D73
:1022200001DB052400E00624E2B21A216820FFF752
:10223000D1FDC0B270BD0120FCE700BFFEE77047D2
:1022400070B50446002504F0700400F033F805462C
:102250000A48006820F0100008490860272001F0B3
:10226000BBF944EA050001F0B7F90448006840F002
:1022700010000249086000F01DF870BD0C08014014
:1022800070B504460A48006820F01000084908604C
:10229000204601F0A1F9FF2001F09EF9054604480F
:1022A000006840F0100002490860284670BD000038
:1022B0000C08014010B50948006820F010000749DB
:1022C0000860072001F088F904460448006840F0DF
:1022D000100002490860204610BD00000C080140B3
:1022E00070B504460E461546052D01DD052000E0BB
:1022F00028460546052C01DD052000E02046044661
:1023000004F10A01C8B22A46314600F011F870BD46
:1023100070B505460C46052C01DD052000E0204681
:10232000044622462946102000F002F870BD000045
:102330002DE9F04105460E4617460D48006820F08D
:1023400010000B49086045F0200001F045F9002419
:1023500004E0305D01F040F9601CC4B2BC42F8DB1F
:102360000348006840F0100001490860BDE8F081B2
:102370000C08014070B504460D460A48006820F07C
:1023800010000849086044F0200001F025F92846B3
:1023900001F022F90348006840F01000014908608C
:1023A00070BD00000C08014070B5002100230F2211
:1023B000C47804B3154C246804F4E064C4F5E06404
:1023C000210AC1F10403CA40447804FA03F1847875
:1023D0001440214309010E4C0678A155047804F0FD
:1023E0001F050124AC4005786D11AD0005F1E02515
:1023F000C5F8004109E0047804F01F050124AC4051
:10240000044D0678761145F8264070BD0CED00E0CD
:1024100000E400E080E100E070B5002418E004F181
:10242000B000002100F092F90021084600F08EF97A
:102430000021102000F08AF9002505E0012100208C
:1024400000F084F9681CC5B2802DF7DB601CC4B2B3
:10245000082CE4DB70BD10B50021AE2000F076F949
:102460000021402000F072F90021B02000F06EF948
:102470000021C82000F06AF90021812000F066F9EF
:102480000021FF2000F062F90021A12000F05EF998
:102490000021A62000F05AF90021A82000F056F9EA
:1024A00000211F2000F052F90021D32000F04EF946
:1024B0000021084600F04AF90021D52000F046F935
:1024C0000021F02000F042F90021D92000F03EF96F
:1024D0000021222000F03AF90021DA2000F036F93C
:1024E0000021022000F032F90021DB2000F02EF95B
:1024F0000021492000F02AF900218D2000F026F962
:102500000021142000F022F90021AF2000F01EF974
:10251000FFF782FF10BD70B504460D4605F1B0000F
:10252000002100F013F9102141EA1410002100F0FD
:102530000DF904F00F00002100F008F970BD000053
:102540002DE9F04707460E4690469946002500249F
:10255000A8F12000C5B27F2F02DD0027B01CC6B253
:10256000B9F1100F24D131463846FFF7D4FF0024CB
:1025700008E004EB0511194A505C012100F0E6F86F
:10258000601CC4B2082CF4DB701CC1B23846FFF7E3
:10259000C2FF002409E004EB051108310F4A505C2A
:1025A000012100F0D3F8601CC4B2082CF3DB12E068
:1025B00031463846FFF7AFFF00240AE005EB45013E
:1025C000074A02EB4101085D012100F0BFF8601CE1
:1025D000C4B2062CF2DBBDE8F0870000AA44000874
:1025E000824200082DE9F84F0546894690461E466E
:1025F000DDE90A74A24604EBDA71491001FB0651C9
:10260000C8B223462E224946FFF79AFF404601F002
:10261000CFFC82463346524649462846009400F095
:1026200023F83E4604E00F49404601F0DDFC8046B9
:10263000301EA6F10101CEB2F5D1404601F0B8FC42
:102640008346A24604EBDA71491001FB0751891D4C
:10265000C8B23B465A464946009400F005F8BDE82A
:10266000F88F0000000020412DE9FF5F0646174665
:1026700098460E9C4FF0000A002F0CDA7F4223464A
:102680002D2230460199FFF75BFF204604EBD07105
:1026900006EB6101CEB2002537E0A8EB0500401E35
:1026A000C1B20A2000F08CFFB7FBF0F00A21B0FBAA
:1026B000F1F201FB1209BAF1000F15D1A8F10100E6
:1026C000A84211DDB9F1000F0CD1A34604EBDB7178
:1026D000491001FB0561C8B2234620220199FFF78A
:1026E0002FFF10E04FF0010AA34604EBDB71491005
:1026F00001FB0561C8B209F13001CAB22346019954
:10270000FFF71EFF00BF681CC5B24545C5DBBDE82D
:10271000FF9F2DE9F04104460F46154698460026D6
:102720000FE0AA5D434639462046FFF709FF04F152
:102730000800C4B2782C02DD0024B81CC7B2701C9B
:10274000C6B2A85D0028ECD1BDE8F08170B50446A2
:102750000D462DB1E2B240213C20FFF73BFB04E0E7
:10276000E2B200213C20FFF735FB70BD704700004E
:1027700029B1064A52690243044B5A6104E0034AF4
:1027800052698243014B5A617047000000100240B9
:1027900029B1064AD2690243044BDA6104E0034AD4
:1027A000D2698243014BDA61704700000010024099
:1027B00029B1064A12690243044B1A6104E0034A34
:1027C00012698243014B1A617047000000100240F9
:1027D00029B1064A92690243044B9A6104E0034A14
:1027E00092698243014B9A617047000000100240D9
:1027F00029B1064AD2680243044BDA6004E0034A76
:10280000D2688243014BDA6070470000001002403A
:1028100030B500210022002400232D4D6D6805F005
:102820000C0121B1042905D0082923D105E0294D47
:10283000056022E0274D05601FE0254D6D6805F419
:102840007012234D6D6805F48034022505EB924229
:102850001CB9214D554305600BE01D4D6D6805F415
:1028600000351DB11C4D5543056002E0194D55431F
:10287000056002E0174D056000BF00BF144D6D6894
:1028800005F0F0010909154D6B5C0568DD404560F8
:102890000F4D6D6805F4E061090A104D6B5C4568E9
:1028A000DD4085600A4D6D6805F46051C90A0B4D25
:1028B0006B5C4568DD40C560054D6D6805F44041C1
:1028C000890B074D6B5CC568B5FBF3F5056130BD41
:1028D0000010024000127A0000093D003000002084
:1028E000400000201CB520A103C9CDE9000120480B
:1028F000006840F004001E4908607020FFF7A0FC4B
:1029000001211C20FFF736FD07211D20FFF732FDB6
:102910001C20FFF7B5FC1D20FFF7B2FC0A210020A8
:10292000FFF728FD01210846FFF724FD01210220C1
:10293000FFF720FD03210846FFF71CFDFF210420BF
:10294000FFF718FD3C210520FFF714FD2621062086
:10295000FFF710FD05216846FFF7DAFC05226946FE
:102960000020FFF7BDFC1CBD344310100100000027
:102970000C08014000B587B001210420FFF728FFB3
:1029800001208DF81A0018208DF81B002020ADF8CA
:10299000180006A92648FFF731F88020ADF8180086
:1029A00006A92348FFF72AF84020ADF8180006A929
:1029B0001F48FFF723F810208DF81B00ADF8180012
:1029C00006A91B48FFF71AF810211948FFF7A3F8CA
:1029D000184800F03DF801210803FFF7F9FE002137
:1029E000144800F029F80020ADF804004FF482707C
:1029F000ADF806000020ADF80A00ADF80C00ADF807
:102A000008004FF40070ADF80E002820ADF810005B
:102A10000020ADF812000720ADF8140001A9054808
:102A200000F04BF80121034800F006F807B000BDA4
:102A3000000801400030014021B1028842F040020C
:102A4000028004E002884FF6BF731A40028070478C
:102A500010B504461148844208D101218014FFF7C3
:102A6000C7FE0021A014FFF7C3FE16E00C48844205
:102A700008D101210014FFF79BFE00212014FFF76D
:102A800097FE0AE00748844207D10121C013FFF7EF
:102A90008FFE0021E013FFF78BFE10BD00300140D8
:102AA00000380040003C00400246002013890B40E3
:102AB0000BB1012000E00020704710B50022028811
:102AC00002F441520B884C8823438C882343CC88E2
:102AD00023430C8923434C8923438C892343CC898A
:102AE00023431A430280838B4FF2FF742340838376
:102AF0000B8A038210BD704710B500F001F810BDBD
:102B00000CB50020019000903348006840F48030FC
:102B10003149086000BF3048006800F40030009080
:102B20000198401C0190009818B90198B0F5A06F69
:102B3000F1D12948006800F4003010B10120009064
:102B400001E0002000900098012843D1234800684C
:102B500040F01000214908600846006820F003009A
:102B600008600846006840F0020008601A484068A3
:102B7000194948600846406848600846406840F483
:102B8000806048600846406820F47C104860084631
:102B9000406840F4E81048600846006840F08070E3
:102BA000086000BF0C48006800F000700028F9D0F1
:102BB0000948406820F0030007494860084640681B
:102BC00040F00200486000BF0348406800F00C007D
:102BD0000828F9D10CBD000000100240002002407E
:102BE00010B586B0002401210820FFF7F1FD402038
:102BF000ADF8140014208DF8170003208DF816008E
:102C000005A92448FEF7FAFE0FE040212148FEF70F
:102C100082FF0A2000F052FB40211E48FEF779FF98
:102C20000A2000F04BFB601CC4B20A2CEDDB1948F3
:102C3000FEF780FE01214805FFF7AAFDC020ADF890
:102C400014001C208DF8170003208DF8160005A92C
:102C50001048FEF7D3FE1048FFF74AF90020ADF800
:102C60000800ADF80E004FF48040ADF810004BF6B0
:102C7000FF70ADF80A00094801900120ADF80C0082
:102C800001A90548FFF768F901210348FFF723F977
:102C900006B010BD000C014000540040A0860100A9
:102CA000042808D14FF0E021096941F004014FF0F8
:102CB000E022116107E04FF0E021096921F00401F1
:102CC0004FF0E022116170477047000010B51348C3
:102CD000006840F00100114908600846406810494A
:102CE00008400E494860084600680E4908400B49F4
:102CF00008600846006820F48020086008464068A4
:102D000020F4FE0048604FF41F008860FFF7F4FED7
:102D10004FF000600449086010BD00000010024040
:102D20000000FFF8FFFFF6FE08ED00E070B59348E5
:102D3000406B192812D2924800889148001D0088E3
:102D40008E48006B00F0FE008C490863C820486381
:102D50000846006B40F00100086370BD8948C068F8
:102D600080F400508749C86000208749087000BF80
:102D7000854801780078401C834A10708348405C85
:102D80004E28F5D1814912781144481CFDF74CFAC0
:102D900000B27F49888500BF7B4801780078401CDD
:102DA000794A10707948405C242803D01046007896
:102DB000C728F1DB74480078C72800D1CDE77349F4
:102DC00071480078801D085C303800EB80000821D5
:102DD00001EB40016D4A6C480078C01D105C303832
:102DE00008446B490870084600780978182901DB07
:102DF000182100E00021401A6549087063496248C3
:102E000000780930085C30380A465F490978083193
:102E1000515C303901EB810100EB41005C494870A5
:102E20001146594800780B30085C3038564909780B
:102E30000A31515C303901EB810100EB410054490A
:102E400088705148007810304F490870002051496F
:102E5000087011464C4A1278881800F0D1F90446DF
:102E600000F05CFC4A49086200204A49087000BF33
:102E7000454801780078401C434A10704348405C44
:102E80002C28F5D100BF404801780078401C3E4A0C
:102E900010703E48405C2C28F5D13C4912788818C7
:102EA00000F0AEF9044600F039FC3949486200BF31
:102EB000354801780078401C334A10703348405C34
:102EC0002C28F5D100BF304801780078401C2E4AEC
:102ED00010702E48405C2C28F5D100BF2A4801789C
:102EE0000078401C284A10702848405C2C28F5D1F6
:102EF000264912788818FDF797F9254981F82800A6
:102F000000BF214801780078401C1F4A10701F48FC
:102F1000405C2C28F5D100BF1B4801780078401C8C
:102F2000194A10701948405C2C28F5D117491278BD
:102F30008818FDF779F900B2154948850F48006BEC
:102F400000F0FE000D490863C82048630846006B86
:102F500040F00100086301200E4908700E48006827
:102F600000EB40000D49086000200B490860044850
:102F700000880348001D008800BFEEE60000024004
:102F8000004800400010014045000020780000206B
:102F900048000020460000201000002014000020FF
:102FA00021B1828942F40052828104E082894DF687
:102FB000FF731A40828170471AB1838A0B43838260
:102FC00002E0838A8B4383827047F0B50346002476
:102FD00000260025002040F66A17B94200D100BF44
:102FE0001846C1F3421401F01F06012707FA06F53F
:102FF000012C01D10C3004E0022C01D1103000E092
:1030000014301AB107682F43076002E00768AF4326
:103010000760F0BD2DE9F04786B005460E46002456
:10302000A24600BFA1460027B08900B100BF2F46CD
:103030002C8A4CF6FF700440F08804432C82AC8943
:103040004EF6F3100440B088318908437189084373
:103050000443AC81AC8A4FF6FF400440B08904437E
:10306000AC8201A8FFF7D4FB1F48874202D1DDF8EC
:1030700010A001E0DDF80CA0A88900F4004040B1E8
:103080000AEBCA0000EB0A1031684900B0FBF1F806
:1030900007E00AEBCA0000EB0A1031688900B0FBB8
:1030A000F1F86420B8FBF0F004012009642101FB71
:1030B0001089A88900F4004040B1322000EBC9001B
:1030C000B0FBF1F000F00700044308E0322000EB11
:1030D00009106421B0FBF1F000F00F0004432C81D3
:1030E00006B0BDE8F08700000038014000BFFEE7F1
:1030F00040F2013200204FF0E04101F076B80000CC
:10310000024A0020110701F070B8000001FDFFFF26
:1031100010B50446D1E9000100F002F8206010BDAE
:10312000F8B504460D466A4600F0EEF800987E3089
:10313000009000281EDC002213462046294600F09D
:1031400033FD17D0002140F608004FF0000006467E
:103150002046294600F0E2FA044640F6080006EA56
:1031600000014FF0000034F0004004BF0220FDF7E2
:1031700074F829E00098FF2828DB002108464FF06A
:10318000000000F44006002213462046294600F0C5
:10319000EFFD8CBF002501250220FDF75EF84FF002
:1031A000FF4446B1002D0CBF4FF400004FF48000E7
:1031B000B04218BF084C042108464FF00000002D13
:1031C00004BF84F00040F8BD2046F8BD20462946E3
:1031D000BDE8F84000F0A2BAFFFF7F7F10B50446BB
:1031E0000A46D4E90003194600F0BAF8C4E9000120
:1031F00010BD30380A2801D20120704700207047E6
:1032000030B583B00446FDF723F805460020CDE92C
:103210000000024621466846FDF744F82846FDF7BF
:103220001CF8DDE9000103B030BD000010B56FF0FF
:103230000400FFF735FD0A4800680A49B0FBF1F0C9
:10324000094908700846007800EB4001C1EBC01046
:103250004FF6FF7101EAC0000449088010BD00006C
:103260001800002000127A002C0000202E00002000
:103270000146114A12884A434FF0E0235A61002266
:103280009A611A46126942F001021A6100BF4FF0BA
:10329000E022106900F001021AB100F48032002A25
:1032A000F5D04FF0E022126922F001024FF0E02346
:1032B0001A6100229A6170472E0000200146114ACF
:1032C00012784A434FF0E0235A6100229A611A466D
:1032D000126942F001021A6100BF4FF0E02210694A
:1032E00000F001021AB100F48032002AF5D04FF04C
:1032F000E022126922F001024FF0E0231A6100225D
:103300009A6170472C00002010B5144600222260FC
:10331000114A21F000439342A8BF10BD53EA0002B6
:1033200008BF10BDB3F5801FA8BF226807DA362298
:1033300000F05BFF6FF0350221F000432260DFF800
:103340001CC06FF31E510CEB23531A4441F0FF5184
:1033500041F00051226010BD0000F07F02FCFFFF31
:103360002DE9F04106460C4640F2FF75174635EA56
:1033700014502BD000221346304600F015FC25D007
:103380003A463046214600F030FF06460C4635EA04
:10339000145010D000221346304600F005FC15D121
:1033A0000220FCF75AFFFFF7ABFE0A46214662F304
:1033B0001E01BDE8F0810220FCF74FFFFFF798FEE9
:1033C0000A46214662F31E01BDE8F08130462146DF
:1033D000BDE8F0811CB5012080F3108800BF0121F9
:1033E0001020FFF7F5F94FF40050ADF8040010205D
:1033F0008DF8070002208DF8060001A95E48FEF74F
:10340000FDFAFFF713FFFFF7EBFBFFF7B3FA4FF4FB
:10341000165000F011F94FF49670FFF729FFFFF7EF
:1034200061FAFEF7ABFEFEF779FBFFF714F80C2309
:1034300052A200210846FFF76CF90C2353A2012188
:103440000020FFF766F9554800885448001D0088A1
:103450005348006B00F0FE0051490863C8204863E0
:103460000846006B40F001000863002080F31088DC
:1034700000BF7FE0FEF74EFE4A4908804A480068D8
:10348000401C494908600520FEF7FAFE47480078CD
:10349000002865D0002045490870FEF73BFE044631
:1034A0000C2004232246002100900846FFF7DCF898
:1034B0000C2000903E480278022300214C20FFF7A8
:1034C000D3F80C2000903A48427802230021622071
:1034D000FFF7CAF80C2000903548827802230021BB
:1034E0007420FFF7C1F80C2000903148B0F92A2071
:1034F000052301210B20FFF7B7F80C2000902C4882
:1035000090F82820022301215A20FFF7ADF80C2063
:103510000521CDE9001026480B460221026A002051
:10352000FFF760F80C200521CDE9001020480B467C
:103530000321426A0020FFF755F80C2000901C4838
:10354000B0F92C20032302215A20FFF78DF80C201C
:10355000062300901748032102685A20FFF784F8D9
:10356000154A911E881EFEF7A8FD144A911E881E5A
:10357000FEF777FD7EE70000001001402020206369
:1035800054696D653A20203A20203A00483A2020BC
:10359000204D202047505378000000000048004094
:1035A000000002400C000020100000204600002017
:1035B0004800002014000020040000200A00002021
:1035C00010B50246012000E050430B1EA1F101049A
:1035D000E1B2F9D110BD000070B504460026002507
:1035E00007E0681C80B205464FF6FF71884200D1A3
:1035F00005E002210F48FFF757FA0028F1D000BF7D
:1036000047F6FF750B48848107E0681C80B20546C9
:103610004FF6FF71884200D105E001210548FFF710
:1036200043FA0028F1D000BF02488089C6B2304674
:1036300070BD00000030014010B586B00446012185
:103640008804FFF7A5F801210820FFF7C1F84FF41F
:103650000060ADF8140004208DF8170005A9174884
:10366000FEF7CCF927208DF8000003208DF801002B
:103670008DF8020001208DF803006846FEF794FEE5
:1036800001940020ADF80800ADF80A00ADF80C0078
:10369000ADF810000420ADF80E0001A90848FFF7AE
:1036A000B9FC012240F224410548FFF78EFC0121BC
:1036B0000348FFF775FC06B010BD0000000C014088
:1036C0000048004010B500290AD00878002807D02B
:1036D00005487844FDF794F9002801D0002010BD7A
:1036E0000248784410BD00008E14000086140000CB
:1036F00010B500290AD00878002807D0054878447A
:10370000FDF77EF9002801D0002010BD0248784462
:1037100010BD00007E1400007614000021F000426D
:10372000A2F16052B2F5801F01F0004328BFD2F130
:103730007F6C0BD95FEA001C43EAC20242EB507077
:1037400018BF704728BF20F001007047B2F5801FF6
:10375000BCBF184670474FEA410C1CF5001F02D24F
:10376000084600F008BD70B500F0AEFA0000008910
:10377000FFF7F6BF4FF00040A0F580007047000053
:1037800010B591EA030F48BF83F0004300F12E8388
:10379000841A71EB030C05D2121943EB0C03001BC6
:1037A00061EB0C01DFF824E14FEA1154A4EB135C48
:1037B0001EEA430F18BF9EEA445F73D023EA0E034C
:1037C000DCF1200E21EA045143F4801332D322FAB3
:1037D0000CFE10EB0E0023FA0CFE41EB0E01CCF1B7
:1037E000200E03FA0EFE10EB0E0051F10001B1F5B0
:1037F000801FCCF1200E32D201EB045112FA0EF2EE
:10380000BDE8104058BF7047401C38BF5FEA420215
:1038100018BF7047002814BF20F0010041F10001DB
:103820004FEA410313F5001F38BF7047A1F1C041B3
:1038300000F098BA012A43EB0302ACF1200CDCF152
:103840001F0E32BF4FF0000E23FA0CF310EB0300F3
:1038500041EB0451B4EB115FD0D0A1EB045101F561
:10386000801149085FEA300001EB04510ED350F19A
:10387000000038BF12FA0EFE08D1BDE81040C9E7BB
:10388000401C38BF5FEA4202CAD1C3E7BDE810401E
:103890004FEA410313F5001F38BF7047A1F1C04143
:1038A00000F060BA9EEA445F08D011EA5E0FBDE8FE
:1038B000104004BF01F0004100207047BDE81040F7
:1038C00070B500F001FA00BF64FBBE3E0000E0FFEF
:1038D00002494FF0000000F056BC00BF0000F87F26
:1038E000491058BFC1F140415B1058BFC3F140437C
:1038F0008B42EFF3008070472DE9C04130B4DFF810
:10390000A0C23CEA111418BF3CEA131400F0EC808A
:1039100081EA03051CEA111444EAD57418BF1CEAB5
:10392000131500F0C780A4EB05044FF0004545EAED
:10393000C12145EAC32341EA505143EA525304F1FD
:103940007F74994204F500344FEAC0204FEAC22246
:1039500008BF904200F09C804FEA13650FF24016BA
:10396000765D4FEA134506FB05F7C7F1807706FB46
:1039700007F74FEAD737A7FB03687642C8F58038C8
:10398000A7FB06CE38BFA8F1010807FB08E64FF0F9
:10399000000EA6FB028CE6FB03CEDCF1000CCEF1A0
:1039A000004E38BFAEF1010EA6FB0C584FF00007D9
:1039B0004FF00005E6FB0E87A1FB08C6A0FB07CE73
:1039C00016EB0E0645F10005E1FB076515F1E04E2B
:1039D0007EBFA4F580345FEA46066D4116F180078C
:1039E00045F100054FEA17274FEA066647EA0567E3
:1039F000A6F1DE46B6F1805F4FEA15251FD938469D
:103A000024F0010C05EBC471BCF1FE6F01EB0C114D
:103A100002D8F0BCBDE8008124425CBF01F5801EE5
:103A20009EEAC47F02D4F0BCBDE80081244238D4B1
:103A3000F0BCA1F1C041BDE8004100F093B94FEAEC
:103A4000D22242EA43524FEAD323A7FB02864FEA2F
:103A5000D02040EA415007FB03661EEA0E0F4FEAF2
:103A6000D12105FB026658BFA6EB0056B6EB005607
:103A70004FEA520E4EEAC37E18EB0E0E56EB530E73
:103A8000BDD518EB02085E417F1C55F10005B6E775
:103A90004FF480154FF000074FF000064FF000087C
:103AA000ADE7F0BC4FF0000001F1C04101F0004172
:103AB000BDE8008111EA0C1F0CEA131500D00CE0E0
:103AC00013EA0C1F00F025804FF00000F0BC81EAE3
:103AD000030101F00041BDE80081F0BCBDE80041F8
:103AE00081EA030100F03EB9F0BCBDE8004170B5C9
:103AF00000F0EAF8097EFC3E00F007B881EA030115
:103B00004FF0000001F00041704781EA030100F02E
:103B100029B9F0BCBDE800414FF0000021497047D1
:103B2000FFFDFBF9F7F5F4F2F0EEEDEBE9E8E6E482
:103B3000E3E1E0DEDDDBDAD8D7D5D4D3D1D0CFCD09
:103B4000CCCBCAC8C7C6C5C4C2C1C0BFBEBDBCBB42
:103B5000BAB9B8B7B6B5B4B3B2B1B0AFAEADACAB3D
:103B6000AAA9A8A8A7A6A5A4A3A3A2A1A09F9F9E17
:103B70009D9C9C9B9A9999989797969595949393C9
:103B8000929191908F8F8E8E8D8C8C8B8B8A898960
:103B900088888787868585848483838282818180E3
:103BA0000000FF070000F87F51EA030C17D41CF552
:103BB000801F58BFBCF5801F00F10680994218BFD6
:103BC000704708BF9042704707D711F5801F58BF54
:103BD00013F5801F19D499427047894270471CF52C
:103BE000801F08D5BCF5801FF7D58B4218BF7047E2
:103BF00008BF824270474FF4001C1CEB410F38BFD6
:103C00001CEB430F01D28B42704770B500F05CF89B
:103C1000922449004FF000514FF08053FFF760BEEF
:103C200010F0004248BF4042B0FA80F310FA03F1AE
:103C30000AD0C3F11D0303F580634FEA415002EB44
:103C4000035202EBD12170474FF000007047000093
:103C500051EA030C17D41CF5801F58BFBCF5801F18
:103C600000F10680994218BF704708BF9042704724
:103C700007D711F5801F58BF13F5801F19D499423B
:103C80007047894270471CF5801F08D5BCF5801F1E
:103C9000F7D58B4218BF704708BF824270474FF478
:103CA000001C1CEB410F38BF1CEB430F01D28B42B1
:103CB000704770B500F008F8922449004FF00051A9
:103CC0004FF08053FFF70CBE0EF1020E2EF0030EE4
:103CD0005EF8046B364205D4012A43EB030515F563
:103CE000001F12D8012841EB010C1CF5001F0CD855
:103CF0000ED14FEAD17C15F5001F0CEB4C0C0CF1EA
:103D0000020C08BF4CEBD37C04E04FF0080C01E040
:103D10004FEAD37C0CEB4C0526FA05F606F00706B5
:103D2000B6F1040C06D20EEB860CBDE870404CF0E8
:103D3000010C6047DFE80CF0090B02024FF0004174
:103D40004FF00000A1F5002170BD19461046012872
:103D500051EB010418BFD4F5001484BF002001F01A
:103D6000004170BD0808A0F500114FEA310170470D
:103D700053EA010C17D41CF5801F58BFBCF5801FF7
:103D800000F106808B4218BF704708BF824270471F
:103D900007D713F5801F58BF11F5801F19D48B4228
:103DA00070479B4270471CF5801F08D5BCF5801FEB
:103DB000F7D5994218BF704708BF904270474FF43B
:103DC000001C1CEB430F38BF1CEB410F01D2994282
:103DD00070470FB40CBC03BCFFF76BBF10B591EA82
:103DE000030F48BF83F000433FF5D2AC841A71EB58
:103DF000030C07D212198CF0004C43EB0C03001B90
:103E000061EB0C01DFF8A4E14FEA1154A4EB135C61
:103E10001EEA430F18BF9EEA445F00F0B08023EA19
:103E20006E03524221EA0451C3EB6E0338BF5B1E9E
:103E3000DCF1200E25D322FA0CFE10EB0E0043FA23
:103E40000CFE41EB0E01CCF1200E03FA0EFE10EB3E
:103E50000E0051F10001CCF1200E29D412FA0EF21D
:103E600001EB0451BDE8104058BF7047401C1CBF17
:103E7000B2F1004F704700280CBF491C20F0010030
:103E8000704712EB020E43EB030218BF4FF0010E16
:103E90004EEA4202ACF1200CDCF11E0E54D943FA7A
:103EA0000CFE10EB0E0051F1FF31CCF11E0ED5D5FA
:103EB0000EF1010E12FA0EFE404141EB010101EB41
:103EC000445C5FEA5C5C10D910EBDE7001EB0451DE
:103ED00038BFBEF1004FBDE8104018BF7047002842
:103EE0000CBF491C20F00100704730D24FEAD42C9F
:103EF00011F5001124F400641BD0B1FA81F20B3AE1
:103F0000A41AA41ED2F12003914030FA03F31943FE
:103F1000904001EBCC71002C01EB0451BDE8104046
:103F2000A8BF704701F1C0414FF0000001F000410F
:103F30007047B0FA80F310FA03F100D110BDE41A13
:103F4000173C4805C90AE4E701EB045110BD4910CC
:103F500001EB0451BDE810404FEA300002E04FF0A1
:103F6000000170474A0008BF0042F8D0B2F5001FB8
:103F700028BF704701F000414FF0000070479EEAF3
:103F8000445F07D011EA5E0FBDE8104004BF002176
:103F900000207047BDE8104070B5FFF795FE00BFE8
:103FA00040DFF63E83F00041104670470000E0FF1E
:103FB00041000B0ED3F19E0208D950F400034FEAE2
:103FC000032323FA02F048BF4042704710B500F0C7
:103FD0008CF800BF49922480002070476FF00042A7
:103FE00082EA2000704700004FF47F0C1CEAD012D8
:103FF0001EBF1CEAD11392EA0C0F93EA0C0F00F0DB
:10400000478090EA010F48BF42F480724FF0004CA5
:104010004CEA00204CEA012102EB0302A0FB011351
:10402000A2F50002002918BF43F001035B0028BF7E
:104030004FEA330342EB22425FEA132C4CEBC250AF
:104040002EBFBCEB436FB2F57C0F70474FEA036C99
:10405000BCF1004F08BF20F00100B2F57C0F38BF63
:1040600070470BD582F0FF0212F5803FC8BF704742
:1040700000F1C040D8BF00F00040704700F5000CD0
:104080005FEA4C0C48BF7047B0F1C04000F073B815
:1040900090EA010F0CEAD11348BF42F480726245E6
:1040A00038BF634504D280EA010000F00040704749
:1040B00010B500F01AF800BF8900013E00F007B803
:1040C00000F009B85FEA410C5FEA1C6C08D080EA96
:1040D000010000F050B85FEA400C5FEA1C6CF6D1BA
:1040E0004FF00040A0F5800070470EF1020E2EF058
:1040F000030E5EF8044B244204D44FEA4102B2F1AD
:104100007F4F11D84FEA4003B3F17F4F0CD80ED147
:104110004FEAD07CB2F17F4F0CEB4C0C0CF1020C4F
:1041200008BF4CEBD17C04E04FF0080C01E04FEAF3
:10413000D17C0CEB4C0324FA03F404F00704B4F133
:10414000040C06D20EEB840CBDE810404CF0010CC0
:104150006047DFE80CF0070802024FF00040A0F5CE
:10416000800010BD0846420018BFD2F1807288BF9F
:1041700000F0004010BDFF2141EAD050C00570475B
:104180004FF0000070470CF00F03092B08BF082008
:1041900000F05F800A2B0BD0082B18BF704708BFB8
:1041A0001CF0400F0AD04FF000004FF000017047A4
:1041B0001CF0400F18BF4FF0004070471CF0100F6C
:1041C00008D020F0704300F07F4242EAD3014FEA6A
:1041D0004370704700F0604021F07F4242EA0002E5
:1041E00001F07F4040EA727070474FF0FF0C4CF4D2
:1041F000E06C1CEA11531CBF9CEA030C9445C2BF3F
:10420000DA4201EB02517047002B0DD0BCF1000FD8
:104210000FD0002A01F00041A4BF41F0E04141F07D
:104220007F614FF00000704701F000414FF0000047
:10423000704750EA01334FF09B0C18BF4CF0806C74
:104240007FF446AB7047FCF77BBAFCF78BBCFCF7FE
:1042500019BE1CF4801F11D01CF4E02F03D06FEAAC
:10426000CC31490070474FF04050EFF3008222F00C
:10427000704242EA000282F3008870474FF000006B
:1042800070470000000000000000002F0000000048
:104290000700070000147F147F1400242A7F2A12CD
:1042A00000626408132300364955225000000503BC
:1042B000000000001C224100000041221C000014EC
:1042C000083E08140008083E0808000000A060002E
:1042D00000080808080800006060000000201008BE
:1042E0000402003E5149453E0000427F400000422A
:1042F00061514946002141454B31001814127F108D
:10430000002745454539003C4A49493000017109BB
:10431000050300364949493600064949291E00006F
:104320003636000000005636000000081422410016
:104330000014141414140000412214080002015146
:10434000090600324959513E007C1211127C007F4F
:1043500049494936003E41414122007F4141221CEA
:10436000007F49494941007F09090901003E41494F
:10437000497A007F0808087F0000417F4100002043
:1043800040413F01007F08142241007F40404040EF
:10439000007F020C027F007F0408107F003E414135
:1043A000413E007F09090906003E4151215E007F20
:1043B000091929460046494949310001017F010197
:1043C000003F4040403F001F2040201F003F40383A
:1043D000403F006314081463000708700807006179
:1043E0005149454300007F41410000552A552A5557
:1043F000000041417F0000040201020400404040EF
:104400004040000001020400002054545478007F12
:104410004844443800384444442000384444487FE9
:1044200000385454541800087E0901020018A4A44E
:10443000A47C007F080404780000447D4000004014
:1044400080847D00007F102844000000417F4000F0
:10445000007C04180478007C080404780038444484
:10446000443800FC242424180018242418FC007C60
:104470000804040800485454542000043F444020D9
:10448000003C4040207C001C2040201C003C403070
:10449000403C004428102844001CA0A0A07C0044FC
:1044A00064544C441414141414140000000000004C
:1044B00000000000000000000000000000F8000004
:1044C0000000000000333000000000100C06100C4B
:1044D0000600000000000000000040C07840C078E6
:1044E0004000043F04043F040400007088FC0830CE
:1044F0000000001820FF211E0000F008F000E01866
:10450000000000211C031E211E0000F0088870001E
:1045100000001E2123241927211010160E00000070
:1045200000000000000000000000000000E018048F
:104530000200000000071820400000020418E000FC
:1045400000000040201807000000404080F080403C
:1045500040000202010F01020200000000F0000012
:1045600000000101011F0101010000000000000026
:10457000000080B07000000000000000000000009B
:104580000000000101010101010100000000000024
:1045900000000030300000000000000000008060DB
:1045A0001804006018060100000000E01008081060
:1045B000E000000F102020100F00001010F8000085
:1045C00000000020203F202000000070080808881C
:1045D00070000030282422213000003008888848EC
:1045E00030000018202020110E000000C02010F81C
:1045F000000000070424243F240000F808888808ED
:1046000008000019212020110E0000E010888818F1
:104610000000000F112020110E0000380808C838D3
:1046200008000000003F00000000007088080888B3
:104630007000001C222121221C0000E0100808103C
:10464000E0000000312222110F00000000C0C00075
:10465000000000000030300000000000008000007A
:10466000000000008060000000000000804020107A
:104670000800000102040810200040404040404073
:1046800040000404040404040400000810204080D6
:10469000000000201008040201000070480808080B
:1046A000F0000000003036010000C030C828E810DB
:1046B000E0000718272423140B000000C038E00096
:1046C0000000203C23020227382008F888888870E0
:1046D0000000203F202020110E00C03008080808EC
:1046E0003800071820202010080008F808080810D3
:1046F000E000203F202020100F0008F88888E808FC
:104700001000203F20202320180008F88888E8089F
:104710001000203F200003000000C03008080838C7
:10472000000007182020221E020008F808000008D8
:10473000F808203F210101213F20000808F808085F
:1047400000000020203F2020000000000808F8089A
:104750000800C08080807F00000008F888C028180A
:104760000800203F20012638200008F8080000003B
:104770000000203F20202020300008F8F800F8F842
:104780000800203F003F003F200008F830C000082C
:10479000F808203F200007183F00E0100808081024
:1047A000E0000F10202020100F0008F8080808086B
:1047B000F000203F210101010000E010080808106E
:1047C000E0000F18242438504F0008F888888888A3
:1047D0007000203F2000030C30200070880808087B
:1047E00038000038202121221C00180808F8080889
:1047F00018000000203F2000000008F80800000812
:10480000F808001F202020201F000878880000C81A
:104810003808000007380E010000F80800F800080A
:10482000F800033C0700073C030008186880806814
:10483000180820302C03032C30200838C800C83852
:1048400008000000203F2000000010080808C838B9
:1048500008002038262120201800000000FE020257
:1048600002000000007F40404000000C30C000000B
:104870000000000000010638C00000020202FE0035
:104880000000004040407F000000000004020202DF
:104890000400000000000000000000000000000014
:1048A0000000808080808080808000020204000000
:1048B00000000000000000000000000080808080F8
:1048C00000000019242222223F2008F800808000E6
:1048D0000000003F112020110E00000000808080A9
:1048E0000000000E112020201100000000808088B0
:1048F000F800000E112020103F20000080808080F2
:104900000000001F222222221300008080F08888ED
:1049100088180020203F2020000000008080808038
:104920008000006B94949493600008F8008080806D
:104930000000203F210000203F20008098980000C8
:1049400000000020203F20200000000000809898F8
:10495000000000C08080807F000008F80000808098
:104960008000203F24022D302000000808F80000BD
:1049700000000020203F2020000080808080808078
:104980008000203F20003F20003F8080008080800A
:104990000000203F210000203F2000008080808018
:1049A0000000001F202020201F0080800080800049
:1049B000000080FFA12020110E00000000808080F8
:1049C0008000000E112020A0FF8080808000808069
:1049D000800020203F212000010000008080808096
:1049E00080000033242424241900008080E080808B
:1049F00000000000001F20200000808000000080D8
:104A00008000001F202020103F2080808000008038
:104A1000808000010E300806010080800080008048
:104A200080800F300C030C300F00008080008080ED
:104A300080000020312E0E31200080808000008018
:104A4000808080818E7018060100008080808080C8
:104A500080000021302C2221300000000000807CEA
:104A6000020200000000003F404000000000FF0084
:104A7000000000000000FF0000000002027C800037
:104A800000000040403F000000000006010102025B
:104A900004040000000000000000000002400000CC
:104AA000000000A00000000005400000000000C859
:104AB000000000000C4000000000409C00000000CE
:104AC000194000000020BCBE00000000344000007F
:104AD000BFC91B8E00000004B5400000504BCFD072
:104AE0006607E2CF010000006C4100003E8251AA3F
:104AF000DFEEA73401000000D9420000DCB5A0E2DF
:104B00003A301F97FFFFFFFFB4450000FD25A0C806
:104B1000E9A3C14FFFFFFFFFFF3F0000000000803F
:104B200000000000FF3F00000000008000000000C7
:104B30008C4C000800000020480000006C010008B8
:104B4000D44C0008480000205807000088010008E5
:104B5000000000000000F07FFFFFFFFFFFFFEF7F7E
:104B60001C00000043000000F8FFFFFF0C000000E5
:104B70000E0000000F0000002E00000010010000D9
:104B800043000000F8FFFFFF00404040404040402D
:104B90004040414141414140404040404040404010
:104BA00040404040404040404005020202020202B4
:104BB0000202020202020202022020202020202003
:104BC0002020200202020202020290909090909017
:104BD00010101010101010101010101010101010D5
:104BE0001010101002020202020288888888888849
:104BF0000808080808080808080808080808080835
:104C0000080808080202020240000000000000003C
:104C10000000000000000000000000000000000094
:104C20000000000000000000000000000000000084
:104C30000000000000000000000000000000000074
:104C40000000000000000000000000000000000064
:104C50000000000000000000000000000000000054
:104C60000000000000000000000000000000000044
:104C70000000000000000000000000000000000034
:104C80000000000000000000000000000000000024
:104C90000000000000000000000000000000000014
:104CA0000000000000A24A04000000000000000014
:104CB00001020304060708090000000000000000CC
:104CC000010203040102030406070809020406089E
:044CD00000000000E0
:04000005080001E905
:00000001FF
