:020000040800F2
:10000000C00B002015020008C5120008950B00085F
:10001000C11200084D0700082D1D00080000000057
:100020000000000000000000000000008D17000824
:100030008F09000800000000FD15000839190008AC
:100040002F0200082F0200082F0200082F020008CC
:100050002F0200082F0200082F0200082F020008BC
:100060002F0200082F0200082F0200085107000885
:100070002F0200082F0200082F0200082F0200089C
:100080002F0200082F0200082F0200082F0200088C
:100090002F0200082F0200082F0200082F0200087C
:1000A0002F020008091A00082F0200082F0200087A
:1000B0002F0200082F0200082F0200082F0200085C
:1000C0002F0200082F0200082F0200082F0200084C
:1000D0002F0200089D1B00082F0200082F020008B5
:1000E0002F0200082F0200082F0200082F0200082C
:1000F0002F0200082F0200082F0200082F0200081C
:100100002F0200082F0200082F0200082F0200080B
:100110002F0200082F0200082F0200082F020008FB
:100120002F0200082F0200082F0200082F020008EB
:1001300000F002F800F05EF80AA090E8000C82449B
:100140008344AAF10107DA4501D100F053F8AFF278
:10015000090EBAE80F0013F0010F18BFFB1A43F0A5
:1001600001031847C8370000E837000010F8013BCA
:100170000A4413F0030408BF10F8014B1D1108BF17
:1001800010F8015B641E05D010F8016B641E01F8C5
:10019000016BF9D1002D15D010F8014B03F00C03C1
:1001A0000C2BA1EB04040ABF10F8013BA4EB831451
:1001B000A4EB032405F1010314F8016B5B1E01F8A5
:1001C000016BF9D5914238BF10F8013BD1D370478C
:1001D0000023002400250026103A28BF78C1FBD850
:1001E000520728BF30C148BF0B6070471FB51FBD05
:1001F00010B510BD00F0BCF81146FFF7F7FF01F095
:10020000B9FF00F0DAF803B4FFF7F2FF03BC00F027
:10021000DDF800000948804709480047FEE7FEE78F
:10022000FEE7FEE7FEE7FEE7FEE7FEE7FEE7FEE7A6
:1002300004480549054A064B704700003D1900086F
:1002400031010008C0050020C00B0020C0070020BD
:10025000C0070020032A40F2308010F0030C00F0A9
:10026000158011F8013BBCF1020F624498BF11F8F0
:1002700001CB00F8013B38BF11F8013BA2F10402A9
:1002800098BF00F801CB38BF00F8013B11F0030321
:1002900000F03380083AC0F0088051F8043B083A77
:1002A00051F804CBA0E80810F5E7121D5CBF51F827
:1002B000043B40F8043BAFF30080D20724BF11F8A1
:1002C000013B11F801CB48BF11F8012B24BF00F806
:1002D000013B00F801CB48BF00F8012B7047704785
:1002E0007047704710B500F03BF8006810BD10B5BE
:1002F000044600F035F8046010BD10B5203AC0F097
:100300000B80B1E81850203AA0E81850B1E8185016
:10031000A0E81850BFF4F5AF5FEA027C24BFB1E853
:100320001850A0E8185044BF18C918C0BDE81040C4
:100330005FEA827C24BF51F8043B40F8043B08BFCD
:100340007047D20728BF31F8023B48BF11F8012B94
:1003500028BF20F8023B48BF00F8012B704700007F
:10036000004870475C050020004870475C0500208D
:100370007546FFF7F9FFAE4605006946534620F083
:100380000700854618B020B5FFF752FFBDE82040B2
:100390004FF000064FF000074FF000084FF0000B41
:1003A00021F00701AC46ACE8C009ACE8C009ACE8F4
:1003B000C009ACE8C0098D46704710B50446AFF3DC
:1003C00000802046BDE81040FFF71DBF01491820FE
:1003D000ABBEFEE726000200704721B1826842F002
:1003E0000102826003E0826822F0010282607047AD
:1003F00021B1826842F48072826003E0826822F454
:10040000807282607047000000B58DB001210846FF
:1004100001F002F91C4800F0D7F91C480290801541
:1004200008901B480390002004900C904FF48060CB
:100430000990802007900020069020200A90C0019B
:100440000B900820059002A90F4800F082FA0220C4
:100450008DF805008DF8060001208DF807000B20AF
:100460008DF8040001A800F02FFF022000F092F99F
:1004700001220221044800F063FA0121024800F041
:1004800097F90DB000BD0000080002404C24014067
:100490007004002010B504461248844208D101219E
:1004A000401501F0F9F80021601501F0F5F817E0AA
:1004B0000D48844208D10121001501F0EDF800211A
:1004C000201501F0E9F80BE00848844208D1012129
:1004D000C80301F0E1F800214FF4004001F0DCF81E
:1004E00010BD00000024014000280140003C0140F4
:1004F000014600208A6802F004020AB1012000E0EF
:1005000000207047014600208A6802F008020AB104
:10051000012000E00020704730B502460020002393
:1005200050680F4C20400D790C6844EA05242043A4
:10053000506090680B4C2040D1E902542C434D7917
:1005400044EA450420439060D06A20F470000C7C9B
:10055000641EE4B2234340EA0350D06230BD000081
:10056000FFFEF0FFFDF7F1FFF0B504460D46002059
:100570000021092D11DDE068A5F10A0606EB46070A
:10058000072606FA07F18843A5F10A0606EB460698
:1005900003FA06F10843E0600CE0206905EB45072B
:1005A000072606FA07F1884305EB450603FA06F12C
:1005B00008432061072A0FDA606B561E06EB860798
:1005C0001F2606FA07F18843561E06EB860605FA33
:1005D00006F10843606322E00D2A0FDA206BD61F74
:1005E00006EB86071F2606FA07F18843D61F06EB9F
:1005F000860605FA06F10843206310E0E06AA2F1DE
:100600000D0606EB86071F2606FA07F18843A2F1BE
:100610000D0606EB860605FA06F10843E062F0BD1A
:10062000816841F008018160704721B1826842F41D
:10063000A002826003E0826822F4A0028260704718
:10064000816841F0040181607047000000B587B007
:1006500001214FF4017001F00FF84FF4404000F019
:10066000CFFFFF20ADF8040000208DF8070001A99E
:10067000344800F08DF93448FFF70CFF0020029059
:1006800001208DF80C008DF80D004FF460200490CF
:100690000020059008208DF8180002A92A48FFF7CD
:1006A0003BFF0623012200212748FFF75DFF0623B9
:1006B000022201212448FFF757FF062303220221CB
:1006C0002148FFF751FF0623042203211E48FFF7AC
:1006D0004BFF0623052204211B48FFF745FF062395
:1006E0001A4605211848FFF73FFF0623072219463F
:1006F0001548FFF739FF0623082207211248FFF7A4
:1007000033FF01211048FFF773FE01210E48FFF768
:1007100064FE0D48FFF784FF00BF0B48FFF7F2FEB1
:100720000028FAD10848FFF78BFF00BF0648FFF703
:10073000DFFE0028FAD101210348FFF776FF07B05A
:1007400000BD0000000801400024014000BFFEE79A
:1007500010B5022000F0DEF8012804D1022000F0DC
:1007600019F800F0E9F903480068401C01490860E5
:1007700010BD00002C04002000F0805111B103498D
:10078000086001E00249486070470000040402402C
:100790000000024000F0805111B10349086001E0FF
:1007A0000249486070470000040402400000024013
:1007B00021B1026842F00102026004E002684FF6D3
:1007C000FE731A400260704701684FF6FE721140D6
:1007D00001600021016041608160C1604B49884235
:1007E00008D14A490839496841F00F01474A083A97
:1007F00051608AE045491431884208D1434908399B
:10080000496841F0F001414A083A51607DE03F49B2
:100810002831884208D13D490839496841F470615E
:100820003A4A083A516070E038493C31884208D170
:1008300036490839496841F47041344A083A5160F0
:1008400063E032495031884208D13049083949685B
:1008500041F470212D4A083A516056E02B49643129
:10086000884208D129490839496841F47001274A6A
:10087000083A516049E025497831884208D1234936
:100880000839496841F07061204A083A51603CE0FB
:100890001F49884206D1011F096841F00F01021F5C
:1008A000116032E01A491431884208D11849091FF1
:1008B000096841F0F001164A121F116025E0144941
:1008C0002831884208D11249091F096841F4706132
:1008D0000F4A121F116018E00D493C31884208D1BF
:1008E0000B49091F096841F47041094A121F116040
:1008F0000BE007495031884207D10549091F0968B3
:1009000041F47021024A121F116070470800024032
:100910000804024001460020002201F0805313B178
:10092000054B1A6801E0054B1A6802EA01030BB196
:10093000012000E000207047000402400000024057
:100940001AB103680B43036002E003688B43036042
:10095000704710B50022026847F6F0739A430C6A9C
:100960008B6823430C6923434C6923438C692343DD
:10097000CC6923434C6A23438C6A23431A430260A5
:10098000CB6843600B6883604B68C36010BD7047E1
:100990002DE9F04102460025002600200023002416
:1009A000002791F803C00CF00F0591F803C00CF07C
:1009B000100CBCF1000F03D091F802C04CEA050501
:1009C00091F800C0BCF1000F31D0146800202BE07A
:1009D0004FF0010C0CFA00F3B1F800C00CEA03066A
:1009E0009E4220D183004FF00F0C0CFA03F7BC435A
:1009F00005FA03FC4CEA040491F803C0BCF1280F8B
:100A000006D14FF0010C0CFA00FCC2F814C00AE049
:100A100091F803C0BCF1480F05D14FF0010C0CFA5E
:100A200000FCC2F810C0401C0828D1D31460B1F8F3
:100A300000C0BCF1FF0F34DD546800202EE000F14F
:100A4000080C4FF0010808FA0CF3B1F800C00CEAEA
:100A500003069E4221D183004FF00F0C0CFA03F7DE
:100A6000BC4305FA03FC4CEA040491F803C0BCF152
:100A7000280F05D100F1080C08FA0CF8C2F8148010
:100A800091F803C0BCF1480F07D100F1080C4FF0FA
:100A9000010808FA0CF8C2F81080401C0828CED3D0
:100AA0005460BDE8F0810000F0B50A460023002440
:100AB0000021002500F00046B6F1004F02D11D4E86
:100AC000F16901E01B4E7168C0F3034583B200F485
:100AD0004016B6F5401F08D121F07061154E7668BA
:100AE00026F07066134F7E6012E000F48016B6F5B3
:100AF000801F06D1032606FA05F4A14341F0706178
:100B000006E0460D360103FA06F6B14341F0706186
:100B100022B1460D360103FA06F6314300F00046D5
:100B2000B6F1004F02D1034EF16101E0014E716058
:100B3000F0BD00000000014010B5002100BF21E021
:100B4000124830F8110001EB4102114B33F812202A
:100B5000104401EB410203EB4202908001EB4102A1
:100B600003EB42029288642302FB03F0C21700EBFE
:100B70005252D21201EB4103054C04EB43035A805D
:100B8000481CC1B20829DBDB002010BD7004002026
:100B90008004002000BFFEE72DE9F04707468946A4
:100BA00016461D460024A0460121574800F06EF964
:100BB00006E0B4F5807F02D90020BDE8F087641C10
:100BC0005249514800F024F90028F2D00024780658
:100BD000010E00224C4800F0EBF905E0B4F5807FEF
:100BE00001D90020E9E7641C4949474800F010F9A1
:100BF0000028F3D000244946434800F0E2F905E01C
:100C0000B4F5807F01D90020D7E7641C4049891ED4
:100C10003D4800F0FDF80028F2D00024012D03D05B
:100C20000121394800F0E8F80121374800F02EF999
:100C300005E0B4F5807F01D90020BEE7641C33498C
:100C4000314800F0E5F80028F3D02F481430008830
:100C500000247806010E01222B4800F0A9F905E0D6
:100C6000B4F5807F01D90020A7E7641C2749491CFF
:100C7000254800F0CDF80028F2D023481430008831
:100C800021481830008800244FF0010810E000BF10
:100C90001E493F311C4800F0BBF80028F8D01A4824
:100CA00000F082F906F8010B08F1010000F0FF08DE
:100CB000A845ECDB012D07D000BF14493F31124895
:100CC00000F0A6F80028F8D000210F4800F094F8B2
:100CD000012D01D0012000E0002001460A4800F06B
:100CE000E1F8094800F060F9307000BF07493F3172
:100CF000054800F08DF80028F8D00121024800F0E6
:100D00007BF8002059E70000005400400100030078
:100D1000820007002DE9F0470646894617469846A7
:100D20000024002501212C4800F0B0F806E0B4F5BD
:100D3000807F02D90020BDE8F087641C274926483F
:100D400000F066F80028F2D000247006010E0022A0
:100D5000214800F02DF905E0B4F5807F01D900208D
:100D6000E9E7641C1E491C4800F052F80028F3D043
:100D700000244946184800F024F905E0B4F5807FC6
:100D800001D90020D7E7641C1549891C124800F0DE
:100D90003FF80028F2D00024002514E0795D0E48C9
:100DA00000F00FF905E0B4F5807F01D90020C2E71B
:100DB000641C0B49891C084800F02AF80028F2D06E
:100DC0000024681CC5B24545E8DB0121024800F05B
:100DD00069F80120AFE70000005400400100030063
:100DE0008200070037B504460D46012302AA2946B2
:100DF0002046FFF78FFF3EBD21B1028842F480629A
:100E0000028004E002884FF6FF331A4002807047E8
:100E100070B502460024002500230020958A138B1C
:100E20001B0445EA030626F07F4404EA01068E42CD
:100E300001D1012000E0002070BD21B1028842F004
:100E40000102028004E002884FF6FE731A4002801D
:100E50007047000010B504460B48844209D10121B7
:100E6000480500F0F9FB00214FF4001000F0F4FBFE
:100E700008E00121880500F0EFFB00214FF480001D
:100E800000F0EAFB10BD00000054004021B10288D0
:100E900042F48072028004E002884FF6FF631A4039
:100EA0000280704721B1028842F40072028004E09F
:100EB00002884FF6FF531A40028070472DE9F04335
:100EC00085B004460D460026B1460427DFF8CC80E5
:100ED000A6884FF6C0700640684600F0EDFBDDF8CE
:100EE00008802F48B8FBF0F01FFA80F946EA09069F
:100EF000A68020884FF6FE710840208000262949F0
:100F0000286888420CD828684000B8FBF0F087B207
:100F1000042F00DA04273E4309F10100208427E072
:100F2000E8884BF6FF71884206D1286800EB400044
:100F3000B8FBF0F087B209E0286800EBC00101EBD4
:100F40000010B8FBF0F087B247F48047C7F30B00FE
:100F500008B947F0010747F4004006434FF4967084
:100F600009FB00F04FF47A7190FBF1F0401C2084F3
:100F7000A683208840F00100208026884FF6F530B7
:100F80000640A8886989084306432680A8892989DC
:100F90000843208105B0BDE8F083000000127A000C
:100FA00040420F00A08601000146088AC0B2704787
:100FB00012B141F0010102E04FF6FE7319400182C7
:100FC00070470182704700002DE9FF5F4FF0000A73
:100FD000DFF888B00E236A463B216820FFF7DCFD6E
:100FE0000FE0012000EB4A001DF800001DF81A1068
:100FF00040EA012000B22BF81A000AF1010000F0CB
:10100000FF0ABAF1070FECDB144800894D3800B233
:101010001249088108464089143001B20F484181C5
:101020008089083801B20D4881810146B1F9060076
:1010300001F015FA80460A4A0A4B01F027FA0646E3
:101040000022094B01F034F9044601F0D9F900B24D
:101050000249C880012004B0BDE8F09FD004002000
:101060002E8ECA4DD4D2D23F008AAC402DE9FF5F0C
:101070008849B1F9000001F083FE04468648016802
:10108000204601F0FDFC844908608249B1F9020064
:1010900001F076FE044680484168204601F0F0FCED
:1010A0007D4948607B49B1F9040001F069FE0446BE
:1010B00079488168204601F0E3FC774988607748E9
:1010C00000780A2190FBF1F201FB1200002873D195
:1010D000714A9168906801F09FFE6F4A03905168D1
:1010E000506801F099FE82466B4A1168106801F061
:1010F00093FE8346514601F0C3FC8146039901F0FB
:10110000BFFC044601F090FC074601F079F8054663
:1011100001F09CF86249086062496148006801F08A
:1011200047FF42D260495E48006801F041FE3CD270
:101130005849B1F9040001F023FE05465549B1F9BB
:10114000000001F01DFE0646294600F051FF04464E
:10115000564901F003FD4F49C863B1F9020001F09F
:101160000FFE05464B49B1F9000001F009FE0646A5
:10117000294600F03DFF04464C4901F0EFFC45498B
:101180004863B1F9020001F0FBFD05464149B1F9A0
:10119000040001F0F5FD0646294600F029FF04464B
:1011A000424901F0DBFC3B49886300203B49087061
:1011B000394988604860086038480078401C3749E1
:1011C00008703449B1F90A0001F0DAFD019001F02C
:1011D0002BFC8046364A374B01F058F9364A374BDC
:1011E000CDE9020101F052F904460D462949C86BC8
:1011F00001F01AFC064622462B4601F02BFB8246E4
:1012000001F024F82349C863B1F90C0001F0B8FDDE
:10121000019001F009FC8246254A264B01F036F97F
:101220008046254A254B01F031F904460D461949FF
:10123000486B01F0F9FB064622462B4601F038F8D0
:10124000CDE9020101F002F812494863B1F9080042
:1012500001F096FD019001F0E7FB0646144A154B9C
:1012600001F014F98246144A144B01F00FF90446B8
:101270000D460849886B01F0D7FB22462B46CDE985
:10128000020101F0E7FA804600F0E0FF01498863BF
:10129000BDE8FF9FD00400201C050020440400206E
:1012A00048040020007C92470010A44734FA8E3C8A
:1012B000B0977D893E409F3F7B14AE47E17A843FE3
:1012C00000BFFEE77047000070B5002100230F2229
:1012D000C47804B3154C246804F4E064C4F5E064F5
:1012E000210AC1F10403CA40447804FA03F1847866
:1012F0001440214309010E4C0678A155047804F0EE
:101300001F050124AC4005786D11AD0005F1E02505
:10131000C5F8004109E0047804F01F050124AC4041
:10132000044D0678761145F8264070BD0CED00E0BE
:1013300000E400E080E100E002490143024A11605C
:10134000704700000000FA050CED00E070B50024C5
:1013500018E004F1B000002100F00DF9002108466A
:1013600000F009F90021102000F005F9002505E042
:101370000121002000F0FFF8681CC5B2802DF7DBCA
:10138000601CC4B2082CE4DB70BD10B50021AE2097
:1013900000F0F1F8022000F066F80021A62000F02D
:1013A000EAF80021B02000F0E6F80021402000F02B
:1013B000E2F80021A12000F0DEF80021C82000F0B2
:1013C000DAF80021D32000F0D6F80021084600F01A
:1013D000D2F80021DA2000F0CEF80021122000F02F
:1013E000CAF80021A82000F0C6F800213F2000F034
:1013F000C2F80021D52000F0BEF80021F02000F056
:10140000BAF80021D92000F0B6F80021222000F01F
:10141000B2F80021DB2000F0AEF80021492000F0F6
:10142000AAF800218D2000F0A6F80021142000F079
:10143000A2F80021AF2000F09EF8FFF787FF10BD53
:1014400070B504460E46154636B12B46224640215D
:101450003C20FFF75FFC05E02B46224600213C20A4
:10146000FFF758FC70BD10B504460021812000F044
:1014700082F80021204600F07EF810BD70B50446C9
:101480000D4605F1B000002100F075F8102141EA89
:101490001410002100F06FF804F00F00002100F09C
:1014A0006AF870BD2DE9F04105460E46174698468C
:1014B0000024A7F12000C4B27F2D04DDA5F1800037
:1014C000C5B2701CC6B2B8F1100F19D1314628460A
:1014D000FFF7D4FF124901EB041008220121FFF7A6
:1014E000AFFF701CC1B22846FFF7C8FF082101EB0F
:1014F00004110B4A881808220121FFF7A1FF0CE014
:1015000031462846FFF7BAFF04EB4401054A02EBD7
:10151000410006220121FFF793FFBDE8F0810000A2
:101520003A330008123100082DE9F041044688469C
:1015300015461E46002719E0EA5D3346414620461F
:10154000FFF7B0FF102E01D1082000E00620204454
:10155000C4B2782C08DD0024102E01D1022000E056
:101560000120404400F0FF08781CC7B2E85D002865
:10157000E2D1BDE8F08170B504460D462DB1E2B26E
:1015800040213C20FFF72EFC04E0E2B200213C2089
:10159000FFF728FC70BD000010B516480088154AFA
:1015A0005289104481B2144800F09CFA11484288D4
:1015B0008089104481B2104800F09AFA0D48828860
:1015C000C089104481B20C4800F090FA0948C288E2
:1015D000008A104481B24FF0804000F083FA054841
:1015E0000289408A104481B24FF0804000F07CFABA
:1015F00010BD0000280500200004004070470000D6
:1016000001460020034A506820F4404008435060DF
:10161000704700000010024029B1064A5269024397
:10162000044B5A6104E0034A52698243014B5A61F8
:10163000704700000010024029B1064AD2690243F7
:10164000044BDA6104E0034AD2698243014BDA6158
:10165000704700000010024029B1064A1269024397
:10166000044B1A6104E0034A12698243014B1A6178
:10167000704700000010024029B1064A92690243F7
:10168000044B9A6104E0034A92698243014B9A61D8
:10169000704700000010024029B1064AD268024398
:1016A000044BDA6004E0034AD2688243014BDA60FB
:1016B000704700000010024030B5002100220024D5
:1016C00000232D4D6D6805F00C0121B1042905D0D2
:1016D000082923D105E0294D056022E0274D05604A
:1016E0001FE0254D6D6805F47012234D6D6805F4FB
:1016F0008034022505EB92421CB9214D554305600B
:101700000BE01D4D6D6805F400351DB11C4D5543B2
:10171000056002E0194D5543056002E0174D056074
:1017200000BF00BF144D6D6805F0F0010909154DAB
:101730006B5C0568DD4045600F4D6D6805F4E06148
:10174000090A104D6B5C4568DD4085600A4D6D6887
:1017500005F46051C90A0B4D6B5C4568DD40C560FE
:10176000054D6D6805F44041890B074D6B5CC568FC
:10177000B5FBF3F5056130BD0010024000127A00A0
:1017800000093D003004002040040020704710B5DF
:1017900000F002F810BD00000CB500200190009090
:1017A0003348006840F480303149086000BF304859
:1017B000006800F4003000900198401C01900098EF
:1017C00018B90198B0F5A06FF1D12948006800F46C
:1017D000003010B10120009001E00020009000983E
:1017E000012843D12348006840F0100021490860D7
:1017F0000846006820F0030008600846006840F0D2
:10180000020008601A484068194948600846406864
:1018100048600846406840F4806048600846406878
:1018200020F47C1048600846406840F4E8104860A6
:101830000846006840F08070086000BF0C480068EF
:1018400000F000700028F9D00948406820F003003B
:10185000074948600846406840F00200486000BF01
:101860000348406800F00C000828F9D10CBD0000C6
:10187000001002400020024010B586B00024012173
:101880000920FFF7F9FE01214805FFF7D5FE0121E8
:101890000220FFF709F94FF44070ADF814001C2046
:1018A0008DF8170003208DF8160005A91548FFF7DD
:1018B0006FF81548FFF7CEFA0020ADF808004FF496
:1018C0008060ADF80E000001ADF810004BF6FF701F
:1018D000ADF80A000D4801900120ADF80C0001A9F7
:1018E0000948FFF7EBFA01210748FFF7A6FA0121A3
:1018F0000548FFF7D7FA01210348FFF7C7FA06B0FA
:1019000010BD0000000C014000540040400D0300D9
:10191000042808D14FF0E021096941F004014FF09B
:10192000E022116107E04FF0E021096921F0040194
:101930004FF0E022116170477047000010B5134866
:10194000006840F0010011490860084640681049ED
:1019500008400E494860084600680E4908400B4997
:1019600008600846006820F4802008600846406847
:1019700020F4FE0048604FF41F008860FFF707FF67
:101980004FF000600449086010BD000000100240E4
:101990000000FFF8FFFFF6FE08ED00E07FB504460B
:1019A0000D460121C802FFF767FEADF80840681E2A
:1019B00080B2ADF804000020ADF80A00ADF80600D2
:1019C0008DF80C0001A90F4800F096F801210D4890
:1019D00000F05CF8012241210A4800F07AF8192051
:1019E0008DF8000000208DF801008DF80200012024
:1019F0008DF803006846FFF767FC0121014800F0FD
:101A00004BF87FBD002C014010B51C48006800EB6E
:101A1000800040001A4908600020184908601948F1
:101A20000078642803D100201649087004E01548A6
:101A30000078401C13490870FFF7C6FAFFF716FB41
:101A40001049087800EBD0714910A0EB410109B1B1
:101A5000FFF7A2FD0B480078192190FBF1F201FB82
:101A6000120008B900F0ECF90121074800F020F855
:101A700018B10121044800F00CF810BD2C0400201E
:101A80000400002008000020002C0140CA4302820C
:101A90007047CA430282704721B1028842F00102B6
:101AA000028004E002884FF6FE731A4002807047FD
:101AB00030B50246002000230024158A05EA010300
:101AC000958905EA010413B10CB1012000E0002062
:101AD00030BD1AB183890B43838102E083898B4334
:101AE000838170478186704701877047818770477F
:101AF000A0F8401070470000002202881D4B984259
:101B00000ED01D4B98420BD0B0F1804F08D01B4B2C
:101B1000984205D01A4B984202D01A4B984204D1F1
:101B20004FF68F731A404B881A43174B984207D0D1
:101B3000164B984204D04FF6FF431A40CB881A4305
:101B400002808B8883850B8803850A4B98420BD0D3
:101B5000094B984208D00E4B984205D00D4B984245
:101B600002D00D4B984201D10B7A03860123838268
:101B700070470000002C0140003401400004004088
:101B800000080040000C004000100040001400401D
:101B900000400140004401400048014070B500256C
:101BA000002405E00B48005D2844C5B2601CC4B2A7
:101BB000102CF7D307480079A84204D11022054918
:101BC0000548FEF747FB054800880448001D0088CB
:101BD00070BD00004C0500203C050020003801408D
:101BE00021B1828942F40052828104E082894DF65B
:101BF000FF731A40828170471AB1838A0B43838234
:101C000002E0838A8B4383827047F0B50346002449
:101C100000260025002040F66A17B94200D100BF17
:101C20001846C1F3421401F01F06012707FA06F512
:101C3000012C01D10C3004E0022C01D1103000E065
:101C400014301AB107682F43076002E00768AF43FA
:101C50000760F0BD2DE9F04786B005460E4600242A
:101C6000A24600BFA1460027B08900B100BF2F46A1
:101C70002C8A4CF6FF700440F08804432C82AC8917
:101C80004EF6F3100440B088318908437189084347
:101C90000443AC81AC8A4FF6FF400440B089044352
:101CA000AC8201A8FFF708FD1F48874202D1DDF88A
:101CB00010A001E0DDF80CA0A88900F4004040B1BC
:101CC0000AEBCA0000EB0A1031684900B0FBF1F8DA
:101CD00007E00AEBCA0000EB0A1031688900B0FB8C
:101CE000F1F86420B8FBF0F004012009642101FB45
:101CF0001089A88900F4004040B1322000EBC900EF
:101D0000B0FBF1F000F00700044308E0322000EBE4
:101D100009106421B0FBF1F000F00F0004432C81A6
:101D200006B0BDE8F08700000038014000BFFEE7C4
:101D300000B58DB00F208DF8300003208DF83100F4
:101D400002208DF8320001208DF833000CA8FFF737
:101D5000BBFA01210846FFF75FFC3148FEF734FD6E
:101D600030480190304802901020039008200490E1
:101D70000020059080200690002007900890099090
:101D80004FF440500A9000200B9001A92448FEF720
:101D9000E0FD4FF48050FEF7EFFC00212048FEF7F5
:101DA00007FD01210846FFF737FC1D481430FEF7F8
:101DB0000BFD1C4801901D4802900020039010204C
:101DC0000490002005908020069000200790089045
:101DD000202009904FF440500A9000200B9001A958
:101DE0000F481430FEF7B5FD4FF48030FEF7C4FC09
:101DF00001210B481430FEF7DBFC00210948001FCD
:101E0000FFF7EEFE0122C0210648001FFFF7F4FE97
:101E100001210448001FFFF7E3FE0DB000BD0000E4
:101E20004400024004380140680400204C050020B2
:101E300010B54FF4964000F03DF8FFF779FF10BD64
:101E400000200021184A117118498978117017492A
:101E5000097AD1701549897B91701449097D5170B7
:101E60001249897E517108E00F4909790E4A125CC6
:101E700011440D4A1171411CC8B20828F4D30A4913
:101E800009794906090E084A11710949496C01F09E
:101E9000FE01074A5164082191641146496C41F0E2
:101EA0000101516470470000680400208004002094
:101EB0000000024010B586B00446012144F2010042
:101EC000FFF7DAFB01210820FFF7D6FB01210420F0
:101ED000FEF7EAFD4020ADF8140003208DF816004F
:101EE00018208DF8170005A91B48FEF751FD80202A
:101EF000ADF8140028208DF8170005A91648FEF744
:101F000047FD25208DF8000003208DF801008DF895
:101F1000020001208DF803006846FFF7D5F901940F
:101F20000020ADF80800ADF80A00ADF80C00ADF8DF
:101F300010000C20ADF80E0001A90848FFF78AFE3A
:101F4000012240F224410548FFF75FFE01210348CA
:101F5000FFF746FE06B010BD000C014000380140FE
:101F600010B56FF00400FFF7D3FC0A4800680A4977
:101F7000B0FBF1F0094908700846007800EB400119
:101F8000C1EBC0104FF6FF7101EAC00004490880A0
:101F900010BD00000C00002000127A00200000207C
:101FA000220000200146114A12884A434FF0E023E4
:101FB0005A6100229A611A46126942F001021A61BE
:101FC00000BF4FF0E022106900F001021AB100F4E6
:101FD0008032002AF5D04FF0E022126922F001028F
:101FE0004FF0E0231A6100229A617047220000201E
:101FF0002DE9FE4F814688460021484600F070FEDC
:1020000006D10021404600F06BFE01D10024A4E07F
:102010000021484600F0CCFF01D2484601E089F09B
:10202000004083460021404600F0C2FF01D24046F6
:1020300001E088F0004082465146584600F0B8FE64
:1020400005D25146584600F089FD074604E059463E
:10205000504600F083FD07464149384600F0A8FE8F
:1020600001D23D462BE04FF08741384600F0D4FEC8
:102070004FF07C51019000F0D7FF0290029800F0E1
:1020800063FE0646304600F07BFE0190029900F0A8
:10209000C0FF0290334850F82650024652F82610EE
:1020A0000346721C53F8220000F0BEFF0090029914
:1020B00000F0B2FE2946019000F0E2FC05465946C8
:1020C000504600F075FF20D20021404600F070FF1E
:1020D00009D80021484600F06BFF01D82C463CE0AF
:1020E00085F0004439E0204C0021484600F060FFB4
:1020F00005D82946204600F097FF04462DE02146EA
:10210000284600F091FF044627E00021484600F0F1
:102110004FFF11D8154C0021404600F049FF05D86B
:102120002946204600F080FF044616E02946204656
:1021300000F0A6FC044610E00D4C0021404600F0E3
:1021400037FF05D82946204600F09AFC044604E0F3
:102150002946204600F068FF04462046BDE8FE8F71
:102160008180803B24000020DB0F4940DB0FC93F0A
:10217000DB0FC9BF012080F3108800BF4FF4A060BF
:10218000FFF7DAF8FFF7ECFEFFF776FBFEF75EFAF3
:10219000FEF73AF9FFF74CFE4FF47A714FF43470C2
:1021A000FFF7FCFB6420FFF7FDFEFFF7EEF81023BE
:1021B0000AA200210846FFF7B7F910230BA202215B
:1021C0000020FFF7B1F9002080F3108800BF04E081
:1021D0000A480068401C09490860F9E7202020638C
:1021E00054696D653A20203A20203A00483A202070
:1021F000204D2020475053780000000000000020B0
:102200002DE9F04106460F4600F03EFA041E0D4649
:1022100018BF0120284320F00040C0F17F6000F18A
:10222000E040C00F0ED0301C18BF0120384320F012
:102230000040C0F17F6000F1E040C00F04BF01200A
:10224000FEF755F820462946BDE8F08121F000420E
:10225000A2F16052B2F5801F01F0004328BFD2F115
:102260007F6C0BD95FEA001C43EAC20242EB50705C
:1022700018BF704728BF20F001007047B2F5801FDB
:10228000BCBF184670474FEA410C1CF5001F02D234
:10229000084600F088BE70B500F0A2F90000008981
:1022A000FFF7F6BF4FF00040A0F580007047000038
:1022B00010B591EA030F48BF83F0004300F1D282CA
:1022C000841A71EB030C05D2121943EB0C03001BAB
:1022D00061EB0C01DFF824E14FEA1154A4EB135C2D
:1022E0001EEA430F18BF9EEA445F73D023EA0E0331
:1022F000DCF1200E21EA045143F4801332D322FA98
:102300000CFE10EB0E0023FA0CFE41EB0E01CCF19B
:10231000200E03FA0EFE10EB0E0051F10001B1F594
:10232000801FCCF1200E32D201EB045112FA0EF2D2
:10233000BDE8104058BF7047401C38BF5FEA4202FA
:1023400018BF7047002814BF20F0010041F10001C0
:102350004FEA410313F5001F38BF7047A1F1C04198
:1023600000F08CB9012A43EB0302ACF1200CDCF144
:102370001F0E32BF4FF0000E23FA0CF310EB0300D8
:1023800041EB0451B4EB115FD0D0A1EB045101F546
:10239000801149085FEA300001EB04510ED350F17F
:1023A000000038BF12FA0EFE08D1BDE81040C9E7A0
:1023B000401C38BF5FEA4202CAD1C3E7BDE8104003
:1023C0004FEA410313F5001F38BF7047A1F1C04128
:1023D00000F054B99EEA445F08D011EA5E0FBDE8F0
:1023E000104004BF01F0004100207047BDE81040DC
:1023F00070B500F0F5F800BF64FBBE3E0000E0FFE2
:102400004FEA41034FEA5353A3F58063D3F11E0310
:10241000C8BFD3F1210C0CDD4FF0004242EAC122CB
:1024200042EA505232FA03FC8CEAE17CACEBE170F8
:102430007047102BC4BF0020704703F5787CBCF1B7
:10244000FF3F04D06FF0004282EA2100704770B570
:1024500000F0C6F84992248000207047F2E710F09F
:10246000004248BF4042B0FA80F310FA03F10AD0AC
:10247000C3F11D0303F580634FEA415002EB0352A1
:1024800002EBD12170474FF000007047DFF848C1E0
:1024900070B51CEA111E1EBF1CEA13159EEA0C0F34
:1024A00095EA0C0F00F06F8081EA030423EA4C13D5
:1024B0004EEAD47E21EA4C1141F4801143F480139A
:1024C000AE44A1FB024CA0FB0365AEF17F7E361942
:1024D00055EB0C05A1FB034C4CF10003A0FB021CC7
:1024E00016EB0C06654153F10003094218BF46F094
:1024F000010613F4007F0BD14FEA03314FEA053098
:10250000340341EA155140EA16506FF003020AE025
:102510004FEAC3214FEAC520F40241EA555140EA8F
:1025200056506FF0020202EB2E4201EB025585EA93
:10253000CE710AD05FEA440C18BF24F0004450F179
:10254000000041F1000120EAD47040F2FE7C6245B7
:1025500000D270BDA84214BF4FF080444FF04044F9
:10256000002E08BF0024BEF1806FA8BFA1F1C041BA
:10257000BDE8704080F282804FF0000001F1C04160
:1025800001F0004170479EEA0C0F0CEA131518BFCA
:1025900095EA0C0F06D04FF0000081EA030E0EF012
:1025A000004170BD00F01CF88900013E00F007B842
:1025B00000F009B84FEA430C5FEA5C5C08D081EA9E
:1025C000030100F05BB84FEA410C5FEA5C5CF6D1B6
:1025D0004FF00000014970470000FF070000F87F3E
:1025E0000EF1020E2EF0030E5EF8046B364205D497
:1025F000012A43EB030515F5001F12D8012841EB12
:10260000010C1CF5001F0CD80ED14FEAD17C15F53A
:10261000001F0CEB4C0C0CF1020C08BF4CEBD37CF4
:1026200004E04FF0080C01E04FEAD37C0CEB4C05C2
:1026300026FA05F606F00706B6F1040C06D20EEBF4
:10264000860CBDE870404CF0010C6047DFE80CF0F0
:10265000090B02024FF000414FF00000A1F50021EC
:1026600070BD19461046012851EB010418BFD4F57E
:10267000001484BF002001F0004170BD0808A0F5DF
:1026800000114FEA310170472DE9F04101F5801C3E
:10269000BCF5001FC0F2C3804FEA115C21EA0C5167
:1026A0000CF1FD0C41F480115FEA5C0C0CF5C07C70
:1026B00001D3400049413DA4890241EA905187027B
:1026C0008E0E0A0CA45D04FB04F602FB06F6C6F1AE
:1026D0004046A4FB0662F60D46EA422606FB06F4D7
:1026E000A4FB01235242C3F1404338BF5B1EA6FB4B
:1026F00002420024E6FB0324D20B42EA4446A6FB36
:102700000623A1FB02E2A3FB07E4A4184FF000029A
:1027100052F10002E3FB01426442C2F1404E38BF75
:10272000AEF1010EA6FB04234FF00002E6FB0E32D1
:10273000A2FB03464FF00004B61954F10004E2FB7B
:102740000264A1FB06E6A4FB07E816EB08064FF0BF
:10275000000858F10008E4FB01687642C8F14058CF
:1027600038BFA8F10108A2FB06E4A3FB08E52D1978
:102770004FF0000454F10004E2FB0854A1FB05E60D
:10278000A7FB04E818EB06084FF0000656F1000618
:10279000E1FB048618F1200556F10006A809A8F10E
:1027A0001B08B10908F03F08B8F10A0F40EA86603B
:1027B0001CD901EB0C51BDE8F08100BFFCF5EEE83F
:1027C000E2DDD8D3CFCBC7C3C0BDB9B6B4B1AEACD0
:1027D000A9A7A5A3A19F9D9B9A9896959392908F48
:1027E0008D8C8B898887868584838281A0FB006895
:1027F00000FB01F208EB4208B8EB872807D5341834
:1028000058EB0104D5D5401C51F10001D1E7341A31
:1028100078EB0104CDD4401E71F10001C9E75FEAF5
:102820004C0C5FEA9C5C0DD105D34FF0000001F029
:102830000041BDE8F081BDE8F04170B5FFF7D0FE82
:102840006DDBFFBEBDE8F0414FF00000004970476E
:102850000000F87F10B591EA030F48BF83F00043F2
:102860003FF52EAD841A71EB030C07D212198CF0D0
:10287000004C43EB0C03001B61EB0C01DFF8A4E1FF
:102880004FEA1154A4EB135C1EEA430F18BF9EEAF3
:10289000445F00F0B08023EA6E03524221EA045103
:1028A000C3EB6E0338BF5B1EDCF1200E25D322FA8A
:1028B0000CFE10EB0E0043FA0CFE41EB0E01CCF1C6
:1028C000200E03FA0EFE10EB0E0051F10001CCF1C8
:1028D000200E29D412FA0EF201EB0451BDE810408B
:1028E00058BF7047401C1CBFB2F1004F7047002812
:1028F0000CBF491C20F00100704712EB020E43EBA5
:10290000030218BF4FF0010E4EEA4202ACF1200C58
:10291000DCF11E0E54D943FA0CFE10EB0E0051F1FF
:10292000FF31CCF11E0ED5D50EF1010E12FA0EFEBE
:10293000404141EB010101EB445C5FEA5C5C10D972
:1029400010EBDE7001EB045138BFBEF1004FBDE863
:10295000104018BF704700280CBF491C20F0010030
:10296000704730D24FEAD42C11F5001124F40064E2
:102970001BD0B1FA81F20B3AA41AA41ED2F12003A3
:10298000914030FA03F31943904001EBCC71002CD5
:1029900001EB0451BDE81040A8BF704701F1C041F0
:1029A0004FF0000001F000417047B0FA80F310FAD8
:1029B00003F100D110BDE41A173C4805C90AE4E749
:1029C00001EB045110BD491001EB0451BDE810406A
:1029D0004FEA300002E04FF0000170474A0008BFA4
:1029E0000042F8D0B2F5001F28BF704701F0004147
:1029F0004FF0000070479EEA445F07D011EA5E0F77
:102A0000BDE8104004BF002100207047BDE8104021
:102A100070B5FFF7E5FD00BF40DFF63E83F00041F3
:102A2000104670470000E0FF43004FEAD30C4FEA26
:102A30003C0C43401FBF40070CF1605113F0FE4FA8
:102A400070471CF0006F03D100200CF0004170476C
:102A50000CF0004343EA507010B540EACC0000F09F
:102A60005CFA00BF000000924FEA0001FFF706BECB
:102A70004FF000414FF00000A1F500217047000029
:102A800090EA010F48BF81F0004100F1D482421A60
:102A90003CBF801A89184FEAD0524FF07F4C1CEA95
:102AA000410FA2EBD15318BF9CEA026F00F03B80AC
:102AB0004FF0004C4CEA00204CEA012121FA03FCC3
:102AC00010EB0C0C1ED202F1FF325FEA1C2040EB2F
:102AD000C25038BF70471CF07F0F4FEA400C18BF40
:102AE000BCF17F4F38BF7047C3F12003994008BF46
:102AF00020F00100BCF17F4F38BF7047A0F1C0400B
:102B000000F051BA4FEA3C00000A40EBC25028BF27
:102B10001CF0FF0F4FEA400CE6D018BFBCF17F4F0E
:102B200038BF7047EAE79CEA026F05D010EA5C0FF5
:102B300008BF00F00040704710B500F0EEF900BF8C
:102B400064FBBE3E401058BFC0F14040491058BF22
:102B5000C1F140418142EFF3008070474FF47F0C98
:102B60001CEAD0121EBF1CEAD11392EA0C0F93EAA2
:102B70000C0F00F0858090EA010F48BF42F480728C
:102B800040F4000C41F400002CF07F4120F07F4025
:102B900000B58142A2EB03020FF2081CACEB504ED1
:102BA000C0F100009EF800E04FEA4E0E00FB0EFC64
:102BB00038BF49004FEA2C1C02F5FA020CFB0EF359
:102BC0004FEACE1E4FEA112C4FEAC1210EEB635E95
:102BD00042EB22420EFB0CFC4FEA1C5300FB03119C
:102BE0004FEA112C4FEA01310EFB0CFC4FEADC4C92
:102BF00000FB0C11C14228BF09184CEB03335DF8F0
:102C000004EB10EB410143EBC250B2F57C0F38BF2F
:102C1000704729D512F0F00F1CBF00F1C04000F042
:102C200000407047008182838485868788898B8CE9
:102C30008D8E8F919293959697999A9C9D9FA0A225
:102C4000A3A5A7A8AAACAEB0B2B3B5B7B9BCBEC075
:102C5000C2C5C7C9CCCED1D4D7D9DCDFE2E6E9EC16
:102C6000F0F3F7FAFE0000004FEA400C0CF1807C14
:102C7000BCF17E4F28BF7047B0F1C04000F093B95F
:102C800090EA010F0CEAD11348BF42F4807262450A
:102C900038BF634507D213F47F0F16D080EA0100D6
:102CA00000F00040704710B500F037F9097EFC3E97
:102CB00000F005B880EA010000F00040704780EAAB
:102CC000010000F0004000F06EB912F47F0F04BF65
:102CD0000248704780EA010000F065B90000C07F3B
:102CE00050EA010C00F113801CF5000F58BFBCF531
:102CF000000F01D48842704707D710F5000F58BF66
:102D000011F5000F15D488427047894270471CF5B1
:102D1000000F04D5BCF5000FF7D5814270474FF086
:102D2000807C1CEB400F38BF1CEB410F01D281426D
:102D3000704710B500F0F1F8922449004FF00050B0
:102D40004FF08051FFF7FEBE41000B0ED3F19E0203
:102D500008D950F400034FEA032323FA02F048BFD6
:102D60004042704710B500F0D8F800BF4992248067
:102D7000002070476FF0004282EA20007047000098
:102D800010F0004148BF4042B0FA80F310FA03F25D
:102D9000C3F19D030BD051EAC35101EB122053063E
:102DA00038BF704700F1010008BF20F001007047F4
:102DB00050EA010C00F113801CF5000F58BFBCF560
:102DC000000F01D48842704707D710F5000F58BF95
:102DD00011F5000F15D488427047894270471CF5E1
:102DE000000F04D5BCF5000FF7D5814270474FF0B6
:102DF000807C1CEB400F38BF1CEB410F01D281429D
:102E0000704710B500F089F8922449004FF0005047
:102E10004FF08051FFF796BE4FF47F0C1CEAD012A2
:102E20001EBF1CEAD11392EA0C0F93EA0C0F00F0BC
:102E3000478090EA010F48BF42F480724FF0004C87
:102E40004CEA00204CEA012102EB0302A0FB011333
:102E5000A2F50002002918BF43F001035B0028BF60
:102E60004FEA330342EB22425FEA132C4CEBC25091
:102E70002EBFBCEB436FB2F57C0F70474FEA036C7B
:102E8000BCF1004F08BF20F00100B2F57C0F38BF45
:102E900070470BD582F0FF0212F5803FC8BF704724
:102EA00000F1C040D8BF00F00040704700F5000CB2
:102EB0005FEA4C0C48BF7047B0F1C04000F073B8F7
:102EC00090EA010F0CEAD11348BF42F480726245C8
:102ED00038BF634504D280EA010000F0004070472B
:102EE00010B500F01AF800BF8900013E00F007B8E5
:102EF00000F009B85FEA410C5FEA1C6C08D080EA78
:102F0000010000F050B85FEA400C5FEA1C6CF6D19B
:102F10004FF00040A0F5800070470EF1020E2EF039
:102F2000030E5EF8044B244204D44FEA4102B2F18E
:102F30007F4F11D84FEA4003B3F17F4F0CD80ED129
:102F40004FEAD07CB2F17F4F0CEB4C0C0CF1020C31
:102F500008BF4CEBD17C04E04FF0080C01E04FEAD5
:102F6000D17C0CEB4C0324FA03F404F00704B4F115
:102F7000040C06D20EEB840CBDE810404CF0010CA2
:102F80006047DFE80CF0070802024FF00040A0F5B0
:102F9000800010BD0846420018BFD2F1807288BF81
:102FA00000F0004010BDFF2141EAD050C00570473D
:102FB00051EA000C00F113801CF5000F58BFBCF55E
:102FC000000F01D48142704707D711F5000F58BF99
:102FD00010F5000F15D481427047894270471CF5E7
:102FE000000F04D5BCF5000FF7D5884270474FF0AD
:102FF000807C1CEB410F38BF1CEB400F01D2884294
:10300000704780EA010081EA000180EA0100FFF7D1
:10301000F8BE80F0004090EA010F7FF538AD81F0F6
:10302000004100F008B8000090EA010F48BF81F0AD
:1030300000413FF52CAD421A04D882F00042A0EBCB
:10304000020011444FEAD0524FF07F4C1CEA410F6E
:10305000A2EBD15318BF9CEA026F4AD04FF0004C4C
:103060004CEA00204CEA012121FA03FCB0EB0C0CE5
:103070000FD412F0FE0F36D05FEA4C001DD50012BF
:1030800040EBC25038BF70471CF03F0F18BF70476D
:103090000BE0A2F101025FEA1C2040EBC25038BFF6
:1030A00070471CF07F0F18BF7047C3F12003994091
:1030B00014BF401E20F00100704780084FEA122321
:1030C00008BF7047B0FA80FCA2EB0C02CCF1280CD0
:1030D00060FA0CF093EA122F04BF00EBC250704765
:1030E0004FEAC3707047130A5FEADC1008BF7047ED
:1030F000F6E79CEA026F04D010EA5C0F08BF0020DC
:10310000704710B5FFF709FF40DFF63E81F0004041
:1031100070470000000000000000002F00000000C9
:103120000700070000147F147F1400242A7F2A124E
:10313000006264081323003649552250000005033D
:10314000000000001C224100000041221C0000146D
:10315000083E08140008083E0808000000A06000AF
:10316000000808080808000060600000002010083F
:103170000402003E5149453E0000427F40000042AB
:1031800061514946002141454B31001814127F100E
:10319000002745454539003C4A494930000171093D
:1031A000050300364949493600064949291E0000F1
:1031B0003636000000005636000000081422410098
:1031C00000141414141400004122140800020151C8
:1031D000090600324959513E007C1211127C007FD1
:1031E00049494936003E41414122007F4141221C6C
:1031F000007F49494941007F09090901003E4149D1
:10320000497A007F0808087F0000417F41000020C4
:1032100040413F01007F08142241007F4040404070
:10322000007F020C027F007F0408107F003E4141B6
:10323000413E007F09090906003E4151215E007FA1
:10324000091929460046494949310001017F010118
:10325000003F4040403F001F2040201F003F4038BB
:10326000403F0063140814630007087008070061FA
:103270005149454300007F41410000552A552A55D8
:10328000000041417F000004020102040040404070
:103290004040000001020400002054545478007F94
:1032A0004844443800384444442000384444487F6B
:1032B00000385454541800087E0901020018A4A4D0
:1032C000A47C007F080404780000447D4000004096
:1032D00080847D00007F102844000000417F400072
:1032E000007C04180478007C080404780038444406
:1032F000443800FC242424180018242418FC007CE2
:103300000804040800485454542000043F4440205A
:10331000003C4040207C001C2040201C003C4030F1
:10332000403C004428102844001CA0A0A07C00447D
:1033300064544C44141414141414000000000000CD
:1033400000000000000000000000000000F8000085
:103350000000000000333000000000100C06100CCC
:103360000600000000000000000040C07840C07867
:103370004000043F04043F040400007088FC08304F
:103380000000001820FF211E0000F008F000E018E7
:10339000000000211C031E211E0000F008887000A0
:1033A00000001E2123241927211010160E000000F2
:1033B00000000000000000000000000000E0180411
:1033C0000200000000071820400000020418E0007E
:1033D00000000040201807000000404080F08040BE
:1033E00040000202010F01020200000000F0000094
:1033F00000000101011F01010100000000000000A8
:10340000000080B07000000000000000000000001C
:1034100000000001010101010101000000000000A5
:10342000000000303000000000000000000080605C
:103430001804006018060100000000E010080810E1
:10344000E000000F102020100F00001010F8000006
:1034500000000020203F202000000070080808889D
:10346000700000302824222130000030088888486D
:1034700030000018202020110E000000C02010F89D
:10348000000000070424243F240000F8088888086E
:1034900008000019212020110E0000E01088881873
:1034A0000000000F112020110E0000380808C83855
:1034B00008000000003F0000000000708808088835
:1034C0007000001C222121221C0000E010080810BE
:1034D000E0000000312222110F00000000C0C000F7
:1034E00000000000003030000000000000800000FC
:1034F00000000000806000000000000080402010FC
:1035000008000001020408102000404040404040F4
:103510004000040404040404040000081020408057
:10352000000000201008040201000070480808088C
:10353000F0000000003036010000C030C828E8105C
:10354000E0000718272423140B000000C038E00017
:103550000000203C23020227382008F88888887061
:103560000000203F202020110E00C030080808086D
:103570003800071820202010080008F80808081054
:10358000E000203F202020100F0008F88888E8087D
:103590001000203F20202320180008F88888E80821
:1035A0001000203F200003000000C0300808083849
:1035B000000007182020221E020008F8080000085A
:1035C000F808203F210101213F20000808F80808E1
:1035D00000000020203F2020000000000808F8081C
:1035E0000800C08080807F00000008F888C028188C
:1035F0000800203F20012638200008F808000000BD
:103600000000203F20202020300008F8F800F8F8C3
:103610000800203F003F003F200008F830C00008AD
:10362000F808203F200007183F00E01008080810A5
:10363000E0000F10202020100F0008F808080808EC
:10364000F000203F210101010000E01008080810EF
:10365000E0000F18242438504F0008F88888888824
:103660007000203F2000030C3020007088080808FC
:1036700038000038202121221C00180808F808080A
:1036800018000000203F2000000008F80800000893
:10369000F808001F202020201F000878880000C89C
:1036A0003808000007380E010000F80800F800088C
:1036B000F800033C0700073C030008186880806896
:1036C000180820302C03032C30200838C800C838D4
:1036D00008000000203F2000000010080808C8383B
:1036E00008002038262120201800000000FE0202D9
:1036F00002000000007F40404000000C30C000008D
:103700000000000000010638C00000020202FE00B6
:103710000000004040407F00000000000402020260
:103720000400000000000000000000000000000095
:103730000000808080808080808000020204000081
:103740000000000000000000000000008080808079
:1037500000000019242222223F2008F80080800067
:103760000000003F112020110E000000008080802A
:103770000000000E11202020110000000080808831
:10378000F800000E112020103F2000008080808073
:103790000000001F222222221300008080F088886F
:1037A00088180020203F20200000000080808080BA
:1037B0008000006B94949493600008F800808080EF
:1037C0000000203F210000203F200080989800004A
:1037D00000000020203F202000000000008098987A
:1037E000000000C08080807F000008F8000080801A
:1037F0008000203F24022D302000000808F800003F
:1038000000000020203F20200000808080808080F9
:103810008000203F20003F20003F8080008080808B
:103820000000203F210000203F2000008080808099
:103830000000001F202020201F00808000808000CA
:10384000000080FFA12020110E0000000080808079
:103850008000000E112020A0FF80808080008080EA
:10386000800020203F212000010000008080808017
:1038700080000033242424241900008080E080800C
:1038800000000000001F2020000080800000008059
:103890008000001F202020103F20808080000080BA
:1038A000808000010E3008060100808000800080CA
:1038B00080800F300C030C300F000080800080806F
:1038C00080000020312E0E3120008080800000809A
:1038D000808080818E70180601000080808080804A
:1038E00080000021302C2221300000000000807C6C
:1038F000020200000000003F404000000000FF0006
:10390000000000000000FF0000000002027C8000B8
:1039100000000040403F00000000000601010202DC
:103920000404000000000000000000004C39000802
:1039300000000020700400006C010008843D0008B5
:103940007004002050070000D0010008A2000160B0
:1039500004A24A040B600901020304060708091BBC
:1039600000FF005680803BD37F003C77BE403CCFB9
:103970007D803C5B9BA03CA6B7C03C6ED2E03CB7D0
:1039800075003D3581103D918B203DAB94303D60FD
:103990009C403D92A2503D25A7603DF1A9703D6F2E
:1039A00055803DE354883D4753903D8C50983D9F52
:1039B0004CA03D7247A83DF740B03D1B39B83DD201
:1039C0002FC03D0C25C83DB218D03DC60AD83D2DAC
:1039D000FBDF3DD9E9E73DB0D6EF3DBEC1F73DDBAA
:1039E000AAFF3D04C9033E95BB073E20AD0B3E97A1
:1039F0009D0F3EF58C133E397B173E56681B3E3EAD
:103A0000541F3EF83E233E7728273EB4102B3EA19C
:103A1000F72E3E45DD323E93C1363E7DA43A3E0A46
:103A2000863E3E2766423ED844463E12224A3EC764
:103A3000FD4D3EFED7513EAFB0553EC687593E4B79
:103A40005D5D3E3731613E7C03653E1AD4683E0AB7
:103A5000A36C3E4770703EC83B743E8805783E8636
:103A6000CD00FF007B3EB5937F3E0EAC813E538D73
:103A7000833EAE6D853E164D873E8D2B893E0F09E8
:103A80008B3E99E58C3E2BC18E3EC19B903E54757A
:103A9000923EE94D943E7B25963E07FC973E8BD1A6
:103AA000993E02A69B3E6F799D3ECD4B9F3E1C1DCD
:103AB000A13E57EDA23E7FBCA43E8D8AA63E845710
:103AC000A83E6223AA3E23EEAB3EC2B7AD3E458080
:103AD000AF3EA447B13EE20DB33EF9D2B43EE99603
:103AE000B63EB159B83E4F1BBA3EC2DBBB3E079B48
:103AF000BD3E1E59BF3E0416C13EBCD1C23E3F8CE6
:103B0000C43E8E45C63EA4FDC73E89B4C93E336A55
:103B1000CB3EA41ECD3EDAD1CE3ED583D03E9434EA
:103B2000D23E18E4D33E5A92D53E603FD73E21EBB9
:103B3000D83EA395DA3EE33EDC3EE1E6DD3E9A8DDB
:103B4000DF3E0D33E13E3AD7E23E227AE43EC51B2A
:103B5000E63E1BBCE73E2F5BE93EF7F8EA3E769572
:103B6000EC3E00FF00A930EE3E93CAEF3E3563F114
:103B70003E86FAF23E8F90F43E4925F63EB9B8F7FC
:103B80003EDA4AF93EAFDBFA3E386BFC3E71F9FD96
:103B90003E5A86FF3EFC88003F234E013FA21202A0
:103BA0003F7BD6023FAC99033F365C043F171E05AE
:103BB0003F51DF053FE39F063FCE5F073F121F08DF
:103BC0003FADDD083FA29B093FEF580A3F94150B1C
:103BD0003F93D10B3FE98C0C3F9A470D3FA2010E5A
:103BE0003F03BB0E3FBF730F3FD32B103F41E3108A
:103BF0003F089A113F2A50123FA405133F79BA1388
:103C00003FA86E143F3322153F18D5153F5787162E
:103C10003FF138173FE7E9173F389A183FE749194E
:103C20003FEFF8193F55A71A3F18551B3F37021CA5
:103C30003FB3AE1C3F8E5A1D3FC4051E3F5AB01EF7
:103C40003F4E5A1F3FA103203F52AC203F635421F7
:103C50003FD3FB213FA4A2223FD548233F67EE2359
:103C60003F5A9300FF00243FAD37253F63DB253FDC
:103C70007A7E263FF420273FD2C2273F1364283F95
:103C8000B704293FBFA4293F2C442A3FFEE22A3F24
:103C900033812B3FD11E2C3FD2BB2C3F3C582D3FB4
:103CA0000CF42D3F438F2E3FE1292F3FE9C32F3FD7
:103CB000595D303F33F6303F758E313F2126323F1C
:103CC00039BD323FBB53333FA9E9333F027F343F15
:103CD000C713353FF9A7353F993B363FA6CE363F50
:103CE0002161373F0BF3373F6484383F2E15393F4E
:103CF00065A5393F0F353A3F2AC43A3FB4523B3F9E
:103D0000B3E03B3F226E3C3F06FB3C3F5D873D3FBF
:103D100026133E3F679E3E3F1A293F3F44B33F3F35
:103D2000E43C403FF9C5403F864E413F89D6413F84
:103D3000065E423FFAE4423F676B433F4FF1433F29
:103D4000B076443F8CFB443FE27F453FB403463F9F
:103D50000187463FCB09473F138C473FD70D483F6C
:103D6000198F483F3004DD0F4904AD27042D1C0492
:103D70006D20048C05020406084104B2802801125B
:043D8000010000003E
:0400000508000215D8
:00000001FF
