:020000040800F2
:1000000048070020CD010008C70D00082D0B00088F
:10001000C30D0008E5060008851C0008000000006C
:10002000000000000000000000000000F5130008C0
:100030002709000800000000651200089915000853
:10004000E7010008E7010008E7010008E7010008F0
:10005000E7010008E7010008E7010008E7010008E0
:10006000E7010008E7010008E7010008E9060008C9
:10007000E7010008E7010008E7010008E7010008C0
:10008000E7010008E7010008E7010008E7010008B0
:10009000E7010008E7010008E7010008E7010008A0
:1000A000E701000869160008E7010008E7010008F9
:1000B000E7010008E7010008E7010008E701000880
:1000C000E7010008E7010008E7010008E701000870
:1000D000E7010008A91A0008E7010008E701000885
:1000E000E7010008E7010008E7010008E701000850
:1000F000E7010008E7010008E7010008E701000840
:10010000E7010008E7010008E7010008E70100082F
:10011000E7010008E7010008E7010008E70100081F
:10012000E7010008E7010008E7010008E70100080F
:1001300000F002F800F03AF80AA090E8000C8244BF
:100140008344AAF10107DA4501D100F02FF8AFF29C
:10015000090EBAE80F0013F0010F18BFFB1A43F0A5
:100160000103184784260000A4260000103A24BF8B
:1001700078C878C1FAD8520724BF30C830C144BF0C
:1001800004680C607047000000230024002500264E
:10019000103A28BF78C1FBD8520728BF30C148BFEA
:1001A0000B6070471FB51FBD10B510BD00F0A8F85B
:1001B0001146FFF7F7FF01F0B9FE00F0C6F803B4EF
:1001C000FFF7F2FF03BC00F0CDF8000009488047BC
:1001D00009480047FEE7FEE7FEE7FEE7FEE7FEE729
:1001E000FEE7FEE7FEE7FEE704480549054A064B41
:1001F000704700009D1500083101000848010020EB
:10020000480700204803002048030020032A40F24A
:10021000308010F0030C00F0158011F8013BBCF1A8
:10022000020F624498BF11F801CB00F8013B38BFC0
:1002300011F8013BA2F1040298BF00F801CB38BFCE
:1002400000F8013B11F0030300F02880083AC0F0E9
:10025000088051F8043B083A51F804CBA0E8081094
:10026000F5E7121D5CBF51F8043B40F8043BAFF3C7
:100270000080D20724BF11F8013B11F801CB48BF21
:1002800011F8012B24BF00F8013B00F801CB48BF57
:1002900000F8012B704770477047704710B5203A3F
:1002A000C0F00B80B1E81850203AA0E81850B1E82F
:1002B0001850A0E81850BFF4F5AF5FEA027C24BFE5
:1002C000B1E81850A0E8185044BF18C918C0BDE8DC
:1002D00010405FEA827C24BF51F8043B40F8043BA5
:1002E00008BF7047D20728BF31F8023B48BF11F85A
:1002F000012B28BF20F8023B48BF00F8012B7047B4
:10030000754600F02BF8AE4605006946534620F0CE
:100310000700854618B020B5FFF766FFBDE820400E
:100320004FF000064FF000074FF000084FF0000BB1
:1003300021F00701AC46ACE8C009ACE8C009ACE864
:10034000C009ACE8C0098D46704710B50446AFF34C
:1003500000802046BDE81040FFF731BF00487047DD
:10036000E800002001491820ABBEFEE7260002008D
:10037000704721B1826842F00102826003E0826826
:1003800022F001028260704721B1826842F48072DB
:10039000826003E0826822F480728260704700000D
:1003A00000B58DB00121084600F06AFF1C4800F03E
:1003B000D7F91C480290801508901B480390002034
:1003C00004900C904FF480600990802007900020EA
:1003D000069020200A90C0010B900820059002A9E9
:1003E0000F4800F082FA02208DF805008DF8060013
:1003F00001208DF807000B208DF8040001A800F003
:10040000E3FC022000F092F901220221044800F0EE
:1004100063FA0121024800F097F90DB000BD000019
:10042000080002404C2401404400002010B504465E
:100430001248844208D10121401500F061FF0021DB
:10044000601500F05DFF17E00D48844208D10121DE
:10045000001500F055FF0021201500F051FF0BE0C2
:100460000848844208D10121C80300F049FF002157
:100470004FF4004000F044FF10BD00000024014094
:1004800000280140003C0140014600208A6802F03B
:1004900004020AB1012000E000207047014600205C
:1004A0008A6802F008020AB1012000E000207047CB
:1004B00030B502460020002350680F4C20400D79D3
:1004C0000C6844EA05242043506090680B4C20409F
:1004D000D1E902542C434D7944EA4504204390600D
:1004E000D06A20F470000C7C641EE4B2234340EA1E
:1004F0000350D06230BD0000FFFEF0FFFDF7F1FFBA
:10050000F0B504460D4600200021092D11DDE068FC
:10051000A5F10A0606EB4607072606FA07F1884307
:10052000A5F10A0606EB460603FA06F10843E06069
:100530000CE0206905EB4507072606FA07F188431A
:1005400005EB450603FA06F108432061072A0FDA96
:10055000606B561E06EB86071F2606FA07F18843D6
:10056000561E06EB860605FA06F10843606322E094
:100570000D2A0FDA206BD61F06EB86071F2606FA18
:1005800007F18843D61F06EB860605FA06F10843F5
:10059000206310E0E06AA2F10D0606EB86071F2635
:1005A00006FA07F18843A2F10D0606EB860605FA66
:1005B00006F10843E062F0BD816841F00801816006
:1005C000704721B1826842F4A002826003E0826831
:1005D00022F4A00282607047816841F004018160CA
:1005E0007047000000B587B001214FF4017000F0A2
:1005F00077FE4FF4404000F037FEFF20ADF80400D6
:1006000000208DF8070001A9344800F08DF9344826
:10061000FFF70CFF0020029001208DF80C008DF8F0
:100620000D004FF4602004900020059008208DF804
:10063000180002A92A48FFF73BFF062301220021E8
:100640002748FFF75DFF0623022201212448FFF718
:1006500057FF0623032202212148FFF751FF0623FB
:10066000042203211E48FFF74BFF06230522042125
:100670001B48FFF745FF06231A4605211848FFF7D8
:100680003FFF0623072219461548FFF739FF0623C7
:10069000082207211248FFF733FF01211048FFF716
:1006A00073FE01210E48FFF764FE0D48FFF784FF3B
:1006B00000BF0B48FFF7F2FE0028FAD10848FFF709
:1006C0008BFF00BF0648FFF7DFFE0028FAD10121AB
:1006D0000348FFF776FF07B000BD000000080140A7
:1006E0000024014000BFFEE710B5022000F0DEF854
:1006F000012804D1022000F019F800F0E9F90348BC
:100700000068401C0149086010BD0000280000205E
:1007100000F0805111B10349086001E002494860CE
:1007200070470000040402400000024000F08051C5
:1007300011B10349086001E00249486070470000B8
:10074000040402400000024021B1026842F00102AC
:10075000026004E002684FF6FE731A4002607047C0
:1007600001684FF6FE721140016000210160416096
:100770008160C1604B49884208D14A4908394968BB
:1007800041F00F01474A083A51608AE04549143167
:10079000884208D143490839496841F0F001414A8B
:1007A000083A51607DE03F492831884208D13D49EF
:1007B0000839496841F470613A4A083A516070E07A
:1007C00038493C31884208D136490839496841F4F2
:1007D0007041344A083A516063E0324950318842EE
:1007E00008D130490839496841F470212D4A083A46
:1007F000516056E02B496431884208D129490839B3
:10080000496841F47001274A083A516049E0254996
:100810007831884208D123490839496841F070612C
:10082000204A083A51603CE01F49884206D1011F26
:10083000096841F00F01021F116032E01A491431BA
:10084000884208D11849091F096841F0F001164A89
:10085000121F116025E014492831884208D112493D
:10086000091F096841F470610F4A121F116018E0F6
:100870000D493C31884208D10B49091F096841F4F0
:100880007041094A121F11600BE00749503188423C
:1008900007D10549091F096841F47021024A121F56
:1008A0001160704708000240080402400146002021
:1008B000002201F0805313B1054B1A6801E0054B8B
:1008C0001A6802EA01030BB1012000E00020704722
:1008D00000040240000002401AB103680B430360A9
:1008E00002E003688B430360704710B50022026882
:1008F00047F6F0739A430C6A8B6823430C692343D1
:100900004C6923438C692343CC6923434C6A2343BA
:100910008C6A23431A430260CB6843600B68836090
:100920004B68C36010BD70472DE9F04102460025B9
:100930000026002000230024002791F803C00CF0BB
:100940000F0591F803C00CF0100CBCF1000F03D0A0
:1009500091F802C04CEA050591F800C0BCF1000F07
:1009600031D0146800202BE04FF0010C0CFA00F39A
:10097000B1F800C00CEA03069E4220D183004FF07C
:100980000F0C0CFA03F7BC4305FA03FC4CEA040411
:1009900091F803C0BCF1280F06D14FF0010C0CFAFE
:1009A00000FCC2F814C00AE091F803C0BCF1480F83
:1009B00005D14FF0010C0CFA00FCC2F810C0401C2D
:1009C0000828D1D31460B1F800C0BCF1FF0F34DDAA
:1009D000546800202EE000F1080C4FF0010808FADE
:1009E0000CF3B1F800C00CEA03069E4221D183004B
:1009F0004FF00F0C0CFA03F7BC4305FA03FC4CEA6A
:100A0000040491F803C0BCF1280F05D100F1080CD3
:100A100008FA0CF8C2F8148091F803C0BCF1480F32
:100A200007D100F1080C4FF0010808FA0CF8C2F8E1
:100A30001080401C0828CED35460BDE8F08100002F
:100A4000F0B50A46002300240021002500F00046EE
:100A5000B6F1004F02D11D4EF16901E01B4E7168E5
:100A6000C0F3034583B200F44016B6F5401F08D129
:100A700021F07061154E766826F07066134F7E6027
:100A800012E000F48016B6F5801F06D1032606FAA0
:100A900005F4A14341F0706106E0460D360103FA0A
:100AA00006F6B14341F0706122B1460D360103FAFA
:100AB00006F6314300F00046B6F1004F02D1034E76
:100AC000F16101E0014E7160F0BD000000000140E5
:100AD00010B5002100BF21E0124830F8110001EBF1
:100AE0004102114B33F81220104401EB410203EB99
:100AF0004202908001EB410203EB420292886423A0
:100B000002FB03F0C21700EB5252D21201EB410379
:100B1000054C04EB43035A80481CC1B20829DBDBB7
:100B2000002010BD440000205400002000BFFEE75C
:100B30002DE9F047064689461746984600240025C9
:100B400001212C4800F0A4F806E0B4F5807F02D91A
:100B50000020BDE8F087641C2749264800F05BF8B8
:100B60000028F2D000247006010E0022214800F077
:100B70001DF905E0B4F5807F01D90020E9E7641C88
:100B80001E491C4800F047F80028F3D000244946CD
:100B9000184800F014F905E0B4F5807F01D9002071
:100BA000D7E7641C1549891C124800F034F8002866
:100BB000F2D00024002514E0795D0E4800F0FFF823
:100BC00005E0B4F5807F01D90020C2E7641C0B4921
:100BD000891C084800F01FF80028F2D00024681C87
:100BE000C5B24545E8DB0121024800F05DF801206F
:100BF000AFE700000054004001000300820007003E
:100C000037B504460D46012302AA29462046FFF7C0
:100C10008FFF00203EBD70B5024600240025002352
:100C20000020958A138B1B0445EA030626F07F44B7
:100C300004EA01068E4201D1012000E0002070BDCF
:100C400021B1028842F00102028004E002884FF6DE
:100C5000FE731A400280704710B504460B48844268
:100C600009D10121480500F02BFB00214FF40010B1
:100C700000F026FB08E00121880500F021FB00219F
:100C80004FF4800000F01CFB10BD00000054004039
:100C900021B1028842F48072028004E002884FF69B
:100CA000FF631A400280704721B1028842F400724B
:100CB000028004E002884FF6FF531A40028070471A
:100CC0002DE9F04385B004460D460026B1460427C1
:100CD000DFF8CC80A6884FF6C0700640684600F06A
:100CE0001FFBDDF808802F48B8FBF0F01FFA80F9F1
:100CF00046EA0906A68020884FF6FE71084020804B
:100D000000262949286888420CD828684000B8FB8A
:100D1000F0F087B2042F00DA04273E4309F1010006
:100D2000208427E0E8884BF6FF71884206D12868C6
:100D300000EB4000B8FBF0F087B209E0286800EB58
:100D4000C00101EB0010B8FBF0F087B247F4804718
:100D5000C7F30B0008B947F0010747F4004006430A
:100D60004FF4967009FB00F04FF47A7190FBF1F0AC
:100D7000401C2084A683208840F001002080268823
:100D80004FF6F5300640A888698908430643268057
:100D9000A88929890843208105B0BDE8F0830000B7
:100DA00000127A0040420F00A086010012B141F00B
:100DB000010102E04FF6FE73194001827047018283
:100DC000704700BFFEE7704770B5002100230F2277
:100DD000C47804B3154C246804F4E064C4F5E064FA
:100DE000210AC1F10403CA40447804FA03F184786B
:100DF0001440214309010E4C0678A155047804F0F3
:100E00001F050124AC4005786D11AD0005F1E0250A
:100E1000C5F8004109E0047804F01F050124AC4046
:100E2000044D0678761145F8264070BD0CED00E0C3
:100E300000E400E080E100E002490143024A116061
:100E4000704700000000FA050CED00E070B50024CA
:100E500018E004F1B000002100F011F9002108466B
:100E600000F00DF90021102000F009F9002505E03F
:100E70000121002000F003F9681CC5B2802DF7DBCA
:100E8000601CC4B2082CE4DB70BD10B50021AE209C
:100E900000F0F5F8022000F066F80021A62000F02E
:100EA000EEF80021B02000F0EAF80021402000F028
:100EB000E6F80021A12000F0E2F80021C82000F0AF
:100EC000DEF80021D32000F0DAF80021084600F017
:100ED000D6F80021DA2000F0D2F80021122000F02C
:100EE000CEF80021A82000F0CAF800213F2000F031
:100EF000C6F80021D52000F0C2F80021F02000F053
:100F0000BEF80021D92000F0BAF80021222000F01C
:100F1000B6F80021DB2000F0B2F80021492000F0F3
:100F2000AEF800218D2000F0AAF80021142000F076
:100F3000A6F80021AF2000F0A2F8FFF787FF10BD50
:100F400070B504460E46154636B12B462246402162
:100F50003C20FFF7EDFD05E02B46224600213C201A
:100F6000FFF7E6FD70BD10B504460021812000F0BA
:100F700086F80021204600F082F810BD38B50446FE
:100F80000D4605F1B000C0B28DF80000102040EA17
:100F900014108DF8010004F00F008DF802000322F8
:100FA00000216846FFF7CCFF38BD00002DE9F04175
:100FB00005460E46174698460024A7F12000C4B205
:100FC0007F2D04DDA5F18000C5B2701CC6B2B8F15A
:100FD000100F19D131462846FFF7D0FF124901EB17
:100FE000041008220121FFF7ABFF701CC1B2284694
:100FF000FFF7C4FF082101EB04110B4A88180822EF
:101000000121FFF79DFF0CE031462846FFF7B6FFB0
:1010100004EB4401054A02EB410006220121FFF7DF
:101020008FFFBDE8F0810000F8210008D01F000804
:101030002DE9F0410446884615461E46002719E072
:10104000EA5D334641462046FFF7B0FF102E01D13E
:10105000082000E006202044C4B2782C08DD0024DB
:10106000102E01D1022000E00120404400F0FF08D2
:10107000781CC7B2E85D0028E2D1BDE8F08170B508
:1010800004460D462DB1E2B240213C20FFF7B8FDE9
:1010900004E0E2B200213C20FFF7B2FD70BD000089
:1010A00030B589B004460D460121032000F0F8F860
:1010B00001210D2000F014F901214948FFF7C0FC7F
:1010C00001214848FFF7BCFC01214748FFF7B8FC65
:1010D00001214648FFF7B4FC3B20ADF82000182062
:1010E0008DF8230003208DF8220008A94048FFF75F
:1010F0001BFC4FF40040ADF8200018208DF82300B1
:1011000003208DF8220008A93A48FFF70DFCADF83E
:101110001840ADF814500020ADF81A00ADF81600D4
:1011200005A9354800F06EFC05A94FF0804000F09D
:1011300069FC7020ADF804000120ADF80600022023
:10114000ADF80C0001A92C4800F0F8FA01A92A48D2
:1011500000F0AAFB01A9284800F000FC01A94FF00B
:10116000804000F0EBFA01A94FF0804000F03CFB1A
:101170000821214800F02EFB08211F4800F086FBC3
:1011800008211D4800F0E0FB08211B4800F024FC6A
:101190000821C80600F01EFB0821C80600F076FBF7
:1011A0000121154800F0A4FA0121880700F0A0FAF7
:1011B000FA201249088040F21630488040F2C120DF
:1011C000888040F2EE20C88008814FF4FA70488190
:1011D00001460A488181C1810182418209B030BD46
:1011E00000081A0000011800000130000002300061
:1011F000000C01400008014000040040A400002051
:1012000010B516480088154A5289104481B2144816
:1012100000F0EFFB114842888089104481B21048E9
:1012200000F0EDFB0D488288C089104481B20C4863
:1012300000F0E3FB0948C288008A104481B24FF0F5
:10124000804000F0D6FB05480289408A104481B2F4
:101250004FF0804000F0CFFB10BD0000A400002044
:10126000000400407047000001460020034A506817
:1012700020F44040084350607047000000100240D6
:1012800029B1064A52690243044B5A6104E0034AF9
:1012900052698243014B5A617047000000100240BE
:1012A00029B1064AD2690243044BDA6104E0034AD9
:1012B000D2698243014BDA6170470000001002409E
:1012C00029B1064A12690243044B1A6104E0034A39
:1012D00012698243014B1A617047000000100240FE
:1012E00029B1064A92690243044B9A6104E0034A19
:1012F00092698243014B9A617047000000100240DE
:1013000029B1064AD2680243044BDA6004E0034A7A
:10131000D2688243014BDA6070470000001002403F
:1013200030B500210022002400232D4D6D6805F00A
:101330000C0121B1042905D0082923D105E0294D4C
:10134000056022E0274D05601FE0254D6D6805F41E
:101350007012234D6D6805F48034022505EB92422E
:101360001CB9214D554305600BE01D4D6D6805F41A
:1013700000351DB11C4D5543056002E0194D554324
:10138000056002E0174D056000BF00BF144D6D6899
:1013900005F0F0010909154D6B5C0568DD404560FD
:1013A0000F4D6D6805F4E061090A104D6B5C4568EE
:1013B000DD4085600A4D6D6805F46051C90A0B4D2A
:1013C0006B5C4568DD40C560054D6D6805F44041C6
:1013D000890B074D6B5CC568B5FBF3F5056130BD46
:1013E0000010024000127A0000093D002C0000208D
:1013F0003C000020704710B500F002F810BD00005E
:101400000CB50020019000903348006840F4803013
:101410003149086000BF3048006800F40030009097
:101420000198401C0190009818B90198B0F5A06F80
:10143000F1D12948006800F4003010B1012000907B
:1014400001E0002000900098012843D12348006863
:1014500040F01000214908600846006820F00300B1
:1014600008600846006840F0020008601A484068BA
:10147000194948600846406848600846406840F49A
:10148000806048600846406820F47C104860084648
:10149000406840F4E81048600846006840F08070FA
:1014A000086000BF0C48006800F000700028F9D008
:1014B0000948406820F00300074948600846406832
:1014C00040F00200486000BF0348406800F00C0094
:1014D0000828F9D10CBD0000001002400020024095
:1014E00000B585B001210920FFF7FAFE012148056A
:1014F000FFF7D6FE01210220FFF7A2FA4FF4407059
:10150000ADF810001C208DF8130003208DF8120098
:1015100004A91448FFF708FA1348FFF79DFB0020C1
:10152000ADF804004FF48060ADF80A000001ADF89A
:101530000C00ADF806000D4800900120ADF8080041
:1015400069460948FFF7BCFB01210748FFF778FB14
:1015500001210548FFF7A8FB01210348FFF798FB8D
:1015600005B000BD000C014000540040E0930400B1
:10157000042808D14FF0E021096941F004014FF03F
:10158000E022116107E04FF0E021096921F0040138
:101590004FF0E022116170477047000010B513480A
:1015A000006840F001001149086008464068104991
:1015B00008400E494860084600680E4908400B493B
:1015C00008600846006820F48020086008464068EB
:1015D00020F4FE0048604FF41F008860FFF70BFF07
:1015E0004FF000600449086010BD00000010024088
:1015F0000000FFF8FFFFF6FE08ED00E07FB50446AF
:101600000D460121C802FFF76BFEADF80840681EC9
:1016100080B2ADF804000020ADF80A00ADF8060075
:101620008DF80C0001A90F4800F0ECF901210D48DC
:1016300000F058F8012241210A4800F076F81920FC
:101640008DF8000000208DF801008DF802000120C7
:101650008DF803006846FFF7B7FB0121014800F051
:1016600047F87FBD002C014010B51A48006800EB18
:10167000800040001849086000201649086017489B
:101680000078632803D100201449087004E013484F
:101690000078401C114908701049087800EBD0719F
:1016A0004910A0EB410109B1FFF7AAFD0B480078F2
:1016B000052190FBF1F201FB120008B900F072FB6A
:1016C0000121074800F020F818B10121044800F07A
:1016D0000CF810BD280000200400002008000020A5
:1016E000002C0140CA4302827047CA4302827047FD
:1016F00021B1028842F00102028004E002884FF624
:10170000FE731A400280704730B502460020002365
:101710000024158A05EA0103958905EA010413B13D
:101720000CB1012000E0002030BD1AB183890B43C9
:10173000838102E083898B438381704770B50024E5
:1017400000220023058C4FF6FE7635400584028C7E
:101750008388048B4FF68F752C40B51E2C400D8866
:101760002C43751E2A400D892A434D882A43144D67
:10177000A8420BD0134DA84208D0134DA84205D063
:10178000124DA84202D0124DA84213D14FF6F77560
:101790002A404D892A434FF6FB752A408D882A43FB
:1017A0004FF6FF652B404FF6FF552B408D892B439D
:1017B000CD892B4383800483CD888586028470BDC8
:1017C000002C014000340140004001400044014031
:1017D000004801400A460021018B4FF6F77319407B
:1017E000114301837047000070B5002400220023DC
:1017F000058C4FF6EF7635400584028C8388048B88
:1018000048F6FF752C404FF6FF452C400D884FF6EB
:10181000FF7606EA05252C434FF6DF752A400D8931
:1018200006EA05152A434D8806EA05152A43154D93
:10183000A84202D0144DA8421DD14FF67F752A4010
:101840004D894FF6FF7606EA05152A434FF6BF7518
:101850002A408D8806EA05152A434FF6FF352B40AE
:101860004FF2FF752B408D8906EA85052B43CD8904
:1018700006EA85052B4383800483CD88058702848F
:1018800070BD0000002C0140003401400A460021D8
:10189000018B4FF2FF7319404FF6FF7303EA0223E7
:1018A000194301837047000070B500240022002313
:1018B000058C4FF6FF6635400584028C8388848B47
:1018C0004FF68F752C404FF6FC752C400D882C433D
:1018D0004FF6FF552A400D894FF6FF7606EA05259B
:1018E0002A434D8806EA05252A43154DA84202D011
:1018F000144DA8421DD14FF2FF752A404D894FF675
:10190000FF7606EA05252A434FF6FF352A408D88E3
:1019100006EA05252A434EF6FF752B404DF6FF7566
:101920002B408D8906EA05152B43CD8906EA05155E
:101930002B4383808483CD888587028470BD00001B
:10194000002C0140003401400A460021818B4FF6F3
:10195000F7731940114381837047000070B500226E
:1019600000230024058C4EF6FF7635400584038C59
:101970008488828B48F6FF752A404FF6FF452A403F
:101980000D884FF6FF7606EA05252A434DF6FF75CA
:101990002B400D8906EA05352B434D8806EA0535AF
:1019A0002B430B4DA84202D00A4DA84208D14BF65A
:1019B000FF752C408D894FF6FF7606EA85152C437E
:1019C00084808283CD88A0F84050038470BD0000DD
:1019D000002C0140003401400A460021818B4FF267
:1019E000FF7319404FF6FF7303EA02231943818303
:1019F0007047818670470187704781877047A0F8DC
:101A000040107047002202881D4B98420ED01D4B9B
:101A100098420BD0B0F1804F08D01B4B984205D0B4
:101A20001A4B984202D01A4B984204D14FF68F734A
:101A30001A404B881A43174B984207D0164B9842CE
:101A400004D04FF6FF431A40CB881A4302808B889C
:101A500083850B8803850A4B98420BD0094B98422B
:101A600008D00E4B984205D00D4B984202D00D4B3A
:101A7000984201D10B7A03860123838270470000CC
:101A8000002C0140003401400004004000080040E8
:101A9000000C0040001000400014004000400140D5
:101AA000004401400048014070B500251D480088F1
:101AB000FF281DD11C480078FF2815D11B48806DD8
:101AC00000F0FE00194988651220C8650846806D3F
:101AD00040F0010088651348001F00881148008805
:101AE00000201149087070BD0E4800880E4908702A
:101AF000002405E00E48005D2844C5B2601CC4B255
:101B0000122CF7D30A480078A84204D112220849BF
:101B10000848FEF77BFB0348001F00880148008847
:101B200000BFE0E704380140400000200000024010
:101B3000D4000020C200002021B1828942F400526A
:101B4000828104E082894DF6FF731A4082817047DA
:101B50001AB1838A0B43838202E0838A8B43838298
:101B60007047F0B50346002400260025002040F60B
:101B70006A17B94200D100BF1846C1F3421401F000
:101B80001F06012707FA06F5012C01D10C3004E0ED
:101B9000022C01D1103000E014301AB107682F4335
:101BA000076002E00768AF430760F0BD2DE9F0472A
:101BB00086B005460E460024A24600BFA146002777
:101BC000B08900B100BF2F462C8A4CF6FF7004404C
:101BD000F08804432C82AC894EF6F3100440B088A0
:101BE00031890843718908430443AC81AC8A4FF6BC
:101BF000FF400440B0890443AC8201A8FFF790FB8A
:101C00001F48874202D1DDF810A001E0DDF80CA0EA
:101C1000A88900F4004040B10AEBCA0000EB0A10AA
:101C200031684900B0FBF1F807E00AEBCA0000EBAD
:101C30000A1031688900B0FBF1F86420B8FBF0F0BD
:101C400004012009642101FB1089A88900F40040E7
:101C500040B1322000EBC900B0FBF1F000F007000A
:101C6000044308E0322000EB09106421B0FBF1F0DE
:101C700000F00F0004432C8106B0BDE8F08700009F
:101C80000038014000BFFEE700B58DB00F208DF891
:101C9000300003208DF8310002208DF83200012041
:101CA0008DF833000CA8FFF78FF801210846FFF7E5
:101CB000E7FA3148FEF754FD304801903048029071
:101CC000102003900A2004900020059080200690A8
:101CD00000200790089009904FF440500A9000208F
:101CE0000B9001A92448FEF700FE4FF48050FEF748
:101CF0000FFD00212048FEF727FD01210846FFF7D0
:101D0000BFFA1D481430FEF72BFD1C4801901D48FA
:101D10000290002003901220049000200590802063
:101D20000690002007900890202009904FF4405022
:101D30000A9000200B9001A90F481430FEF7D5FD42
:101D40004FF48030FEF7E4FC01210B481430FEF71D
:101D5000FBFC00210948001FFFF7EEFE0122C02115
:101D60000648001FFFF7F4FE01210448001FFFF79B
:101D7000E3FE0DB000BD0000440002400438014005
:101D8000B8000020D400002010B54FF4964000F0B9
:101D90003DF8FFF779FF4FF0FF300149088110BD92
:101DA000B800002000200021154A117015498978DB
:101DB00051701449097A11711249897BD170114906
:101DC000097D91700F49897E517108E00C490978AD
:101DD0000B4A125C11440A4A1170411CC8B20A280D
:101DE000F4D30949496C01F0FE01074A51640A2104
:101DF00091641146496C41F0010151647047000043
:101E0000B8000020540000200000024010B586B049
:101E10000446012144F20100FFF762FA0121082083
:101E2000FFF75EFA01210420FEF70AFE4020ADF81C
:101E3000140003208DF8160018208DF8170005A94E
:101E40001448FEF771FD8020ADF8140028208DF8AD
:101E5000170005A90F48FEF767FD01940020ADF8B3
:101E60000800ADF80A00ADF80C00ADF810000C2029
:101E7000ADF80E0001A90848FFF798FE012240F2D4
:101E800025510548FFF76DFE01210348FFF754FE79
:101E900006B010BD000C01400038014010B56FF0D5
:101EA0000400FFF765FB0A4800680A49B0FBF1F03F
:101EB000094908700846007800EB4001C1EBC010EA
:101EC0004FF6FF7101EAC0000449088010BD000010
:101ED0000C00002000127A002000002022000020C8
:101EE0000146114A12884A434FF0E0235A6100220A
:101EF0009A611A46126942F001021A6100BF4FF05E
:101F0000E022106900F001021AB100F48032002AC8
:101F1000F5D04FF0E022126922F001024FF0E023E9
:101F20001A6100229A61704722000020012080F38C
:101F3000108800BF4FF4A060FEF77EFFFFF7AEFFF2
:101F4000FFF7CEFA902142F21070FFF7A9F8FEF7E2
:101F500049FBFEF725FAFFF717FF4FF47A714FF4AC
:101F60003470FFF74BFB6420FFF7BAFFFEF78DFFDD
:101F700010230EA200210846FFF75AF810230BA2E7
:101F800000210846FFF754F810230CA2022100207C
:101F9000FFF74EF8002080F3108800BF04E00B48E4
:101FA0000068401C09490860F9E700002020206310
:101FB00054696D653A20203A20203A00483A2020A2
:101FC000204D2020475053780000000000000020E2
:101FD0000000000000000000002F000000000700CB
:101FE000070000147F147F1400242A7F2A12006245
:101FF00064081323003649552250000005030000F1
:1020000000001C224100000041221C000014083E78
:1020100008140008083E0808000000A0600000083E
:102020000808080800006060000000201008040292
:10203000003E5149453E0000427F40000042615150
:102040004946002141454B31001814127F100027EA
:1020500045454539003C4A494930000171090503AD
:1020600000364949493600064949291E00003636DE
:102070000000000056360000000814224100001441
:10208000141414140000412214080002015109061E
:1020900000324959513E007C1211127C007F49499F
:1020A0004936003E41414122007F4141221C007FD0
:1020B00049494941007F09090901003E4149497ADE
:1020C000007F0808087F0000417F41000020404158
:1020D0003F01007F08142241007F40404040007FC4
:1020E000020C027F007F0408107F003E4141413E08
:1020F000007F09090906003E4151215E007F091950
:1021000029460046494949310001017F0101003F4C
:102110004040403F001F2040201F003F4038403FCC
:102120000063140814630007087008070061514930
:10213000454300007F41410000552A552A550000C3
:1021400041417F0000040201020400404040404041
:10215000000001020400002054545478007F4844D9
:10216000443800384444442000384444487F003810
:102170005454541800087E0901020018A4A4A47C39
:10218000007F080404780000447D40000040808403
:102190007D00007F102844000000417F4000007C4B
:1021A00004180478007C0804047800384444443857
:1021B00000FC242424180018242418FC007C0804A3
:1021C000040800485454542000043F444020003C7C
:1021D0004040207C001C2040201C003C4030403C03
:1021E000004428102844001CA0A0A07C0044645493
:1021F0004C441414141414140000000000000000D7
:102200000000000000000000000000F800000000D6
:10221000000000333000000000100C06100C060017
:10222000000000000000000040C07840C07840007E
:10223000043F04043F040400007088FC08300000E0
:10224000001820FF211E0000F008F000E018000038
:1022500000211C031E211E0000F0088870000000F1
:102260001E2123241927211010160E000000000043
:102270000000000000000000000000E01804020060
:10228000000000071820400000020418E0000000D1
:102290000040201807000000404080F080404000CF
:1022A0000202010F01020200000000F00000000025
:1022B0000101011F010101000000000000000000F9
:1022C00080B070000000000000000000000000006E
:1022D00000010101010101010000000000000000F7
:1022E0000030300000000000000000008060180492
:1022F000006018060100000000E010080810E0006F
:10230000000F102020100F00001010F80000000037
:102310000020203F2020000000700808088870007E
:1023200000302824222130000030088888483000FE
:102330000018202020110E000000C02010F800001E
:1023400000070424243F240000F8088888080800B7
:102350000019212020110E0000E0108888180000CC
:10236000000F112020110E0000380808C83808009E
:102370000000003F0000000000708808088870001E
:10238000001C222121221C0000E010080810E0009F
:102390000000312222110F00000000C0C000000028
:1023A000000000303000000000000080000000004D
:1023B0000000806000000000000080402010080045
:1023C000000102040810200040404040404040000E
:1023D00004040404040404000008102040800000E9
:1023E0000020100804020100007048080808F000EE
:1023F0000000003036010000C030C828E810E000BE
:102400000718272423140B000000C038E000000048
:10241000203C23020227382008F8888888700000B2
:10242000203F202020110E00C03008080808380086
:10243000071820202010080008F808080810E000FD
:10244000203F202020100F0008F88888E80810009E
:10245000203F20202320180008F88888E808100072
:10246000203F200003000000C030080808380000AA
:1024700007182020221E020008F808000008F808AB
:10248000203F210101213F20000808F80808000032
:102490000020203F2020000000000808F808080065
:1024A000C08080807F00000008F888C028180800DD
:1024B000203F20012638200008F808000000000016
:1024C000203F20202020300008F8F800F8F808000D
:1024D000203F003F003F200008F830C00008F80807
:1024E000203F200007183F00E01008080810E00017
:1024F0000F10202020100F0008F808080808F0002E
:10250000203F210101010000E01008080810E00050
:102510000F18242438504F0008F8888888887000E5
:10252000203F2000030C3020007088080808380085
:102530000038202121221C00180808F8080818007B
:102540000000203F2000000008F808000008F808FC
:10255000001F202020201F000878880000C83808AD
:10256000000007380E010000F80800F80008F80025
:10257000033C0700073C03000818688080681808BF
:1025800020302C03032C30200838C800C83808003D
:102590000000203F2000000010080808C83808008C
:1025A0002038262120201800000000FE0202020030
:1025B0000000007F40404000000C30C000000000E0
:1025C000000000010638C00000020202FE00000008
:1025D000004040407F0000000000040202020400AE
:1025E00000000000000000000000000000000000EB
:1025F00080808080808080800002020400000000D3
:1026000000000000000000000000808080800000CA
:102610000019242222223F2008F8008080000000B8
:10262000003F112020110E0000000080808000007B
:10263000000E112020201100000000808088F8008A
:10264000000E112020103F200000808080800000BC
:10265000001F222222221300008080F08888881820
:102660000020203F2020000000008080808080002B
:10267000006B94949493600008F8008080800000C0
:10268000203F210000203F2000809898000000009B
:102690000020203F202000000000008098980000CB
:1026A00000C08080807F000008F8000080808000EB
:1026B000203F24022D302000000808F80000000010
:1026C0000020203F202000008080808080808000CB
:1026D000203F20003F20003F80800080808000005D
:1026E000203F210000203F200000808080800000EB
:1026F000001F202020201F0080800080800000001C
:1027000080FFA12020110E0000000080808080004A
:10271000000E112020A0FF8080808000808080003B
:1027200020203F2120000100000080808080800068
:102730000033242424241900008080E080800000DD
:102740000000001F2020000080800000008080002A
:10275000001F202020103F2080808000008080808B
:1027600000010E300806010080800080008080801B
:102770000F300C030C300F00008080008080800040
:102780000020312E0E31200080808000008080806B
:1027900080818E701806010000808080808080001B
:1027A0000021302C2221300000000000807C020239
:1027B00000000000003F404000000000FF0000005B
:1027C00000000000FF0000000002027C800000000A
:1027D0000040403F00000000000601010202040426
:1027E0000000000000000000082800080000002091
:1027F000440000006C0100084C2800084400002040
:10280000040700008801000800000000000000002C
:102810000000000000A24A040000000000000000C8
:102820000102030406070809000000000000000080
:102830000000000000000000010203040102030484
:0C2840000607080902040608000000005A
:04000005080001CD21
:00000001FF
