:020000040800F2
:10000000C0070020CD010008ED100008850B000896
:10001000E9100008E5060008DD22000800000000E5
:10002000000000000000000000000000951A000819
:100030007B0900080000000005190008391C0008B1
:10004000E7010008E7010008E7010008E7010008F0
:10005000E7010008E7010008E7010008E7010008E0
:10006000E7010008E7010008E7010008E9060008C9
:10007000E7010008E7010008E701000801070008A0
:10008000E7010008E7010008E7010008E7010008B0
:10009000E7010008E7010008E7010008E7010008A0
:1000A000E7010008091D0008E7010008E701000852
:1000B000E7010008E7010008E7010008E701000880
:1000C000E7010008E7010008E7010008E701000870
:1000D000E701000875210008E7010008E7010008B2
:1000E000E7010008E7010008E7010008E701000850
:1000F000E7010008E7010008E7010008E701000840
:10010000E7010008E7010008E7010008E70100082F
:10011000E7010008E7010008E7010008E70100081F
:10012000E7010008E7010008E7010008E70100080F
:1001300000F002F800F03AF80AA090E8000C8244BF
:100140008344AAF10107DA4501D100F02FF8AFF29C
:10015000090EBAE80F0013F0010F18BFFB1A43F0A5
:100160000103184794350000B4350000103A24BF4D
:1001700078C878C1FAD8520724BF30C830C144BF0C
:1001800004680C607047000000230024002500264E
:10019000103A28BF78C1FBD8520728BF30C148BFEA
:1001A0000B6070471FB51FBD10B510BD00F0ACF857
:1001B0001146FFF7F7FF02F009FA00F0CAF803B49E
:1001C000FFF7F2FF03BC00F0CDF8000009488047BC
:1001D00009480047FEE7FEE7FEE7FEE7FEE7FEE729
:1001E000FEE7FEE7FEE7FEE704480549054A064B41
:1001F000704700003D1C000831010008C0010020CC
:10020000C0070020C0030020C0030020032A40F2E2
:10021000308010F0030C00F0158011F8013BBCF1A8
:10022000020F624498BF11F801CB00F8013B38BFC0
:1002300011F8013BA2F1040298BF00F801CB38BFCE
:1002400000F8013B11F0030300F02880083AC0F0E9
:10025000088051F8043B083A51F804CBA0E8081094
:10026000F5E7121D5CBF51F8043B40F8043BAFF3C7
:100270000080D20724BF11F8013B11F801CB48BF21
:1002800011F8012B24BF00F8013B00F801CB48BF57
:1002900000F8012B704770477047704710B5203A3F
:1002A000C0F00B80B1E81850203AA0E81850B1E82F
:1002B0001850A0E81850BFF4F5AF5FEA027C24BFE5
:1002C000B1E81850A0E8185044BF18C918C0BDE8DC
:1002D00010405FEA827C24BF51F8043B40F8043BA5
:1002E00008BF7047D20728BF31F8023B48BF11F85A
:1002F000012B28BF20F8023B48BF00F8012B7047B4
:1003000000487047600100207546FFF7F9FFAE46D0
:1003100005006946534620F00700854618B020B511
:10032000FFF762FFBDE820404FF000064FF00007E6
:100330004FF000084FF0000B21F00701AC46ACE88D
:10034000C009ACE8C009ACE8C009ACE8C0098D46FA
:10035000704710B50446AFF300802046BDE810405A
:10036000FFF72DBF01491820ABBEFEE726000200B3
:10037000704721B1826842F00102826003E0826826
:1003800022F001028260704721B1826842F48072DB
:10039000826003E0826822F480728260704700000D
:1003A00000B58DB00121084601F0BAFA1C4800F0F2
:1003B00001FA1C480290801508901B480390002009
:1003C00004900C904FF480600990802007900020EA
:1003D000069020200A90C0010B900820059002A9E9
:1003E0000F4800F0ACFA02208DF805008DF80600E9
:1003F00001208DF807000B208DF8040001A800F003
:1004000077FE022000F0BCF901220221044800F02E
:100410008DFA0121024800F0C1F90DB000BD0000C5
:10042000080002404C2401403800002010B504466A
:100430001248844208D10121401501F0B1FA00218F
:10044000601501F0ADFA17E00D48844208D1012192
:10045000001501F0A5FA0021201501F0A1FA0BE02A
:100460000848844208D10121C80301F099FA00210B
:100470004FF4004001F094FA10BD00000024014048
:1004800000280140003C0140014600208A6802F03B
:1004900004020AB1012000E000207047014600205C
:1004A0008A6802F008020AB1012000E000207047CB
:1004B00030B502460020002350680F4C20400D79D3
:1004C0000C6844EA05242043506090680B4C20409F
:1004D000D1E902542C434D7944EA4504204390600D
:1004E000D06A20F470000C7C641EE4B2234340EA1E
:1004F0000350D06230BD0000FFFEF0FFFDF7F1FFBA
:10050000F0B504460D4600200021092D11DDE068FC
:10051000A5F10A0606EB4607072606FA07F1884307
:10052000A5F10A0606EB460603FA06F10843E06069
:100530000CE0206905EB4507072606FA07F188431A
:1005400005EB450603FA06F108432061072A0FDA96
:10055000606B561E06EB86071F2606FA07F18843D6
:10056000561E06EB860605FA06F10843606322E094
:100570000D2A0FDA206BD61F06EB86071F2606FA18
:1005800007F18843D61F06EB860605FA06F10843F5
:10059000206310E0E06AA2F10D0606EB86071F2635
:1005A00006FA07F18843A2F10D0606EB860605FA66
:1005B00006F10843E062F0BD816841F00801816006
:1005C000704721B1826842F4A002826003E0826831
:1005D00022F4A00282607047816841F004018160CA
:1005E0007047000000B587B001214FF4017001F0A1
:1005F000C7F94FF4404001F087F9FF20ADF804003F
:1006000000208DF8070001A9344800F0B7F93448FC
:10061000FFF70CFF0020029001208DF80C008DF8F0
:100620000D004FF4602004900020059008208DF804
:10063000180002A92A48FFF73BFF062301220021E8
:100640002748FFF75DFF0623022201212448FFF718
:1006500057FF0623032202212148FFF751FF0623FB
:10066000042203211E48FFF74BFF06230522042125
:100670001B48FFF745FF06231A4605211848FFF7D8
:100680003FFF0623072219461548FFF739FF0623C7
:10069000082207211248FFF733FF01211048FFF716
:1006A00073FE01210E48FFF764FE0D48FFF784FF3B
:1006B00000BF0B48FFF7F2FE0028FAD10848FFF709
:1006C0008BFF00BF0648FFF7DFFE0028FAD10121AB
:1006D0000348FFF776FF07B000BD000000080140A7
:1006E0000024014000BFFEE710B5022000F008F929
:1006F000012804D1022000F043F800F015FA10BDE3
:1007000070B500254FF4003000F02CF81248B0F915
:100710001000401CF0B9002409E00F4801781130A6
:10072000001B0078081A0C490870601CC4B2122C17
:10073000F3D30948007868B9122207490748FFF740
:1007400065FD0748006808B9012000E00020044961
:100750008031086070BD0000C8000020B600002095
:100760003401224200F0805111B10349086001E0D8
:100770000249486070470000040402400000024043
:1007800000F0805111B10349086001E0024948605E
:1007900070470000040402400000024021B10268DA
:1007A00042F00102026004E002684FF6FE731A4054
:1007B0000260704701684FF6FE721140016000212F
:1007C000016041608160C1604B49884208D14A495B
:1007D0000839496841F00F01474A083A51608AE0F8
:1007E00045491431884208D143490839496841F0E4
:1007F000F001414A083A51607DE03F492831884282
:1008000008D13D490839496841F470613A4A083ACB
:10081000516070E038493C31884208D13649083986
:10082000496841F47041344A083A516063E0324902
:100830005031884208D130490839496841F4702163
:100840002D4A083A516056E02B496431884208D15C
:1008500029490839496841F47001274A083A51602A
:1008600049E025497831884208D123490839496847
:1008700041F07061204A083A51603CE01F498842CB
:1008800006D1011F096841F00F01021F116032E01B
:100890001A491431884208D11849091F096841F0E2
:1008A000F001164A121F116025E0144928318842D0
:1008B00008D11249091F096841F470610F4A121FDB
:1008C000116018E00D493C31884208D10B49091FDD
:1008D000096841F47041094A121F11600BE0074991
:1008E0005031884207D10549091F096841F4702138
:1008F000024A121F116070470800024008040240BB
:1009000001460020002201F0805313B1054B1A6804
:1009100001E0054B1A6802EA01030BB1012000E077
:100920000020704700040240000002401AB1036832
:100930000B43036002E003688B430360704710B50C
:100940000022026847F6F0739A430C6A8B682343CF
:100950000C6923434C6923438C692343CC692343AB
:100960004C6A23438C6A23431A430260CB6843607A
:100970000B6883604B68C36010BD70472DE9F04180
:10098000024600250026002000230024002791F8BD
:1009900003C00CF00F0591F803C00CF0100CBCF173
:1009A000000F03D091F802C04CEA050591F800C091
:1009B000BCF1000F31D0146800202BE04FF0010C87
:1009C0000CFA00F3B1F800C00CEA03069E4220D1F5
:1009D00083004FF00F0C0CFA03F7BC4305FA03FC3D
:1009E0004CEA040491F803C0BCF1280F06D14FF083
:1009F000010C0CFA00FCC2F814C00AE091F803C024
:100A0000BCF1480F05D14FF0010C0CFA00FCC2F804
:100A100010C0401C0828D1D31460B1F800C0BCF14C
:100A2000FF0F34DD546800202EE000F1080C4FF079
:100A3000010808FA0CF3B1F800C00CEA03069E4264
:100A400021D183004FF00F0C0CFA03F7BC4305FAD9
:100A500003FC4CEA040491F803C0BCF1280F05D153
:100A600000F1080C08FA0CF8C2F8148091F803C0E1
:100A7000BCF1480F07D100F1080C4FF0010808FA4B
:100A80000CF8C2F81080401C0828CED35460BDE892
:100A9000F0810000F0B50A46002300240021002563
:100AA00000F00046B6F1004F02D11D4EF16901E0A1
:100AB0001B4E7168C0F3034583B200F44016B6F5CF
:100AC000401F08D121F07061154E766826F07066DF
:100AD000134F7E6012E000F48016B6F5801F06D139
:100AE000032606FA05F4A14341F0706106E0460DC5
:100AF000360103FA06F6B14341F0706122B1460DAA
:100B0000360103FA06F6314300F00046B6F1004F15
:100B100002D1034EF16101E0014E7160F0BD0000B1
:100B2000000001400161704710B5002100BF21E0C5
:100B3000124830F8110001EB4102114B33F812203A
:100B4000104401EB410203EB4202908001EB4102B1
:100B500003EB42029288642302FB03F0C21700EB0E
:100B60005252D21201EB4103054C04EB43035A806D
:100B7000481CC1B20829DBDB002010BD3800002072
:100B80004800002000BFFEE72DE9F04707468946F0
:100B900016461D460024A0460121574800F07AF968
:100BA00006E0B4F5807F02D90020BDE8F087641C20
:100BB0005249514800F030F90028F2D0002478065C
:100BC000010E00224C4800F0F7F905E0B4F5807FF3
:100BD00001D90020E9E7641C4949474800F01CF9A5
:100BE0000028F3D000244946434800F0EEF905E020
:100BF000B4F5807F01D90020D7E7641C4049891EE5
:100C00003D4800F009F90028F2D00024012D03D05E
:100C10000121394800F0F4F80121374800F03AF991
:100C200005E0B4F5807F01D90020BEE7641C33499C
:100C3000314800F0F1F80028F3D02F481430008834
:100C400000247806010E01222B4800F0B5F905E0DA
:100C5000B4F5807F01D90020A7E7641C2749491C0F
:100C6000254800F0D9F80028F2D023481430008835
:100C700021481830008800244FF0010810E000BF20
:100C80001E493F311C4800F0C7F80028F8D01A4828
:100C900000F08EF906F8010B08F1010000F0FF08E2
:100CA000A845ECDB012D07D000BF14493F311248A5
:100CB00000F0B2F80028F8D000210F4800F0A0F8AA
:100CC000012D01D0012000E0002001460A4800F07B
:100CD000EDF8094800F06CF9307000BF07493F316A
:100CE000054800F099F80028F8D00121024800F0EA
:100CF00087F8012059E7000000540040010003007C
:100D0000820007002DE9F0470646894617469846B7
:100D10000024002501212C4800F0BCF806E0B4F5C1
:100D2000807F02D90020BDE8F087641C274926484F
:100D300000F072F80028F2D000247006010E0022A4
:100D4000214800F039F905E0B4F5807F01D9002091
:100D5000E9E7641C1E491C4800F05EF80028F3D047
:100D600000244946184800F030F905E0B4F5807FCA
:100D700001D90020D7E7641C1549891C124800F0EE
:100D80004BF80028F2D00024002514E0795D0E48CD
:100D900000F01BF905E0B4F5807F01D90020C2E71F
:100DA000641C0B49891C084800F036F80028F2D072
:100DB0000024681CC5B24545E8DB0121024800F06B
:100DC00075F80120AFE70000005400400100030067
:100DD0008200070038B504460D4601236A462946BD
:100DE0002046FFF7D1FE9DF8000038BD37B5044618
:100DF0000D46012302AA29462046FFF783FF3EBD88
:100E000021B1028842F48062028004E002884FF639
:100E1000FF331A400280704770B502460024002557
:100E200000230020958A138B1B0445EA030626F055
:100E30007F4404EA01068E4201D1012000E0002037
:100E400070BD21B1028842F00102028004E00288F4
:100E50004FF6FE731A4002807047000010B504463A
:100E60000B48844209D10121480500F079FD002199
:100E70004FF4001000F074FD08E00121880500F037
:100E80006FFD00214FF4800000F06AFD10BD0000EE
:100E90000054004021B1028842F48072028004E0D4
:100EA00002884FF6FF631A400280704721B1028822
:100EB00042F40072028004E002884FF6FF531A40A9
:100EC000028070472DE9F04385B004460D460026A8
:100ED000B1460427DFF8CC80A6884FF6C0700640E4
:100EE000684600F06DFDDDF808802F48B8FBF0F093
:100EF0001FFA80F946EA0906A68020884FF6FE719F
:100F00000840208000262949286888420CD8286893
:100F10004000B8FBF0F087B2042F00DA04273E430C
:100F200009F10100208427E0E8884BF6FF71884230
:100F300006D1286800EB4000B8FBF0F087B209E06A
:100F4000286800EBC00101EB0010B8FBF0F087B29D
:100F500047F48047C7F30B0008B947F0010747F48F
:100F6000004006434FF4967009FB00F04FF47A718D
:100F700090FBF1F0401C2084A683208840F0010003
:100F8000208026884FF6F5300640A88869890843F6
:100F900006432680A88929890843208105B0BDE839
:100FA000F083000000127A0040420F00A08601008A
:100FB0000146088AC0B2704712B141F0010102E057
:100FC0004FF6FE731940018270470182704700009E
:100FD00008B50121182000F0D3FC4FF4C040ADF853
:100FE000000010208DF8030002208DF802006946F1
:100FF0000D48FFF7C3FC4FF4E040ADF80000282097
:101000008DF8030002208DF8020069460748FFF7BB
:10101000B5FC4FF400510448FFF784FD4FF48041C4
:101020000148FFF77FFD08BD00100140000C0140A2
:1010300010B580226B216820FFF7D8FEC82001F090
:101040009FFA00226B216820FFF7D0FE10221B219F
:101050006820FFF7CBFE08221C216820FFF7C6FEA0
:1010600005221A216820FFF7C1FE002238216820DE
:10107000FFF7BCFE00226A216820FFF7B7FE0022BE
:1010800023216820FFF7B2FE802237216820FFF776
:10109000ADFE75216820FFF79DFE682808D101226A
:1010A0006B21FFF7A3FE00226C216820FFF79EFE54
:1010B00026210C48A0F85E106FF00801A0F860101F
:1010C0000D21A0F8621000200649A1F85800002167
:1010D0000448A0F85A1040F20D21A0F85C1001203D
:1010E00010BD0000E000002000BFFEE770470000D8
:1010F00070B5002100230F22C47804B3154C246876
:1011000004F4E064C4F5E064210AC1F10403CA40B8
:10111000447804FA03F184781440214309010E4C09
:101120000678A155047804F01F050124AC40057829
:101130006D11AD0005F1E025C5F8004109E0047826
:1011400004F01F050124AC40044D0678761145F8E3
:10115000264070BD0CED00E000E400E080E100E01E
:1011600002490143024A1160704700000000FA057D
:101170000CED00E070B5002419E004F1B001C8B234
:10118000002100F0D5FA0021084600F0D1FA002134
:10119000102000F0CDFA002505E00121002000F02C
:1011A000C7FA681CC5B2802DF7DB601CC4B2082CDE
:1011B000E3DB70BD10B50021AE2000F0B9FA50207D
:1011C00000F06EF90021A62000F0B2FA0021B02054
:1011D00000F0AEFA0021402000F0AAFA0021A12080
:1011E00000F0A6FA0021C82000F0A2FA0021D320C6
:1011F00000F09EFA0021084600F09AFA0021DA2059
:1012000000F096FA0021122000F092FA0021A820A6
:1012100000F08EFA00213F2000F08AFA0021D5204C
:1012200000F086FA0021F02000F082FA0021D92097
:1012300000F07EFA0021222000F07AFA0021DB2063
:1012400000F076FA0021492000F072FA00218D208A
:1012500000F06EFA0021142000F06AFA0021AF209D
:1012600000F066FAFFF786FF10BD70B504460E4623
:10127000154636B12B46224640213C20FFF742FD61
:1012800005E02B46224600213C20FFF73BFD70BDC8
:101290002DE9FC477048407900F0010030B110237F
:1012A0006EA20621002000F01CFA49E06A4840794D
:1012B00000F0020030B110236BA20621002000F0E4
:1012C00010FA3DE0102000906348B0F90A2008238E
:1012D0000621002000F0AEF9102000905E48B0F921
:1012E0000820082306213F2000F0A4F9102362A261
:1012F0000021532000F0F5F9102000905648407866
:1013000000EB8000420004230021602000F092F9ED
:1013100010235AA20221532000F0E3F9102000907C
:101320004D48827804230221602000F083F91020C8
:1013300000904948C28804231946002000F07AF939
:101340004548407900F0040060B110234CA2002110
:10135000262000F0C6F9102349A20221262000F021
:10136000C0F944E03C49B1F90C0001F017FC054616
:10137000454901F035FB0446102003210B46224667
:10138000CDE900100021262000F0EEF83249B1F935
:101390000E0001F003FC05463B4901F021FB044629
:1013A000102003210B462246CDE900100221262001
:1013B00000F0DAF8102335A20421532000F091F94F
:1013C0002549087901F002FC06462F4901F012FD7B
:1013D00005462F4901F004FB044610200121022399
:1013E0002246CDE900100421602000F0BDF81A4823
:1013F000C07800EB80004000072190FBF1F000F284
:10140000B63410200423224602210090002000F070
:1014100011F92049088D01F0D9FB814601F046FA07
:1014200007461D4A1D4B01F043F9054601F00EF930
:1014300004461020022101232246CDE9001000219C
:10144000084600F091F81023562200211C2000F0DD
:1014500049F8BDE8FC870000B60000204750532043
:101460004F46464C494E4500475053204E6F204C46
:101470004F43415445000000483A0000563A0000EE
:101480004E4F204D505500000000C842543A000015
:10149000000040404800002094DE37BEF6CC723F8A
:1014A00010B504460021812000F042F900212046B9
:1014B00000F03EF910BD38B504460D4605F1B00008
:1014C000C0B28DF80000102040EA14108DF8010021
:1014D00004F00F008DF80200032200216846FFF798
:1014E000C4FE38BD2DE9F04105460E461746984624
:1014F0000024A7F12000C4B27F2D04DDA5F18000F7
:10150000C5B2701CC6B2B8F1100F19D131462846C9
:10151000FFF7D1FF124901EB041008220121FFF768
:10152000A4FE701CC1B22846FFF7C5FF082101EBDD
:1015300004110B4A881808220121FFF796FE0CE0DF
:1015400031462846FFF7B7FF04EB4401054A02EB9A
:10155000410006220121FFF788FEBDE8F08100006E
:1015600006310008DE2E00082DE9FF4F83B0054646
:1015700017469846DDE91094102C01D1102000E0A8
:101580000C2004460021384601F034FB11D287F0CC
:10159000004723462D2228460499FFF7A3FFA9F10F
:1015A000010000F0FF09204604EBD07105EB61015A
:1015B000CDB2264604EBD671491001FB0851C8B2E2
:1015C00023462E220499FFF78DFF384601F0CAFA10
:1015D00006464346324600942846049900F02AF80D
:1015E000CA4604E01249384601F038FB0746BAF112
:1015F0000000AAF1010101F0FF0AF3D1384601F021
:10160000B1FA264604EBD671491001FB0851A346F6
:10161000E21704EB927201EBA20100940290C8B2AF
:101620004B46029A049900F005F807B0BDE8F08F28
:10163000000020412DE9FF5F074690461E460E9CA4
:101640004FF0000AB8F1000F0FDAC8F10008234686
:101650002D2238460199FFF745FF204604EBD07153
:1016600007EB6101CFB2701EC6B2002535E0701BDA
:10167000401EC1B20A2000F0DDFFB8FBF0F00A21E5
:10168000B0FBF1F201FB1209BAF1000F14D1701E88
:10169000A84211DDB9F1000F0CD1A34604EBDB71B8
:1016A000491001FB0571C8B2234620220199FFF7BA
:1016B00019FF10E04FF0010AA34604EBDB7149105B
:1016C00001FB0571C8B209F13001CAB22346019984
:1016D000FFF708FF00BF681CC5B2B542C7DBBDE815
:1016E000FF9F2DE9F0410446884615461E46002717
:1016F00019E0EA5D334641462046FFF7F3FE102E1F
:1017000001D1082000E006202044C4B2782C08DD76
:101710000024102E01D1022000E00120404400F0FE
:10172000FF08781CC7B2E85D0028E2D1BDE8F0816F
:1017300013B50C46012221466846FFF796FD1CBDF5
:1017400030B589B004460D460121032000F0F8F8B9
:1017500001210D2000F014F901214948FFF79AF901
:1017600001214848FFF796F901214748FFF792F910
:1017700001214648FFF78EF93B20ADF820001820E4
:101780008DF8230003208DF8220008A94048FFF7B8
:10179000F5F84FF40040ADF8200018208DF8230034
:1017A00003208DF8220008A93A48FFF7E7F8ADF8C2
:1017B0001840ADF814500020ADF81A00ADF816002E
:1017C00005A9354800F084FC05A94FF0804000F0E1
:1017D0007FFC7020ADF804000120ADF80600022067
:1017E000ADF80C0001A92C4800F00EFB01A92A4815
:1017F00000F0C0FB01A9284800F016FC01A94FF039
:10180000804000F001FB01A94FF0804000F052FB46
:101810000821214800F044FB08211F4800F09CFBF0
:1018200008211D4800F0F6FB08211B4800F03AFC97
:101830000821C80600F034FB0821C80600F08CFB24
:101840000121154800F0BAFA0121880700F0B6FA24
:10185000FA201249088040F21630488040F2C12038
:10186000888040F2EE20C88008814FF4FA704881E9
:1018700001460A488181C1810182418209B030BD9F
:1018800000081A00000118000001300000023000BA
:10189000000C0140000801400004004098000020B6
:1018A00010B516480088154A5289104481B2144870
:1018B00000F005FC114842888089104481B210482C
:1018C00000F003FC0D488288C089104481B20C48A6
:1018D00000F0F9FB0948C288008A104481B24FF039
:1018E000804000F0ECFB05480289408A104481B238
:1018F0004FF0804000F0E5FB10BD00009800002094
:10190000000400407047000001460020034A506870
:1019100020F440400843506070470000001002402F
:1019200029B1064A52690243044B5A6104E0034A52
:1019300052698243014B5A61704700000010024017
:1019400029B1064AD2690243044BDA6104E0034A32
:10195000D2698243014BDA617047000000100240F7
:1019600029B1064A12690243044B1A6104E0034A92
:1019700012698243014B1A61704700000010024057
:1019800029B1064A92690243044B9A6104E0034A72
:1019900092698243014B9A61704700000010024037
:1019A00029B1064AD2680243044BDA6004E0034AD4
:1019B000D2688243014BDA60704700000010024099
:1019C00030B500210022002400232D4D6D6805F064
:1019D0000C0121B1042905D0082923D105E0294DA6
:1019E000056022E0274D05601FE0254D6D6805F478
:1019F0007012234D6D6805F48034022505EB924288
:101A00001CB9214D554305600BE01D4D6D6805F473
:101A100000351DB11C4D5543056002E0194D55437D
:101A2000056002E0174D056000BF00BF144D6D68F2
:101A300005F0F0010909154D6B5C0568DD40456056
:101A40000F4D6D6805F4E061090A104D6B5C456847
:101A5000DD4085600A4D6D6805F46051C90A0B4D83
:101A60006B5C4568DD40C560054D6D6805F440411F
:101A7000890B074D6B5CC568B5FBF3F5056130BD9F
:101A80000010024000127A0000093D0020000020F2
:101A900030000020704710B500F002F810BD0000C3
:101AA0000CB50020019000903348006840F480306D
:101AB0003149086000BF3048006800F400300090F1
:101AC0000198401C0190009818B90198B0F5A06FDA
:101AD000F1D12948006800F4003010B101200090D5
:101AE00001E0002000900098012843D123480068BD
:101AF00040F01000214908600846006820F003000B
:101B000008600846006840F0020008601A48406813
:101B1000194948600846406848600846406840F4F3
:101B2000806048600846406820F47C1048600846A1
:101B3000406840F4E81048600846006840F0807053
:101B4000086000BF0C48006800F000700028F9D061
:101B50000948406820F0030007494860084640688B
:101B600040F00200486000BF0348406800F00C00ED
:101B70000828F9D10CBD00000010024000200240EE
:101B800000B585B001210920FFF7FAFE01214805C3
:101B9000FFF7D6FE01210220FEF77CFF4FF44070D4
:101BA000ADF810001C208DF8130003208DF81200F2
:101BB00004A91448FEF7E2FE1348FFF74FF900208E
:101BC000ADF804004FF48060ADF80A000001ADF8F4
:101BD0000C00ADF806000D4800900120ADF808009B
:101BE00069460948FFF76EF901210748FFF729F90F
:101BF00001210548FFF75AF901210348FFF74AF987
:101C000005B000BD000C014000540040E09304000A
:101C1000042808D14FF0E021096941F004014FF098
:101C2000E022116107E04FF0E021096921F0040191
:101C30004FF0E022116170477047000010B5134863
:101C4000006840F0010011490860084640681049EA
:101C500008400E494860084600680E4908400B4994
:101C600008600846006820F4802008600846406844
:101C700020F4FE0048604FF41F008860FFF70BFF60
:101C80004FF000600449086010BD000000100240E1
:101C90000000FFF8FFFFF6FE08ED00E07FB5044608
:101CA0000D460121C802FFF76BFEADF80840681E23
:101CB00080B2ADF804000020ADF80A00ADF80600CF
:101CC0008DF80C0001A90F4800F002FA01210D481F
:101CD00000F06EF8012241210A4800F08CF819202A
:101CE0008DF8000000208DF801008DF80200012021
:101CF0008DF803006846FFF7FBF90121014800F069
:101D00005DF87FBD002C014010B5254801780078B2
:101D1000401C234A107014290CDD2248806D00F00D
:101D2000FE00204988651220C8650846806D40F095
:101D3000010088651C480078632803D100201A49F7
:101D4000087004E018480078401C174908701649CC
:101D5000087800EBD0714910A0EB410109B1FFF701
:101D60009FFD11480078052190FBF1F201FB120064
:101D700008B900F047FB0C480078192190FBF1F2FC
:101D800001FB120008B9FFF783FA0121074800F0B0
:101D900021F818B10121054800F00DF810BD000030
:101DA000340000200000024004000020002C01400C
:101DB000CA4302827047CA430282704721B1028837
:101DC00042F00102028004E002884FF6FE731A40DE
:101DD0000280704730B50246002000230024158A97
:101DE00005EA0103958905EA010413B10CB101204C
:101DF00000E0002030BD1AB183890B43838102E0EB
:101E000083898B438381704770B5002400220023AF
:101E1000058C4FF6FE7635400584028C8388048B52
:101E20004FF68F752C40B51E2C400D882C43751E27
:101E30002A400D892A434D882A43144DA8420BD0CD
:101E4000134DA84208D0134DA84205D0124DA84208
:101E500002D0124DA84213D14FF6F7752A404D8992
:101E60002A434FF6FB752A408D882A434FF6FF65BB
:101E70002B404FF6FF552B408D892B43CD892B43AB
:101E800083800483CD888586028470BD002C014048
:101E9000003401400040014000440140004801403E
:101EA0000A460021018B4FF6F77319401143018355
:101EB0007047000070B5002400220023058C4FF607
:101EC000EF7635400584028C8388048B48F6FF75D5
:101ED0002C404FF6FF452C400D884FF6FF7606EA62
:101EE00005252C434FF6DF752A400D8906EA0515B6
:101EF0002A434D8806EA05152A43154DA84202D00B
:101F0000144DA8421DD14FF67F752A404D894FF6DA
:101F1000FF7606EA05152A434FF6BF752A408D88DD
:101F200006EA05152A434FF6FF352B404FF2FF75A1
:101F30002B408D8906EA85052B43CD8906EA850568
:101F40002B4383800483CD880587028470BD000005
:101F5000002C0140003401400A460021018B4FF261
:101F6000FF7319404FF6FF7303EA022319430183FD
:101F70007047000070B5002400220023058C4FF646
:101F8000FF6635400584028C8388848B4FF68F75FD
:101F90002C404FF6FC752C400D882C434FF6FF5516
:101FA0002A400D894FF6FF7606EA05252A434D881B
:101FB00006EA05252A43154DA84202D0144DA84231
:101FC0001DD14FF2FF752A404D894FF6FF7606EA84
:101FD00005252A434FF6FF352A408D8806EA052558
:101FE0002A434EF6FF752B404DF6FF752B408D8929
:101FF00006EA05152B43CD8906EA05152B43838098
:102000008483CD888587028470BD0000002C014048
:10201000003401400A460021818B4FF6F7731940C6
:10202000114381837047000070B500220023002413
:10203000058C4EF6FF7635400584038C8488828BB0
:1020400048F6FF752A404FF6FF452A400D884FF6A7
:10205000FF7606EA05252A434DF6FF752B400D89CC
:1020600006EA05352B434D8806EA05352B430B4D13
:10207000A84202D00A4DA84208D14BF6FF752C4069
:102080008D894FF6FF7606EA85152C43848082837E
:10209000CD88A0F84050038470BD0000002C0140A2
:1020A000003401400A460021818B4FF2FF73194032
:1020B0004FF6FF7303EA0223194381837047818639
:1020C00070470187704781877047A0F840107047BC
:1020D000002202881D4B98420ED01D4B98420BD017
:1020E000B0F1804F08D01B4B984205D01A4B984254
:1020F00002D01A4B984204D14FF68F731A404B8886
:102100001A43174B984207D0164B984204D04FF60B
:10211000FF431A40CB881A4302808B8883850B8843
:1021200003850A4B98420BD0094B984208D00E4BBE
:10213000984205D00D4B984202D00D4B984201D1E8
:102140000B7A03860123838270470000002C014034
:10215000003401400004004000080040000C004032
:1021600000100040001400400040014000440140C5
:1021700000480140044800880348001D00880020F2
:102180000249087070470000003801403400002008
:1021900021B1828942F40052828104E082894DF6A5
:1021A000FF731A40828170471AB1838A0B4383827E
:1021B00002E0838A8B4383827047F0B50346002494
:1021C00000260025002040F66A17B94200D100BF62
:1021D0001846C1F3421401F01F06012707FA06F55D
:1021E000012C01D10C3004E0022C01D1103000E0B0
:1021F00014301AB107682F43076002E00768AF4345
:102200000760F0BD2DE9F04786B005460E46002474
:10221000A24600BFA1460027B08900B100BF2F46EB
:102220002C8A4CF6FF700440F08804432C82AC8961
:102230004EF6F3100440B088318908437189084391
:102240000443AC81AC8A4FF6FF400440B08904439C
:10225000AC8201A8FFF7B4FB1F48874202D1DDF82A
:1022600010A001E0DDF80CA0A88900F4004040B106
:102270000AEBCA0000EB0A1031684900B0FBF1F824
:1022800007E00AEBCA0000EB0A1031688900B0FBD6
:10229000F1F86420B8FBF0F004012009642101FB8F
:1022A0001089A88900F4004040B1322000EBC90039
:1022B000B0FBF1F000F00700044308E0322000EB2F
:1022C00009106421B0FBF1F000F00F0004432C81F1
:1022D00006B0BDE8F08700000038014000BFFEE70F
:1022E00000B58DB00F208DF8300003208DF831003F
:1022F00002208DF8320001208DF833000CA8FEF783
:10230000F7FE01210846FFF70BFB3348FEF752FAB0
:102310003248019032480290102003900A20049025
:1023200000200590802006900020079008900990DA
:102330004FF440500A9000200B9001A92648FEF768
:10234000FEFA4FF48050FEF70DFA00212248FEF706
:1023500025FA01210846FFF7E3FA1F481430FEF77B
:1023600029FA1E4801901F48029000200390122075
:10237000049000200590802006900020079008908F
:1023800009904FF440500A9000200B9001A9124888
:102390001430FEF7D4FA012202210F481430FEF760
:1023A000C5FA4FF40030FEF7DDF901210A48143078
:1023B000FEF7F4F900210948001FFFF7E9FE0122AA
:1023C000C0210648001FFFF7EFFE01210348001F50
:1023D000FFF7DEFE0DB000BD4400024004380140AE
:1023E000AC000020C800002010B54FF4964000F06B
:1023F0004FF8FFF775FF4FF0FF300149088110BD1E
:10240000AC000020002000211D4A11701D49897870
:1024100051701C49097A11711A49C989C1F1C80161
:10242000D1701849097D91701649897E51711649FC
:10243000096821B11146897941F0010103E0104991
:10244000897901F0FE010E4A917108E00C49097882
:102450000B4A125C11440A4A1170411CC8B20A2886
:10246000F4D30A49496C01F0FE01084A51640A217B
:1024700091641146496C41F00101516470470000BC
:10248000AC000020480000203081214200000240C2
:1024900010B586B00446012144F20100FFF770FA3E
:1024A00001210820FFF76CFA01210420FEF7F2FA5F
:1024B0004020ADF8140003208DF8160018208DF888
:1024C000170005A91B48FEF759FA8020ADF8140043
:1024D00028208DF8170005A91648FEF74FFA252089
:1024E0008DF8000002208DF801008DF80200012017
:1024F0008DF803006846FEF7FBFD01940020ADF85F
:102500000800ADF80A00ADF80C00ADF810000C2082
:10251000ADF80E0001A90848FFF774FE012240F251
:1025200025510548FFF749FE01210348FFF730FE1A
:1025300006B010BD000C01400038014010B56FF02E
:102540000400FFF765FB0A4800680A49B0FBF1F098
:10255000094908700846007800EB4001C1EBC01043
:102560004FF6FF7101EAC0000449088010BD000069
:102570000800002000127A001C0000201E0000202D
:102580000146114A12884A434FF0E0235A61002263
:102590009A611A46126942F001021A6100BF4FF0B7
:1025A000E022106900F001021AB100F48032002A22
:1025B000F5D04FF0E022126922F001024FF0E02343
:1025C0001A6100229A6170471E000020012080F3EA
:1025D000108800BF4FF4A060FEF7C2FDFFF7AEFF0A
:1025E000FEF7F6FCFFF7CCFA902142F21070FFF7ED
:1025F000A7F8FDF7F7FFFDF7D3FEFFF7F5FE4FF461
:102600007A714FF43470FFF749FB6420FFF7B8FF8D
:10261000FEF70EFDFEF7CEFD002080F3108800BF10
:1026200004E003480068401C01490860F9E7000025
:102630000000002010B50246012000E050430B1EB0
:10264000A1F10104E1B2F9D110BD000021F0004276
:10265000A2F16052B2F5801F01F0004328BFD2F111
:102660007F6C0BD95FEA001C43EAC20242EB507058
:1026700018BF704728BF20F001007047B2F5801FD7
:10268000BCBF184670474FEA410C1CF5001F02D230
:10269000084600F0AABB70B500F0B4F8000000894D
:1026A000FFF7F6BF4FF00040A0F580007047000034
:1026B000DFF848C170B51CEA111E1EBF1CEA1315D5
:1026C0009EEA0C0F95EA0C0F00F06F8081EA03047C
:1026D00023EA4C134EEAD47E21EA4C1141F48011D6
:1026E00043F48013AE44A1FB024CA0FB0365AEF1A2
:1026F0007F7E361955EB0C05A1FB034C4CF1000312
:10270000A0FB021C16EB0C06654153F100030942C5
:1027100018BF46F0010613F4007F0BD14FEA0331D6
:102720004FEA0530340341EA155140EA16506FF084
:1027300003020AE04FEAC3214FEAC520F40241EA4E
:10274000555140EA56506FF0020202EB2E4201EB67
:10275000025585EACE710AD05FEA440C18BF24F016
:10276000004450F1000041F1000120EAD47040F231
:10277000FE7C624500D270BDA84214BF4FF0804479
:102780004FF04044002E08BF0024BEF1806FA8BF68
:10279000A1F1C041BDE8704080F282804FF000009E
:1027A00001F1C04101F0004170479EEA0C0F0CEAB4
:1027B000131518BF95EA0C0F06D04FF0000081EA00
:1027C000030E0EF0004170BD00F01CF88900013EC0
:1027D00000F007B800F009B84FEA430C5FEA5C5C10
:1027E00008D081EA030100F05BB84FEA410C5FEAD0
:1027F0005C5CF6D14FF00000014970470000FF0714
:102800000000F87F0EF1020E2EF0030E5EF8046B4E
:10281000364205D4012A43EB030515F5001F12D8F3
:10282000012841EB010C1CF5001F0CD80ED14FEA1A
:10283000D17C15F5001F0CEB4C0C0CF1020C08BF01
:102840004CEBD37C04E04FF0080C01E04FEAD37C62
:102850000CEB4C0526FA05F606F00706B6F1040C5B
:1028600006D20EEB860CBDE870404CF0010C6047C0
:10287000DFE80CF0090B02024FF000414FF00000BE
:10288000A1F5002170BD19461046012851EB010445
:1028900018BFD4F5001484BF002001F0004170BDC2
:1028A0000808A0F500114FEA3101704743004FEAD4
:1028B000D30C4FEA3C0C43401FBF40070CF1605162
:1028C00013F0FE4F70471CF0006F03D100200CF096
:1028D000004170470CF0004343EA507010B540EAE5
:1028E000CC0000F03CFA00BF000000924FEA00016B
:1028F000FFF7D6BF4FF000414FF00000A1F50021D7
:102900007047000090EA010F48BF81F0004100F1DC
:102910007882421A3CBF801A89184FEAD0524FF091
:102920007F4C1CEA410FA2EBD15318BF9CEA026F07
:1029300000F03B804FF0004C4CEA00204CEA0121B3
:1029400021FA03FC10EB0C0C1ED202F1FF325FEAFD
:102950001C2040EBC25038BF70471CF07F0F4FEA7D
:10296000400C18BFBCF17F4F38BF7047C3F1200344
:10297000994008BF20F00100BCF17F4F38BF70477D
:10298000A0F1C04000F031BA4FEA3C00000A40EB31
:10299000C25028BF1CF0FF0F4FEA400CE6D018BF12
:1029A000BCF17F4F38BF7047EAE79CEA026F05D061
:1029B00010EA5C0F08BF00F00040704710B500F04F
:1029C000CEF900BF64FBBE3E401058BFC0F140408E
:1029D000491058BFC1F140418142EFF30080704778
:1029E0004FF47F0C1CEAD0121EBF1CEAD11392EAEE
:1029F0000C0F93EA0C0F00F0858090EA010F48BF9E
:102A000042F4807240F4000C41F400002CF07F414D
:102A100020F07F4000B58142A2EB03020FF2081CB8
:102A2000ACEB504EC0F100009EF800E04FEA4E0EB5
:102A300000FB0EFC38BF49004FEA2C1C02F5FA02DD
:102A40000CFB0EF34FEACE1E4FEA112C4FEAC121C8
:102A50000EEB635E42EB22420EFB0CFC4FEA1C5372
:102A600000FB03114FEA112C4FEA01310EFB0CFC65
:102A70004FEADC4C00FB0C11C14228BF09184CEB9B
:102A800003335DF804EB10EB410143EBC250B2F5A8
:102A90007C0F38BF704729D512F0F00F1CBF00F132
:102AA000C04000F0004070470081828384858687A3
:102AB00088898B8C8D8E8F919293959697999A9CFD
:102AC0009D9FA0A2A3A5A7A8AAACAEB0B2B3B5B76C
:102AD000B9BCBEC0C2C5C7C9CCCED1D4D7D9DCDF42
:102AE000E2E6E9ECF0F3F7FAFE0000004FEA400CF2
:102AF0000CF1807CBCF17E4F28BF7047B0F1C04024
:102B000000F073B990EA010F0CEAD11348BF42F408
:102B10008072624538BF634507D213F47F0F16D029
:102B200080EA010000F00040704710B500F017F98E
:102B3000097EFC3E00F005B880EA010000F000408C
:102B4000704780EA010000F0004000F04EB912F436
:102B50007F0F04BF0248704780EA010000F045B9CA
:102B60000000C07F41000B0ED3F19E0208D950F443
:102B700000034FEA032323FA02F048BF40427047A4
:102B800010B500F0ECF800BF499224800020704797
:102B90006FF0004282EA20007047000010F0004110
:102BA00048BF4042B0FA80F310FA03F2C3F19D032C
:102BB0000BD051EAC35101EB1220530638BF7047C6
:102BC00000F1010008BF20F001007047B0FA80F367
:102BD00010FA03F2C3F19D030AD0D90501EB1220CC
:102BE000530638BF704700F1010008BF20F0010014
:102BF0007047000050EA010C00F113801CF5000F33
:102C000058BFBCF5000F01D48842704707D710F5B4
:102C1000000F58BF11F5000F15D488427047894244
:102C200070471CF5000F04D5BCF5000FF7D58142A5
:102C300070474FF0807C1CEB400F38BF1CEB410FFE
:102C400001D28142704710B500F089F89224490002
:102C50004FF000504FF08051FFF7B6BE4FF47F0C9D
:102C60001CEAD0121EBF1CEAD11392EA0C0F93EAA1
:102C70000C0F00F0478090EA010F48BF42F48072C9
:102C80004FF0004C4CEA00204CEA012102EB030219
:102C9000A0FB0113A2F50002002918BF43F00103B5
:102CA0005B0028BF4FEA330342EB22425FEA132C5A
:102CB0004CEBC2502EBFBCEB436FB2F57C0F70479C
:102CC0004FEA036CBCF1004F08BF20F00100B2F5E1
:102CD0007C0F38BF70470BD582F0FF0212F5803FA2
:102CE000C8BF704700F1C040D8BF00F00040704737
:102CF00000F5000C5FEA4C0C48BF7047B0F1C040D3
:102D000000F073B890EA010F0CEAD11348BF42F407
:102D10008072624538BF634504D280EA010000F04A
:102D20000040704710B500F01AF800BF8900013E5E
:102D300000F007B800F009B85FEA410C5FEA1C6CCC
:102D400008D080EA010000F050B85FEA400C5FEA6A
:102D50001C6CF6D14FF00040A0F5800070470EF1DA
:102D6000020E2EF0030E5EF8044B244204D44FEA08
:102D70004102B2F17F4F11D84FEA4003B3F17F4FC8
:102D80000CD80ED14FEAD07CB2F17F4F0CEB4C0C3B
:102D90000CF1020C08BF4CEBD17C04E04FF0080CA6
:102DA00001E04FEAD17C0CEB4C0324FA03F404F06D
:102DB0000704B4F1040C06D20EEB840CBDE81040FD
:102DC0004CF0010C6047DFE80CF0070802024FF0FE
:102DD0000040A0F5800010BD0846420018BFD2F1A7
:102DE000807288BF00F0004010BDFF2141EAD05042
:102DF000C005704790EA010F48BF81F000413FF5E0
:102E000088AD421A04D882F00042A0EB02001144BF
:102E10004FEAD0524FF07F4C1CEA410FA2EBD15346
:102E200018BF9CEA026F4AD04FF0004C4CEA0020D9
:102E30004CEA012121FA03FCB0EB0C0C0FD412F088
:102E4000FE0F36D05FEA4C001DD5001240EBC25099
:102E500038BF70471CF03F0F18BF70470BE0A2F15E
:102E600001025FEA1C2040EBC25038BF70471CF0E3
:102E70007F0F18BF7047C3F12003994014BF401E55
:102E800020F00100704780084FEA122308BF704706
:102E9000B0FA80FCA2EB0C02CCF1280C60FA0CF02A
:102EA00093EA122F04BF00EBC25070474FEAC37081
:102EB0007047130A5FEADC1008BF7047F6E79CEA28
:102EC000026F04D010EA5C0F08BF0020704710B5F5
:102ED000FFF745FF40DFF63E81F0004070470000FD
:102EE000000000000000002F0000000007000700A5
:102EF00000147F147F1400242A7F2A1200626408C1
:102F0000132300364955225000000503000000003D
:102F10001C224100000041221C000014083E08143D
:102F20000008083E0808000000A06000000808082B
:102F30000808000060600000002010080402003E45
:102F40005149453E0000427F4000004261514946E0
:102F5000002141454B31001814127F1000274545D0
:102F60004539003C4A4949300001710905030036E2
:102F70004949493600064949291E000036360000F5
:102F800000005636000000081422410000141414FA
:102F900014140000412214080002015109060032F5
:102FA0004959513E007C1211127C007F4949493633
:102FB000003E41414122007F4141221C007F49499E
:102FC0004941007F09090901003E4149497A007FD2
:102FD0000808087F0000417F4100002040413F0178
:102FE000007F08142241007F40404040007F020CD7
:102FF000027F007F0408107F003E4141413E007F78
:1030000009090906003E4151215E007F0919294640
:103010000046494949310001017F0101003F40401C
:10302000403F001F2040201F003F4038403F0063CA
:1030300014081463000708700807006151494543EC
:1030400000007F41410000552A552A5500004141AA
:103050007F000004020102040040404040400000A4
:1030600001020400002054545478007F484444383E
:1030700000384444442000384444487F00385454C5
:10308000541800087E0901020018A4A4A47C007F43
:10309000080404780000447D4000004080847D00E6
:1030A000007F102844000000417F4000007C04188D
:1030B0000478007C0804047800384444443800FC58
:1030C000242424180018242418FC007C0804040874
:1030D00000485454542000043F444020003C4040E9
:1030E000207C001C2040201C003C4030403C004420
:1030F00028102844001CA0A0A07C004464544C4428
:103100001414141414140000000000000000000047
:10311000000000000000000000F8000000000000B7
:1031200000333000000000100C06100C06000000F8
:1031300000000000000040C07840C0784000043F1C
:1031400004043F040400007088FC083000000018EC
:1031500020FF211E0000F008F000E0180000002110
:103160001C031E211E0000F00888700000001E21B4
:1031700023241927211010160E0000000000000063
:10318000000000000000000000E018040200000041
:1031900000071820400000020418E0000000004072
:1031A000201807000000404080F0804040000202EC
:1031B000010F01020200000000F000000000010108
:1031C000011F01010100000000000000000080B0AC
:1031D000700000000000000000000000000000017E
:1031E00001010101010100000000000000000030A9
:1031F0003000000000000000000080601804006043
:1032000018060100000000E010080810E000000FA0
:10321000102020100F00001010F800000000002007
:10322000203F20200000007008080888700000304F
:1032300028242221300000300888884830000018F7
:10324000202020110E000000C02010F80000000710
:103250000424243F240000F8088888080800001986
:10326000212020110E0000E0108888180000000FB7
:10327000112020110E0000380808C838080000008E
:10328000003F000000000070880808887000001CE3
:10329000222121221C0000E010080810E00000009C
:1032A000312222110F00000000C0C0000000000009
:1032B000003030000000000000800000000000002E
:1032C0008060000000000000804020100800000125
:1032D00002040810200040404040404040000404E8
:1032E00004040404040000081020408000000020B2
:1032F000100804020100007048080808F0000000EF
:10330000003036010000C030C828E810E00007187F
:10331000272423140B000000C038E0000000203CEC
:1033200023020227382008F8888888700000203F90
:10333000202020110E00C0300808080838000718A7
:1033400020202010080008F808080810E000203F9E
:10335000202020100F0008F88888E8081000203F7F
:1033600020202320180008F88888E8081000203F53
:10337000200003000000C0300808083800000718CB
:103380002020221E020008F808000008F808203F4C
:10339000210101213F20000808F808080000002052
:1033A000203F2020000000000808F8080800C08026
:1033B00080807F00000008F888C028180800203F9F
:1033C00020012638200008F8080000000000203FF7
:1033D00020202020300008F8F800F8F80800203FEE
:1033E000003F003F200008F830C00008F808203FE8
:1033F000200007183F00E01008080810E0000F1038
:10340000202020100F0008F808080808F000203FCE
:10341000210101010000E01008080810E0000F1869
:10342000242438504F0008F8888888887000203F8E
:103430002000030C3020007088080808380000388D
:10344000202121221C00180808F808081800000094
:10345000203F2000000008F808000008F808001FBE
:10346000202020201F000878880000C838080000AD
:1034700007380E010000F80800F80008F800033CC7
:103480000700073C0300081868808068180820308F
:103490002C03032C30200838C800C838080000006E
:1034A000203F2000000010080808C8380800203815
:1034B000262120201800000000FE02020200000069
:1034C000007F40404000000C30C0000000000000C1
:1034D00000010638C00000020202FE0000000040A9
:1034E00040407F00000000000402020204000000CF
:1034F00000000000000000000000000000008080CC
:1035000080808080808000020204000000000000B3
:103510000000000000000000808080800000001992
:10352000242222223F2008F8008080000000003F73
:10353000112020110E000000008080800000000E8D
:10354000112020201100000000808088F800000E6B
:10355000112020103F200000808080800000001F8C
:10356000222222221300008080F088888818002000
:10357000203F202000000000808080808000006BC1
:1035800094949493600008F8008080800000203FAD
:10359000210000203F2000809898000000000020BB
:1035A000203F20200000000000809898000000C00C
:1035B0008080807F000008F8000080808000203F2D
:1035C00024022D302000000808F800000000002030
:1035D000203F202000008080808080808000203F6D
:1035E00020003F20003F8080008080800000203F3E
:1035F000210000203F200000808080800000001F0C
:10360000202020201F00808000808000000080FF9C
:10361000A12020110E000000008080808000000E9C
:10362000112020A0FF8080808000808080002020EA
:103630003F21200001000000808080808000003356
:10364000242424241900008080E0808000000000F1
:10365000001F202000008080000000808000001FEC
:10366000202020103F20808080000080808000018A
:103670000E300806010080800080008080800F30BE
:103680000C030C300F000080800080808000002040
:10369000312E0E312000808080000080808080816B
:1036A0008E701806010000808080808080000021DC
:1036B000302C2221300000000000807C020200003B
:1036C0000000003F404000000000FF00000000003C
:1036D0000000FF0000000002027C800000000040AB
:1036E000403F000000000006010102020404000047
:1036F0000000000000000000183700080000002053
:10370000380000006C010008503700083800002025
:103710008807000088010008000000000000000089
:1037200000A24A040000000000000000010203049F
:103730000607080900000000000000000102030461
:10374000010203040607080902040608000000003D
:04000005080001CD21
:00000001FF
